:020000040800F2
:1000000000200020DD490008D5480008DF4800082E
:1000100000000000000000000000000000000000E0
:10002000000000000000000000000000E54800089B
:100030000000000000000000EF480008F948000838
:100040002D4A00082D4A00082D4A00082D4A0008B4
:100050002D4A00082D4A00082D4A00082D4A0008A4
:100060002D4A00082D4A00082D4A00082D4A000894
:100070002D4A00082D4A0008000000002D4A000803
:10008000000000002D4A00080000000000000000F1
:100090002D4A0008000000002D4A00082D4A0008E3
:1000A0002D4A00082D4A00082D4A00082D4A000854
:1000B0002D4A00082D4A0008000000002D4A0008C3
:1000C00010B5064C2378002B07D1054B002B02D02E
:1000D000044800E000BF0123237010BD8800002009
:1000E0000000000068530008044B10B5002B03D03B
:1000F0000349044800E000BF10BDC04600000000F6
:100100008C000020685300080023C25C0133002AE1
:10011000FBD1581E7047000003B4714649084000E7
:100120004900095E49008E4403BC70470022430821
:100130008B4274D303098B425FD3030A8B4244D3AF
:10014000030B8B4228D3030C8B420DD3FF220902F1
:1001500012BA030C8B4202D31212090265D0030BB0
:100160008B4219D300E0090AC30B8B4201D3CB03A6
:10017000C01A5241830B8B4201D38B03C01A5241E8
:10018000430B8B4201D34B03C01A5241030B8B42EA
:1001900001D30B03C01A5241C30A8B4201D3CB02D5
:1001A000C01A5241830A8B4201D38B02C01A5241BA
:1001B000430A8B4201D34B02C01A5241030A8B42BD
:1001C00001D30B02C01A5241CDD2C3098B4201D3D5
:1001D000CB01C01A524183098B4201D38B01C01A53
:1001E000524143098B4201D34B01C01A52410309CA
:1001F0008B4201D30B01C01A5241C3088B4201D379
:10020000CB00C01A524183088B4201D38B00C01A25
:10021000524143088B4201D34B00C01A5241411A4C
:1002200000D20146524110467047FFE701B5002059
:1002300000F006F802BDC0460029F7D076E7704707
:100240007047C04670B500220C4B04000D0001F051
:1002500075FA002804D12000290001F0D5F970BDFD
:10026000064B00222000290000F03CFE01F0CCF9F2
:1002700080231B069C466044F1E7C0460000E04135
:10028000F0B54F464646D6460D000400C0B51F00E7
:1002900011002803620F400A10437A00520DE30058
:1002A0003C039146640AFA0F4F0F6E0027439246B3
:1002B000B846760DED0FC900954200D199E04C4645
:1002C000341BA446002C00DC7CE04A46002A00D106
:1002D000B8E0C54A964200D11CE180223C001204DD
:1002E0001443A0466246382A00DD61E11F2A00DD82
:1002F000CCE164462022121B444694400F00A146E4
:1003000064469140E7404C464A1E91413C43424678
:1003100021436446E240801A5C1AA3429B415F423B
:10032000C71B3B0200D4D0E07F027F0A002F00D120
:10033000FFE0380001F00CFA010008392023220008
:100340005B1A8F40DA408C401743B14200DAFFE07D
:10035000891B4B1C1F2B00DDA8E020223900D21A7C
:10036000200094409140D840621E9441DF40002616
:1003700001430C43630709D00F232340042B05D00E
:10038000231DA342A44164423F191C003B0200D438
:100390009EE0954B01369E4200D1B7E0934AE408B7
:1003A00017407B0771057F0223433F0B4A0D12055F
:1003B0003A43ED072A4318001100E0BCBA46B146A3
:1003C000A846F0BD002C4BD04C46A41BA446002EE2
:1003D00000D023E104001C4300D1AFE16246541E6B
:1003E000012A00D115E2804DAC4500D1C8E1A446F8
:1003F0001BE14A46B21A9446002A00DCACE04A46A9
:10040000002A43D0784A964200D1AFE180223C00D6
:1004100012041443A0466246382A67DC1F2A00DC17
:100420005FE14746203AD7406246202A05D064461D
:100430004022121B4446944021434A1E91410C0025
:100440003C4357E03A000A4300D105E12200013A5B
:10045000012C00D182E1644CA4455BD0944641E775
:10046000634C771C274200D0C4E004001C43002EDC
:1004700000D069E1002C00D1BFE144460C4300D01C
:10048000D0E14207DB081343C00829E03A000A43E1
:1004900000D170E162466446013A012C00D1E0E0EF
:1004A000514CA44500D161E19446B4E73A001F39AC
:1004B000CA401100202B03D04022D31A9F403C4356
:1004C000631E9C41002700260C43630700D053E7BE
:1004D000B446E4087B072343F808434A94451DD0FB
:1004E0006246070352053F0B520D60E744460C433A
:1004F000621E9441E4189C429B415F423F183B02BC
:10050000E3D5394B01369E4200D0B5E032000027DA
:1005100000234CE74207DB081343C0081A000243DC
:1005200000D1E1E180273F0307433F032E4A3F0B01
:100530003DE7200001F00CF9010018311F2900DC13
:10054000FCE60838844027000024B14200DBFFE6C7
:10055000264A761A17400DE7002A2FD04A46921BEA
:100560009446002E00D1ADE01F4A914500D10FE125
:100570008022120410436246382A00DD0FE11F2A50
:1005800000DD80E1644620221E00121B6746040045
:1005900093409440FE405A1E9341F84034431C431C
:1005A000804464188C42BF417F424E464744A6E7D0
:1005B00042460A4311004A1E9141ADE60C4C721CA2
:1005C000224200D0A1E002001A43002E00D0FAE03F
:1005D000002A00D145E13A000A4300D046E1420733
:1005E000DB081343C0087BE7FF070000FFFF7FFF26
:1005F000FE07000047465C1AC21BA342BF417F4270
:10060000B94617004A46BF1A3A0200D58DE02300CA
:100610003B4300D08AE60020002561E7B44CA145A9
:1006200000D1ADE08024240420436446382C3DDC16
:1006300062461F2C00DDB7E020251E002D1B0400A4
:10064000AB40AC40D640D04042465D1EAB41344347
:10065000121A904623432CE04207DB081343C008DC
:100660003BE75C189C429B4140445B42C718012613
:100670003B0200D429E702269E4A63081740012264
:1006800014401C43FB071C437F0873E64446203A92
:10069000D4406246202A05D067464022D21B4746F6
:1006A000974039434A1E9141214335E60343581E82
:1006B0008341CC1AA142BF4143467F4255464E4634
:1006C000DF1B2EE602001A4300D1BDE062466446FD
:1006D000013A012C00D1E5E0854CA44558D0944660
:1006E00049E764462022121B444694400F00A1466D
:1006F00064469140E7404C464A1E91413C43424685
:100700000C436146CA408018F4E6794CA24200D1FD
:10071000FDE6591899429B4140445F42C719FC07C6
:10072000490816000C437F08CFE6CC1AA142BF410E
:1007300043467F42181A5546C71BF7E5C9087B0791
:1007400055460B43F808C8E6002C00D081E043462C
:100750000B4315D1802000250003E3E65C1AA34279
:100760009B41C71B5B420126FF1ADAE54207DB0803
:100770001343C008D2E64207DB081343C008ACE6C7
:1007800043464246C9085B0755460B43D008C5E6B9
:10079000434642465B07C9080B43D008BEE6034305
:1007A0001C00631E9C41FCE60200203CE240140059
:1007B0006246202A03D04025AD1AA8400343581EA4
:1007C0008341234375E7002AE2D03A000A43CDD0A3
:1007D0004207DB0813438022C0081203104206D0F0
:1007E000FC08144203D12000CB087A0713435A0FA8
:1007F000DB005207DB08134390E643460B4300D16E
:1008000009E743464246C9085B0755460B43D008F3
:1008100066E6CC1AA14289413F1A49425546012653
:100820007F1A7EE542465C1A871AA34292415242E1
:10083000BF1A3A023DD5CC1AA142894143464942EA
:100840001F1A55467F1A95E57B07C9080B43F80820
:1008500043E64446DB080C4330D142071343C0084B
:100860005CE67B07C9080B43F80839E65C189C4234
:100870009B4140445B42C7183B0200D425E61D4B18
:1008800001261F4021E60400203AD4406246202A77
:1008900004D040226646921B904003435A1E934167
:1008A0001C437EE65C188C4289414044494247180B
:1008B000DDE623003B4300D1ADE606E644072343D3
:1008C0008024C0082403204208D04246D60826428D
:1008D00004D155463000CB0851070B435A0FDB00BB
:1008E000DB085207134319E60023014A1F005EE5A7
:1008F000FF070000FFFF7FFFF0B557464E46454615
:10090000DE46E0B5814605000C03480092461F0014
:1009100085B0240B400DCE0F002800D156E1D44BFA
:10092000984200D172E16B0FE4001C4380231B044A
:1009300023439846CF4BED009B46002399468344C2
:1009400000933C037B005046240B5B0DFF0F002BF4
:1009500000D11FE1C64A934200D162E1C549420F6E
:100960008C46E40059461443802263441204CB1A97
:1009700014439B46C200002033007B409A464B46FE
:100980000F2B27D8BC499B00CB589F46B246009BF3
:10099000022B16D0032B00D18EE2012B00D0D9E020
:1009A00000230024002552461B052343D20713438E
:1009B0002800190005B0F0BCBB46B246A946A046C7
:1009C000F0BD00240025AA4BEDE7BA46A04615006D
:1009D0000090DCE7444500D2C7E100D1C2E1012329
:1009E0005B429C462E0040460025E3442302140E41
:1009F0001C431B0C994623041F0C1202494600920B
:100A00000197FFF719FC02007A430B04310C804672
:100A100019438A4207D901235B429C460919E044E5
:100A20008C4200D807E2881A4946FFF705FC090402
:100A30008C4631046646019A090C42430300314357
:100A40008A4204D90919013B8C4200D8EDE1881A89
:100A5000424612041A4390464146009B0E041B0C6A
:100A60001F000293009B360C1B04190C0B007343F0
:100A7000120C7E43039151437A431F0CBC467618F7
:100A80006644B14203D9802149028C466244310C4C
:100A90008A1831041E04360C8E19904202D312D1EA
:100AA000B54210D24346591E009B9C4665441F0028
:100AB0009D429B415B421B19C018844200D2A0E1B9
:100AC00000D19BE18846AE1BB542AD41801A6D4214
:100AD000401B844200D1D5E14946FFF7ADFB019AA6
:100AE0000B044243310C050019438A4200D96CE1E2
:100AF000881A4946FFF7A0FB019A360442430904CD
:100B0000360C03000E43B24200D953E10398B61AE3
:100B100002002D041D43029F2B041B0C5A437B43F0
:100B20009C46290C4843130C8444634479439842FF
:100B300003D98020400284466144180C12041B042F
:100B4000120C41189B188E4200D2FFE000D1FAE04F
:100B500001231D43494A5A44002A00DCAAE06B07DE
:100B600000D03DE1ED084346DB0106D54246444B4B
:100B70001A4090468022D2005A44424B9A4200DDED
:100B80001FE743465B071D43434652055C02240BA7
:100B9000530D08E75246224300D17BE0002C00D1E0
:100BA000FAE0200000F0D4FD02000B3A1D23010002
:100BB0009B1A52460839DA408C40144352468A4008
:100BC000314B58449B4683440020D5E64B46234393
:100BD000984644D0002C00D1CEE0200000F0B8FDB3
:100BE000010002000B391D235B1A49461000D94051
:100BF000083884400B004D462343984685402348DF
:100C0000831A9B460023994600939AE64B4623435A
:100C100098461DD108239946063B0025834600933C
:100C20008FE65246224309D1022349461943184B05
:100C300089469C4600240220E3449DE603234A465D
:100C40001A43134B91469C4652460320E34493E6D5
:100C50000C239946093BA0468346009371E6042382
:100C6000994600239B4601330025009369E6C04660
:100C7000FF07000001FCFFFF20540008FF030000F5
:100C8000FFFFFFFEFE070000F30300000DFCFFFF67
:100C900001F8FFFF4946012319438946002401203A
:100CA0006AE6002380249A4600258A4B24037AE6CC
:100CB00001256D4201239B1A382B00DD70E61F2BA6
:100CC00000DCBFE01F2149428A1A4146D1400A0098
:100CD000202B04D04146804B5B4499400D436B1E52
:100CE0009D4107232A431D0000241540134200D1D3
:100CF000D4E00F2100231140042900D1CBE0111DC5
:100D00009142924152429B180A00190200D4C2E05B
:100D100001230024002546E6802341461B03194297
:100D200008D01C4206D11C432403BA461500694B67
:100D3000240B38E68024434624031C432403B24694
:100D4000644B240B2FE6002B00D103E7A619681E85
:100D5000A64200D28DE08E4200D2A3E000D1B3E0E3
:100D60000500F5E6AA4200D939E64346DE075808F1
:100D70006B081E43ED0739E6484600F0E9FC010028
:100D80000200153120321C2900DC2CE74B460838C4
:100D900083400025984632E700F0DAFC03001A0091
:100DA000153220301C2A00DC00E75446083B0022A4
:100DB0009C4005E73619013BB44200D9A6E6B24291
:100DC00000D8A3E6831E3619A0E60919013D8C421E
:100DD00000D98DE68A4200D88AE6851E091987E681
:100DE0000F232B40042B00D1BCE605235B42AB4212
:100DF0009B4104355B42ED089844B4E6AF4200D90C
:100E000060E6824204D800D05CE6AE4200D859E6E3
:100E100002235B429C46009BE0449C4665449D4205
:100E20009B415B421B19C0184DE68A4200D80EE672
:100E3000831E09190BE68A4200D8F4E5831E984602
:100E40000919F0E52549280059448D4042468A4059
:100E5000691E8D414146D840D94002432A430B00C8
:100E6000510700D151E70F211140042900D046E776
:100E70004BE705008E4200D06AE6009A934200D00C
:100E800066E667E6164A5A44002A00DC10E70123AA
:100E90000025984467E65D075B021C0BD20800231F
:100EA000154380E50098023D42008242BF417F42E7
:100EB0003C1936190092DDE78024434624031C4385
:100EC0002403044B240B6EE5009A9A42EAD30500F2
:100ED000D3E7C046FF0700003E0400001E040000E8
:100EE000FF030000F8B557464E464546DE46E0B5DE
:100EF0001E0017004A000B03520D5B0A9046420F7A
:100F00001A43CD0FCD4C3103C300944670007A0FC5
:100F1000490AFF009A46B946400DF60F1143A04218
:100F200000D1B1E001225640B346B54200D188E07D
:100F30004246121A002A00DCAEE0002800D1C1E0CF
:100F4000BE48804500D151E1802000040143382A89
:100F500000DD7BE11F2A00DDEEE120203E00801A4B
:100F60000C00D640D140874062468440521A781E19
:100F70008741944634432743DC1BA3429B4162468E
:100F80005B42D31A99464B461B0200D418E14B46EC
:100F90005802430A99464B46002B00D137E1484698
:100FA00000F0D6FB010008392023220048465B1AD6
:100FB000DA4088408C4043461043884500DD36E1E6
:100FC000C91A4B1C1F2B00DDEAE020222600D21A92
:100FD00001009440DE40D84000239140621E9441BD
:100FE0008146984631430C43630709D00F232340C1
:100FF000042B05D0231DA342A4416442A1441C003C
:101000004B461B0200D4DEE041468C4B0131994235
:1010100000D1E7E04B468A48E40803401800490540
:101020005B07400223434A0D040B1205ED072243E0
:101030002A4318001100F0BCBB46B246A946A046A0
:10104000F8BD4246121A002A52DD002800D19CE069
:10105000A04500D1CAE0802000040143382A00DD09
:1010600049E11F2A00DC97E110000E002038C6403D
:10107000202A04D04020821A91400F43B9464C46A2
:10108000621E944134433AE10A003A4328D0B34601
:10109000B5422BD06B4A4244002A5DD042464446BA
:1010A000821A002C00D0F5E065461D4300D19CE17A
:1010B000551E012A00D1FBE1604CA24200D1BDE1E6
:1010C0002A00F0E00800384300D1C3E0501E012A96
:1010D00000D1A8E1594CA24200D187E0020036E7D6
:1010E00001225640B346B54200D021E7554A42445A
:1010F000002A00D1B5E042464446821A002C00D1B5
:1011000038E14E4EB04200D1DEE18026644636041E
:101110003443A446382A00DD96E11F2A00DD24E28C
:101120002026B41AA24664465646B440A1461C0086
:101130004E46D440264334005646B3405E1EB3416B
:101140001C436346D340C918E419BC42BF417F42E7
:10115000B94680468944D8E040463B4C01302042A5
:1011600000D0B4E04046002800D044E16046184377
:1011700000D190E10800384300D0AAE16146DB08C5
:1011800049070B436146CC0827E00800384361D08B
:10119000501E012A00D139E1A24227D002005DE7AA
:1011A00002001F39CA401100202B03D04022D31A5D
:1011B00098400443631E9C410023994698460C4383
:1011C000630700D012E74B464A46E4085B07234317
:1011D000D408424619498A420ED024035205240BF2
:1011E000520D22E70A00002400231EE7DB086246B6
:1011F000520713436246D4081A00224300D1FCE18F
:1012000080221203144324030C4A240B0DE7200010
:1012100000F09EFA010018311F2900DCC4E60838EE
:101220008440434620000024884500DCC8E6044A88
:101230005B1A104098468146D6E6C046FF0700007C
:10124000FFFF7FFF01F8FFFFFE0700000F437A1E3C
:10125000974191E66146DB0849070B436146CC089C
:10126000B8E74046D34C0130204200D0A2E04046CF
:10127000002800D001E16046184300D15EE108007B
:10128000384300D05FE16146DB0849070B43614604
:10129000CC08A2E7C84DA84200D1CFE08025644623
:1012A0002D042C43A446382A56DC1F2A00DDD1E049
:1012B00020251E00AD1A6446AB40AC40D6405D1EF2
:1012C000AB41344323436446D440091B49E06046A4
:1012D000DC1B461AA34280414042814630004E4604
:1012E000801B8146000276D44B46234300D052E651
:1012F0000024002571E739430C00621E9441E41874
:101300009C429B415B42634499464B461B0200D47E
:1013100056E701239C46A84BE044984538D04B46FD
:10132000A648012203401800630814401C43C30769
:101330001C434308994657E610000E002038C6406B
:10134000202A04D04020821A91400F43B9464F46CC
:101350007A1E974137430FE662461A4313005A1E1E
:101360009341FC1AA742BF417F42CB1B99465D4681
:10137000804608E666461E4300D1BEE0561E012A9E
:1013800000D109E18C4CA24200D119E13200C1E642
:1013900042460024002348E620200C00801A3E002C
:1013A00087408440D640781E8741D14034433C4337
:1013B0008C44A4E7804A904200D1E9E0DF199F42C3
:1013C0009B4161445B42C918CC077F084B08994692
:1013D00080463C43F4E6FC1AA742BF4163467F4285
:1013E000C91ACB1B99465D46D5E5FF084B075D46FC
:1013F0003B43CC08EEE662461A4300D082E00B0085
:101400003B431BD1802400252403F9E6DC199C42D0
:101410009B41614489465B4299444B461B0244D43C
:1014200001239846CCE6DC1B6246A3429B41511A3D
:101430005B42CB1A994601239846A4E5FF084B0767
:101440005D463B43CC08D7E662461A431400631E50
:101450009C4179E615006446203DEC40A046202AD8
:1014600005D040256446AA1A944023439A46544620
:10147000631E9C414346234373E762461A4323D0CD
:101480000A003A4300D0A0E06246DB08520713434B
:101490006246D408B0E60B003B4300D128E7FF08C2
:1014A0004B075D463B43CC0897E60223984636E758
:1014B000FC1AA742BF4163467F42C91ACB1B99461B
:1014C00001235D4698465EE54B07FF083B43CC0889
:1014D00092E6DC1B6046A342B641401A7642801B6E
:1014E0008146000260D5FC1AA742BF4163467F4295
:1014F000C91ACB1B99465D4676E5FF084B073B436F
:10150000CC0867E60A00DB083A4300D16FE6624682
:10151000520713436246D40880221203144207D0B4
:10152000C808104204D15D460400FB0849070B437C
:101530005A0FDB00DB08520713435DE64B07FF0839
:101540003B43CC0849E6DC199C429B4161448946F7
:101550005B4299444B461B0200D431E64A46174B86
:101560001A400123914698462AE616006446203E1A
:10157000F440A046202A05D040266446B21A944082
:1015800023439A465446631E9C4143461C43DBE575
:1015900002000024002348E5DC19BC42BF4161443D
:1015A00089467F42B94438E74B46234300D19FE642
:1015B00006E6C046FE070000FF070000FFFF7FFFB2
:1015C000FF084B073B43CC0816E66246DB08520790
:1015D00013436246D40880221203144207D0C8087D
:1015E000104204D15D460400FB0849070B435A0F23
:1015F000DB005207DB081343FEE50023014A1C0011
:1016000013E5C046FF0700000A0030B5134C530035
:1016100009030500090B00205B0DD20FA34204DD76
:101620000F48834202DD0F4BD01830BD80204003AD
:1016300001430D48C01A1F2808DD0C48C31AD940C1
:101640000B005842002AF0D11800EEE7084CC540C4
:10165000A446634499400B002B43F2E7FE030000CD
:101660001D040000FFFFFF7F33040000130400008F
:10167000EDFBFFFF70B5002816D0C317C5185D40FD
:10168000C40F280000F064F8114A121A0A2816DC68
:1016900003002E0015339E400B23181AC540520537
:1016A0002D032D0B530D03E00024002300250026FD
:1016B0001B052B43E40723433000190070BD0B3892
:1016C000854052052D0300262D0B530DF0E7C04633
:1016D0001E0400008446100062468C4619006346D2
:1016E00000E0C0461FB500F0F9F8002801D4002141
:1016F000C8421FBD10B500F049F84042013010BD8E
:1017000010B500F0EBF8002801DB002010BD01202F
:1017100010BDC04610B500F0E1F8002801DD002042
:1017200010BD012010BDC04610B500F071F80028B2
:1017300001DC002010BD012010BDC04610B500F036
:1017400067F8002801DA002010BD012010BDC04656
:101750001C2101231B04984201D3000C10391B0AE1
:10176000984201D3000A08391B09984201D30009A5
:10177000043902A2105C40187047C04604030202FC
:10178000010101010000000000000000F0B54E461C
:101790004546DE4657469046E0B517001A03120B41
:1017A0000500844619480E034C0091465A00DB0F91
:1017B0009B46360B640DC90F520D844219D08242EC
:1017C00010D0012094420ED14E450CD10120C445C9
:1017D00009D1594517D0002C05D130002843431EAC
:1017E000984100E00120F0BCBB46B246A946A046A5
:1017F000F0BD330001202B43F5D1A242F3D14B467B
:101800003B43F0D1E2E70020EDE7C046FF070000D0
:10181000F0B54746CE460400180016001B031B0B0C
:101820002D4D4A00994680B543000F03A446B046AB
:101830003F0B520DC90F5B0DC00FAA4221D0AB4226
:1018400013D0002A22D13C43002B02D14D462E4317
:1018500022D0002C10D0814222D002200139084031
:101860000138C0BCB946B046F0BD4D462E4329D123
:10187000002AF0D13C43EED10028F2D101204042B1
:10188000EFE73D0025431DD19342EED0002BE2D17E
:101890004C462643DFD1E0E70020002CE1D0DCE716
:1018A0009A420ADCE8DB4F45D7D80ED000204F45DE
:1018B000D7D20029E2D00800D3E743425841400084
:1018C0000138CEE702204042CBE7C445C5D800200E
:1018D000C445C6D2EDE7C046FF070000F0B5474655
:1018E000CE460400180016001B031B0B2C4D4A00AB
:1018F000994680B543000F03A446B0463F0B520DF6
:10190000C90F5B0DC00FAA420DD0AB4210D0002A08
:1019100027D13C43002B11D14D462E430ED1002040
:10192000002C15D00EE03D00254310D1934218D174
:101930004D462E430BD1002A02D13C43002C0BD044
:10194000814214D0022001390840013800E0022011
:10195000C0BCB946B046F0BD0028F9D101204042D4
:10196000F6E7002BECD14C462643E9D1EAE79A4250
:1019700004DD4342584140000138E9E79A42EBDB7D
:101980004F45DFD806D000204F45E1D20029E5D0F1
:101990000800DDE7C445D5D80020C445D8D2F5E716
:1019A000FF07000080B582B000AFFB1D00221A7057
:1019B0000B4B1A680A4B40210A431A60002000F0C2
:1019C00011F8031E03D0FB1D01221A7001E002F082
:1019D00031FFFB1D1B781800BD4602B080BDC0461C
:1019E0000020024090B585B000AF78600F243B190D
:1019F00000221A700F4B1B68FA2291001800FEF7A4
:101A000095FB0300180000F048FD031E03D03B19AE
:101A100001221A7006E0796801235B420022180057
:101A200000F026FD0F23FB181B781800BD4605B0FB
:101A300090BDC0462000002080B500AF034B1B685E
:101A40005A1C024B1A60C046BD4680BDA40000204F
:101A500080B500AF024B1B681800BD4680BDC04674
:101A6000A400002080B584B000AF7860FFF7F0FFDD
:101A70000300BB607B68FB60FB68013302D0FB683E
:101A80000133FB60C046FFF7E3FF0200BB68D31AD7
:101A9000FA689A42F7D8C046C046BD4604B080BD39
:101AA00080B582B000AF78607B68002B01D1012344
:101AB00059E17B685B6D002B0AD17B6800229A6537
:101AC0007B685022002199547B68180002F0C6FE02
:101AD0007B685B6D10221340102B05D07B681B6860
:101AE0009B68042213400BD07B685B6D10221A4365
:101AF0007B685A657B68502200219954012332E1AA
:101B00007B685B6D9A4A134002221A437B685A65D0
:101B10007B681B689B6803221340012B08D17B68FC
:101B20001B681B6801221340012B01D1012300E037
:101B30000023002B49D17B685A68C0231B069A42B8
:101B40000BD07B685A688023DB059A4205D07B68FE
:101B50005A6880231B069A4211D17B681B681A6958
:101B60007B681B68920092081A617B681B68196980
:101B70007B685A687B681B680A431A6114E07B68BB
:101B80001B681A697B681B68920092081A61794B7E
:101B90001A68784B78490A401A60764B19687B6856
:101BA0005A68744B0A431A607B681B68DA687B6862
:101BB0001B6818218A43DA607B681B68D9687B68D8
:101BC0009A687B681B680A43DA606A4B1A68694B3B
:101BD0006A490A401A60674B19687B685B6B5A0652
:101BE000644B0A431A607B681B689A6880235B0514
:101BF000134008D17B681B689A687B681B6880214A
:101C000049050A439A607B681B68DA687B681B6831
:101C10005B490A40DA607B681B68D9687B68DA68D0
:101C20007B681B69022B01D1042300E000231A43C7
:101C30007B6820201B5C5B031A437B682C201B5CA9
:101C40005B001A437B681B6B1A437B689B699B0391
:101C50001A437B68DB69DB031A437B681B680A4312
:101C6000DA607B685A6AC223FF339A420BD07B68E2
:101C70001B68D9687B685A6A7B689B6A1A437B68D1
:101C80001B680A43DA607B6821229B5C012B1AD116
:101C90007B6820229B5C002B09D17B681B68DA687B
:101CA0007B681B68802149020A43DA600BE07B688D
:101CB0005B6D20221A437B685A657B689B6D01220D
:101CC0001A437B689A657B68DB6B012B1FD17B68AD
:101CD0001B681A697B681B682A490A401A617B687D
:101CE0001B6819697B681A6C7B685B6C1A437B689C
:101CF0009B6C1A437B681B680A431A617B681B68EC
:101D00001A697B681B6801210A431A610EE07B682F
:101D10001B681B6901221340012B07D17B681B68DC
:101D20001A697B681B6801218A431A617B681B68FA
:101D30005A697B681B6807218A435A617B681B6864
:101D400059697B689A6B7B681B680A435A617B6898
:101D500000229A657B685B6D0322934301221A433C
:101D60007B685A6500231800BD4602B080BDC0469E
:101D7000FDFEFFFF08270140FFFFC3FFFFFFFFFD40
:101D80001902FEFF03FCFFFF90B585B000AF78603D
:101D90000F23FB1800221A707B681B689B680422C3
:101DA000134038D17B6850229B5C012B01D1022368
:101DB00038E07B685022012199547B68DB69012B54
:101DC00007D00F23FC187B68180000F099F9030076
:101DD00023700F23FB181B78002B20D17B685B6DD1
:101DE000124A1340802252001A437B685A657B686E
:101DF00000229A657B685022002199547B681B68F9
:101E00001C221A607B681B689A687B681B68042127
:101E10000A439A6003E00F23FB1802221A700F2373
:101E2000FB181B781800BD4605B090BDFEF0FFFF03
:101E3000B0B584B000AF78600F23FB1800221A7091
:101E40007B6850229B5C012B01D1022329E07B6837
:101E50005022012199540F257C197B68180000F04D
:101E60000FFA030023707B191B78002B12D17C1909
:101E70007B68180000F0A4F9030023707B191B781D
:101E8000002B07D17B685B6D084A134001221A437F
:101E90007B685A657B685022002199540F23FB18F8
:101EA0001B781800BD4604B0B0BDC046FEFEFFFF63
:101EB00080B584B000AF786039600023BB60002338
:101EC000FB607B685B69082B02D10823FB6014E090
:101ED0007B681B68DB6801221340012B0BD17B68F8
:101EE0005B6D20221A437B685A657B685022002173
:101EF000995401236CE00C23FB60FFF7A9FD03005C
:101F0000BB6019E03B68013316D03B68002B07D05B
:101F1000FFF79EFD0200BB68D31A3A689A420BD2C3
:101F20007B685B6D04221A437B685A657B6850228C
:101F30000021995403234BE07B681B681B68FA68F7
:101F40001340DFD07B685B6D802292001A437B6870
:101F50005A657B681B68DA68C0231B0113402ED1C9
:101F60007B6820229B5C002B29D17B681B681B6847
:101F700008221340082B22D17B681B689B6804222F
:101F8000134010D17B681B685A687B681B680C2162
:101F90008A435A607B685B6D0F4A134001221A43E3
:101FA0007B685A650BE07B685B6D20221A437B6877
:101FB0005A657B689B6D01221A437B689A657B6832
:101FC0009B69002B03D17B681B680C221A600023DD
:101FD0001800BD4604B080BDFEFEFFFF80B582B094
:101FE00000AF78607B681B681B6C1800BD4602B0B0
:101FF00080BD000080B582B000AF786039607B683A
:1020000050229B5C012B01D102236CE07B685022A3
:10201000012199547B681B689B68042213400BD0F4
:102020007B685B6D20221A437B685A657B6850226F
:1020300000219954012356E03B685B682C4A934287
:1020400028D07B681B68996A3B681B685B035A0B46
:102050007B681B680A439A623B681A688023DB022C
:10206000134009D0234B1A68224B802109040A43EC
:102070001A600A2000F04AF93B681A6880239B0224
:1020800013402BD01B4B1A681A4B8021C9030A43FB
:102090001A6023E07B681B689A6A3B681B685B03D5
:1020A0005B0BD9437B681B680A409A623B681A68DD
:1020B0008023DB02134005D00E4B1A680D4B0E49EE
:1020C0000A401A603B681A6880239B02134005D0BF
:1020D000084B1A68074B09490A401A607B6850226E
:1020E0000021995400231800BD4602B080BDC046AF
:1020F0000110000008270140FFFF7FFFFFFFBFFF27
:1021000080B584B000AF78600023FB607B681B68FB
:102110009B6803221340012B08D17B681B681B6856
:1021200001221340012B01D1012300E00023002BE9
:102130003FD17B681B689B68204A13400DD07B68A9
:102140005B6D10221A437B685A657B689B6D012288
:102150001A437B689A6501232CE07B681B689A68A8
:102160007B681B6801210A439A60012000F0CEF8C9
:10217000FFF76EFC0300FB6014E0FFF769FC020050
:10218000FB68D31A0A2B0DD97B685B6D10221A43AA
:102190007B685A657B689B6D01221A437B689A6550
:1021A000012307E07B681B681B6801221340012B99
:1021B000E3D100231800BD4604B080BD17000080A5
:1021C00080B584B000AF78600023FB607B681B683B
:1021D0009B6803221340012B08D17B681B681B6896
:1021E00001221340012B01D1012300E00023002B29
:1021F00041D07B681B689B6805221340012B10D1DE
:102200007B681B689A687B681B6802210A439A6096
:102210007B681B6803221A60FFF71AFC0300FB604F
:1022200022E07B685B6D10221A437B685A657B68ED
:102230009B6D01221A437B689A6501231CE0FFF71E
:1022400007FC0200FB68D31A0A2B0DD97B685B6D73
:1022500010221A437B685A657B689B6D01221A43E2
:102260007B689A65012307E07B681B689B680122F5
:102270001340012BE3D000231800BD4604B080BDFD
:1022800080B584B000AF78600023FB607B681B687A
:102290009B680422134034D07B681B689B6804222F
:1022A0001340042B0DD17B681B689B6802221340EE
:1022B00007D17B681B689A687B681B6810210A43FA
:1022C0009A60FFF7C5FB0300FB6014E0FFF7C0FB5B
:1022D0000200FB68D31A0A2B0DD97B685B6D1022B4
:1022E0001A437B685A657B689B6D01221A437B68A1
:1022F0009A65012306E07B681B689B6804221340F3
:10230000E4D100231800BD4604B080BD80B584B080
:1023100000AF78600B4B1B680B491800FDF706FFF8
:1023200003001A007B685343FB6002E0FB68013B3B
:10233000FB60FB68002BF9D1C046C046BD4604B027
:1023400080BDC0462000002040420F0090B583B001
:1023500000AF02003960FB1D1A70FB1D1B787F2B3C
:1023600032D92F4AFB1D1B7819000F230B40083B65
:102370009B0806339B00D31804331B68FA1D1278A0
:10238000110003220A40D200FF2191400A00D243EB
:102390001A4011003B689B01FF221A40FB1D1B786D
:1023A000180003230340DB009A401D48FB1D1B78E7
:1023B0001C000F232340083B9B080A4306339B0065
:1023C000C31804331A6027E0164AFB1D1B785BB262
:1023D0009B08C0339B009B58FA1D12781100032202
:1023E0000A40D200FF2191400A00D2431A40110056
:1023F0003B689B01FF221A40FB1D1B78180003233A
:102400000340DB009A400748FB1D1B785BB29B082A
:102410000A43C0339B001A50C046BD4603B090BD6E
:1024200000ED00E000E100E080B582B000AF786030
:102430007B685A1E80235B049A4201D3012310E07B
:102440000A4B7A68013A5A6001235B420321180063
:10245000FFF77CFF054B00229A60044B07221A60AD
:1024600000231800BD4602B080BDC04610E000E069
:1024700080B584B000AFB9607A600F217B18021C70
:102480001A70BA687B181B785BB211001800FFF74E
:102490005DFFC046BD4604B080BD80B582B000AFD0
:1024A00078607B681800FFF7BFFF03001800BD4687
:1024B00002B080BD80B586B000AF7860396000237F
:1024C0007B610023FB6000233B614FE13B681B689D
:1024D00001217A6991400A001340FB60FB68002BE0
:1024E00000D140E13B685B68022B03D03B685B682E
:1024F000122B23D17B69DA087B6808329200D3580B
:102500003B617B69072213409B000F229A40130016
:10251000DA433B6913403B613B681A697B690721D9
:102520000B409B009A4013003A6913433B617B695F
:10253000DA087B68083292003969D1503B685B68E1
:10254000012B0BD03B685B68022B07D03B685B68B4
:10255000112B03D03B685B68122B30D17B689B68E2
:102560003B617B695B0003229A401300DA433B69BD
:1025700013403B613B68DA687B695B009A4013005B
:102580003A6913433B617B683A699A607B685B6890
:102590003B6101227B699A401300DA433B69134097
:1025A0003B613B685B681B0901221A407B699A40CA
:1025B00013003A6913433B617B683A695A607B6850
:1025C0001B683B617B695B0003229A401300DA437E
:1025D0003B6913403B613B685B6803221A407B699F
:1025E0005B009A4013003A6913433B617B683A6988
:1025F0001A607B68DB683B617B695B0003229A4061
:102600001300DA433B6913403B613B689A687B697E
:102610005B009A4013003A6913433B617B683A6957
:10262000DA603B685A6880235B05134000D19AE06A
:10263000544B5A6B534B01210A435A63524A7B69EC
:102640009B0802339B009B583B617B69032213402C
:102650009B000F229A401300DA433B6913403B6111
:102660007A68A023DB059A4219D07B68474A9342D7
:1026700013D07B68464A93420DD07B68454A93420B
:1026800007D07B68444A934201D1052308E0062322
:1026900006E0032304E0022302E0012300E000231C
:1026A0007A6903210A40920093403A6913433B61DF
:1026B00035497B699B0802339B003A695A50374B76
:1026C0001B683B61FB68DA433B6913403B613B6835
:1026D0005A6880235B02134003D03A69FB681343B6
:1026E0003B612E4B3A691A602C4B5B683B61FB687F
:1026F000DA433B6913403B613B685A6880239B0285
:10270000134003D03A69FB6813433B61234B3A699A
:102710005A60224B9B683B61FB68DA433B6913407C
:102720003B613B685A6880235B03134003D03A69DE
:10273000FB6813433B61194B3A699A60174BDB689E
:102740003B61FB68DA433B6913403B613B685A6875
:1027500080239B03134003D03A69FB6813433B611A
:102760000E4B3A69DA607B6901337B613B681A681A
:102770007B69DA40131E00D0A8E6C046C046BD46BD
:1027800006B080BD0010024000000140000400506F
:1027900000080050000C0050001C005000040140D4
:1027A00080B584B000AF78600A00BB1C1A807B68DB
:1027B0001B69BA1C1288134004D00F23FB18012296
:1027C0001A7003E00F23FB1800221A700F23FB1866
:1027D0001B781800BD4604B080BD80B582B000AF44
:1027E000786008001100BB1C021C1A807B1C0A1CAC
:1027F0001A707B1C1B78002B04D0BB1C1A887B68CA
:102800009A6103E0BB1C1A887B689A62C046BD4689
:1028100002B080BDB0B58AB000AF78607B68002B95
:1028200002D1012300F0ABFBCE4BDB680C2213403E
:102830003B62CC4BDA6880235B021340FB617B6810
:102840001B680122134000D17EE03B6A082B07D0B1
:102850003B6A0C2B12D1FA6980235B029A420DD19C
:10286000C04B1A6880239B02134000D16BE07B6849
:102870005B68002B67D1012300F081FB7B685A68FD
:1028800080235B029A4207D1B64B1A68B54B802170
:1028900049020A431A6027E07B685A68A023DB02DA
:1028A0009A420ED1AF4B1A68AE4B8021C9020A433F
:1028B0001A60AC4B1A68AB4B802149020A431A607C
:1028C00012E0A84B1A68A74BA7490A401A60A54B0B
:1028D0001A6880235B021340FB60FB68A14B1A68F7
:1028E000A04BA2490A401A607B685B68002B15D098
:1028F000FFF7AEF80300BB6109E0FFF7A9F802009B
:10290000BB69D31A642B02D9032300F038FB954B23
:102910001A6880239B021340EFD015E0FFF798F868
:102920000300BB6108E0FFF793F80200BB69D31A0C
:10293000642B01D9032322E38A4B1A6880239B026C
:102940001340F0D100E0C0467B681B6802221340B0
:1029500000D18AE07B68DB687B613B6A042B05D091
:102960003B6A0C2B3DD1FB69002B3AD17D4B1B6898
:102970000422134004D07B69002B01D10123FEE225
:10298000784B5B687A4A134019007B681B691A020E
:10299000744B0A435A60734B1B6809229343190016
:1029A000704B7A690A431A6000F01EFC01006D4BFF
:1029B000DB681B090F2213406E4AD35C0A00DA4021
:1029C0006D4B1A6013257C190020FFF70BF80300EC
:1029D00023702A00BB181B78002B46D0BB181B782D
:1029E000CDE27B69002B27D05E4B1B680922934305
:1029F00019005C4B7A690A431A60FFF729F8030053
:102A0000BB6108E0FFF724F80200BB69D31A022B70
:102A100001D90323B3E2534B1B6804221340F1D0C6
:102A2000504B5B68524A134019007B681B691A02BD
:102A30004C4B0A435A6018E04A4B1A68494B012133
:102A40008A431A60FFF704F80300BB6108E0FEF751
:102A5000FFFF0200BB69D31A022B01D903238EE2C8
:102A6000404B1B6804221340F1D17B681B68102285
:102A7000134000D19EE03B6A002B3FD1394B1A68CE
:102A800080239B00134005D07B68DB69002B01D1BC
:102A9000012374E2334B5B68384A134019007B68AA
:102AA0005A6A304B0A435A602E4B5B681B02190A64
:102AB0007B681B6A1A062B4B0A435A607B685B6A69
:102AC0005B0B0133802212029A40264BDB681B0904
:102AD0000F210B402749CB5CDA40274B1A601325A6
:102AE0007C190020FEF77EFF030023702A00BB182C
:102AF0001B78002B5ED0BB181B7840E27B68DB693B
:102B0000002B3DD0174B1A68164B802149000A4311
:102B10001A60FEF79DFF0300BB6108E0FEF798FF17
:102B20000200BB69D31A022B01D9032327E20D4B04
:102B30001A6880239B001340F0D00A4B5B680F4A51
:102B4000134019007B685A6A064B0A435A60054BCA
:102B50005B681B02190A7B681B6A1A06014B0A4351
:102B60005A6027E000100240FFFFFEFFFFFFFBFF5F
:102B7000FFE0FFFF6454000820000020FF1FFFFF5C
:102B8000BD4B1A68BC4BBD490A401A60FEF760FF96
:102B90000300BB6108E0FEF75BFF0200BB69D31ACC
:102BA000022B01D90323EAE1B34B1A6880239B006F
:102BB0001340F0D17B681B680822134036D07B6835
:102BC0005B69002B19D0AC4B1A6DAB4B01210A434A
:102BD0001A65FEF73DFF0300BB6108E0FEF738FF12
:102BE0000200BB69D31A022B01D90323C7E1A24B10
:102BF0001B6D02221340F1D018E09F4B1A6D9E4BC3
:102C000001218A431A65FEF723FF0300BB6108E038
:102C1000FEF71EFF0200BB69D31A022B01D9032362
:102C2000ADE1954B1B6D02221340F1D17B681B680F
:102C30000422134000D1AEE027203B1800221A7076
:102C40008D4B9A6B80235B05134009D18A4B9A6B9D
:102C5000894B802149050A439A633B1801221A7067
:102C6000874B1A6880235B0013401AD1844B1A6883
:102C7000834B802149000A431A60FEF7E9FE0300F6
:102C8000BB6108E0FEF7E4FE0200BB69D31A642BC7
:102C900001D9032373E17A4B1A6880235B00134048
:102CA000F0D07B689A6880235B009A4207D1724B10
:102CB0001A6D714B802149000A431A6531E07B6827
:102CC0009B68002B0CD16C4B1A6D6B4B6B490A4007
:102CD0001A65694B1A6D684B6A490A401A6520E00B
:102CE0007B689A68A023DB009A420ED1624B1A6D72
:102CF000614B8021C9000A431A655F4B1A6D5E4B18
:102D0000802149000A431A650BE05B4B1A6D5A4B50
:102D10005A490A401A65584B1A6D574B59490A408F
:102D20001A657B689B68002B15D0FEF791FE0300A7
:102D3000BB6109E0FEF78CFE0200BB69D31A524A60
:102D4000934201D903231AE14B4B1A6D80239B0058
:102D50001340EFD014E0FEF77BFE0300BB6109E0F7
:102D6000FEF776FE0200BB69D31A474A934201D9A7
:102D7000032304E1404B1A6D80239B001340EFD1E5
:102D80002723FB181B78012B05D13B4B9A6B3A4B41
:102D90003E490A409A637B681B682022134049D051
:102DA0007B689B69002B26D0334B9A68324B0121FC
:102DB0000A439A60304B5A6B2F4B01210A435A63E6
:102DC000334B1A6A324B802189010A431A62FEF79B
:102DD0003FFE0300BB6108E0FEF73AFE0200BB695C
:102DE000D31A022B01D90323C9E0234B9B6802228B
:102DF0001340F1D01EE0204B9A681F4B01218A43FB
:102E00009A60234B1A6A224B22490A401A62FEF743
:102E10001FFE0300BB6108E0FEF71AFE0200BB695B
:102E2000D31A022B01D90323A9E0134B9B6802227A
:102E30001340F1D17B689B6A002B00D19EE03B6A76
:102E40000C2B00D177E07B689B6A022B58D10A4B90
:102E50001A68094B10490A401A60FEF7F9FD030091
:102E6000BB611BE0FEF7F4FD0200BB69D31A022B25
:102E700014D9032383E0C04600100240FFFEFFFF89
:102E800000700040FFFBFFFF88130000FFFFFFEF13
:102E900000000140FFDFFFFFFFFFFFFE3A4B1A6813
:102EA00080239B041340DDD1374BDB68374A134046
:102EB00019007B68DA6A7B681B6B1A437B685B6B63
:102EC0001A43314B0A43DA602F4B1A682E4B80218C
:102ED00049040A431A60FEF7BBFD0300BB6108E02A
:102EE000FEF7B6FD0200BB69D31A022B01D90323FA
:102EF00045E0254B1A6880239B041340F0D03DE049
:102F0000214B1A68204B22490A401A60FEF7A0FDA7
:102F10000300BB6108E0FEF79BFD0200BB69D31A0A
:102F2000022B01D903232AE0174B1A6880239B0444
:102F30001340F0D122E07B689B6A012B01D1012371
:102F40001DE0114BDB68FB61FA6980235B021A40CC
:102F50007B68DB6A9A420FD1FA69F0239B031A401F
:102F60007B681B6B9A4207D1FA69C0231B041A4085
:102F70007B685B6B9A4201D0012300E000231800BC
:102F8000BD460AB0B0BDC04600100240FFFF02FFC0
:102F9000FFFFFFFEB0B584B000AF786039607B689A
:102FA000002B01D101230DE1884B1B680122134046
:102FB0003A689A4211D9854B1B6801229343190044
:102FC000824B3A680A431A60804B1B680122134007
:102FD0003A689A4201D00123F4E07B681B68022220
:102FE000134009D07A4BDB68F022934319007B68C9
:102FF0009A68774B0A43DA607B681B6801221340AA
:1030000000D189E07B685B68022B07D1704B1A689E
:1030100080239B02134020D10123D3E07B685B68AF
:10302000032B07D16A4B1A6880239B04134014D1E9
:103030000123C7E07B685B68012B06D1644B1B68EA
:103040000422134009D10123BCE0614B1A6880239C
:103050009B00134001D10123B4E05D4BDB680322E8
:10306000934319007B685A68594B0A43DA60FEF7AC
:10307000EFFC0300FB607B685B68022B11D109E069
:10308000FEF7E6FC0200FB68D31A524A934201D9CC
:10309000032397E04E4BDB680C221340082BEFD143
:1030A0003AE07B685B68032B11D109E0FEF7D0FCA6
:1030B0000200FB68D31A474A934201D9032381E0F7
:1030C000434BDB680C2213400C2BEFD124E07B68D0
:1030D0005B68012B1BD109E0FEF7BAFC0200FB681C
:1030E000D31A3C4A934201D903236BE0384BDB6887
:1030F0000C221340042BEFD10EE0FEF7A9FC0200D6
:10310000FB68D31A334A934201D903235AE0304B68
:10311000DB680C221340F0D12C4B1B6801221340BA
:103120003A689A4211D2294B1B6801229343190035
:10313000264B3A680A431A60244B1B68012213404D
:103140003A689A4201D001233CE07B681B68042264
:10315000134009D01E4BDB681F4A134019007B68DF
:10316000DA681B4B0A43DA607B681B68082213404D
:103170000AD0174BDB68194A134019007B681B699A
:10318000DA00134B0A43DA6000F02EF80100104B0E
:10319000DB681B090F221340114AD35C0A00DA4096
:1031A000104B1A600B257C190020FEF71BFC030056
:1031B00023702A00BB181B78002B02D0BB181B7889
:1031C00000E000231800BD4604B0B0BD002002405E
:1031D0000010024088130000FFF8FFFFFFC7FFFF49
:1031E000645400082000002080B586B000AF3C4B3E
:1031F000DB68FB60FB680C2213400C2B13D05CD8FF
:10320000042B02D0082B0BD057E0354B1B68102243
:10321000134002D0334B3B615DE0334B3B615AE0DE
:10322000324B3B6157E0FB689B0C0F221340304A46
:10323000D35CBB60FB689B0D0322134001337B60B2
:10324000274BDA6880235B0213400FD0B9680A006D
:103250005201521A93019B1ADB005B185B027968DA
:103260001800FCF763FF03007B6123E01C4B1B6825
:10327000102213400FD0B9680A005201521A93016C
:103280009B1ADB005B181B0279681800FCF74EFFE5
:1032900003007B610EE0B9680A005201521A9301E3
:1032A0009B1ADB005B189B0279681800FCF73EFF55
:1032B00003007B617B693B610DE0094B5B685B0B45
:1032C000072213403B603B680133802212029A4080
:1032D00013003B61C0463B691800BD4606B080BD87
:1032E0000010024000093D000024F40000127A00A2
:1032F0007454000880B582B000AF0200FB1D1A7044
:10330000FB1D1B78002B15D0A023DB0520229A6122
:10331000C046C046C046C046C046C046C046C0467D
:10332000C046C046C046C046C046A023DB0520229A
:103330009A620CE0A023DB0520229A61C046C046B9
:10334000C046C046C046A023DB0520229A62C04684
:10335000BD4602B080BD0000B0B5CCB000AF786013
:1033600097235B00FB1800221A802BE097256D0045
:103370007B191B8818211800FCF7D8FE03009BB2AC
:103380009B007A68D3181C687B191B8818211800C9
:10339000FCF752FF0B009BB21A0017239B1ADC406C
:1033A0002300DAB27B191B8801210A40D1B21C4AE2
:1033B000982040001218D219D1547B191A887B1911
:1033C00001321A80972149007B181A8890235B00EC
:1033D0009A42CBD37B1800221A8011E09724640014
:1033E0003B191B880E4A982149005218D219D35C08
:1033F0001800FFF77FFF3B191A883B1901321A802A
:1034000097235B00FB181A8890235B009A42E5D350
:103410000120FEF727FBC046BD464CB0B0BDC046FC
:10342000DCFEFFFF90B585B000AF0400080011007E
:10343000FB1D221C1A70BB1D021C1A707B1D0A1C6E
:103440001A707B1D1B78FB60FB1D1B781B02FA6842
:103450001343FB60BB1D1B781B04FA681343FB601E
:10346000FB681800BD4605B090BD0000B0B586B041
:1034700000AF3B0080221A603B0000225A603B00F4
:1034800000229A603B00224A19001000FFF712F850
:103490001F4B012202211800FFF79FF91C4B01224C
:1034A00008211800FFF799F917257C19184B80217E
:1034B0001800FFF775F903002370154B002208214F
:1034C0001800FFF78AF9124B012208211800FFF7B4
:1034D00084F90F4B002208211800FFF77EF93B000A
:1034E00080221A603B0001225A603B0000229A6051
:1034F0003B000322DA603B00054A19001000FEF78A
:10350000D9FF7B191B781800BD4606B0B0BDC04678
:103510000004005080B582B000AF0200FB1D1A709D
:10352000FB1D1B7801221340DBB21C481A0010213E
:10353000FFF753F9FB1D1B785B08DBB20122134038
:10354000DBB216481A002021FFF747F9FB1D1B7854
:103550009B08DBB201221340DBB210481A00402165
:10356000FFF73BF9FB1D1B78DB08DBB201221340A0
:10357000DBB20A481A008021FFF72FF9074B01221E
:1035800008211800FFF729F9044B00220821180030
:10359000FFF723F9C046BD4602B080BD00040050CD
:1035A00080B582B000AF0200FB1D1A70BB1D0A1C63
:1035B0001A70184B002201211800FFF70EF9C046BF
:1035C000FFF754FF031EFBD1FB1D1B7811481A00A7
:1035D0000121FFF702F90F4B002202211800FFF72B
:1035E000FCF80C4B002208211800FFF7F6F8BB1D71
:1035F0001B781B09DBB21800FFF78CFFBB1D1B7883
:103600000F221340DBB21800FFF784FFC046BD460F
:1036100002B080BD0004005080B582B000AF224BE4
:10362000002201211800FFF7D8F81F4B00220221C9
:103630001800FFF7D2F81C4B002208211800FFF7F2
:10364000CCF80F20FEF70EFAFB1D00221A700AE0DC
:103650000320FFF75FFF0520FEF704FAFB1D1A7831
:10366000FB1D01321A70FB1D1B78022BF0D90220C2
:10367000FFF750FFFB1D00221A700CE0FB1D1B78AA
:103680000A4AD35C19000020FFF78AFFFB1D1A7855
:10369000FB1D01321A70FB1D1B78032BEED9C046AF
:1036A000C046BD4602B080BD000400506054000812
:1036B00080B584B000AF0200FB1D1A70BB1D0A1C50
:1036C0001A70BB1D1B78012B04D00F23FB1840225E
:1036D0001A7003E00F23FB1800221A70FA1D0F2145
:1036E0007B1812781B78D318DAB27B18013A1A705B
:1036F0007B181B78802252421343DBB21900002052
:10370000FFF74EFFC046BD4604B080BD80B582B015
:1037100000AF0200FB1D1A70FB1D1B780C2B07D19C
:1037200001210020FFF73CFF0220FEF79BF917E084
:10373000FB1D1B780A2B04D102210120FFF7B8FFE3
:103740000EE0FB1D1B78082B04D110210020FFF791
:1037500027FF05E0FB1D1B7819000120FFF720FF64
:10376000C046BD4602B080BD90B585B000AF786060
:103770000F23FB1800221A700DE00F243B191B7851
:103780007A68D3181B781800FFF7C0FF3B191A7826
:103790003B1901321A700F23FB181C787B68180044
:1037A000FCF7B2FC03009C42E7D3C046C046BD46CE
:1037B00005B090BD90B589B000AF0200FB1D1A7036
:1037C000BB1D0A1C1A700C23FB181A4A13CA13C318
:1037D00012681A601F23FB1800221A7020E0FB1DDC
:1037E0001B78DB00DAB21F243B191B78D318DBB23D
:1037F0004033DBB219000020FFF7D2FEBB1D1A7860
:103800003B191B780C217918D2008A18D35C190057
:103810000120FFF7C5FE3B191A783B1901321A70D7
:103820001F23FB181B78072BD9D9C046C046BD46BD
:1038300009B090BD8053000880B582B000AF7860B9
:103840003960154B1800FEF79FFAFA239A00124BC5
:1038500011001800FEF72CFB0F4B1800FEF7BEFB03
:1038600003009AB23B681A80FA239A000A4B1100AF
:103870001800FEF71DFB084B1800FEF7AFFB030016
:103880009AB27B681A80044B1800FEF7D1FAC04642
:10389000BD4602B080BDC046A800002080B582B001
:1038A00000AF00237B600CE0002200210020FFF726
:1038B000B9FD0100C24B7A689200D1507B68013398
:1038C0007B607B680B2BEFDD00237B6022E07B6855
:1038D000002B05D07B68042B02D07B68082B0BD112
:1038E0000D2200210020FFF79DFD0100B44B7A68F6
:1038F0000C329200D1500AE0002200210020FFF794
:1039000091FD0100AE4B7A680C329200D1507B6879
:1039100001337B607B680B2BD9DD00237B6022E0C9
:103920007B68002B05D07B68042B02D07B68082BBA
:103930000BD14C2200210020FFF774FD0100A04BA9
:103940007A6818329200D1500AE00022002100204B
:10395000FFF768FD01009A4B7A6818329200D15047
:103960007B6801337B607B680B2BD9DD00237B6098
:1039700022E07B68002B05D07B68042B02D07B689B
:10398000082B0BD1FF2200210020FFF74BFD010087
:103990008B4B7A6824329200D1500AE00022002139
:1039A0000020FFF73FFD0100854B7A68243292002A
:1039B000D1507B6801337B607B680B2BD9DD002302
:1039C0007B6037E07B68002B05D07B68042B02D03E
:1039D0007B68082B0BD1FF2200210020FFF722FD7E
:1039E0000100774B7A6830329200D1501FE07B683B
:1039F000022B05D07B68062B02D07B680A2B0BD1EB
:103A00000D2200210020FFF70DFD01006C4B7A68AC
:103A100030329200D1500AE0002200210020FFF74E
:103A200001FD0100664B7A6830329200D1507B680C
:103A300001337B607B680B2BC4DD00237B6037E0A8
:103A40007B68002B05D07B68042B02D07B68082B99
:103A50000BD1FF2200210020FFF7E4FC0100584BAE
:103A60007A683C329200D1501FE07B68022B05D06F
:103A70007B68062B02D07B680A2B0BD14C220021DD
:103A80000020FFF7CFFC01004D4B7A683C329200DA
:103A9000D1500AE0002200210020FFF7C3FC010002
:103AA000474B7A683C329200D1507B6801337B608F
:103AB0007B680B2BC4DD00237B602BE07B68002B35
:103AC0000ED07B68022B0BD07B68042B08D07B6860
:103AD000062B05D07B68082B02D07B680A2B0BD104
:103AE000FF2200210020FFF79DFC0100344B7A6883
:103AF00048329200D1500AE0002200210020FFF756
:103B000091FC01002E4B7A6848329200D1507B68BC
:103B100001337B607B680B2BD0DD00237B602BE0C7
:103B20007B68002B0ED07B68022B0BD07B68042BAC
:103B300008D07B68062B05D07B68082B02D07B68F9
:103B40000A2B0BD1FF2200210020FFF76BFC0100A4
:103B50001B4B7A6854329200D1500AE00D220021AA
:103B60000020FFF75FFC0100154B7A685432920089
:103B7000D1507B6801337B607B680B2BD0DD002349
:103B80007B602DE07B68002B0ED07B68022B0BD076
:103B90007B68042B08D07B68062B05D07B68082B3C
:103BA00002D07B680A2B0DD1FF2200210020FFF7F5
:103BB00039FC0100024B7A6860329200D1500CE06F
:103BC000380100204C2200210020FFF72BFC0100CF
:103BD000114B7A6860329200D1507B6801337B6070
:103BE0007B680B2BCEDD00237B600DE0FF220021E4
:103BF0000020FFF717FC0100074B7A686C32920037
:103C0000D1507B6801337B607B680B2BEEDDC046B7
:103C1000C046BD4602B080BD3801002080B582B0EC
:103C200002AF154B1A68154B1B68154915480193CF
:103C300001230093DF2300F02DFF01210020FFF777
:103C400037FD104B1800FFF78FFD0F4B1A680F4B15
:103C50009200D2580E4B1B680E490A4800F01AFF1A
:103C600000210020FFF724FD064B1800FFF77CFD24
:103C7000C046BD4680BDC0460000002004010020B3
:103C8000D8530008240100200C0100200800002067
:103C900004000020EC53000880B582B000AF0200A1
:103CA000BB1D1A803B1D0A1C1A803B1D1B88154A30
:103CB00093421DD9144B01221A60BB1D1B881800AA
:103CC000FDF7D8FC0022114BFCF716FE02000B009A
:103CD0001000190000220E4BFCF7D2FA02000B0074
:103CE00010001900FDF790FC02000A4B1A6005E075
:103CF000054B02221A60074B01221A60C046BD46DE
:103D000002B080BDB80B00000C01002000FE7F4017
:103D10000000F03F0801002080B500AFA023DB05C4
:103D2000012240211800FEF758FDA023DB050122E7
:103D300080211800FEF751FD80235900A023DB05E8
:103D400001221800FEF749FD80239900A023DB051E
:103D500001221800FEF741FD8023D900A023DB05D6
:103D600001221800FEF739FDC046BD4680BD0000A7
:103D700080B582B000AF0200BB1D1A80FFF7CCFFF8
:103D8000BB1D1B88012B0AD1A023DB05002240218B
:103D90001800FEF722FD234B50221A603DE0BB1DA8
:103DA0001B88022B0AD1A023DB05002280211800EA
:103DB000FEF713FD1B4B64221A602EE0BB1D1B880F
:103DC000032B0BD180235900A023DB050022180010
:103DD000FEF703FD134B8C221A601EE0BB1D1B88EF
:103DE000042B0BD180239900A023DB0500221800AF
:103DF000FEF7F3FC0B4BB4221A600EE0BB1D1B88D0
:103E0000052B0AD18023D900A023DB05002218004E
:103E1000FEF7E3FC034BDC221A60C046BD4602B04D
:103E200080BDC0462001002080B584B000AF0200F4
:103E3000BB1D1A803B1D0A1C1A80204B1A68204BA0
:103E40001B68D31AFB603B1D1B881E4A93422BD96B
:103E5000BB1D1B881800FDF70DFC00221A4BFCF758
:103E60004BFD02000B00100019000022174BFCF75D
:103E700007FA02000B0010001900FCF7E3F9030039
:103E80009BB21800FFF774FF114B04221A60FB6805
:103E9000013302DA0F4B01221A60FB68012B09DDA6
:103EA0000C4B09221A6005E0094B02221A60094BEB
:103EB00001221A60C046BD4604B080BD200100202A
:103EC00000000020B80B000000FE8F400000F03F13
:103ED0000C0100200801002080B500AF044B052232
:103EE0001A60044B00221A60C046BD4680BDC04621
:103EF0000C0100200801002080B58AB000AF00232B
:103F00007B6200233B620023FB61FDF7A1FD030000
:103F1000BB61FDF79DFD03007B61FDF799FD03008B
:103F20003B61FDF795FD0300FB60FDF73BFD00F0F5
:103F300001FB00F0CDFB00F059FBFFF76DFBFFF735
:103F4000ADFC00210120FFF735FCA54B1800FFF761
:103F50000BFCFA23DB001800FDF784FDFFF75EFE83
:103F6000FFF79CFC9F4B1B68002B1CD09E4B1B68D3
:103F7000002B02D0FFF7B0FF1BE09C4B1B68002B0F
:103F800008D0BB1C1A883B001B8819001000FFF7E3
:103F90004BFF0EE0BB1C1A883B001B881900100069
:103FA000FFF77AFE05E0924B00221A60914B002247
:103FB0001A60914B1B68002B62D08D4B03221A6054
:103FC0008C4B00221A607B6A002B05D1FDF740FD67
:103FD0000300BB6001237B62FDF73AFD0200BB6872
:103FE000D31A632B06D9FDF733FD0200BB68D31A41
:103FF000C82B23D9FDF72CFD0200BB68D21A9623EB
:104000005B009A4208D3FDF723FD0200BB68D21A79
:10401000C8235B009A4211D9FDF71AFD0200BB6864
:10402000D21AFA235B009A4211D3FDF711FD020068
:10403000BB68D21A96239B009A4208D880231902A3
:10404000A023DB0501221800FEF7C7FB07E0802351
:104050001902A023DB0500221800FEF7BEFB674B08
:104060001B68952B0CDCA023DB0504211800FEF750
:1040700097FB031E04D1604B00221A6000237B6271
:10408000A023DB0508211800FEF78AFB031E11D0D0
:104090008023DB015A4A19001000FEF781FB031E42
:1040A00008D080231B02564A19001000FEF778FB47
:1040B000031E4FD1A023DB0508211800FEF770FB7B
:1040C000031E0FD13B6A002B0CD1484B1B68002B01
:1040D00003D1464B01221A6004E0444B00221A60CF
:1040E000FFF71AFE8023DB01454A19001000FEF796
:1040F00057FB031E08D13B6A002B05D1414B1B68BF
:10410000143B1A003F4B1A6080231B023C4A1900E3
:104110001000FEF745FB031E08D13B6A002B05D1BA
:10412000384B1B6814331A00364B1A60354B1A682B
:104130008C235B009A4203DD324B8C2252001A60C2
:10414000304B1B68132B02DC2E4B14221A60012308
:104150003B6201E000233B622A4B1A68274B1B6835
:104160009A420DDA274B1B68142B09DDFB69002BE3
:1041700010D1FDF76DFC03007B600123FB6109E0BA
:1041800080231902A023DB0500221800FEF725FB7F
:104190000023FB61FB69002B4BD0FDF759FCFDF7B9
:1041A00057FC02007B68D31A642B0FD9FDF750FC33
:1041B00002007B68D31AC72B26D9FDF749FC020001
:1041C0007B68D21A96235B009A421DD8802319027D
:1041D000A023DB0501221800FEF7FFFA1CE0C04611
:1041E000FC53000810010020140100201C010020D5
:1041F0000C01002008010020180100200000002010
:10420000000800500400002080231902A023DB05D1
:1042100000221800FEF7E1FAFDF71AFC02007B68A5
:10422000D21AFA239B009A4203D3FDF711FC030034
:104230007B60A023DB0504211800FEF7B1FA031E02
:1042400006D0B24B1B68002B02D1B14B01221A6081
:10425000A023DB0504211800FEF7A2FA031E06D1F5
:10426000AA4B1B68002B02D1A94B00221A60A02385
:10427000DB0510211800FEF793FA031E02D0A34BB2
:1042800001221A60A023DB0510211800FEF788FA2E
:10429000031E0AD1A023DB0504211800FEF780FAD3
:1042A000031E02D0994B00221A60FDF7D1FB0200D9
:1042B000BB69D31A092B37D93A00BB1C110018006F
:1042C000FFF7BAFAFDF7C4FB02007B69D31A632B30
:1042D00024D9904B1A68904B1B689A4204DA8D4B94
:1042E0001B685A1C8B4B1A608A4B1A688A4B1B68D6
:1042F0009A4204DD874B1B685A1E864B1A60854B19
:104300001A6813005B009B181B01844A9B18180055
:10431000FFF722F8FDF79CFB03007B61FFF77EFCB3
:10432000FDF796FB0300BB61FDF792FB0200FB6803
:10433000D21A784B1B68012B37D0764B1B68022BA7
:1043400030D0744B1B68032B29D0724B1B68042B95
:1043500022D0704B1B68052B1BD06E4B1B68062BA5
:1043600014D06C4B1B68072B0DD06A4B1B68082BB5
:1043700007D0684B1B68092B01D1642317E0002389
:1043800015E0C82313E096235B0010E0C8235B0010
:104390000DE0FA235B000AE096239B0007E0AF23C1
:1043A0009B0004E0C8239B0001E0E1239B009342B3
:1043B00037D8584B1B68012B1FD0564B1B68022B5C
:1043C0001BD0544B1B68032B17D0524B1B68042B7C
:1043D00013D0504B1B68052B0FD04E4B1B68062B80
:1043E0000BD04C4B1B68072B07D04A4B1B68082B84
:1043F00003D0484B1B68092B13D1494B1B685A1C2F
:10440000474B1A60464B1A6896235B009A4202DDBE
:10441000444B01221A60FDF71BFB0300FB60FFF712
:10442000FDFBFDF715FB02003B69D21A3C4B1B68F4
:104430001D2B30DD3A4B1968A0235B00994228DA26
:10444000374B1B68DB2B22DC354B1B68772B1BDCC7
:10445000334B1B683B2B14DC314B1B68272B0EDCCA
:104460002F4B1B68222B07DC2D4B1B681D2B01DDFE
:104470002D4B11E000230FE0C823DB000CE02B4B99
:104480000AE0AF239B0007E0C8235B0004E0C823D9
:1044900002E0642300E0264B934200D962E5204B02
:1044A0001B681D2B1EDD1E4B1A68A0235B009A4261
:1044B00018DA1B4B1B68DB2B14DC194B1B68772BA2
:1044C00010DC174B1B683B2B0CDC154B1B68272B98
:1044D00008DC134B1B68222B04DC114B1B681D2BC3
:1044E00000DC3FE50E4B1B685A1E0D4B1A600C4B4F
:1044F0001B68132B02DC0A4B14221A60FDF7A8FA82
:1045000003003B61FFF78AFB2CE5C0461401002045
:1045100010010020040100200801002038010020C3
:104520000000002018010020980800004C04000042
:10453000540B000090B595B000AF18243B1918003B
:1045400038231A00002100F09DFA3B1D18001423A7
:104550001A00002100F096FA224B1B68224A1A40EA
:10456000204B802109010A431A6021007B18022296
:104570001A607B180122DA607B1810221A617B18FE
:1045800002229A627B180022DA627B188022D20211
:104590001A637B188022D2035A637B181800FEF737
:1045A00039F9031E01D000F03FF93B1D0F221A60BC
:1045B0003B1D03225A603B1D00229A603B1D0022D6
:1045C000DA603B1D00221A613B1D01211800FEF735
:1045D000E1FC031E01D000F027F9C046BD4615B02E
:1045E00090BDC04600700040FFE7FFFF80B582B07D
:1045F00000AF3B00180008231A00002100F042FA27
:10460000304B314A1A602F4B0022DA632D4B802247
:10461000D2055A602B4B00229A602A4B07229A63DC
:10462000284B01221A61274B0022DA60254B2022F9
:1046300000219954234B212200219954214B00221F
:104640009A62204BC222FF325A621E4B2C2200215A
:1046500099541C4B04225A611A4B00221A63194BBD
:1046600000229A61174B00225A63164B0022DA612E
:10467000144B1800FDF714FA031E01D000F0D4F813
:104680003B0001221A603B00802252015A603A002E
:104690000C4B11001800FDF7ADFC031E01D000F01B
:1046A000C3F83B00094A1A603A00064B1100180093
:1046B000FDF7A0FC031E01D000F0B6F8C046BD46D1
:1046C00002B080BDA80000200024014002000004C8
:1046D00090B589B000AF0C243B19180014231A00C0
:1046E000002100F0CFF94B4BDA6A4A4B04210A4310
:1046F000DA62484BDB6A04221340BB60BB68454B5F
:10470000DA6A444B01210A43DA62424BDB6A012236
:1047100013407B607B683F4BDA6A3E4B02210A43C1
:10472000DA623C4BDB6A022213403B603B683A4949
:10473000A023DB0500221800FEF74FF8F823D9006C
:10474000A023DB0501221800FEF747F8334B0022B7
:10475000FB211800FEF741F83B19C02212021A6033
:104760003B1900225A603B1901229A603B192C4ADE
:1047700019001000FDF79EFE3B191C221A603B1920
:1047800000225A603B1901229A603A19A023DB05E6
:1047900011001800FDF78EFE3B1920221A603B190C
:1047A00011225A603B1900229A603B190322DA60F9
:1047B0003A19A023DB0511001800FDF77BFE3B1919
:1047C000184A1A603B1901225A603B1900229A606C
:1047D0003B190322DA603A19A023DB051100180007
:1047E000FDF768FE21007B18FB221A607B1801226E
:1047F0005A607B1800229A607B180322DA607B18CB
:10480000064A19001000FDF755FEC046BD4609B026
:1048100090BDC046001002402080000000040050FF
:1048200000080050C087000080B500AFC046BD46FC
:1048300080BD000080B500AF074B5A6B064B0121CD
:104840000A435A63044B9A6B034B802149050A4380
:104850009A63C046BD4680BD0010024090B589B045
:1048600000AF78600C243B19180014231A000021B3
:1048700000F008F97B681B68144A934222D1144B5C
:104880005A6B134B802189000A435A63104BDA6A32
:104890000F4B01210A43DA620D4BDB6A0122134000
:1048A000BB60BB683B1903221A603B1903225A60A4
:1048B0003B1900229A603A19A023DB051100180069
:1048C000FDF7F8FDC046BD4609B090BD002401408B
:1048D0000010024080B500AFC046BD4680BD80B527
:1048E00000AFFEE780B500AFC046BD4680BD80B5D5
:1048F00000AFC046BD4680BD80B500AFFDF79CF857
:10490000C046BD4680BD000080B584B000AF786071
:10491000114B1B68002B02D10F4B104A1A600E4B33
:104920001B68FB600C4B1A687B68D2186B469A4276
:1049300007D900F07DF803000C221A6001235B42C6
:1049400006E0054B1A687B68D218034B1A60FB68B7
:104950001800BD4604B080BD180300202C030020C1
:1049600080B500AF174B1A68164B802149000A43E7
:104970001A60144BDA68134B13490A40DA60114B82
:104980001A68104B11490A401A600E4B9A680D4B79
:1049900001218A439A600B4B1A680A4B0C490A4062
:1049A0001A60084BDA68074B0A490A40DA60054B7F
:1049B00000221A61084B802212059A60C046BD464B
:1049C00080BDC046001002400C40FF88F6FFF6FE96
:1049D000FFFFFBFFFFFF02FF00ED00E00D488546F3
:1049E000002103E00C4B5B58435004310B480C4B47
:1049F00042189A42F6D30B4A02E0002313600432B5
:104A0000094B9A42F9D3FFF7ABFF00F017F8FFF715
:104A100073FAFEE700200020B854000800000020D0
:104A200088000020880000202C030020FEE7000002
:104A3000014B18687047C0462400002070B500265E
:104A40000C4D0D4C641BA410A64209D1002600F0A9
:104A50008BFC0A4D0A4C641BA410A64205D170BD04
:104A6000B300EB5898470136EEE7B300EB58984790
:104A70000136F2E7B0540008B0540008B054000802
:104A8000B454000803008218934200D17047197093
:104A90000133F9E70EB400B50B499CB01DAB029091
:104AA0000690079104910948094904CB05910068D3
:104AB00002A9019300F070F80023029A13701CB051
:104AC00008BC03B01847C046FFFFFF7F240000204A
:104AD0000802FFFFF0B58E6885B007000C00039256
:104AE00001939E423CD890238A89DB001A4234D03D
:104AF0000969236860695B1A029303234343DD0F4E
:104B0000ED18019B029801331B186D10AB4200D9C0
:104B10001D00530532D52900380000F053FB061E56
:104B200009D10C233B6040230120A289404213435A
:104B3000A38105B0F0BD029A216900F0BAFAA389F9
:104B4000144A1A4080231343A381029B2661F6185E
:104B500026606561019EED1AA560019B9E4200D909
:104B6000019E32000399206800F0ACFAA36800208F
:104B70009B1BA36023689E192660DAE72A00380091
:104B800000F096FB061EE0D13800216900F0AEFA75
:104B9000C7E7C0467FFBFFFFF0B5A1B003901D0043
:104BA0008B890F0016001B0611D50B69002B0ED147
:104BB000402100F007FB38603861002805D10C2344
:104BC000039A0138136021B0F0BD40237B610023BC
:104BD00008AC6361203363761033A3760795350004
:104BE0002B78002B01D0252B47D1AB1B0593B54269
:104BF0000CD0320039000398FFF76CFF431C00D142
:104C0000AEE06269059B9446634463612B78002B98
:104C100000D1A5E0012200235242626004A954326F
:104C200052186E1C2360E360A3601370A365052215
:104C30003178544800F032FA751C00281FD12268E0
:104C4000D30604D5532304A95B1820211970130738
:104C500004D5532304A95B182B21197033782A2B10
:104C600016D0350000210A20E3682A786E1C303AFD
:104C7000092A4ED9002911D117E00135B0E7414B7F
:104C80002268C01A0123834013432E002360CEE71D
:104C9000079B191D1B680791002B01DB0B9304E098
:104CA0005B42E3600223134323602B782E2B0AD14F
:104CB0006B782A2B35D1079B02351A1D1B6807928A
:104CC000002B2BDB0993304E03223000297800F0B3
:104CD000E5F9002806D04023801B83402268013577
:104CE000134323602978062228486E1C217600F0A1
:104CF000D5F900283CD0264B002B25D10722079B55
:104D000007339343083307936369049A9B186361DD
:104D100065E74343350001219B18A6E701235B4269
:104D2000D0E700230A201A000135636029786E1C41
:104D30003039092903D9002BC5D00992C3E7424372
:104D4000350001235218F1E707AB00933A00210028
:104D5000104B039800E000BF0490049B0133D3D1B3
:104D6000BB890D985B0600D42DE7012040422AE75D
:104D700007AB00933A002100064B039800F07CF843
:104D8000EAE7C0467D5400088354000887540008B1
:104D900000000000D54A0008F7B5150001938A68A5
:104DA0000B690C000090934200DA130022002B6084
:104DB00043321278002A01D001332B6023689B060E
:104DC00002D52B6802332B602268062317001F4090
:104DD0001A4227D0230043331B785A1E934122687E
:104DE000920630D4220001990098089E4332B047C1
:104DF000431C25D0062320682A68E168002503406B
:104E0000042B03D18D1AEB43DB171D40A3682269E5
:104E1000934201DD9B1AED180027BD4220D10020EE
:104E200010E00137E3682A689B1ABB42D2DD2200FA
:104E3000012301990098089E1932B047431CF0D114
:104E400001204042FEBD3020E118433108702100AE
:104E50005A1C45310978A218433202331170C1E758
:104E60002200012301990098089E1A32B047431C82
:104E7000E6D00137D1E70000F0B58BB006920A000A
:104E800043320793059004920A7E0C00109B782A07
:104E900007D8622A09D8002A00D1C1E0582A00D1D7
:104EA0008CE026004236327022E01000633815286C
:104EB000F7D8FBF731F916001F00F6FFF6FFF6FFF3
:104EC000F6FF1F00F6FFF6FFF6FFF6FFA80036001C
:104ED0009A00F6FFF6FFB900F6FF3600F6FFF6FF80
:104EE0009E0026001A684236111D1960136833703F
:104EF0000123A7E0086819680A1D05060BD50D688F
:104F00001A60002D03DA2D23049A6D421370614B51
:104F10000A2703931BE00D681A604106F1D52DB2F4
:104F2000EFE70D681968081D18602E0601D50D6899
:104F300003E06D06FBD50D68ADB2564B0827039311
:104F40006F2A00D002372300002243331A706368AF
:104F5000A360002B03DB0422216891432160002D14
:104F600002D1049E002B0CD0049E28003900FBF7D0
:104F700063F9039B013E5B5C33702B0005009F428D
:104F8000F3D9082F09D12368DB0706D563682269A6
:104F9000934202DC3023013E3370049B9B1B236150
:104FA000079B210000930598069B09AAFFF7F4FED2
:104FB000431C4CD1012040420BB0F0BD45310A707A
:104FC000344A03921A68216820CA1A60080616D566
:104FD000CB0702D52023194321601027002DB2D121
:104FE000202322689A432260ADE7202209680A4301
:104FF00022602200782145321170274AE1E74806F5
:10500000E6D5ADB2E4E71A680D68101D496918606D
:1050100013682E0601D5196002E06D06FBD51980D4
:105020000023049E2361BBE71A68111D19601668EE
:1050300000213000626800F031F8002801D0801BA8
:105040006060636823610023049A1370A8E72369F2
:10505000320006990598079DA847431CAAD02368EB
:105060009B0715D4099BE0689842A5DA1800A3E7CE
:105070002200012306990598079E1932B047431C68
:1050800098D00135E368099A9B1AAB42F0DCE9E756
:105090000025F7E78E5400089F540008C9B2821813
:1050A000904201D10020704703788B42FBD0013041
:1050B000F6E7002310B59A4200D110BDCC5CC45471
:1050C0000133F8E710B5884202D98B18984203D310
:1050D000002307E08B5C8354013AFBD210BDCC5C0B
:1050E000C45401339A42FAD1F8E7000070B50500C4
:1050F000002910D00C1F2368002B00DAE4182800C8
:1051000000F018F91D4A1368002B05D16360146084
:10511000280000F017F970BDA34208D92168601873
:105120008342F3D118685B6841182160EEE71A00EA
:105130005B68002B01D0A342F9D911685018A04236
:105140000BD120680918501811608342E0D118680B
:105150005B68411811605360DAE7A04202D90C2362
:105160002B60D5E721686018834203D118685B681B
:105170004118216063605460CAE7C0461C030020E8
:1051800070B50F4E0D0031680400002902D100F007
:10519000BFF830602900200000F0BAF8431C0AD0A4
:1051A0000323C51C9D43A84207D0291A200000F004
:1051B000AFF8431C01D101256D42280070BDC046E7
:1051C00020030020F7B50322CB1C934308330600CD
:1051D0001F000C2B32D20C27B94231D8300000F01E
:1051E000A9F8324D2B681C00002C2ED1390030005C
:1051F000FFF7C6FF0400431C1ED12C682500002DBC
:105200004AD123682900E3183000019300F080F8A8
:10521000019B834243D123680337FF1A03239F4333
:1052200008370C2F00D20C2739003000FFF7A8FFF9
:10523000431C34D02368DF19276013E0002BCBDA3E
:105240000C23002533602800FEBD2268D11B20D42A
:105250000B2917D9E2192760A34211D12A6063688C
:10526000116053603000250000F06CF807220B3508
:10527000231D9543EA1A9D42E5D05B1BA350E2E74C
:105280005A60ECE76268A34201D12A60EAE75A60FB
:10529000E8E723006468A7E72C006D68AFE70C23FC
:1052A0003000336000F04EF8CDE7C0461C0300200C
:1052B000F7B507000E001400002905D11100FFF713
:1052C00081FF05002800FEBD002A03D1FFF70EFF75
:1052D0002500F7E700F03EF80190844203D835003E
:1052E0004308A342EED321003800FFF76BFF051EF1
:1052F000E8D0019B22009C4200D91A00310028000E
:10530000FFF7D7FE31003800FFF7F0FEDAE70000C4
:10531000002370B5064D040008002B60FFF7F4FA77
:10532000431C03D12B68002B00D0236070BDC04606
:105330002403002010B5024800F014F810BDC04648
:105340002803002010B5024800F00DF810BDC0463B
:10535000280300200B1F1B68181F002B01DA0B58B5
:10536000C018704770477047F8B5C046F8BC08BC15
:105370009E467047F8B5C046F8BC08BC9E467047CC
:1053800004040E0F1B19110A0000000000000000A9
:105390004F46462020202020200000004F4E202095
:1053A00020202020200000004F4E284E4F4E45293F
:1053B000200000004F56455220484541540000004F
:1053C0004155544F2041444A200000005341464576
:1053D000204C4F434B00000054454D503A2530338C
:1053E00064256343202025633A2564005B252E391C
:1053F000735D5B253033645D000000000C536D610C
:105400007274204761732052616E67650A20202004
:1054100020202020202020202020203031000000CB
:10542000D4090008C2090008A0090008CA09000838
:10543000A0090008A20C0008A0090008CA09000879
:10544000C2090008C2090008A20C0008CA09000825
:105450008C0900088C0900088C090008180D000848
:10546000280C0106000000000000000001020304F7
:1054700006070809030406080C10182030232D30F5
:105480002B2000686C4C006566674546470030314C
:10549000323334353637383941424344454600309B
:1054A00031323334353637383961626364656600CA
:0454B000E900000807
:0454B400C10000082B
:1054B8001400000014000000905300089C530008DA
:1054C800A8530008B4530008C0530008CC53000880
:1054D800000020002800002000000000000000005C
:1054E80000000000000000000000000000000000B4
:1054F80000000000000000000000000000000000A4
:105508000000000000000000000000000000000093
:105518000000000000000000000000000000000083
:105528000000000000000000000000000000000073
:0855380000000000000000006B
:04000005080049DDC9
:00000001FF
