:020000040800F2
:1000000038050020D500000841190008F114000847
:1000100000000000000000000000000000000000E0
:10002000000000000000000000000000751A000839
:100030000000000000000000731A0008771A000892
:10004000E7000008E7000008E7000008E7000008F4
:10005000E7000008E7000008E7000008E7000008E4
:10006000E700000889010008E7000008E700000831
:10007000E7000008E700000800000000E7000008B3
:10008000000000004D1B0008000000000000000000
:10009000E700000800000000E7000008E700000893
:1000A000E7000008E7000008E7000008E700000894
:1000B000E7000008E700000800000000E700000873
:1000C0000348854600F03CF800480047891C0008BA
:1000D000380500200448804704480047FEE7FEE753
:1000E000FEE7FEE7FEE7FEE7F91A0008C100000898
:1000F00030B50B46014600202022012409E00D46C0
:10010000D5409D4205D31D469540491B2546954047
:1001100040191546521E002DF1DC30BDD2B201E06F
:100120000270401C491EFBD270470022F6E710B552
:1001300013460A4604461946FFF7F0FF204610BD55
:10014000064C0125064E05E0E36807CC2B430C3C2A
:1001500098471034B442F7D3FFF7B6FF401F0008AA
:10016000601F000838B50446064805490068FFF7D7
:10017000BFFF604300E0401E00900028FBD138BD67
:1001800040420F000400002010B5024800F078F94A
:1001900010BD00006400002070470000F8B506465E
:1001A0000D464036317C01290DD0012131740168A2
:1001B0008A68520709D5416D20221143416500200C
:1001C00030740120F8BD0220F8BD174B6A68D805CD
:1001D00047109A42154C8A6A2B6812D05B035B0B5E
:1001E0001A438A622968490305D5A1680143A160C1
:1001F0000A20FFF7B7FF2868800312D5A0683843AC
:100200000EE05B035B0B9A438A622968490302D5BF
:10021000A1688143A1602868800302D5A068B84323
:10022000A06000203074F8BD0110000000270140DC
:1002300070B5040006D0606D2646002540360028C3
:1002400002D006E0012070BDA5653574204600F09F
:10025000D3F8606DC00603D421688868400705D5CF
:10026000606D1021084360653574EBE7606DFF2217
:100270000132904302221043606588688207920F22
:100280005B48012A02D10A68D2072BD10323626896
:100290009B079A4205D05B429A4202D05B009A4289
:1002A00009D10A69920092080A6121680A696368A3
:1002B0001A430A610CE00A69920092080A61816897
:1002C0000F229204914381608168626811438160CA
:1002D0002168CA6818239A43CA602168CA68A3685B
:1002E0001A43CA6081680122520691438160816885
:1002F000A28E52061143816020688168C90004D42F
:10030000816801221207114381602068C168394A5F
:100310001140C1602069E168022825D00020014316
:10032000204620300278037B52035B001A431143BE
:10033000226B1143A26992031143E269D203114374
:100340002268D3681943D160616A0A46FF3AC23A0B
:1003500005D0A26A11432268D3681943D16042785C
:100360000121012A02D00BE00420D8E70078002800
:1003700023D0606D202210436065A06D0843A06506
:10038000E06B012820681FD00169C90703D001690B
:1003900049084900016120684169C908C9004161F3
:1003A00020684169A26B11434161A565606D8008B9
:1003B0008000401C6065002070BD2068C268012379
:1003C0001B041A43C260DBE70269FF239B009A43C8
:1003D000026120680269236CA66C1A43636C334384
:1003E0001A430261206802690A430261D3E70000F0
:1003F000002701401902FEFF70B586B006461421A1
:100400006846FFF792FE1A49306888422DD1194993
:10041000486B4A1510434863C86A01221043C862FA
:10042000C86A002510400590072000900320019025
:10043000052069460295000700F0CCF80E480F4CE5
:1004400021C4256080206560A0604000E060656197
:10045000C000A56120610948083C00F065F800284B
:1004600001D0FFF799FEF464A66206B070BD0000EB
:1004700000240140001002400800024064000020F7
:10048000F0B4016C0D6801680C68466C1C230422F2
:100490001E401746B7402F420ED067070CD50C6898
:1004A000A40602D40C6894430C60416C19408A4045
:1004B000016C4A60016B1AE00227B74002462F40E8
:1004C0002032002F17D0A70715D50C68A40605D435
:1004D0000C680A25AC430C6001215171446C022167
:1004E0001C40036CA140596000211171C16A0029B0
:1004F00018D0F0BC08470827B7402F4212D0240775
:1005000010D50C680E25AC430C60446C01211C40D6
:100510000B46A340046C6360C163517100211171EB
:10052000416BE4E7F0BC704770B504003CD01F4855
:10053000256814212818FFF7DBFD800060641C4843
:100540002064022120462030024641712968194862
:10055000E3680140A0686669184323693343184380
:10056000A3691843E3691843236A184308432860C2
:100570000121A0688903884210D00D488030836A29
:10058000656C1C210D400F26AE40B3438362656C41
:1005900063680D40816AAB400B4383620020E063D7
:1005A00001215171107170BD012070BDF8FFFDBFB8
:1005B000000002400F80FFFF70B5044600F0CCF849
:1005C0000546601C00D0641C00F0C6F8401BA04229
:1005D000FAD370BDF8B500230124A2E027469F405E
:1005E0003A4070D04D68022D01D0122D14D1DD0893
:1005F000AD002D1800952D6A5E07AC46F50E0F264E
:10060000AE46AE406546B543AC460E697546AE4053
:1006100065462E43009D2E624D68012D05D0022DAA
:1006200003D0112D01D0122D16D185680326AC46BA
:100630005D00AE46AE406546B543AC46CE687546F5
:10064000AE4065462E43866046680D79BE43ED0692
:10065000ED0F9D403543456006685F000325BD40B2
:10066000AE46AE430D79B446AE07B60FBE40654602
:100670002E430660C6687546AE438D68BD4035435F
:10068000C5604D68ED004BD5294D6E6B26436E63FA
:100690009E08284DB6007519AC46AD689E07360F0A
:1006A0000F27B740BD4305273F07B84201D10027B8
:1006B00015E0214FB84201D1012710E01F4FB84289
:1006C00002D102270BE02BE01D4FB84201D10327D6
:1006D00005E01C4FB84201D1052700E00627B740CE
:1006E0002F436546AF60184D2E684F689643FF0351
:1006F00000D516432E606E684F689643BF0300D541
:1007000016436E60AE684F689643FF0200D51643ED
:10071000AE60EE684F689643BF0200D51643EE60A8
:100720005B1C0A681546DD4000D057E7F8BD0000A5
:10073000001002400000014000040050000800507A
:10074000000C0050001C005000040140002A01D0A1
:1007500081617047816270470148006870470000FE
:100760000000002070B5024640325378202B1CD187
:100770001378012B19D001231370242454700468BA
:1007800025689D432560046825681E03B5432560E0
:10079000046825680D4325600068016819430160FD
:1007A000202050700020107070BD022070BD70B508
:1007B000024640325378202B1BD11378012B18D0DE
:1007C000012414702423537003681D68A5431D6021
:1007D00005682B680F263602B343090219432960C6
:1007E00000680168214301602020507000201070D3
:1007F00070BD022070BD000070B5040006D0254613
:10080000403568780026002802D005E0012070BD40
:100810002E70204600F0F0F82420687020680168EF
:100820004908490001600F21606809068843216872
:10083000086121688A680120C00382438A60E168F8
:100840000129A16808D021229202114322689160F7
:10085000E168022902D005E00143F7E7012122689F
:10086000C902516021684A680F4B1A434A602168E7
:10087000CA688243CA60616920690843A1690902A4
:1008800008432168C860216AE0690843216808605C
:1008900020680168012211430160666420206870AD
:1008A0002663AE70002070BD00800002FFB50546D3
:1008B00004464035687883B0202872D10C9800280F
:1008C00014D00D98002811D02878012869D0012073
:1008D0002870FFF741FF0746012200901923D1033A
:1008E000204600F093FE002871D103E00120400271
:1008F00060646CE0212068704020A8700026666467
:100900000C9860620D98608566630E980090019760
:1009100004A90EC9204600F035FE002801D02E7033
:1009200055E0608DFF2805D9FF22228501231B0693
:10093000009606E0608D20850096208D0123C2B2CE
:100940005B062046049900F04DFE3A4620460E997B
:1009500000F0A9FE00283AD1606A21680078886218
:10096000606A401C6062608D401E6085208D401E64
:1009700080B22085618D00291FD000281DD10097ED
:100980000022802120460E9B00F040FE00281ED150
:10099000608DFF2806D9FF22228501231B060096C1
:1009A00007E024E0608D20850096208D0123C2B2EF
:1009B0005B062046049900F015FE608D0028C4D126
:1009C0003A4620460E9900F048FE002802D0012049
:1009D00007B0F0BD20682021C16120684268054B46
:1009E0001A4042606970AE702E700020F0E702205D
:1009F000EEE7000000E800FE10B586B004461421C2
:100A00006846FFF792FB10492068884219D10F4CC5
:100A1000E16A02200143E162E16A01400591C020E0
:100A20000090122001210190032002910491039073
:100A300069460748FFF7CEFDA06B01214905084331
:100A4000A06306B010BD000000540040001002403A
:100A50000004005002480168491C01607047000012
:100A60000000002010B5084800240168402211430E
:100A70000160204600F00AF8002801D0012401E0BE
:100A800000F01CF8204610BD0020024070B505465D
:100A900009487D210024C9000068FFF729FB00F008
:100AA00017FC002801D0012404E000222946501E32
:100AB00000F01AF8204670BD040000200448416B85
:100AC000012211434163816B02041143816370472A
:100AD00000100240C106C90E01208840014908608B
:100AE0007047000000E100E010B500F02BFF10BDE2
:100AF000F8B504460078594D800672D5574E002748
:100B0000403EB06BC00004D4B06BA9050843B0638D
:100B1000012753480168C90511D4016882151143A2
:100B20000160FFF719FE009005E0FFF715FE009940
:100B3000401A642837D84A480068C005F5D532689D
:100B40000321090560680A400140914208D08103F1
:100B5000890F032904D13168890301D50120F8BD2B
:100B60002A69032109040A4022D0084090421FD07C
:100B7000207880061CD528692A6988430121C90488
:100B80000A432A612A698A432A612861C0050FD570
:100B9000FFF7E2FD009008E0FFF7DEFD0099411A43
:100BA0003048814201D90320F8BD28698005F3D57A
:100BB00061688803800F032805D1326800058243ED
:100BC00001400A433260286903226168120411401F
:100BD00008432861002F04D0B16B01200007814336
:100BE000B1632078C00705D0E868A168800880005C
:100BF0000843E8602078800705D5E8680C21884321
:100C0000E1680843E8602078400706D5E8680321DA
:100C10008902884321690843E8602078000706D5E7
:100C2000E86803210903884361690843E860207884
:100C3000400606D5E868012189068843E169084332
:100C4000E8602078000606D5E86803218904884317
:100C5000A1690843E8600020F8BD00004010024090
:100C60000070004088130000F8B50E4605007DD0E6
:100C700053480068C007C00FB0420AD2504801680C
:100C800049084900314301600068C007C00FB04205
:100C900071D128784B4C800705D5E068F021884356
:100CA000A9680843E0602878C00752D06868022825
:100CB00017D0032818D02168012818D089050029E9
:100CC00059DAE168890889000143E160FFF744FDD2
:100CD00069680746022912D003291CD0012926D0B1
:100CE00033E021688903EAE721688901E7E74907DA
:100CF000E5E7FFF731FDC11B3348814223D8E068A7
:100D00000007800F0228F4D123E0FFF725FDC11B67
:100D10002D48814217D8E0680007800F0328F4D1DE
:100D200017E0FFF719FDC11B274881420BD8E06887
:100D30000007800F0128F4D10BE0FFF70DFDC11B68
:100D40002148814201D90320F8BDE0680007800FE7
:100D5000F3D11B480168C907C90FB1420DD9016819
:100D60004908490031430160006800E003E0C00722
:100D7000C00FB04201D00120F8BD2878400706D549
:100D8000E068072109028843E9680843E0602878A1
:100D9000000707D5E0680721C90288432969C9000F
:100DA0000843E06000F016F8E168084A0906090FF8
:100DB000515CC840064908600020FFF767FEF8BD97
:100DC000002002400010024088130000241F000889
:100DD0000400002010B5184AD1680C2008400428EF
:100DE0000BD0082810D00C2810D050680004410FF8
:100DF0000120C003491C884010BD1068C00601D501
:100E00000E4810BD0E4810BD0E4810BD88020E4B96
:100E1000000F185C0902D368890F491CDB0301D558
:100E2000084A05E01268D20601D5044A00E0044AE7
:100E30005043FFF75DF910BD0010024000093D006E
:100E40000024F40000127A00341F0008FEB50500EB
:100E50007ED0FE4CE7680C20E668074001200004C5
:100E600006402878C00747D0082F05D00C2F0AD19C
:100E700001200004864206D1206880033CD56868C2
:100E80000028E5D038E0012069680004814203D1E0
:100E900021680143216011E0052301221B04920413
:100EA0009942216802D111432160F1E78143216019
:100EB0002168014000912068904320606868002804
:100EC0000DD0FFF749FC009005E0FFF745FC0099C5
:100ED000401A64287AD820688003F6D50CE0FFF722
:100EE0003BFC009005E0FFF737FC0099401A6428AE
:100EF000F0D820688003F6D42878800755D50923D8
:100F0000E868042F0DD00C2F01D1002E09D0002845
:100F10003BD02168994301432160FFF71DFC064641
:100F200027E02168490701D5002891D061681F2278
:100F3000120291432A6912021143616021689943A8
:100F400001432160FFF746FFE16809060A0F00E050
:100F5000B9E1BF49895CC840BE4908600020FFF77D
:100F600095FD002872D120E0FFF7F6FB801B0228D8
:100F7000B0D820684007F7D560681F210902884370
:100F800029690902084360600FE0206840084000BA
:100F90002060FFF7E1FB064604E0FFF7DDFB801B66
:100FA000022897D820684007F7D42878C0065FD574
:100FB000002F0CD0E869002849D02068FF210131BA
:100FC00008432060FFF7C8FB06462DE0E4E02068F8
:100FD000800502D5E8690028A7D060680721490389
:100FE0008843696A084360606068298C0002000ACF
:100FF000090608436060686A410B0120C003491C70
:101000008840E16809060A0F9149895CC840914906
:1010100008600020FFF73AFD002817D128E0FFF70D
:101020009BFB801B0228A3D820688005F7D5606849
:10103000072149038843696A084360606068298C16
:101040000002000A09060843606011E023E12168FC
:10105000FF20013081432160FFF77EFB064604E05C
:10106000FFF77AFB801B02289BD820688005F7D405
:101070002878794E000724D568690028306910D097
:10108000012108433061FFF767FB009005E0FFF79F
:1010900063FB0099401A02287ED830698007F6D594
:1010A0000FE0400840003061FFF756FB009005E07C
:1010B000FFF752FB0099401A02286DD8306980076B
:1010C000F6D42878400764D500200290A06BC000B9
:1010D00006D4A06B012109070843A06301200290F8
:1010E0005E480168C90511D4016882151143016089
:1010F000FFF732FB009005E0FFF72EFB0099401A46
:10110000642849D855480068C005F5D5FF20AA686D
:101110000130824203D131690143316111E0012183
:101120008902002A07D005231B029A4203D13269A3
:101130000A433261EFE732698243326130698843A2
:101140003061A86800280ED0FFF706FB009006E08B
:10115000FFF702FB0099411A414881421CD83069CF
:101160008005F5D50DE0FFF7F7FA009006E0FFF7F0
:10117000F3FA0099411A3A4881420DD83069800546
:10118000F5D40298002804D0A16B01200007814308
:10119000A1632878800600E07CE02ED53148A9695B
:1011A0004314002916D0A26801210A43A260626B91
:1011B0000A436263016A19430162FFF7CDFA0646EA
:1011C00004E0FFF7C9FA801B022863D8A0688007F3
:1011D000F7D512E0A16849084900A160016A994366
:1011E0000162FFF7B9FA064604E0FFF7B5FA801B83
:1011F00002284FD8A0688007F7D4A86A002864D0D6
:101200000C2F4DD0012636060228206805D0B043A9
:101210002060FFF7A1FA05463EE0B0432060FFF7EB
:101220009BFA074604E0FFF797FAC01B022831D863
:1012300020688001F7D4296BE86AE2680843696B8B
:10124000FD231B049A43114308430DE000100240A4
:10125000241F0008040000204010024000700040DD
:101260008813000000000140E060206830432060E7
:10127000FFF772FA054604E0FFF76EFA401B0228FA
:1012800008D820688001F7D51FE0FFF765FA401BFA
:10129000022801D90320FEBD20688001F5D414E0A6
:1012A000E06801210904EA6A014091420BD10F2153
:1012B00089042A6B0140914205D103218905084028
:1012C000696B884201D00120FEBD0020FEBD0000F8
:1012D000094910B5401E884201D9012010BD074CB4
:1012E00060610321081F00F02DFB0020A061072092
:1012F0002061002010BD0000FFFFFF0000E000E0C3
:10130000F0B502462032137E012B15D00127177647
:101310000223537605686C68AB687026B4430E6888
:10132000496826438024A34319436E6000688160A6
:10133000577600201076F0BD0220F0BD70B5040095
:1013400005D025462035687E002802D006E0012021
:1013500070BD00202876204600F00AF8022068764A
:10136000211D206800F0FAFB01206876002070BD86
:1013700010B50068084988420CD10848816B1022DA
:1013800011438163002211461120FFF7ADFB1120AC
:10139000FFF7A0FB10BD000000100040001002404D
:1013A0000268D36801210B43D3600068826852074A
:1013B000520F062A02D002680A43026000207047DA
:1013C000704770B50446006801690025C943890764
:1013D000002915DBC168C943890711D4E91E0161E1
:1013E00001202076206880698007204602D0FFF720
:1013F000E7FF04E000F078F8204600F076F8257664
:1014000020680169C943490717D4C168C94349071E
:1014100013D40421C9430161022020762068806929
:101420008005800F204602D0FFF7CAFF04E000F0DD
:101430005BF8204600F059F8257620680169C94319
:10144000090716D4C168C943090712D40821C94342
:101450000161042020762068C0698007204602D000
:10146000FFF7AEFF04E000F03FF8204600F03DF843
:10147000257620680169C943C90617D4C168C943E4
:10148000C90613D41021C9430161082020762068C1
:10149000C0698005800F204602D0FFF791FF04E06D
:1014A00000F022F8204600F020F825762068016937
:1014B000C943C90708D1C168C943C90704D1891EF6
:1014C0000161204600F012F820680169C94349060D
:1014D00009D4C168C943490605D44021C943016103
:1014E000204600F004F870BD7047704770477047A1
:1014F000FEE701688A69D243920701D400228A621A
:1015000000688169C943C90703D081690122114379
:1015100081617047F7B5044600680E468069C04394
:10152000C0062BD420272546403520688069C0435B
:10153000800612D5701CF8D0FFF70EF90299401AF8
:10154000B04201D8002EF0D1606C384360646F70F7
:101550000020A87028700120FEBD21681020C861FD
:101560002068C7612046FFF7C4FF20684168044A2D
:1015700011404160606C04210843E7E70020FEBD94
:1015800000E800FEF8B50446164615481D46DAB2D6
:10159000C3020090079F204600F024F83A462046F8
:1015A000069900F080F8002818D12846F5B20128E5
:1015B00009D02168300A88623A462046069900F030
:1015C00072F800280AD120688562009700228021E5
:1015D0002046069B00F01AF8002800D00120F8BD34
:1015E00000200080F0B50668059C7568064F600D08
:1015F000384385438805800D110408431843204370
:1016000005437560F0BD0000FF63FF03F8B51D469C
:1016100017460E46044609E0681C07D0FFF79CF801
:101620000699401AA8420BD8002D09D0206881697C
:10163000304688430FD00020B842EDD00020F8BDDE
:10164000616C202001436164403460700020A07010
:1016500020700120F8BD0120EEE770B516460D465A
:1016600004460FE0324629462046FFF753FF002884
:1016700001D0012070BDFFF76FF8801BA84208D889
:10168000002D06D020688069C0438006EAD400207F
:1016900070BD616C202001436164403460700020A3
:1016A000A0702070E5E770B516460D46044611E0BF
:1016B000324629462046FFF72DFF002801D00120A1
:1016C00070BD681C06D0FFF747F8801BA84208D8F9
:1016D000002D06D020688069C0438007E8D4002030
:1016E00070BD616C20200143616440346070002053
:1016F000A0702070E3E7000001B584B001216422EE
:1017000004A80B4602920191009000227821024821
:10171000FFF7CCF805B000BDAC00002001B584B0E7
:101720000121642204A80B460292019100904022FC
:1017300078210248FFF7BAF805B000BDAC000020E0
:101740001CB5002122480091204A01910260C1632A
:101750008160012481631205046142600246C16018
:1017600020321170FF235170C233436281621173C2
:1017700001638161082241634261C161FEF758FD46
:10178000002801D0FEF708FD012000030190694602
:1017900000940F48FEF702FD002801D0FEF7FCFC84
:1017A0000C48009069460A48FEF7F8FC002801D072
:1017B000FEF7F2FC0848009069460548FEF7EEFC8B
:1017C000002801D0FEF7E8FC1CBD00000024014009
:1017D00008000020020000040400000808B50848C2
:1017E000016B012211430163006B10400022009045
:1017F00011460920FFF778F90920FFF76BF908BDBA
:1018000000100240F0B587B014216846FEF78DFC49
:101810001F48C26A04210A43C262C26A0A40059292
:10182000C16A01252943C162C16A29400591C26A82
:1018300002210A43C262C06A03240840154FA40370
:1018400005902A4621463846FEF780FF124E0520B5
:10185000012231460007FEF779FF0094002401952C
:101860000294694638460394FEF7B4FE05200294BC
:1018700069460007009601950394FEF7ABFE3B20F6
:101880006A4631C269460548FEF7A4FE07B0F0BDBE
:101890000010024000080050F887000000040050CB
:1018A00010B513481149016012494160002181605F
:1018B0000161416181610122C161C2600162FEF783
:1018C0009BFF002801D0FEF767FC00210848FEF7C7
:1018D00049FF002801D0FEF75FFC00210448FEF715
:1018E00066FF002801D0FEF757FC10BD00540040F1
:1018F000AC000020380F30001CB500240E480094C6
:101900000C49019401601F21846041600B494461CE
:10191000C160FFF713FD002801D0FEF73DFC0094E5
:10192000694605480194FFF7EBFC002801D0FEF75B
:1019300033FC1CBD00100040F8000020E70300004D
:10194000704700008307FF22DB0E9A408907090ECB
:10195000994000280BDA0007000F08388308084870
:101960009B001818C36993430B43C36170478308F6
:1019700004489B001B181868904308431860704780
:1019800000ED00E000E400E070B500242046B03037
:10199000C0B2FFF7B1FE0020FFF7AEFE1020FFF748
:1019A000ABFE00250020FFF7B9FE6D1CEDB2802DC7
:1019B000F8D3641CE4B2082CE8D30021084600F0F8
:1019C00001F870BD10B50446B031C8B2FFF794FEFF
:1019D00020091030FFF790FE2007000F0121084377
:1019E000FFF78AFE10BD000070B5203A1E46D5B242
:1019F0007F2801D90020891CC9B2C0B2FFF7E2FFDD
:101A000006204543074800242D18285D002E00D1EC
:101A1000C043C0B2FFF782FE641CE4B2062CF4D3CC
:101A200070BD0000FC1C0008FFB581B017460E46D3
:101A3000044600250FE00A2A09D00C2A10D03146AE
:101A40002046049BFFF7D0FFA41D782C01D9002469
:101A5000761C6D1CEDB27A5D002AECD105B0F0BDAC
:101A6000FFF792FFF5E710B506246043FFF7DCFFB0
:101A700010BD7047704710B5FEF7ECFF10BD0000B9
:101A800010B59CB038216846FEF74FFB14210EA814
:101A9000FEF74BFB202113A8FEF747FB1548016812
:101AA0000322D2029143C2148918016002200090DF
:101AB00001210A90039140040C90000110210024A0
:101AC0000D900B9404916846FFF7C0F90F200E901B
:101AD00003200F9010941194012112940EA8FFF787
:101AE000C3F808201894139013A8FFF701F81CB04E
:101AF00010BD0000007000401048016882151143BD
:101B00000160C1680E4A1140C16001680D4A114070
:101B100001608168490849008160016801229204DE
:101B200091430160C168FD2212049143C16000210C
:101B300001610549C0038860704700000010024041
:101B40000C40FF88F6FFF6FE00ED00E010B50248FD
:101B5000FFF737FC10BD0000F800002070B50268E8
:101B600001239B07114C124D984203D0A04201D093
:101B7000A84203D17026B2434E683243984203D044
:101B8000A04201D0A84204D103231B029A43CB6890
:101B90001A4380239A430B691A4302608A68C2621F
:101BA000096881620121416170BD000000080140A7
:101BB0000014014002E008C8121F08C1002AFAD12F
:101BC00070477047002001E001C1121F002AFBD1BD
:101BD000704710B5AE20FFF78FFD0020FFF78CFD9A
:101BE0001020FFF789FD4020FFF786FD8120FFF7D9
:101BF00083FDCF20FFF780FDA120FFF77DFDC820EA
:101C0000FFF77AFDA620FFF777FDA820FFF774FD08
:101C10003F20FFF771FDD320FFF76EFD0020FFF797
:101C20006BFDD520FFF768FD8020FFF765FDD9200B
:101C3000FFF762FDF120FFF75FFDDA20FFF75CFDA3
:101C40001220FFF759FDDB20FFF756FD4020FFF77C
:101C500053FD2020FFF750FD0220FFF74DFD8D20A2
:101C6000FFF74AFD1420FFF747FDA420FFF744FDCE
:101C7000A620FFF741FDAF20FFF73EFDAF20FFF7A5
:101C80003BFDFFF781FE10BDFEF7ECFEFFF7F8FE0F
:101C9000FFF7B8FDFFF7A2FDFFF752FDFFF700FECB
:101CA000FFF72AFE0B48FFF77BFB012105200022EE
:101CB000C9030007FEF74AFD0748FFF78AFF012323
:101CC00006A203210720FFF7CEFE7D200001FEF7CC
:101CD00073FCFEE7F8000020AC0000200C57656C98
:101CE000636F6D650A0A20202057617368696E670B
:101CF000204D616368696E6500000000000000000F
:101D000000000000002F0000000007000700001482
:101D10007F147F1400242A7F2A1200626408132390
:101D200000364955225000000503000000001C2227
:101D30004100000041221C000014083E0814000865
:101D4000083E0808000000A0600000080808080815
:101D5000000060600000002010080402003E5149AD
:101D6000453E0000427F400000426151494600214B
:101D700041454B31001814127F1000274545453965
:101D8000003C4A49493000017109050300364949C0
:101D9000493600064949291E000036360000000079
:101DA00056360000000814224100001414141414C4
:101DB000000041221408000201510906003249596D
:101DC000513E007C1211127C007F49494936003E89
:101DD00041414122007F4141221C007F4949494144
:101DE000007F09090901003E4149497A007F08083E
:101DF000087F0000417F4100002040413F01007FFB
:101E000008142241007F40404040007F020C027FC6
:101E1000007F0408107F003E4141413E007F0909D8
:101E20000906003E4151215E007F091929460046FE
:101E3000494949310001017F0101003F4040403FD5
:101E4000001F2040201F003F4038403F006314081F
:101E500014630007087008070061514945430000FA
:101E60007F41410000552A552A55000041417F001D
:101E70000004020102040040404040400000010212
:101E80000400002054545478007F484444380038FB
:101E90004444442000384444487F00385454541883
:101EA00000087E0901020018A4A4A47C007F080495
:101EB00004780000447D4000004080847D00007F65
:101EC000102844000000417F4000007C0418047882
:101ED000007C0804047800384444443800FC24247E
:101EE00024180018242418FC007C08040408004866
:101EF0005454542000043F444020003C4040207C87
:101F0000001C2040201C003C4030403C0044281075
:101F10002844001CA0A0A07C004464544C44141429
:101F20001414141400000000000000000102030457
:101F300006070809030406080C10182030000000EA
:101F4000601F00080000002008000000B41B00080B
:101F5000681F00080800002030050000C41B0008AE
:081F6000000000000000200059
:04000005080000C12E
:00000001FF
