:020000040800F2
:100000000020002021510008015000080B5000087A
:1000100000000000000000000000000000000000E0
:100020000000000000000000000000001150000867
:1000300000000000000000001B50000825500008D0
:100040007151000871510008715100087151000888
:100050007151000871510008715100087151000878
:100060007151000871510008715100087151000868
:100070007151000871510008000000007151000822
:1000800000000000355000080000000000000000E3
:100090007151000800000000715100087151000802
:1000A0007151000871510008715100087151000828
:1000B00071510008715100080000000071510008E2
:1000C00010B5064C2378002B07D1054B002B02D02E
:1000D000044800E000BF0123237010BD7802002017
:1000E00000000000D05A0008044B10B5002B03D0CC
:1000F0000349044800E000BF10BDC04600000000F6
:100100007C020020D05A00080023C25C0133002A80
:10011000FBD1581E7047000003B4714649084000E7
:100120004900095E49008E4403BC70470022430821
:100130008B4274D303098B425FD3030A8B4244D3AF
:10014000030B8B4228D3030C8B420DD3FF220902F1
:1001500012BA030C8B4202D31212090265D0030BB0
:100160008B4219D300E0090AC30B8B4201D3CB03A6
:10017000C01A5241830B8B4201D38B03C01A5241E8
:10018000430B8B4201D34B03C01A5241030B8B42EA
:1001900001D30B03C01A5241C30A8B4201D3CB02D5
:1001A000C01A5241830A8B4201D38B02C01A5241BA
:1001B000430A8B4201D34B02C01A5241030A8B42BD
:1001C00001D30B02C01A5241CDD2C3098B4201D3D5
:1001D000CB01C01A524183098B4201D38B01C01A53
:1001E000524143098B4201D34B01C01A52410309CA
:1001F0008B4201D30B01C01A5241C3088B4201D379
:10020000CB00C01A524183088B4201D38B00C01A25
:10021000524143088B4201D34B00C01A5241411A4C
:1002200000D20146524110467047FFE701B5002059
:1002300000F006F802BDC0460029F7D076E7704707
:100240007047C046002B11D1002A0FD1002900D1E0
:10025000002802D00021C943080007B4024802A1C7
:100260004018029003BDC046D9FFFFFF03B46846A3
:1002700001B5029800F052F8019B9E4602B00CBCFA
:100280007047C046F0B5CE46474680B50700994650
:100290003B0C9C4613041B0C1D000E006146000421
:1002A000140C000C45434B4360436143C0182C0CB5
:1002B00020188C46834203D980235B029846C444AD
:1002C000494679437243030C63442D042D0CC9182D
:1002D000000440198918C0BCB946B046F0BDC046FC
:1002E00070B500220C4B04000D0001F0CBFB002880
:1002F00004D12000290001F0E3FA70BD064B002272
:100300002000290000F04AFF01F0DAFA80231B06E2
:100310009C466044F1E7C0460000E041F0B5574616
:100320004E464546DE46E0B504000D00924699462D
:1003300083B08B4230D82DD04946504601F0CAFBDD
:1003400029000600200001F0C5FB331A9846203B27
:100350009B4633D45A465346934042461F00534669
:1003600093401E00AF423AD8AF4200D178E05B46DE
:10037000A41BBD41002B00DA75E00022002300928F
:10038000019301235A46934001930123424693402F
:10039000009328E08242CFD90022002300920193EB
:1003A0000C9B002B01D01C605D600098019903B08C
:1003B000F0BCBB46B246A946A046F0BD424620234B
:1003C0009B1A5246DA40414613004A468A401700BB
:1003D00042461F43534693401E00AF42C4D90022F9
:1003E0000023009201934346002BD9D0FB077208EB
:1003F0001A4346467B080EE0AB4201D1A2420CD81C
:10040000A41A9D41012024196D410021013E2418A8
:100410004D41002E06D0AB42EED9013E24196D416C
:10042000002EF8D1009801995B4600196941002B14
:1004300024DB2B005A464446D3402A00E2401C00ED
:100440005B461500002B2ADB26009E403300260069
:100450004746BE403200801A9941009001919FE7C3
:10046000A342BCD883E74246202300219B1A0022E6
:10047000009101920122DA40019286E74246202350
:100480009B1A2A0046469A402300F34044461343F1
:100490002A00E2401C005B461500002BD4DA4246DD
:1004A0002F002023260097409B1ADE403B00334359
:1004B000CDE7C04670B5051E0ED001F0EDFA9E23C3
:1004C00004001B1A962B0CDC082801DD083CA54013
:1004D0006D026D0AD8B201E000200025C005284356
:1004E00070BD992B09DD020029001B3291404A1E84
:1004F00091410522121AD5400D43052C12DC29002A
:100500000C4E31406A0709D00F202840042805D03E
:1005100004314A0102D59F2331401B1B89014D0A3A
:10052000D8B2DBE7621F95402900024E31406A07CE
:10053000F4D0E9E7FFFFFFFBF0B54F464646D6464D
:100540000D000400C0B51F0011002803620F400A0F
:1005500010437A00520DE3003C039146640AFA0FFF
:100560004F0F6E0027439246B846760DED0FC90037
:10057000954200D199E04C46341BA446002C00DC87
:100580007CE04A46002A00D1B8E0C54A964200D134
:100590001CE180223C0012041443A0466246382A23
:1005A00000DD61E11F2A00DDCCE164462022121B40
:1005B000444694400F00A14664469140E7404C46B3
:1005C0004A1E91413C43424621436446E240801A20
:1005D0005C1AA3429B415F42C71B3B0200D4D0E0A0
:1005E0007F027F0A002F00D1FFE0380001F054FAAB
:1005F00001000839202322005B1A8F40DA408C402A
:100600001743B14200DAFFE0891B4B1C1F2B00DDB2
:10061000A8E020223900D21A200094409140D8400E
:10062000621E9441DF40002601430C43630709D05A
:100630000F232340042B05D0231DA342A441644271
:100640003F191C003B0200D49EE0954B01369E42B0
:1006500000D1B7E0934AE40817407B0771057F0299
:1006600023433F0B4A0D12053A43ED072A43180076
:100670001100E0BCBA46B146A846F0BD002C4BD0F4
:100680004C46A41BA446002E00D023E104001C43CA
:1006900000D1AFE16246541E012A00D115E2804D1F
:1006A000AC4500D1C8E1A4461BE14A46B21A9446C3
:1006B000002A00DCACE04A46002A43D0784A964241
:1006C00000D1AFE180223C0012041443A0466246F0
:1006D000382A67DC1F2A00DC5FE14746203AD74012
:1006E0006246202A05D064464022121B44469440AC
:1006F00021434A1E91410C003C4357E03A000A4313
:1007000000D105E12200013A012C00D182E1644CC4
:10071000A4455BD0944641E7634C771C274200D048
:10072000C4E004001C43002E00D069E1002C00D17D
:10073000BFE144460C4300D0D0E14207DB0813433D
:10074000C00829E03A000A4300D170E162466446DD
:10075000013A012C00D1E0E0514CA44500D161E107
:100760009446B4E73A001F39CA401100202B03D049
:100770004022D31A9F403C43631E9C410027002621
:100780000C43630700D053E7B446E4087B072343D8
:10079000F808434A94451DD06246070352053F0BB3
:1007A000520D60E744460C43621E9441E4189C429B
:1007B0009B415F423F183B02E3D5394B01369E42D5
:1007C00000D0B5E03200002700234CE74207DB08E9
:1007D0001343C0081A00024300D1E1E180273F0320
:1007E00007433F032E4A3F0B3DE7200001F054F939
:1007F000010018311F2900DCFCE60838844027007E
:100800000024B14200DBFFE6264A761A17400DE7C6
:10081000002A2FD04A46921B9446002E00D1ADE00C
:100820001F4A914500D10FE1802212041043624615
:10083000382A00DD0FE11F2A00DD80E16446202216
:100840001E00121B6746040093409440FE405A1E4F
:100850009341F84034431C43804464188C42BF41A8
:100860007F424E464744A6E742460A4311004A1ECD
:100870009141ADE60C4C721C224200D0A1E0020076
:100880001A43002E00D0FAE0002A00D145E13A00D8
:100890000A4300D046E14207DB081343C0087BE768
:1008A000FF070000FFFF7FFFFE07000047465C1ABE
:1008B000C21BA342BF417F42B94617004A46BF1A36
:1008C0003A0200D58DE023003B4300D08AE60020A9
:1008D000002561E7B44CA14500D1ADE0802424049B
:1008E00020436446382C3DDC62461F2C00DDB7E017
:1008F00020251E002D1B0400AB40AC40D640D0404C
:1009000042465D1EAB413443121A904623432CE00D
:100910004207DB081343C0083BE75C189C429B413D
:1009200040445B42C71801263B0200D429E7022657
:100930009E4A63081740012214401C43FB071C43D6
:100940007F0873E64446203AD4406246202A05D008
:1009500067464022D21B4746974039434A1E914181
:10096000214335E60343581E8341CC1AA142BF41BF
:1009700043467F4255464E46DF1B2EE602001A4391
:1009800000D1BDE062466446013A012C00D1E5E0A9
:10099000854CA44558D0944649E764462022121B52
:1009A000444694400F00A14664469140E7404C46BF
:1009B0004A1E91413C4342460C436146CA4080185E
:1009C000F4E6794CA24200D1FDE6591899429B41C8
:1009D00040445F42C719FC07490816000C437F08D2
:1009E000CFE6CC1AA142BF4143467F42181A554672
:1009F000C71BF7E5C9087B0755460B43F808C8E64F
:100A0000002C00D081E043460B4315D18020002507
:100A10000003E3E65C1AA3429B41C71B5B4201262D
:100A2000FF1ADAE54207DB081343C008D2E64207A3
:100A3000DB081343C008ACE643464246C9085B07DF
:100A400055460B43D008C5E6434642465B07C908F6
:100A50000B43D008BEE603431C00631E9C41FCE62A
:100A60000200203CE24014006246202A03D04025C8
:100A7000AD1AA8400343581E8341234375E7002A5B
:100A8000E2D03A000A43CDD04207DB08134380226C
:100A9000C0081203104206D0FC08144203D1200003
:100AA000CB087A0713435A0FDB005207DB081343C6
:100AB00090E643460B4300D109E743464246C90846
:100AC0005B0755460B43D00866E6CC1AA142894124
:100AD0003F1A4942554601267F1A7EE542465C1A76
:100AE000871AA34292415242BF1A3A023DD5CC1A0C
:100AF000A1428941434649421F1A55467F1A95E54E
:100B00007B07C9080B43F80843E64446DB080C435F
:100B100030D142071343C0085CE67B07C9080B438A
:100B2000F80839E65C189C429B4140445B42C71878
:100B30003B0200D425E61D4B01261F4021E60400A0
:100B4000203AD4406246202A04D040226646921BB6
:100B5000904003435A1E93411C437EE65C188C422E
:100B60008941404449424718DDE623003B4300D118
:100B7000ADE606E6440723438024C0082403204250
:100B800008D04246D608264204D155463000CB084C
:100B900051070B435A0FDB00DB085207134319E6DA
:100BA0000023014A1F005EE5FF070000FFFF7FFFF3
:100BB000F0B557464E464546DE46E0B5814605004F
:100BC0000C03480092461F0085B0240B400DCE0F49
:100BD000002800D156E1D44B984200D172E16B0F4E
:100BE000E4001C4380231B0423439846CF4BED00B5
:100BF0009B4600239946834400933C037B00504668
:100C0000240B5B0DFF0F002B00D11FE1C64A93425E
:100C100000D162E1C549420F8C46E40059461443B5
:100C2000802263441204CB1A14439B46C200002066
:100C300033007B409A464B460F2B27D8BC499B007C
:100C4000CB589F46B246009B022B16D0032B00D1F7
:100C50008EE2012B00D0D9E000230024002552466B
:100C60001B052343D20713432800190005B0F0BC2D
:100C7000BB46B246A946A046F0BD00240025AA4BBB
:100C8000EDE7BA46A04615000090DCE7444500D2E7
:100C9000C7E100D1C2E101235B429C462E004046E1
:100CA0000025E3442302140E1C431B0C9946230425
:100CB0001F0C1202494600920197FFF7BDFA02008D
:100CC0007A430B04310C804619438A4207D9012329
:100CD0005B429C460919E0448C4200D807E2881A1E
:100CE0004946FFF7A9FA09048C4631046646019A81
:100CF000090C4243030031438A4204D90919013BDC
:100D00008C4200D8EDE1881A424612041A439046FC
:100D10004146009B0E041B0C1F000293009B360CE7
:100D20001B04190C0B007343120C7E4303915143B7
:100D30007A431F0CBC4676186644B14203D9802121
:100D400049028C466244310C8A1831041E04360C68
:100D50008E19904202D312D1B54210D24346591E89
:100D6000009B9C4665441F009D429B415B421B19B2
:100D7000C018844200D2A0E100D19BE18846AE1B9E
:100D8000B542AD41801A6D42401B844200D1D5E18D
:100D90004946FFF751FA019A0B044243310C050012
:100DA00019438A4200D96CE1881A4946FFF744FA90
:100DB000019A360442430904360C03000E43B24242
:100DC00000D953E10398B61A02002D041D43029F77
:100DD0002B041B0C5A437B439C46290C4843130CA1
:100DE000844463447943984203D980204002844676
:100DF0006144180C12041B04120C41189B188E42FB
:100E000000D2FFE000D1FAE001231D43494A5A44D1
:100E1000002A00DCAAE06B0700D03DE1ED08434664
:100E2000DB0106D54246444B1A4090468022D20050
:100E30005A44424B9A4200DD1FE743465B071D437D
:100E4000434652055C02240B530D08E752462243E9
:100E500000D17BE0002C00D1FAE0200000F01CFE65
:100E600002000B3A1D2301009B1A52460839DA4052
:100E70008C40144352468A40314B58449B4683442D
:100E80000020D5E64B462343984644D0002C00D1A1
:100E9000CEE0200000F000FE010002000B391D230F
:100EA0005B1A49461000D940083884400B004D4673
:100EB0002343984685402348831A9B46002399463E
:100EC00000939AE64B46234398461DD10823994642
:100ED000063B0025834600938FE65246224309D104
:100EE000022349461943184B89469C460024022098
:100EF000E3449DE603234A461A43134B91469C461E
:100F000052460320E34493E60C239946093BA0464E
:100F10008346009371E60423994600239B460133E0
:100F20000025009369E6C046FF07000001FCFFFFB3
:100F30008C5B0008FF030000FFFFFFFEFE070000C0
:100F4000F30300000DFCFFFF01F8FFFF49460123FA
:100F500019438946002401206AE6002380249A462A
:100F600000258A4B24037AE601256D4201239B1A52
:100F7000382B00DD70E61F2B00DCBFE01F2149424B
:100F80008A1A4146D1400A00202B04D04146804BAA
:100F90005B4499400D436B1E9D4107232A431D006E
:100FA00000241540134200D1D4E00F21002311404A
:100FB000042900D1CBE0111D9142924152429B186D
:100FC0000A00190200D4C2E001230024002546E6ED
:100FD000802341461B03194208D01C4206D11C4302
:100FE0002403BA461500694B240B38E68024434697
:100FF00024031C432403B246644B240B2FE6002B2E
:1010000000D103E7A619681EA64200D28DE08E42E9
:1010100000D2A3E000D1B3E00500F5E6AA4200D972
:1010200039E64346DE0758086B081E43ED0739E6EC
:10103000484600F031FD01000200153120321C2924
:1010400000DC2CE74B46083883400025984632E701
:1010500000F022FD03001A00153220301C2A00DCAB
:1010600000E75446083B00229C4005E73619013B47
:10107000B44200D9A6E6B24200D8A3E6831E3619D0
:10108000A0E60919013D8C4200D98DE68A4200D8BC
:101090008AE6851E091987E60F232B40042B00D111
:1010A000BCE605235B42AB429B4104355B42ED0845
:1010B0009844B4E6AF4200D960E6824204D800D03A
:1010C0005CE6AE4200D859E602235B429C46009B98
:1010D000E0449C4665449D429B415B421B19C018FD
:1010E0004DE68A4200D80EE6831E09190BE68A42B5
:1010F00000D8F4E5831E98460919F0E52549280033
:1011000059448D4042468A40691E8D414146D8402F
:10111000D94002432A430B00510700D151E70F2168
:101120001140042900D046E74BE705008E4200D06D
:101130006AE6009A934200D066E667E6164A5A4489
:10114000002A00DC10E701230025984467E65D07CC
:101150005B021C0BD2080023154380E50098023D7A
:1011600042008242BF417F423C1936190092DDE7BE
:101170008024434624031C432403044B240B6EE5C4
:10118000009A9A42EAD30500D3E7C046FF07000061
:101190003E0400001E040000FF030000F8B557469F
:1011A0004E464546DE46E0B51E0017004A000B03DA
:1011B000520D5B0A9046420F1A43CD0FCD4C3103BE
:1011C000C300944670007A0F490AFF009A46B94658
:1011D000400DF60F1143A04200D1B1E0012256406C
:1011E000B346B54200D188E04246121A002A00DC1C
:1011F000AEE0002800D1C1E0BE48804500D151E1F9
:10120000802000040143382A00DD7BE11F2A00DD35
:10121000EEE120203E00801A0C00D640D1408740ED
:1012200062468440521A781E8741944634432743CD
:10123000DC1BA3429B4162465B42D31A99464B4654
:101240001B0200D418E14B465802430A99464B460C
:10125000002B00D137E1484600F01EFC01000839A0
:101260002023220048465B1ADA4088408C404346DF
:101270001043884500DD36E1C91A4B1C1F2B00DDE9
:10128000EAE020222600D21A01009440DE40D84035
:1012900000239140621E94418146984631430C439D
:1012A000630709D00F232340042B05D0231DA3423D
:1012B000A4416442A1441C004B461B0200D4DEE062
:1012C00041468C4B0131994200D1E7E04B468A48B8
:1012D000E4080340180049055B07400223434A0D18
:1012E000040B1205ED0722432A4318001100F0BC3D
:1012F000BB46B246A946A046F8BD4246121A002A8D
:1013000052DD002800D19CE0A04500D1CAE0802039
:1013100000040143382A00DD49E11F2A00DC97E17F
:1013200010000E002038C640202A04D04020821A27
:1013300091400F43B9464C46621E944134433AE112
:101340000A003A4328D0B346B5422BD06B4A4244F8
:10135000002A5DD042464446821A002C00D0F5E0B7
:1013600065461D4300D19CE1551E012A00D1FBE1D9
:10137000604CA24200D1BDE12A00F0E008003843F1
:1013800000D1C3E0501E012A00D1A8E1594CA2426D
:1013900000D187E0020036E701225640B346B5424D
:1013A00000D021E7554A4244002A00D1B5E0424628
:1013B0004446821A002C00D138E14E4EB04200D192
:1013C000DEE18026644636043443A446382A00DD34
:1013D00096E11F2A00DD24E22026B41AA2466446C4
:1013E0005646B440A1461C004E46D4402643340025
:1013F0005646B3405E1EB3411C436346D340C918F2
:10140000E419BC42BF417F42B94680468944D8E0D6
:1014100040463B4C0130204200D0B4E0404600281A
:1014200000D044E16046184300D190E10800384301
:1014300000D0AAE16146DB0849070B436146CC08AE
:1014400027E00800384361D0501E012A00D139E15D
:10145000A24227D002005DE702001F39CA401100F6
:10146000202B03D04022D31A98400443631E9C4192
:101470000023994698460C43630700D012E74B4679
:101480004A46E4085B072343D408424619498A4286
:101490000ED024035205240B520D22E70A0000242B
:1014A00000231EE7DB086246520713436246D40856
:1014B0001A00224300D1FCE18022120314432403CA
:1014C0000C4A240B0DE7200000F0E6FA0100183169
:1014D0001F2900DCC4E6083884404346200000246D
:1014E000884500DCC8E6044A5B1A104098468146ED
:1014F000D6E6C046FF070000FFFF7FFF01F8FFFFB1
:10150000FE0700000F437A1E974191E66146DB0813
:1015100049070B436146CC08B8E74046D34C01303D
:10152000204200D0A2E04046002800D001E1604601
:10153000184300D15EE10800384300D05FE1614606
:10154000DB0849070B436146CC08A2E7C84DA84217
:1015500000D1CFE0802564462D042C43A446382AD0
:1015600056DC1F2A00DDD1E020251E00AD1A64469E
:10157000AB40AC40D6405D1EAB4134432343644690
:10158000D440091B49E06046DC1B461AA342804157
:101590004042814630004E46801B8146000276D490
:1015A0004B46234300D052E60024002571E739431F
:1015B0000C00621E9441E4189C429B415B426344D0
:1015C00099464B461B0200D456E701239C46A84B84
:1015D000E044984538D04B46A64801220340180005
:1015E000630814401C43C3071C434308994657E64D
:1015F00010000E002038C640202A04D04020821A55
:1016000091400F43B9464F467A1E974137430FE644
:1016100062461A4313005A1E9341FC1AA742BF4167
:101620007F42CB1B99465D46804608E666461E43D0
:1016300000D1BEE0561E012A00D109E18C4CA24225
:1016400000D119E13200C1E642460024002348E6F9
:1016500020200C00801A3E0087408440D640781E2F
:101660008741D14034433C438C44A4E7804A9042B4
:1016700000D1E9E0DF199F429B4161445B42C918F8
:10168000CC077F084B08994680463C43F4E6FC1A99
:10169000A742BF4163467F42C91ACB1B99465D46AC
:1016A000D5E5FF084B075D463B43CC08EEE66246B6
:1016B0001A4300D082E00B003B431BD1802400255D
:1016C0002403F9E6DC199C429B41614489465B4254
:1016D00099444B461B0244D401239846CCE6DC1BBC
:1016E0006246A3429B41511A5B42CB1A99460123A1
:1016F0009846A4E5FF084B075D463B43CC08D7E678
:1017000062461A431400631E9C4179E61500644644
:10171000203DEC40A046202A05D040256446AA1A68
:10172000944023439A465446631E9C4143462343B8
:1017300073E762461A4323D00A003A4300D0A0E080
:101740006246DB08520713436246D408B0E60B003A
:101750003B4300D128E7FF084B075D463B43CC08DD
:1017600097E60223984636E7FC1AA742BF41634634
:101770007F42C91ACB1B994601235D4698465EE518
:101780004B07FF083B43CC0892E6DC1B6046A342B4
:10179000B641401A7642801B8146000260D5FC1A91
:1017A000A742BF4163467F42C91ACB1B99465D469B
:1017B00076E5FF084B073B43CC0867E60A00DB08E9
:1017C0003A4300D16FE66246520713436246D4089B
:1017D00080221203144207D0C808104204D15D468B
:1017E0000400FB0849070B435A0FDB00DB085207D4
:1017F00013435DE64B07FF083B43CC0849E6DC1981
:101800009C429B41614489465B4299444B461B0282
:1018100000D431E64A46174B1A40012391469846B8
:101820002AE616006446203EF440A046202A05D051
:1018300040266446B21A944023439A465446631E97
:101840009C4143461C43DBE502000024002348E59D
:10185000DC19BC42BF41614489467F42B94438E744
:101860004B46234300D19FE606E6C046FE07000034
:10187000FF070000FFFF7FFFFF084B073B43CC083B
:1018800016E66246DB08520713436246D4088022FC
:101890001203144207D0C808104204D15D46040068
:1018A000FB0849070B435A0FDB005207DB081343C1
:1018B000FEE50023014A1C0013E5C046FF070000B7
:1018C0000A0030B5134C530009030500090B002032
:1018D0005B0DD20FA34204DD0F48834202DD0F4BA4
:1018E000D01830BD8020400301430D48C01A1F2886
:1018F00008DD0C48C31AD9400B005842002AF0D129
:101900001800EEE7084CC540A446634499400B001C
:101910002B43F2E7FE0300001D040000FFFFFF7FE2
:101920003304000013040000EDFBFFFF70B5002836
:1019300016D0C317C5185D40C40F280000F0ACF8DE
:10194000114A121A0A2816DC03002E0015339E4095
:101950000B23181AC54052052D032D0B530D03E020
:1019600000240023002500261B052B43E407234306
:101970003000190070BD0B38854052052D0300263C
:101980002D0B530DF0E7C0461E04000070B5430058
:101990004602C40FFE201B0E591C750A08420CD0CB
:1019A000E022920094466D07360B63441B053343D7
:1019B000E40723432800190070BD002B14D1002D2B
:1019C0001BD0280000F068F80A281CDC0B232E002E
:1019D0001B1ADE40030015339D400E4A3603121ACF
:1019E0005205360B530DE1E7002D09D08022360B4E
:1019F0001203094B6D071643D8E700230026D5E7ED
:101A00000026054BD2E703000B3B9D402E0000252E
:101A1000E3E7C04689030000FF070000844610008A
:101A200062468C461900634600E0C0461FB500F0D0
:101A300005F9002801D40021C8421FBD10B500F0EF
:101A400055F84042013010BD10B500F0F7F80028FD
:101A500001DB002010BD012010BDC04610B500F014
:101A6000EDF8002801DD002010BD012010BDC046AA
:101A700010B500F07DF8002801DC002010BD012029
:101A800010BDC04610B500F073F8002801DA002040
:101A900010BD012010BDC0461C2101231B0498422B
:101AA00001D3000C10391B0A984201D3000A0839EF
:101AB0001B09984201D30009043902A2105C4018A6
:101AC0007047C0460403020201010101000000004A
:101AD0000000000010B5002903D1FFF7DDFF203022
:101AE00002E00800FFF7D8FF10BDC046F0B54E4633
:101AF0004546DE4657469046E0B517001A03120BDE
:101B00000500844619480E034C0091465A00DB0F2D
:101B10009B46360B640DC90F520D844219D0824288
:101B200010D0012094420ED14E450CD10120C44565
:101B300009D1594517D0002C05D130002843431E48
:101B4000984100E00120F0BCBB46B246A946A04641
:101B5000F0BD330001202B43F5D1A242F3D14B4617
:101B60003B43F0D1E2E70020EDE7C046FF0700006D
:101B7000F0B54746CE460400180016001B031B0BA9
:101B80002D4D4A00994680B543000F03A446B04648
:101B90003F0B520DC90F5B0DC00FAA4221D0AB42C3
:101BA00013D0002A22D13C43002B02D14D462E43B4
:101BB00022D0002C10D0814222D0022001390840CE
:101BC0000138C0BCB946B046F0BD4D462E4329D1C0
:101BD000002AF0D13C43EED10028F2D1012040424E
:101BE000EFE73D0025431DD19342EED0002BE2D11B
:101BF0004C462643DFD1E0E70020002CE1D0DCE7B3
:101C00009A420ADCE8DB4F45D7D80ED000204F457A
:101C1000D7D20029E2D00800D3E743425841400020
:101C20000138CEE702204042CBE7C445C5D80020AA
:101C3000C445C6D2EDE7C046FF070000F0B54746F1
:101C4000CE460400180016001B031B0B2C4D4A0047
:101C5000994680B543000F03A446B0463F0B520D92
:101C6000C90F5B0DC00FAA420DD0AB4210D0002AA5
:101C700027D13C43002B11D14D462E430ED10020DD
:101C8000002C15D00EE03D00254310D1934218D111
:101C90004D462E430BD1002A02D13C43002C0BD0E1
:101CA000814214D0022001390840013800E00220AE
:101CB000C0BCB946B046F0BD0028F9D10120404271
:101CC000F6E7002BECD14C462643E9D1EAE79A42ED
:101CD00004DD4342584140000138E9E79A42EBDB1A
:101CE0004F45DFD806D000204F45E1D20029E5D08E
:101CF0000800DDE7C445D5D80020C445D8D2F5E7B3
:101D0000FF07000080B582B000AFFB1D00221A70F3
:101D10000B4B1A680A4B40210A431A60002000F05E
:101D200011F8031E03D0FB1D01221A7001E003F01D
:101D3000FFF8FB1D1B781800BD4602B080BDC046F1
:101D40000020024090B583B000AF7860144B1C684F
:101D5000144B1B781900FA239800FEF7E7F90300EB
:101D600019002000FEF7E2F90300180000F0A1FDC1
:101D7000031E01D001230FE07B68032B0BD8796889
:101D800001235B420022180000F06EFD064B7A68CA
:101D90001A60002300E001231800BD4603B090BD87
:101DA00010020020040000200000002080B500AFD9
:101DB000054B1B781A00054B1B68D218034B1A60A1
:101DC000C046BD4680BDC0460400002094020020ED
:101DD00080B500AF024B1B681800BD4680BDC046F1
:101DE0009402002080B584B000AF7860FFF7F0FF68
:101DF0000300BB607B68FB60FB68013305D00A4BC6
:101E00001B781A00FB689B18FB60C046FFF7E0FFD9
:101E10000200BB68D31AFA689A42F7D8C046C04697
:101E2000BD4604B080BDC0460400002080B582B02D
:101E300000AF78607B68002B01D1012359E17B68FA
:101E40005B6D002B0AD17B6800229A657B6850226B
:101E5000002199547B68180003F07EF87B685B6D65
:101E600010221340102B05D07B681B689B6804224E
:101E700013400BD07B685B6D10221A437B685A6558
:101E80007B68502200219954012332E17B685B6D0D
:101E90009A4A134002221A437B685A657B681B6882
:101EA0009B6803221340012B08D17B681B681B68C9
:101EB00001221340012B01D1012300E00023002B5C
:101EC00049D17B685A68C0231B069A420BD07B68B5
:101ED0005A688023DB059A4205D07B685A688023C4
:101EE0001B069A4211D17B681B681A697B681B68C4
:101EF000920092081A617B681B6819697B685A68AE
:101F00007B681B680A431A6114E07B681B681A69C6
:101F10007B681B68920092081A61794B1A68784BAB
:101F200078490A401A60764B19687B685A68744B86
:101F30000A431A607B681B68DA687B681B68182193
:101F40008A43DA607B681B68D9687B689A687B681B
:101F50001B680A43DA606A4B1A68694B6A490A408F
:101F60001A60674B19687B685B6B5A06644B0A43BF
:101F70001A607B681B689A6880235B05134008D150
:101F80007B681B689A687B681B68802149050A4347
:101F90009A607B681B68DA687B681B685B490A404B
:101FA000DA607B681B68D9687B68DA687B681B69C4
:101FB000022B01D1042300E000231A437B68202078
:101FC0001B5C5B031A437B682C201B5C5B001A4381
:101FD0007B681B6B1A437B689B699B031A437B6876
:101FE000DB69DB031A437B681B680A43DA607B68A2
:101FF0005A6AC223FF339A420BD07B681B68D968A8
:102000007B685A6A7B689B6A1A437B681B680A4331
:10201000DA607B6821229B5C012B1AD17B6820222D
:102020009B5C002B09D17B681B68DA687B681B68A6
:10203000802149020A43DA600BE07B685B6D202255
:102040001A437B685A657B689B6D01221A437B6843
:102050009A657B68DB6B012B1FD17B681B681A6953
:102060007B681B682A490A401A617B681B681969EA
:102070007B681A6C7B685B6C1A437B689B6C1A43A9
:102080007B681B680A431A617B681B681A697B6856
:102090001B6801210A431A610EE07B681B681B69FB
:1020A00001221340012B07D17B681B681A697B68EA
:1020B0001B6801218A431A617B681B685A697B6827
:1020C0001B6807218A435A617B681B6859697B68D2
:1020D0009A6B7B681B680A435A617B6800229A6589
:1020E0007B685B6D0322934301221A437B685A6528
:1020F00000231800BD4602B080BDC046FDFEFFFFB4
:1021000008270140FFFFC3FFFFFFFFFD1902FEFF8D
:1021100003FCFFFF90B585B000AF78600F23FB187C
:1021200000221A707B681B689B680422134038D118
:102130007B6850229B5C012B01D1022338E07B6835
:102140005022012199547B68DB69012B07D00F23B2
:10215000FC187B68180000F09FF9030023700F2320
:10216000FB181B78002B20D17B685B6D124A134053
:10217000802252001A437B685A657B6800229A6568
:102180007B685022002199547B681B681C221A60CE
:102190007B681B689A687B681B6804210A439A6005
:1021A00003E00F23FB1802221A700F23FB181B7881
:1021B0001800BD4605B090BDFEF0FFFFB0B584B07D
:1021C00000AF78600F23FB1800221A707B68502242
:1021D0009B5C012B01D1022329E07B685022012165
:1021E00099540F257C197B68180000F024FA03002D
:1021F00023707B191B78002B12D17C197B68180087
:1022000000F0B2F9030023707B191B78002B07D173
:102210007B685B6D084A134001221A437B685A654C
:102220007B685022002199540F23FB181B7818005B
:10223000BD4604B0B0BDC046FEFEFFFF80B584B011
:1022400000AF786039600023BB600023FB607B68CF
:102250005B69082B02D10823FB6014E07B681B68D4
:10226000DB6801221340012B0BD17B685B6D2022C0
:102270001A437B685A657B685022002199540123D8
:1022800072E00C23FB60FFF7A3FD0300BB601FE0BF
:102290003B6801331CD03B68002B07D0FFF798FD4B
:1022A0000200BB68D31A3A689A4211D27B681B6855
:1022B0001B68FA6813400BD17B685B6D04221A43DC
:1022C0007B685A657B6850220021995403234BE0B8
:1022D0007B681B681B68FA681340D9D07B685B6D0C
:1022E000802292001A437B685A657B681B68DA6813
:1022F000C0231B0113402ED17B6820229B5C002B46
:1023000029D17B681B681B6808221340082B22D147
:102310007B681B689B680422134010D17B681B6894
:102320005A687B681B680C218A435A607B685B6D26
:102330000F4A134001221A437B685A650BE07B6801
:102340005B6D20221A437B685A657B689B6D012276
:102350001A437B689A657B689B69002B03D17B6875
:102360001B680C221A6000231800BD4604B080BD13
:10237000FEFEFFFF80B582B000AF78607B681B680F
:102380001B6C1800BD4602B080BD000080B582B055
:1023900000AF786039607B6850229B5C012B01D1D3
:1023A00002236CE07B685022012199547B681B68F2
:1023B0009B68042213400BD07B685B6D20221A437C
:1023C0007B685A657B68502200219954012356E0AE
:1023D0003B685B682C4A934228D07B681B68996AEB
:1023E0003B681B685B035A0B7B681B680A439A6255
:1023F0003B681A688023DB02134009D0234B1A681C
:10240000224B802109040A431A600A2000F060F977
:102410003B681A6880239B0213402BD01B4B1A6821
:102420001A4B8021C9030A431A6023E07B681B68AA
:102430009A6A3B681B685B035B0BD9437B681B682C
:102440000A409A623B681A688023DB02134005D079
:102450000E4B1A680D4B0E490A401A603B681A6809
:1024600080239B02134005D0084B1A68074B09498B
:102470000A401A607B6850220021995400231800FA
:10248000BD4602B080BDC0460110000008270140D3
:10249000FFFF7FFFFFFFBFFF80B584B000AF786014
:1024A0000023FB607B681B689B6803221340012BA1
:1024B00008D17B681B681B6801221340012B01D1E6
:1024C000012300E00023002B46D17B681B689B683A
:1024D000244A13400DD07B685B6D10221A437B6841
:1024E0005A657B689B6D01221A437B689A650123BC
:1024F00033E07B681B689A687B681B6801210A438C
:102500009A60012000F0E4F8FFF762FC0300FB6032
:102510001BE0FFF75DFC0200FB68D31A0A2B14D9FD
:102520007B681B681B6801221340012B0DD07B6860
:102530005B6D10221A437B685A657B689B6D012294
:102540001A437B689A65012307E07B681B681B6858
:1025500001221340012BDCD100231800BD4604B03A
:1025600080BDC0461700008080B584B000AF7860A1
:102570000023FB607B681B689B6803221340012BD0
:1025800008D17B681B681B6801221340012B01D115
:10259000012300E00023002B48D07B681B689B6868
:1025A00005221340012B10D17B681B689A687B6859
:1025B0001B6802210A439A607B681B6803221A6029
:1025C000FFF706FC0300FB6029E07B685B6D1022CF
:1025D0001A437B685A657B689B6D01221A437B68AE
:1025E0009A65012323E0FFF7F3FB0200FB68D31A8F
:1025F0000A2B14D97B681B689B6801221340012BAE
:102600000DD17B685B6D10221A437B685A657B682D
:102610009B6D01221A437B689A65012307E07B6862
:102620001B689B6801221340012BDCD0002318009B
:10263000BD4604B080BD80B584B000AF7860002393
:10264000FB607B681B689B68042213403AD07B6860
:102650001B689B6804221340042B0DD17B681B6808
:102660009B680222134007D17B681B689A687B68CD
:102670001B6810210A439A60FFF7AAFB0300FB6066
:102680001AE0FFF7A5FB0200FB68D31A0A2B13D947
:102690007B681B689B68042213400DD07B685B6DD0
:1026A00010221A437B685A657B689B6D01221A438E
:1026B0007B689A65012306E07B681B689B6804229F
:1026C0001340DED100231800BD4604B080BD0000D9
:1026D00080B584B000AF78600B4B1B680B491800C5
:1026E000FDF724FD03001A007B685343FB6002E002
:1026F000FB68013BFB60FB68002BF9D1C046C0467C
:10270000BD4604B080BDC0461002002040420F000C
:1027100080B582B000AF0200FB1D1A70FB1D1B7854
:102720007F2B09D8FB1D1B781A001F231A40044B6E
:10273000012191400A001A60C046BD4602B080BD2A
:1027400000E100E090B583B000AF02003960FB1DEE
:102750001A70FB1D1B787F2B28D82F4AFB1D1B7876
:102760005BB29B08C0339B009B58FA1D1278110086
:1027700003220A40D200FF2191400A00D2431A40AE
:1027800011003B689B01FF221A40FB1D1B781800BB
:1027900003230340DB009A401F48FB1D1B785BB2FC
:1027A0009B080A43C0339B001A5031E01B4AFB1DB3
:1027B0001B7819000F230B40083B9B0806339B0036
:1027C000D31804331B68FA1D1278110003220A4043
:1027D000D200FF2191400A00D2431A4011003B6809
:1027E0009B01FF221A40FB1D1B78180003230340A6
:1027F000DB009A400948FB1D1B781C000F23234077
:10280000083B9B080A4306339B00C31804331A6035
:10281000C046BD4603B090BD00E100E000ED00E021
:1028200080B582B000AF78607B685A1E80235B045D
:102830009A4201D3012310E00A4B7A68013A5A60A8
:1028400001235B4203211800FFF77CFF054B0022A8
:102850009A60044B07221A6000231800BD4602B09C
:1028600080BDC04610E000E080B584B000AFB96024
:102870007A600F217B18021C1A70BA687B181B78CB
:102880005BB211001800FFF75DFFC046BD4604B003
:1028900080BD80B582B000AF0200FB1D1A70FB1D29
:1028A0001B785BB21800FFF733FFC046BD4602B08D
:1028B00080BD80B582B000AF78607B681800FFF7FC
:1028C000AFFF03001800BD4602B080BD80B586B0E2
:1028D00000AF7860396000237B610023FB60002338
:1028E0003B614FE13B681B6801217A6991400A0016
:1028F0001340FB60FB68002B00D140E13B685B6844
:1029000003221340012B05D03B685B680322134070
:10291000022B30D17B689B683B617B695B000322A3
:102920009A401300DA433B6913403B613B68DA6825
:102930007B695B009A4013003A6913433B617B68F3
:102940003A699A607B685B683B6101227B699A40C7
:102950001300DA433B6913403B613B685B681B092A
:1029600001221A407B699A4013003A6913433B6184
:102970007B683A695A603B685B6803221340032B0B
:1029800017D07B68DB683B617B695B0003229A4060
:102990001300DA433B6913403B613B689A687B69EB
:1029A0005B009A4013003A6913433B617B683A69C4
:1029B000DA603B685B6803221340022B23D17B69FA
:1029C000DA087B6808329200D3583B617B690722A2
:1029D00013409B000F229A401300DA433B691340D7
:1029E0003B613B681A697B6907210B409B009A4059
:1029F00013003A6913433B617B69DA087B6808324C
:102A000092003969D1507B681B683B617B695B0030
:102A100003229A401300DA433B6913403B613B6851
:102A20005B6803221A407B695B009A4013003A6995
:102A300013433B617B683A691A603B685A68C0235C
:102A40009B02134000D19AE0544B5A6B534B012127
:102A50000A435A63524A7B699B0802339B009B5886
:102A60003B617B69032213409B000F229A401300B5
:102A7000DA433B6913403B617A68A023DB059A4245
:102A800019D07B68474A934213D07B68464A9342E9
:102A90000DD07B68454A934207D07B68444A9342F5
:102AA00001D1052308E0062306E0032304E0022306
:102AB00002E0012300E000237A6903210A4092002A
:102AC00093403A6913433B6135497B699B08023364
:102AD0009B003A695A50374B1B683B61FB68DA43ED
:102AE0003B6913403B613B685A6880235B0213409B
:102AF00003D03A69FB6813433B612E4B3A691A6075
:102B00002C4B5B683B61FB68DA433B6913403B61DC
:102B10003B685A6880239B02134003D03A69FB68E4
:102B200013433B61234B3A695A60224B9B683B61DC
:102B3000FB68DA433B6913403B613B685A6880237A
:102B40005B03134003D03A69FB6813433B61194BA5
:102B50003A699A60174BDB683B61FB68DA433B6973
:102B600013403B613B685A6880239B03134003D0AA
:102B70003A69FB6813433B610E4B3A69DA607B6943
:102B800001337B613B681A687B69DA40131E00D011
:102B9000A8E6C046C046BD4606B080BD0010024053
:102BA000000001400004005000080050000C0050DC
:102BB000001C00500004014080B584B000AF786074
:102BC0000A00BB1C1A807B681B69BA1C1288134060
:102BD00004D00F23FB1801221A7003E00F23FB1807
:102BE00000221A700F23FB181B781800BD4604B092
:102BF00080BD80B582B000AF786008001100BB1CBA
:102C0000021C1A807B1C0A1C1A707B1C1B78002B70
:102C100004D0BB1C1A887B689A6103E0BB1C1A882D
:102C20007B689A62C046BD4602B080BDB0B58AB02E
:102C300000AF78607B68002B02D1012300F0AFFB6E
:102C4000CF4BDB680C2213403B62CD4BDA6880230C
:102C50005B021340FB617B681B680122134000D1BB
:102C60007EE03B6A082B07D03B6A0C2B12D1FA6935
:102C700080235B029A420DD1C14B1A6880239B02CC
:102C8000134000D16BE07B685B68002B67D10123A8
:102C900000F085FB7B685A6880235B029A4207D16B
:102CA000B74B1A68B64B802149020A431A6027E0E5
:102CB0007B685A68A023DB029A420ED1B04B1A6897
:102CC000AF4B8021C9020A431A60AD4B1A68AC4B66
:102CD000802149020A431A6012E0A94B1A68A84BE6
:102CE000A8490A401A60A64B1A6880235B02134069
:102CF000FB60FB68A24B1A68A14BA3490A401A600B
:102D00007B685B68002B15D0FFF762F80300BB619E
:102D100009E0FFF75DF80200BB69D31A642B02D902
:102D2000032300F03CFB964B1A6880239B02134060
:102D3000EFD015E0FFF74CF80300BB6108E0FFF7A8
:102D400047F80200BB69D31A642B01D9032326E399
:102D50008B4B1A6880239B021340F0D100E0C046E1
:102D60007B681B680222134000D18BE07B68DB6824
:102D70007B613B6A042B05D03B6A0C2B3ED1FB697F
:102D8000002B3BD17E4B1B680422134004D07B698F
:102D9000002B01D1012302E3794B5B687B4A13408E
:102DA00019007B681B691A02754B0A435A60744B01
:102DB0001B68092293431900714B7A690A431A6010
:102DC00000F040FC01006E4BDB681B090F22134032
:102DD0006F4AD35C0A00DA406E4B1A606E4B1B6878
:102DE00013257C191800FEF7ADFF030023707B1933
:102DF0001B78002B46D07B191B78D0E27B69002B17
:102E000027D05F4B1B680922934319005C4B7A69FA
:102E10000A431A60FEF7DCFF0300BB6108E0FEF71F
:102E2000D7FF0200BB69D31A022B01D90323B6E2F4
:102E3000534B1B6804221340F1D0514B5B68534A3B
:102E4000134019007B681B691A024D4B0A435A60F4
:102E500018E04B4B1A684A4B01218A431A60FEF76F
:102E6000B7FF0300BB6108E0FEF7B2FF0200BB69D9
:102E7000D31A022B01D9032391E2414B1B68042290
:102E80001340F1D17B681B681022134000D1A1E0F0
:102E90003B6A002B40D13A4B1A6880239B001340B9
:102EA00005D07B68DB69002B01D1012377E2344B2D
:102EB0005B683A4A134019007B685A6A304B0A43F0
:102EC0005A602F4B5B681B02190A7B681B6A1A0643
:102ED0002B4B0A435A607B685B6A5B0B0133802291
:102EE00012029A40264BDB681B090F210B40284930
:102EF000CB5CDA40274B1A60274B1B6813257C19E3
:102F00001800FEF71FFF030023707B191B78002BAE
:102F100060D07B191B7842E27B68DB69002B3FD0D5
:102F2000174B1A68164B802149000A431A60FEF7B6
:102F30004FFF0300BB6108E0FEF74AFF0200BB69D8
:102F4000D31A022B01D9032329E20D4B1A688023DF
:102F50009B001340F0D00A4B5B68104A13401900E5
:102F60007B685A6A064B0A435A60054B5B681B0232
:102F7000190A7B681B6A1A06014B0A435A6029E04A
:102F800000100240FFFFFEFFFFFFFBFFFFE0FFFF1F
:102F9000D05B00081002002000000020FF1FFFFF90
:102FA000BD4B1A68BC4BBD490A401A60FEF710FFC2
:102FB0000300BB6108E0FEF70BFF0200BB69D31AF8
:102FC000022B01D90323EAE1B34B1A6880239B004B
:102FD0001340F0D17B681B680822134036D07B6811
:102FE0005B69002B19D0AC4B1A6DAB4B01210A4326
:102FF0001A65FEF7EDFE0300BB6108E0FEF7E8FE90
:103000000200BB69D31A022B01D90323C7E1A24BEB
:103010001B6D02221340F1D018E09F4B1A6D9E4B9E
:1030200001218A431A65FEF7D3FE0300BB6108E065
:10303000FEF7CEFE0200BB69D31A022B01D903238F
:10304000ADE1954B1B6D02221340F1D17B681B68EB
:103050000422134000D1AEE027203B1800221A7052
:103060008D4B9A6B80235B05134009D18A4B9A6B79
:10307000894B802149050A439A633B1801221A7043
:10308000874B1A6880235B0013401AD1844B1A685F
:10309000834B802149000A431A60FEF799FE030022
:1030A000BB6108E0FEF794FE0200BB69D31A642BF3
:1030B00001D9032373E17A4B1A6880235B00134024
:1030C000F0D07B689A6880235B009A4207D1724BEC
:1030D0001A6D714B802149000A431A6531E07B6803
:1030E0009B68002B0CD16C4B1A6D6B4B6B490A40E3
:1030F0001A65694B1A6D684B6A490A401A6520E0E7
:103100007B689A68A023DB009A420ED1624B1A6D4D
:10311000614B8021C9000A431A655F4B1A6D5E4BF3
:10312000802149000A431A650BE05B4B1A6D5A4B2C
:103130005A490A401A65584B1A6D574B59490A406B
:103140001A657B689B68002B15D0FEF741FE0300D3
:10315000BB6109E0FEF73CFE0200BB69D31A524A8C
:10316000934201D903231AE14B4B1A6D80239B0034
:103170001340EFD014E0FEF72BFE0300BB6109E023
:10318000FEF726FE0200BB69D31A474A934201D9D3
:10319000032304E1404B1A6D80239B001340EFD1C1
:1031A0002723FB181B78012B05D13B4B9A6B3A4B1D
:1031B0003E490A409A637B681B682022134049D02D
:1031C0007B689B69002B26D0334B9A68324B0121D8
:1031D0000A439A60304B5A6B2F4B01210A435A63C2
:1031E000334B1A6A324B802189010A431A62FEF777
:1031F000EFFD0300BB6108E0FEF7EAFD0200BB69DA
:10320000D31A022B01D90323C9E0234B9B68022266
:103210001340F1D01EE0204B9A681F4B01218A43D6
:103220009A60234B1A6A224B22490A401A62FEF71F
:10323000CFFD0300BB6108E0FEF7CAFD0200BB69D9
:10324000D31A022B01D90323A9E0134B9B68022256
:103250001340F1D17B689B6A002B00D19EE03B6A52
:103260000C2B00D177E07B689B6A022B58D10A4B6C
:103270001A68094B10490A401A60FEF7A9FD0300BD
:10328000BB611BE0FEF7A4FD0200BB69D31A022B51
:1032900014D9032383E0C04600100240FFFEFFFF65
:1032A00000700040FFFBFFFF88130000FFFFFFEFEF
:1032B00000000140FFDFFFFFFFFFFFFE3A4B1A68EF
:1032C00080239B041340DDD1374BDB68374A134022
:1032D00019007B68DA6A7B681B6B1A437B685B6B3F
:1032E0001A43314B0A43DA602F4B1A682E4B802168
:1032F00049040A431A60FEF76BFD0300BB6108E056
:10330000FEF766FD0200BB69D31A022B01D9032325
:1033100045E0254B1A6880239B041340F0D03DE024
:10332000214B1A68204B22490A401A60FEF750FDD3
:103330000300BB6108E0FEF74BFD0200BB69D31A36
:10334000022B01D903232AE0174B1A6880239B0420
:103350001340F0D122E07B689B6A012B01D101234D
:103360001DE0114BDB68FB61FA6980235B021A40A8
:103370007B68DB6A9A420FD1FA69F0239B031A40FB
:103380007B681B6B9A4207D1FA69C0231B041A4061
:103390007B685B6B9A4201D0012300E00023180098
:1033A000BD460AB0B0BDC04600100240FFFF02FF9C
:1033B000FFFFFFFEB0B584B000AF786039607B6876
:1033C000002B01D1012328E1964B1B6801221340F9
:1033D0003A689A421ED9934B1B6801229343190005
:1033E000904B3A680A431A60FEF7F2FC0300FB6058
:1033F00009E0FEF7EDFC0200FB68D31A8A4A93420B
:1034000001D9032309E1874B1B68012213403A6865
:103410009A42EED17B681B680222134009D0834B8D
:10342000DB68F022934319007B689A687F4B0A435C
:10343000DA607B681B680122134000D189E07B6859
:103440005B68022B07D1794B1A6880239B021340DB
:1034500020D10123E1E07B685B68032B07D1734B2C
:103460001A6880239B04134014D10123D5E07B68A4
:103470005B68012B06D16D4B1B680422134009D1F8
:103480000123CAE0694B1A6880239B00134001D1D5
:103490000123C2E0654BDB680322934319007B687C
:1034A0005A68624B0A43DA60FEF792FC0300FB6045
:1034B0007B685B68022B11D109E0FEF789FC0200F2
:1034C000FB68D31A584A934201D90323A5E0574B0E
:1034D000DB680C221340082BEFD13AE07B685B6875
:1034E000032B11D109E0FEF773FC0200FB68D31A2D
:1034F0004D4A934201D903238FE04C4BDB680C22E9
:1035000013400C2BEFD124E07B685B68012B1BD1AF
:1035100009E0FEF75DFC0200FB68D31A424A9342C1
:1035200001D9032379E0414BDB680C221340042BC3
:10353000EFD10EE0FEF74CFC0200FB68D31A3A4ACA
:10354000934201D9032368E0384BDB680C22134017
:10355000F0D1344B1B68012213403A689A421ED2C4
:10356000304B1B680122934319002E4B3A680A43E3
:103570001A60FEF72DFC0300FB6009E0FEF728FC53
:103580000200FB68D31A284A934201D9032344E07E
:10359000244B1B68012213403A689A42EED17B68A3
:1035A0001B680422134009D0204BDB68204A1340DB
:1035B00019007B68DA681D4B0A43DA607B681B6878
:1035C000082213400AD0194BDB681A4A134019002D
:1035D0007B681B69DA00154B0A43DA6000F032F8A9
:1035E0000100124BDB681B090F221340124AD35C07
:1035F0000A00DA40114B1A60114B1B680B257C192D
:103600001800FEF79FFB030023707B191B78002B2B
:1036100002D07B191B7800E000231800BD4604B0DF
:10362000B0BDC046002002408813000000100240D8
:10363000FFF8FFFFFFC7FFFFD05B0008100200206C
:1036400000000020B0B58EB000AF4C4BDB68FB62D1
:10365000FA6A0C2313400C2B14D000D97BE0042B06
:1036600002D0082B0BD076E0444B1B68102213408D
:1036700002D0434B3B637CE0424B3B6379E0424BDF
:103680003B6376E0FB6A9A0C0F231A403F4B9B5C2E
:10369000BB62FB6A9A0D0323134001337B62374BF5
:1036A000DA6880235B0213401AD0BB6ABB61002337
:1036B000FB61354A0023B869F969FCF7E3FD0200B4
:1036C0000B00100019007B6A3B6100237B613A69A3
:1036D0007B69FCF7B7FD02000B0013007B6337E04A
:1036E000264B1B68102213401AD0BB6ABB60002314
:1036F000FB60234A0023B868F968FCF7C3FD0200A9
:103700000B00100019007B6A3B6000237B603A6865
:103710007B68FCF797FD02000B0013007B6317E04A
:10372000BB6A180000231900164A0023FCF7AAFD03
:1037300002000B00100019007B6A1C0000231D0012
:1037400022002B00FCF77EFD02000B0013007B63C0
:103750007B6B3B630DE0094B5B685B0B07221340FF
:103760003B623B6A0133802212029A4013003B63A2
:10377000C0463B6B1800BD460EB0B0BD0010024005
:1037800000093D000024F40000127A00E05B00080C
:1037900080B582B000AF78607B68002B01D1012337
:1037A00032E07B6839229B5CDBB2002B07D17B685F
:1037B0003822002199547B68180001F009FC7B68CD
:1037C0003922022199547B681A687B6804331900F6
:1037D000100000F071F97B683E22012199547B684A
:1037E0003A22012199547B683B22012199547B683C
:1037F0003C22012199547B683D22012199547B6828
:1038000039220121995400231800BD4602B080BD21
:1038100080B584B000AF78607B6839229B5CDBB2F6
:10382000012B01D0012336E07B6839220221995413
:103830007B681B68DA687B681B6801210A43DA60D1
:103840007B681A688023DB059A4209D07B681B6875
:10385000134A934204D07B681B68124A934211D1E9
:103860007B681B689B6807221340FB60FB68062B84
:1038700010D07B681B681A687B681B6801210A43AB
:103880001A6007E07B681B681A687B681B68012167
:103890000A431A6000231800BD4604B080BDC0462C
:1038A000000801400014014080B582B000AF78608C
:1038B0007B681B681B6902221340022B24D17B68A2
:1038C0001B68DB6802221340022B1DD17B681B683A
:1038D000032252421A617B6801221A767B681B68B8
:1038E0009B690322134004D07B68180000F0CCF8D9
:1038F00007E07B68180000F0BFF87B68180000F054
:10390000CBF87B6800221A767B681B681B6904224F
:103910001340042B25D17B681B68DB68042213400D
:10392000042B1ED17B681B68052252421A617B68FA
:1039300002221A767B681B689A69C0239B00134099
:1039400004D07B68180000F09FF807E07B6818003F
:1039500000F092F87B68180000F09EF87B68002267
:103960001A767B681B681B6908221340082B24D138
:103970007B681B68DB6808221340082B1DD17B681D
:103980001B68092252421A617B6804221A767B68FE
:103990001B68DB690322134004D07B68180000F029
:1039A00073F807E07B68180000F066F87B68180081
:1039B00000F072F87B6800221A767B681B681B692E
:1039C00010221340102B25D17B681B68DB68102266
:1039D0001340102B1ED17B681B68112252421A61C2
:1039E0007B6808221A767B681B68DA69C0239B0013
:1039F000134004D07B68180000F046F807E07B68AD
:103A0000180000F039F87B68180000F045F87B6872
:103A100000221A767B681B681B6901221340012B68
:103A20000FD17B681B68DB6801221340012B08D192
:103A30007B681B68022252421A617B68180000F002
:103A400093FC7B681B681B6940221340402B0FD1FD
:103A50007B681B68DB6840221340402B08D17B68E1
:103A60001B68412252421A617B68180000F01CF862
:103A7000C046BD4602B080BD80B582B000AF786060
:103A8000C046BD4602B080BD80B582B000AF786050
:103A9000C046BD4602B080BD80B582B000AF786040
:103AA000C046BD4602B080BD80B582B000AF786030
:103AB000C046BD4602B080BD80B584B000AF78601E
:103AC00039607B681B68FB607A688023DB059A425B
:103AD00007D07B681F4A934203D07B681E4A9342FB
:103AE00008D1FB6870229343FB603B685B68FA680F
:103AF0001343FB607A688023DB059A4207D07B681A
:103B0000144A934203D07B68134A934208D1FB685E
:103B1000124A1340FB603B68DB68FA681343FB60A2
:103B2000FB68802293431A003B681B691343FB60C8
:103B30007B68FA681A603B689A687B68DA623B685F
:103B40001A687B689A627B6801225A61C046BD464A
:103B500004B080BD0008014000140140FFFCFFFFDD
:103B600080B584B000AF786039607B6838229B5C98
:103B7000012B01D1022342E07B68382201219954B4
:103B80007B683922022199547B681B685B68FB6063
:103B90007B681B689B68BB60FB6870229343FB607B
:103BA0003B681B68FA681343FB607B681B68FA6814
:103BB0005A607B681A688023DB059A4209D07B68CB
:103BC0001B68114A934204D07B681B680F4A9342DA
:103BD0000CD1BB6880229343BB603B685B68BA68CA
:103BE0001343BB607B681B68BA689A607B683922A4
:103BF000012199547B683822002199540023180030
:103C0000BD4604B080BDC04600080140001401401C
:103C100080B582B000AF0200FB1D1A70FB1D1B783F
:103C2000002B15D0A023DB0520229A61C046C04698
:103C3000C046C046C046C046C046C046C046C04654
:103C4000C046C046C046A023DB0520229A620CE095
:103C5000A023DB0520229A61C046C046C046C0466C
:103C6000C046A023DB0520229A62C046BD4602B0B2
:103C700080BD0000B0B5CCB000AF786097235B008A
:103C8000FB1800221A802BE097256D007B191B88FA
:103C900018211800FCF74AFA03009BB29B007A68CF
:103CA000D3181C687B191B8818211800FCF7C4FA6C
:103CB0000B009BB21A0017239B1ADC402300DAB2D8
:103CC0007B191B8801210A40D1B21B4A9820400071
:103CD0001218D219D1547B191A887B1901321A8013
:103CE000972149007B181A8890235B009A42CBD316
:103CF0007B1800221A8011E0972464003B191B886E
:103D00000D4A982149005218D219D35C1800FFF7C8
:103D10007FFF3B191A883B1901321A8097235B00F9
:103D2000FB181A8890235B009A42E5D3C046C04630
:103D3000BD464CB0B0BDC046DCFEFFFFB0B586B09E
:103D400000AF3B0080221A603B0000225A603B001B
:103D500000229A603B00224A19001000FEF7B6FDCF
:103D60001F4B012202211800FEF743FF1C4B0122CA
:103D700008211800FEF73DFF17257C19184B8021FC
:103D80001800FEF719FF03002370154B00220821CD
:103D90001800FEF72EFF124B012208211800FEF733
:103DA00028FF0F4B002208211800FEF722FF3B00DE
:103DB00080221A603B0001225A603B0000229A6078
:103DC0003B000322DA603B00054A19001000FEF7B1
:103DD0007DFD7B191B781800BD4606B0B0BDC046FE
:103DE0000004005080B582B000AF0200FB1D1A70C5
:103DF000FB1D1B7801221340DBB21C481A00102166
:103E0000FEF7F7FEFB1D1B785B08DBB201221340B7
:103E1000DBB216481A002021FEF7EBFEFB1D1B78D3
:103E20009B08DBB201221340DBB210481A0040218C
:103E3000FEF7DFFEFB1D1B78DB08DBB2012213401F
:103E4000DBB20A481A008021FEF7D3FE074B01229D
:103E500008211800FEF7CDFE044B002208211800AF
:103E6000FEF7C7FEC046BD4602B080BD000400504C
:103E700080B582B000AF0200FB1D1A70BB1D0A1C8A
:103E80001A70184B002201211800FEF7B2FEC0463E
:103E9000FFF754FF031EFBD1FB1D1B7811481A00CE
:103EA0000121FEF7A6FE0F4B002202211800FEF7AB
:103EB000A0FE0C4B002208211800FEF79AFEBB1D45
:103EC0001B781B09DBB21800FFF78CFFBB1D1B78AA
:103ED0000F221340DBB21800FFF784FFC046BD4637
:103EE00002B080BD0004005080B582B000AF224B0C
:103EF000002201211800FEF77CFE1F4B0022022148
:103F00001800FEF776FE1C4B002208211800FEF771
:103F100070FE0F20FDF766FFFB1D00221A700AE0FD
:103F20000320FFF75FFF0520FDF75CFFFB1D1A78FC
:103F3000FB1D01321A70FB1D1B78022BF0D90220E9
:103F4000FFF750FFFB1D00221A700CE0FB1D1B78D1
:103F50000A4AD35C19000020FFF78AFFFB1D1A787C
:103F6000FB1D01321A70FB1D1B78032BEED9C046D6
:103F7000C046BD4602B080BD00040050CC5B0008C6
:103F800080B584B000AF0200FB1D1A70BB1D0A1C77
:103F90001A70BB1D1B78012B04D00F23FB18402285
:103FA0001A7003E00F23FB1800221A70FA1D0F216C
:103FB0007B1812781B78D318DAB27B18013A1A7082
:103FC0007B181B78802252421343DBB21900002079
:103FD000FFF74EFFC046BD4604B080BD80B582B03D
:103FE00000AF0200FB1D1A70FB1D1B780C2B07D1C4
:103FF00001210020FFF73CFF0220FDF7F3FE17E050
:10400000FB1D1B780A2B04D102210120FFF7B8FF0A
:104010000EE0FB1D1B78082B04D110210020FFF7B8
:1040200027FF05E0FB1D1B7819000120FFF720FF8B
:10403000C046BD4602B080BD90B585B000AF786087
:104040000F23FB1800221A700DE00F243B191B7878
:104050007A68D3181B781800FFF7C0FF3B191A784D
:104060003B1901321A700F23FB181C787B6818006B
:10407000FCF74AF803009C42E7D3C046C046BD4661
:1040800005B090BD90B589B000AF0200FB1D1A705D
:10409000BB1D0A1C1A700C23FB181A4A13CA13C33F
:1040A00012681A601F23FB1800221A7020E0FB1D03
:1040B0001B78DB00DAB21F243B191B78D318DBB264
:1040C0004033DBB219000020FFF7D2FEBB1D1A7887
:1040D0003B191B780C217918D2008A18D35C19007F
:1040E0000120FFF7C5FE3B191A783B1901321A70FF
:1040F0001F23FB181B78072BD9D9C046C046BD46E5
:1041000009B090BDE85A000880B582B000AF786071
:104110003960154B1800FDF7FDFFFA239A00124B8A
:1041200011001800FEF78AF80F4B1800FEF722F96D
:1041300003009AB27B681A80FA239A000A4B110096
:104140001800FEF77BF8084B1800FEF713F9030080
:104150009AB23B681A80044B1800FEF72FF8C0464D
:10416000BD4602B080BDC0469802002080B584B034
:1041700002AF112001F028F803007B602F4B1B7861
:10418000002B03D02E4B00221A7026E02B4B5B78BD
:10419000002B03D02A4B01221A701EE0274B9B787C
:1041A000002B03D0264B02221A7016E0234BDB783B
:1041B000002B03D0224B03221A700EE01F4B1B79F9
:1041C000002B03D01E4B04221A7006E01B4B5B79B8
:1041D000002B02D01A4B05221A701A4B1A681A4B80
:1041E0001B681A497868019301230093DF2301F0CB
:1041F000FBF801210020FFF7C3FE7B681800FFF7E2
:104200001BFF0F4B1B781A00114B9200D258114B19
:104210001B681149786801F0E7F800210020FFF7DA
:10422000AFFE7B681800FFF707FF7B68180000F0FF
:10423000D5FFC046BD4602B080BDC0464003002049
:104240002C0000200800002038030020405B0008FC
:10425000140000200C000020585B000880B582B0DC
:1042600000AF0200BB1D1A80BB1D1B881800FCF7A5
:1042700021F9031C181CFDF789FB0022384BFCF7C1
:1042800097FC02000B0010001900FCF729F803004E
:10429000DBB29AB2BB1D01321A80BB1D1B88013BE9
:1042A0005A1E9341DBB21A00A023DB0540211800FF
:1042B000FEF79FFCBB1D1B88023B5A1E9341DBB2DD
:1042C0001A00A023DB0580211800FEF792FCBB1D1D
:1042D0001B88033B5A1E9341DBB21A00802359000E
:1042E000A023DB051800FEF784FCBB1D1B88043BE4
:1042F0005A1E9341DBB21A0080239900A023DB05EC
:104300001800FEF776FCBB1D1B88053B5A1E934127
:10431000DBB21A008023D900A023DB051800FEF7CA
:1043200068FCBB1D1B88022B13D0BB1D1B88032BF5
:104330000DD0BB1D1B88042B07D0BB1D1B88052B74
:1043400001D1DC2306E0502304E0B42302E08C23F7
:1043500000E06423034A1360C046BD4602B080BD3E
:1043600000FE8F401000002080B582B000AF786062
:104370007B681A680C4B1B689A4211D10B4B1B7857
:10438000002B0DD0094B00221A70094B1A6813003C
:104390005B009B181B01074A9B181800FFF76AFC7B
:1043A000C046BD4602B080BDF40200203C030020A0
:1043B000340300203000002080B582B000AF786068
:1043C0007B68064A1A607B68054A5A607B68054A22
:1043D0009A60C046BD4602B080BDC0466D4100082F
:1043E0005D4200080941000890B58BB000AF27235B
:1043F000FB1800221A702623FB1800221A702523AE
:10440000FB1800221A70FDF7E3FC03003B62FDF786
:10441000DFFC0300FB61FDF7DBFC0300BB61FDF784
:10442000D7FC03007B61FDF7D3FC03003B61FDF784
:1044300069FC00F0B3FB00F0C9FC00F019FC00F0CF
:1044400089FC00F007FC3B1D1800FFF7B5FFFFF7E4
:104450004BFD00210120FFF715FEC64B1800FFF7AA
:10446000EBFDFA23DB001800FDF7BCFCC24B180083
:10447000FFF7CEF9C14B01221A703B1D1B6898470C
:104480003B1D9B683900BA1C10009847A023DB0530
:1044900010211800FEF790FB031E03D1B84B012238
:1044A0005A7034E0A023DB0504211800FEF784FBDA
:1044B000031E15D1BB1C1B88B24A934206D9B04BD0
:1044C00001225A71AE4B0022DA7005E0AC4B01229A
:1044D000DA70AB4B00225A71A94B00229A7016E099
:1044E000A94B1B68952B06DCA54B00221A702623CE
:1044F000FB1800221A70A24B00225A70A04B002217
:10450000DA709F4B00225A719D4B01229A709C4B8E
:104510009B78002B07D19A4B1B78002B03D1984B2B
:104520005B78002B29D0994B00221A60A023DB0571
:10453000012240211800FEF75CFBA023DB050122CD
:1045400080211800FEF755FB80235900A023DB05CE
:1045500001221800FEF74DFB80239900A023DB0504
:1045600001221800FEF745FB8023D900A023DB05BC
:1045700001221800FEF73DFB99E0814BDB78002B10
:1045800029D0A023DB05012240211800FEF731FBD2
:10459000A023DB05012280211800FEF72AFB8023DF
:1045A0005900A023DB0501221800FEF722FB80231F
:1045B0009900A023DB0501221800FEF71AFB8023D7
:1045C000D900A023DB0501221800FEF712FB6F4B78
:1045D00001221A606BE06A4B1B79002B23D0684BD9
:1045E000DB78002B1FD1BB1C1B88664A93421AD96B
:1045F0003B1D5B683A00128810009847644B1A68AC
:10460000614B1B68D31A012B02DD604B09221A6033
:104610005F4B1A685C4B1B68D31A013347DA5B4B5C
:1046200001221A6043E0564B5B79002B3FD0A02358
:10463000DB05012240211800FEF7DBFAA023DB0591
:10464000012280211800FEF7D4FA80235900A0230C
:10465000DB0501221800FEF7CCFA80239900A02385
:10466000DB0501221800FEF7C4FA8023D900A0233D
:10467000DB0501221800FEF7BCFA3B001B8818007E
:10468000FDF754F90022434BFCF792FA02000B00AD
:10469000100019000022404BFBF74EFF02000B00F8
:1046A00010001900FDF70CF90200384B1A60A02326
:1046B000DB0508211800FEF77FFA031E11D08023C6
:1046C000DB01364A19001000FEF776FA031E08D007
:1046D00080231B02314A19001000FEF76DFA031EF9
:1046E00060D12723FB181B78002B3ED1A023DB05CC
:1046F00008211800FEF760FA031E07D1204B1B7932
:104700005A425341DBB21A001D4B1A718023DB0160
:10471000224A19001000FEF74FFA031E05D1204B64
:104720001B68143B1A001E4B1A6080231B021B4A95
:1047300019001000FEF740FA031E05D1184B1B6844
:1047400014331A00164B1A60154B1A688C235B0041
:104750009A4203DD124B8C2252001A60104B1B68E8
:10476000132B02DC0E4B14221A602723FB180122A4
:104770001A701BE0685B0008F40200203C03002074
:1047800040030020B80B0000080000203803002080
:104790001000002000FE7F400000F03F00080050A5
:1047A0000C0000202723FB1800221A70FDF710FBD5
:1047B00002003B6AD31A092B30D9FDF709FB02002E
:1047C000FB69D31A632B25D9A04B1A68A04B1B6831
:1047D0009A420ADA9D4B1B685A1C9C4B1A603B1D7F
:1047E0001B6898479B4B01221A70984B1A68984B8C
:1047F0001B689A420ADD954B1B685A1E934B1A6040
:104800003B1D1B689847934B01221A70FDF7E0FA95
:104810000300FB61FDF7DCFA03003B62FDF7D8FA09
:104820000200BB69D21A894B1B68012B37D0874B1A
:104830001B68022B30D0854B1B68032B29D0834B80
:104840001B68042B22D0814B1B68052B1BD07F4B90
:104850001B68062B14D07D4B1B68072B0DD07B4BA0
:104860001B68082B07D0794B1B68092B01D16423E7
:1048700017E0002315E0C82313E096235B0010E047
:10488000C8235B000DE0FA235B000AE096239B003F
:1048900007E0AF239B0004E0C8239B0001E0E12375
:1048A0009B00934238D8694B1B68012B1FD0674B84
:1048B0001B68022B1BD0654B1B68032B17D0634B67
:1048C0001B68042B13D0614B1B68052B0FD05F4B6B
:1048D0001B68062B0BD05D4B1B68072B07D05B4B6F
:1048E0001B68082B03D0594B1B68092B14D15A4B5A
:1048F0001B685A1C584B1A60FDF76AFA0300BB612B
:10490000554B1A6896235B009A4202DD534B0122F5
:104910001A703B1D1B689847FDF75AFA02007B6925
:10492000D21A4D4B1B681D2B30DD4B4B1968A02351
:104930005B00994228DA484B1B68DB2B22DC464B94
:104940001B68772B1BDC444B1B683B2B14DC424B56
:104950001B68272B0EDC404B1B68222B07DC3E4BD1
:104960001B681D2B01DD3E4B11E000230FE0C82327
:10497000DB000CE03B4B0AE0AF239B0007E0C823C1
:104980005B0004E0C82302E0642300E0364B93425E
:1049900034D8314B1B681D2B1DDD2F4B1A68A0230B
:1049A0005B009A4217DA2C4B1B68DB2B13DC2A4B7B
:1049B0001B68772B0FDC284B1B683B2B0BDC264B33
:1049C0001B68272B07DC244B1B68222B03DC224BA4
:1049D0001B681D2B12DD204B1B685A1E1E4B1A60D4
:1049E0001D4B1B68132B02DC1B4B14221A60FDF7B6
:1049F000EFF903007B613B1D1B68984726243B1998
:104A00001B78002B0AD1154B1B78002B06D0FDF725
:104A1000DFF903003B613B1901221A70134B1A683E
:104A20000D4B1B689A4223DA104B1B68142B1FDDB9
:104A300025243B191B78002B26D1FDF7C9F903006B
:104A40003B613B1901221A701EE0C046340300206E
:104A5000380300203C030020080000204003002011
:104A6000980800004C040000540B00000C000020CB
:104A700080231902A023DB0500221800FEF7B9F8F5
:104A80002523FB1800221A702623FB181B78002B05
:104A900043D0FDF79DF902003B69D31A632B06D979
:104AA000FDF796F902003B69D31AC82B23D9FDF70D
:104AB0008FF902003B69D21A96235B009A4208D311
:104AC000FDF786F902003B69D21AC8235B009A42BF
:104AD00011D9FDF77DF902003B69D21AFA235B0078
:104AE0009A4211D3FDF774F902003B69D21A96235A
:104AF0009B009A4208D880231902A023DB050122DB
:104B00001800FEF776F844E080231902A023DB05A5
:104B100000221800FEF76DF83BE02523FB181B78F8
:104B2000002B36D0FDF754F9FDF752F902003B692E
:104B3000D31A642B0FD9FDF74BF902003B69D31A46
:104B4000C72B11D9FDF744F902003B69D21A96230D
:104B50005B009A4208D880231902A023DB050122BA
:104B60001800FEF746F807E080231902A023DB05B2
:104B700000221800FEF73DF8FDF72AF902003B6914
:104B8000D21AFA239B009A4203D3FDF721F90300BE
:104B90003B613B1D1B68984772E4C04690B595B0D9
:104BA00000AF18243B19180038231A00002100F028
:104BB0001FFB3B1D180014231A00002100F018FBF6
:104BC000224B1B68224A1A40204B802109010A43CC
:104BD0001A6021007B1802221A607B180122DA6019
:104BE0007B1810221A617B1802229A627B1800221D
:104BF000DA627B188022D2021A637B188022D203E9
:104C00005A637B181800FEF711F8031E01D000F05C
:104C100089F93B1D0F221A603B1D03225A603B1D80
:104C200000229A603B1D0022DA603B1D00221A61BF
:104C30003B1D01211800FEF7BDFB031E01D000F053
:104C400071F9C046BD4615B090BDC0460070004029
:104C5000FFE7FFFF80B500AF002200211120FDF724
:104C600003FE1120FDF715FEC046BD4680BD0000C5
:104C700080B582B000AF3B00180008231A00002165
:104C800000F0B6FA304B314A1A602F4B0022DA633B
:104C90002D4B8022D2055A602B4B00229A602A4B62
:104CA00007229A63284B01221A61274B0022DA60FF
:104CB000254B202200219954234B21220021995475
:104CC000214B00229A62204BC222FF325A621E4BB5
:104CD0002C22002199541C4B04225A611A4B0022A9
:104CE0001A63194B00229A61174B00225A63164B24
:104CF0000022DA61144B1800FDF798F8031E01D06A
:104D000000F010F93B0001221A603B0080225201A2
:104D10005A603A000C4B11001800FDF737FB031ED8
:104D200001D000F0FFF83B00094A1A603A00064B38
:104D300011001800FDF72AFB031E01D000F0F2F865
:104D4000C046BD4602B080BD98020020002401404C
:104D50000200000480B582B000AF3B0018000823B9
:104D60001A00002100F044FA154B164A1A60144B41
:104D70001F225A60124B00229A60114B124ADA60CD
:104D80000F4B80225A610E4B1800FEF701FD031EE7
:104D900001D000F0C7F83B0000221A603B0000225F
:104DA0005A603A00064B11001800FEF7D9FE031EA8
:104DB00001D000F0B7F8C046BD4602B080BDC04685
:104DC000F4020020001000400F27000090B589B0C9
:104DD00000AF0C243B19180014231A00002100F026
:104DE00007FA4B4BDA6A4A4B04210A43DA62484B12
:104DF000DB6A04221340BB60BB68454BDA6A444B54
:104E000001210A43DA62424BDB6A012213407B60D4
:104E10007B683F4BDA6A3E4B02210A43DA623C4B25
:104E2000DB6A022213403B603B683A49A023DB0562
:104E300000221800FDF7DDFEF823D900A023DB05D2
:104E400001221800FDF7D5FE334B0022FB2118008C
:104E5000FDF7CFFE3B19C02212021A603B19002257
:104E60005A603B1901229A603B192C4A1900100024
:104E7000FDF72CFD3B191C221A603B1900225A60D9
:104E80003B1901229A603A19A023DB051100180092
:104E9000FDF71CFD3B1920221A603B1911225A60B4
:104EA0003B1900229A603B190322DA603A19A023C9
:104EB000DB0511001800FDF709FD3B19184A1A60BF
:104EC0003B1901225A603B1900229A603B190322C8
:104ED000DA603A19A023DB0511001800FDF7F6FC93
:104EE00021007B18FB221A607B1801225A607B1874
:104EF00000229A607B180322DA607B18064A1900A8
:104F00001000FDF7E3FCC046BD4609B090BDC046A9
:104F100000100240208000000004005000080050F3
:104F2000C087000080B500AFC046BD4680BD000010
:104F300080B500AF074B5A6B064B01210A435A63F9
:104F4000044B9A6B034B802149050A439A63C04680
:104F5000BD4680BD0010024090B589B000AF7860BA
:104F60000C243B19180014231A00002100F040F90A
:104F70007B681B68144A934222D1144B5A6B134B23
:104F8000802189000A435A63104BDA6A0F4B0121D2
:104F90000A43DA620D4BDB6A01221340BB60BB6837
:104FA0003B1903221A603B1903225A603B19002265
:104FB0009A603A19A023DB0511001800FDF786FC62
:104FC000C046BD4609B090BD00240140001002401B
:104FD00080B582B000AF78607B681B68064A934258
:104FE00005D1064B9A6B054B10210A439A63C046C4
:104FF000BD4602B080BDC046001000400010024017
:1050000080B500AFC046BD4680BD80B500AFFEE7AD
:1050100080B500AFC046BD4680BD80B500AFC0467C
:10502000BD4680BD80B500AFFCF7C0FEC046BD46A2
:1050300080BD000080B500AF034B1800FEF734FCC4
:10504000C046BD4680BDC046F402002080B584B095
:1050500000AF7860114B1B68002B02D10F4B104A38
:105060001A600E4B1B68FB600C4B1A687B68D218E9
:105070006B469A4207D900F07DF803000C221A60B3
:1050800001235B4206E0054B1A687B68D218034B8C
:105090001A60FB681800BD4604B080BD48030020BC
:1050A0005C03002080B500AF174B1A68164B8021B7
:1050B00049000A431A60144BDA68134B13490A403B
:1050C000DA60114B1A68104B11490A401A600E4BF6
:1050D0009A680D4B01218A439A600B4B1A680A4B60
:1050E0000C490A401A60084BDA68074B0A490A4023
:1050F000DA60054B00221A61084B802212059A6083
:10510000C046BD4680BDC046001002400C40FF882E
:10511000F6FFF6FEFFFFFBFFFFFF02FF00ED00E0E2
:105120000D488546002103E00C4B5B584350043189
:105130000B480C4B42189A42F6D30B4A02E000236C
:1051400013600432094B9A42F9D3FFF7ABFF00F02A
:1051500017F8FFF749F9FEE7002000202C5C000853
:105160000000002078020020780200205C0300206C
:10517000FEE70000014B18687047C046140200208B
:1051800070B500260C4D0D4C641BA410A64209D12D
:10519000002600F09DFC0A4D0A4C641BA410A64298
:1051A00005D170BDB300EB5898470136EEE7B30068
:1051B000EB5898470136F2E7245C0008245C0008AD
:1051C000245C0008285C000810B5034B0100186837
:1051D00000F082F810BDC0461402002010B5034B49
:1051E0000100186800F00CF810BDC0461402002041
:1051F00003008218934200D1704719700133F9E718
:1052000070B50500002910D00C1F2368002B00DAB0
:10521000E418280000F008F91D4A1368002B05D196
:1052200063601460280000F007F970BDA34208D93C
:10523000216860188342F3D118685B6841182160C7
:10524000EEE71A005B68002B01D0A342F9D9116880
:105250005018A0420BD120680918501811608342E1
:10526000E0D118685B68411811605360DAE7A0422A
:1052700002D90C232B60D5E721686018834203D143
:1052800018685B684118216063605460CAE7C046D3
:105290004C03002070B50F4E0D003168040000294A
:1052A00002D100F08FF830602900200000F08AF869
:1052B000431C0AD00323C51C9D43A84207D0291ACA
:1052C000200000F07FF8431C01D101256D42280029
:1052D00070BDC04650030020F7B50322CB1C93439A
:1052E000083306001F000C2B32D20C27B94231D8EC
:1052F000300000F099F8324D2B681C00002C2ED1A4
:1053000039003000FFF7C6FF0400431C1ED12C6893
:105310002500002D4AD123682900E31830000193AD
:1053200000F050F8019B834243D123680337FF1AF2
:1053300003239F4308370C2F00D20C27390030007D
:10534000FFF7A8FF431C34D02368DF19276013E060
:10535000002BCBDA0C23002533602800FEBD226829
:10536000D11B20D40B2917D9E2192760A34211D1F0
:105370002A606368116053603000250000F05CF81B
:1053800007220B35231D9543EA1A9D42E5D05B1B8E
:10539000A350E2E75A60ECE76268A34201D12A60B9
:1053A000EAE75A60E8E723006468A7E72C006D6825
:1053B000AFE70C233000336000F03EF8CDE7C04685
:1053C0004C030020002370B5064D040008002B603C
:1053D000FFF73CFE431C03D12B68002B00D0236059
:1053E00070BDC046540300200EB400B50B499CB0FC
:1053F0001DAB02900690079104910948094904CB1E
:105400000591006802A9019300F080F80023029A38
:1054100013701CB008BC03B01847C046FFFFFF7FE5
:10542000140200200802FFFF10B5024800F0F0FA55
:1054300010BDC0465803002010B5024800F0E9FA3C
:1054400010BDC04658030020F0B58E6885B0070037
:105450000C00039201939E423CD890238A89DB0082
:105460001A4234D00969236860695B1A02930323E6
:105470004343DD0FED18019B029801331B186D109B
:10548000AB4200D91D00530532D529003800FFF783
:1054900023FF061E09D10C233B6040230120A28973
:1054A00040421343A38105B0F0BD029A216900F088
:1054B000BCFAA389144A1A4080231343A381029B98
:1054C0002661F61826606561019EED1AA560019BB4
:1054D0009E4200D9019E32000399206800F0AEFA86
:1054E000A36800209B1BA36023689E192660DAE74F
:1054F0002A00380000F0B5FA061EE0D13800216914
:10550000FFF77EFEC7E7C0467FFBFFFFF0B5A1B007
:1055100003901D008B890F0016001B0611D50B6927
:10552000002B0ED14021FFF7D7FE386038610028EC
:1055300005D10C23039A0138136021B0F0BD40233C
:105540007B61002308AC6361203363761033A3765C
:10555000079535002B78002B01D0252B47D1AB1BAD
:105560000593B5420CD0320039000398FFF76CFF69
:10557000431C00D1AEE06269059B944663446361BD
:105580002B78002B00D1A5E001220023524262605B
:1055900004A9543252186E1C2360E360A360137098
:1055A000A36505223178544800F034FA751C0028B0
:1055B0001FD12268D30604D5532304A95B182021E8
:1055C0001970130704D5532304A95B182B211970F4
:1055D00033782A2B16D0350000210A20E3682A7878
:1055E0006E1C303A092A4ED9002911D117E0013535
:1055F000B0E7414B2268C01A0123834013432E00B9
:105600002360CEE7079B191D1B680791002B01DB68
:105610000B9304E05B42E3600223134323602B7887
:105620002E2B0AD16B782A2B35D1079B02351A1DF8
:105630001B680792002B2BDB0993304E03223000AE
:10564000297800F0E7F9002806D04023801B83402A
:1056500022680135134323602978062228486E1CEE
:10566000217600F0D7F900283CD0264B002B25D11D
:105670000722079B07339343083307936369049A10
:105680009B18636165E74343350001219B18A6E73A
:1056900001235B42D0E700230A201A000135636032
:1056A00029786E1C3039092903D9002BC5D00992FD
:1056B000C3E74243350001235218F1E707AB0093DB
:1056C0003A002100104B039800E000BF0490049BB7
:1056D0000133D3D1BB890D985B0600D42DE701209F
:1056E00040422AE707AB00933A002100064B03989B
:1056F00000F07CF8EAE7C046E95B0008EF5B0008D1
:10570000F35B00080000000049540008F7B51500DD
:1057100001938A680B690C000090934200DA130031
:1057200022002B6043321278002A01D001332B6013
:1057300023689B0602D52B6802332B602268062360
:1057400017001F401A4227D0230043331B785A1EEC
:1057500093412268920630D4220001990098089E55
:105760004332B047431C25D0062320682A68E168ED
:1057700000250340042B03D18D1AEB43DB171D409A
:10578000A3682269934201DD9B1AED180027BD42F0
:1057900020D1002010E00137E3682A689B1ABB4241
:1057A000D2DD2200012301990098089E1932B047EA
:1057B000431CF0D101204042FEBD3020E1184331AE
:1057C000087021005A1C45310978A218433202336F
:1057D0001170C1E72200012301990098089E1A3236
:1057E000B047431CE6D00137D1E70000F0B58BB0DD
:1057F00006920A0043320793059004920A7E0C0039
:10580000109B782A07D8622A09D8002A00D1C1E063
:10581000582A00D18CE026004236327022E0100077
:1058200063381528F7D8FAF777FC16001F00F6FF43
:10583000F6FFF6FFF6FF1F00F6FFF6FFF6FFF6FF96
:10584000A80036009A00F6FFF6FFB900F6FF360012
:10585000F6FFF6FF9E0026001A684236111D1960F9
:10586000136833700123A7E0086819680A1D05064C
:105870000BD50D681A60002D03DA2D23049A6D42B2
:105880001370614B0A2703931BE00D681A604106F1
:10589000F1D52DB2EFE70D681968081D18602E06C6
:1058A00001D50D6803E06D06FBD50D68ADB2564B12
:1058B000082703936F2A00D00237230000224333C6
:1058C0001A706368A360002B03DB042221689143F4
:1058D0002160002D02D1049E002B0CD0049E2800D4
:1058E0003900FAF7A9FC039B013E5B5C33702B0087
:1058F00005009F42F3D9082F09D12368DB0706D59D
:1059000063682269934202DC3023013E3370049BBA
:105910009B1B2361079B210000930598069B09AA06
:10592000FFF7F4FE431C4CD1012040420BB0F0BD08
:1059300045310A70344A03921A68216820CA1A60F5
:10594000080616D5CB0702D520231943216010275E
:10595000002DB2D1202322689A432260ADE7202295
:1059600009680A4322602200782145321170274AD3
:10597000E1E74806E6D5ADB2E4E71A680D68101D08
:105980004969186013682E0601D5196002E06D069A
:10599000FBD519800023049E2361BBE71A68111D03
:1059A0001960166800213000626800F033F80028A2
:1059B00001D0801B6060636823610023049A137028
:1059C000A8E72369320006990598079DA847431C5C
:1059D000AAD023689B0715D4099BE0689842A5DAF2
:1059E0001800A3E72200012306990598079E1932A3
:1059F000B047431C98D00135E368099A9B1AAB4223
:105A0000F0DCE9E70025F7E7FA5B00080B5C00082B
:105A100070477047C9B28218904201D10020704788
:105A200003788B42FBD00130F6E7002310B59A4291
:105A300000D110BDCC5CC4540133F8E710B58842E6
:105A400002D98B18984203D3002307E08B5C835460
:105A5000013AFBD210BDCC5CC45401339A42FAD156
:105A6000F8E7F7B507000E001400002905D1110072
:105A7000FFF732FC05002800FEBD002A03D1FFF726
:105A8000BFFB2500F7E700F01BF80190844203D824
:105A900035004308A342EED321003800FFF71CFC79
:105AA000051EE8D0019B22009C4200D91A0031005B
:105AB0002800FFF7BAFF31003800FFF7A1FBDAE753
:105AC0000B1F1B68181F002B01DA0B58C0187047FA
:105AD000F8B5C046F8BC08BC9E467047F8B5C0464D
