:020000040800F2
:1000000000200020653B00085D3A0008673A0008C0
:1000100000000000000000000000000000000000E0
:100020000000000000000000000000006D3A000821
:100030000000000000000000773A0008813A000844
:10004000B53B0008B53B0008B53B0008B53B0008D0
:10005000B53B0008B53B0008B53B0008B53B0008C0
:10006000B53B0008B53B0008B53B0008B53B0008B0
:10007000B53B0008B53B000800000000B53B000898
:1000800000000000B53B0008000000000000000078
:10009000B53B000800000000B53B0008B53B000878
:1000A000B53B0008B53B0008B53B0008B53B000870
:1000B000B53B0008B53B000800000000B53B000858
:1000C00010B5064C2378002B07D1054B002B02D02E
:1000D000044800E000BF0123237010BD8C00002005
:1000E0000000000068440008044B10B5002B03D04A
:1000F0000349044800E000BF10BDC04600000000F6
:1001000090000020684400080023C25C0133002AEC
:10011000FBD1581E7047000003B4714649084000E7
:100120004900095E49008E4403BC70470022430821
:100130008B4274D303098B425FD3030A8B4244D3AF
:10014000030B8B4228D3030C8B420DD3FF220902F1
:1001500012BA030C8B4202D31212090265D0030BB0
:100160008B4219D300E0090AC30B8B4201D3CB03A6
:10017000C01A5241830B8B4201D38B03C01A5241E8
:10018000430B8B4201D34B03C01A5241030B8B42EA
:1001900001D30B03C01A5241C30A8B4201D3CB02D5
:1001A000C01A5241830A8B4201D38B02C01A5241BA
:1001B000430A8B4201D34B02C01A5241030A8B42BD
:1001C00001D30B02C01A5241CDD2C3098B4201D3D5
:1001D000CB01C01A524183098B4201D38B01C01A53
:1001E000524143098B4201D34B01C01A52410309CA
:1001F0008B4201D30B01C01A5241C3088B4201D379
:10020000CB00C01A524183088B4201D38B00C01A25
:10021000524143088B4201D34B00C01A5241411A4C
:1002200000D20146524110467047FFE701B5002059
:1002300000F006F802BDC0460029F7D076E7704707
:100240007047C046F0B557464E464546DE46E0B5D7
:10025000814605000C03480092461F0085B0240B20
:10026000400DCE0F002859D0874B984200D198E01E
:100270006B0FE4001C4380231B0423439846834BED
:10028000ED009B4600239946834400933C037B008A
:100290005046240B5B0DFF0F002B67D07A4A934228
:1002A00018D07A49420F8C46E40059461443802204
:1002B00063441204CB1A14439B46C200002033004F
:1002C0007B409A464B460F2B00D9EFE070499B00CC
:1002D000CB589F466F4B52469C462243E344002A2C
:1002E00000D095E0494602231943894600240220A4
:1002F000E5E700230024002552461B052343D207CF
:1003000013432800190005B0F0BCBB46B246A9460D
:10031000A046F0BD002400255B4BEDE74B46234390
:10032000984600D189E0002C00D1E0E1200000F0E7
:10033000D7FA010002000B391D235B1A4946100051
:10034000D940083884400B004D46234398468540E9
:1003500051483C03831A9B460023994600937B0037
:100360005046240B5B0DFF0F002B97D152462243C2
:1003700055D0002C00D1CAE1200000F0B1FA0200F3
:100380000B3A1D2301009B1A52460839DA408C4073
:10039000144352468A40414B58449B4683440020B4
:1003A0008DE74B462343984640D108239946063BA8
:1003B00000258346009369E7B246009B022BA9D033
:1003C000032B00D111E2012B93D0354A5A44002A65
:1003D00000DC3CE16B0700D0A7E1ED084346DB0100
:1003E00006D542462F4B1A4090468022D2005A44EE
:1003F0002D4B9A428EDC4346520558075C0205435A
:10040000240B530D78E7BA46A04615000090D4E7B8
:100410004A4603231A439146032052464FE7494672
:100420000123194389460024012048E70C239946FB
:10043000093BA0468346009328E7042399460023FE
:100440009B4601330025009320E7002380249A4631
:1004500000250D4B24034FE7802341461B0319421F
:1004600008D01C4206D11C432403BA461500064B93
:10047000240B41E78024434624031C432403B24653
:10048000014B240B38E7C046FF07000001FCFFFFCB
:100490002845000801F8FFFF0DFCFFFFF3030000F3
:1004A000FF030000FFFFFFFEFE070000444500D2EF
:1004B00016E100D111E101235B429C462E0040462B
:1004C0000025E3442302140E1C431B0C994623040D
:1004D0001F0C1202494600920197FFF7ADFE020081
:1004E0007A430B04310C804619438A420BD901230D
:1004F0005B429C460919E0448C4204D88A4202D9E6
:10050000831E98460919881A4946FFF795FE090483
:100510008C4631046646019A090C4243030031437C
:100520008A4204D90919013B8C4200D811E1891A89
:100530004246009E12041A43330C1F00100C9046D2
:10054000029313043204160C32001B0C5A43039618
:100550007B4346437843170CBC469B1963449E4239
:1005600003D980267602B44660441E0C3018160467
:100570001B04360C9E19814200D29CE000D197E00A
:10058000AE1B091AB54280414042081A844200D18C
:1005900011E14946FFF750FE019A0B044243310C2A
:1005A000050019438A4207D90919013D8C4203D835
:1005B0008A4201D9851E0919881A4946FFF73CFE6F
:1005C00009048C4631046646019A090C4243030033
:1005D00031438A4207D90919013B8C4203D88A4228
:1005E00001D9831E0919039E891A32002D041D4367
:1005F000029F2B041B0C5A437B439C46280C46430A
:10060000130CB444634478439E4203D98026760297
:10061000B44660441E0C12041B04120C30189B18C4
:10062000814206D302D001231D43CEE6002B00D128
:10063000CBE661186E1EA14200D2A4E0814200D236
:10064000C9E000D1D9E03500EDE701256D42012177
:10065000891A382900DD4CE61F2900DC7FE01F23C2
:100660005B429A1A4346D340202904D04446654A47
:100670005A44944025436A1E954107222B43150096
:1006800000241D401A4200D1A1E00F2200241A408C
:10069000042A00D198E01A1D9A429B415B42E4185B
:1006A0001300220200D48FE001230024002523E65A
:1006B000B54200D364E743465A1E009B9C466544FE
:1006C0001F009D429B415B421B19C9188C423AD2C4
:1006D000884263D860D0904652E7AA4200D9EAE641
:1006E0004346DE0758086B081E43ED07EAE6484616
:1006F00000F0F6F801000200153120321C2900DC60
:100700001AE64B46083883400025984620E600F05C
:10071000E7F803001A00153220301C2A00DC30E60E
:100720005446083B00229C4035E60F232B40042B07
:1007300000D152E605235B42AB429B4104355B424C
:10074000ED0898444AE68C42C5D1AF42C0D99046E4
:1007500016E78A4200D8EAE6831E0919E7E62A4A24
:1007600028005A44434695409340C8406A1E95412C
:10077000444603432B43CC405A0792D00F221A40E1
:10078000042A88D18DE73500814200D04BE7009ADA
:10079000934200D047E718E6AE429CD902235B4261
:1007A0009C46009BE0449C4665449D429B415B42C5
:1007B0001B19C918E4E6154A5A44002A00DC44E72C
:1007C00001230025984409E665076402240BDB0831
:1007D0001D43002390E5009E023D7200B242BF41DE
:1007E0007F423C1909190092CEE780244346240336
:1007F0001C432403064B240B7EE5009A9A42EAD35D
:100800003500C4E73E0400001E040000FF030000A2
:10081000FF0700000A0030B5134C53000903050020
:10082000090B00205B0DD20FA34204DD0F48834269
:1008300002DD0F4BD01830BD8020400301430D482E
:10084000C01A1F2808DD0C48C31AD9400B005842B3
:10085000002AF0D11800EEE7084CC540A4466344D6
:1008600099400B002B43F2E7FE0300001D0400003B
:10087000FFFFFF7F3304000013040000EDFBFFFFC8
:1008800070B5002816D0C317C5185D40C40F2800E6
:1008900000F026F8114A121A0A2816DC03002E006E
:1008A00015339E400B23181AC54053052D032D0BFD
:1008B0005B0D03E000240023002500261B052B43CD
:1008C000E40723433000190070BD0B388540530501
:1008D0002D0300262D0B5B0DF0E7C0461E04000023
:1008E0001C2101231B04984201D3000C10391B0A60
:1008F000984201D3000A08391B09984201D3000924
:10090000043902A2105C40187047C046040302027A
:1009100001010101000000000000000080B582B06C
:1009200000AFFB1D00221A700B4B1A680A4B4021C6
:100930000A431A60002000F011F8031E03D0FB1DCB
:1009400001221A7001E003F039F8FB1D1B78180032
:10095000BD4602B080BDC0460020024090B585B0C3
:1009600000AF78600F243B1900221A700F4B1B68F0
:10097000FA2291001800FFF7D9FB0300180000F0DD
:1009800048FD031E03D03B1901221A7006E0796866
:1009900001235B420022180000F026FD0F23FB1804
:1009A0001B781800BD4605B090BDC046240000204D
:1009B00080B500AF034B1B685A1C024B1A60C0463F
:1009C000BD4680BDC000002080B500AF024B1B6853
:1009D0001800BD4680BDC046C000002080B584B070
:1009E00000AF7860FFF7F0FF0300BB607B68FB603F
:1009F000FB68013302D0FB680133FB60C046FFF7A0
:100A0000E3FF0200BB68D31AFA689A42F7D8C046DF
:100A1000C046BD4604B080BD80B582B000AF7860EE
:100A20007B68002B01D1012359E17B685B6D002BB2
:100A30000AD17B6800229A657B6850220021995474
:100A40007B68180002F0CEFF7B685B6D10221340BC
:100A5000102B05D07B681B689B68042213400BD0C9
:100A60007B685B6D10221A437B685A657B68502255
:100A700000219954012332E17B685B6D9A4A13404F
:100A800002221A437B685A657B681B689B680322B5
:100A90001340012B08D17B681B681B68012213409F
:100AA000012B01D1012300E00023002B49D17B68F9
:100AB0005A68C0231B069A420BD07B685A68802371
:100AC000DB059A4205D07B685A6880231B069A4250
:100AD00011D17B681B681A697B681B6892009208B9
:100AE0001A617B681B6819697B685A687B681B6898
:100AF0000A431A6114E07B681B681A697B681B68EB
:100B0000920092081A61794B1A68784B78490A402A
:100B10001A60764B19687B685A68744B0A431A60EE
:100B20007B681B68DA687B681B6818218A43DA6077
:100B30007B681B68D9687B689A687B681B680A4376
:100B4000DA606A4B1A68694B6A490A401A60674B57
:100B500019687B685B6B5A06644B0A431A607B68B2
:100B60001B689A6880235B05134008D17B681B686B
:100B70009A687B681B68802149050A439A607B68F4
:100B80001B68DA687B681B685B490A40DA607B682F
:100B90001B68D9687B68DA687B681B69022B01D106
:100BA000042300E000231A437B6820201B5C5B03C6
:100BB0001A437B682C201B5C5B001A437B681B6B11
:100BC0001A437B689B699B031A437B68DB69DB03E1
:100BD0001A437B681B680A43DA607B685A6AC2233F
:100BE000FF339A420BD07B681B68D9687B685A6ACE
:100BF0007B689B6A1A437B681B680A43DA607B68E0
:100C000021229B5C012B1AD17B6820229B5C002B4C
:100C100009D17B681B68DA687B681B688021490200
:100C20000A43DA600BE07B685B6D20221A437B6825
:100C30005A657B689B6D01221A437B689A657B68C5
:100C4000DB6B012B1FD17B681B681A697B681B68F3
:100C50002A490A401A617B681B6819697B681A6C0B
:100C60007B685B6C1A437B689B6C1A437B681B68D0
:100C70000A431A617B681B681A697B681B6801213B
:100C80000A431A610EE07B681B681B69012213404E
:100C9000012B07D17B681B681A697B681B680121DF
:100CA0008A431A617B681B685A697B681B68072145
:100CB0008A435A617B681B6859697B689A6B7B68B9
:100CC0001B680A435A617B6800229A657B685B6DEA
:100CD0000322934301221A437B685A6500231800BC
:100CE000BD4602B080BDC046FDFEFFFF08270140A3
:100CF000FFFFC3FFFFFFFFFD1902FEFF03FCFFFF25
:100D000090B585B000AF78600F23FB1800221A70F1
:100D10007B681B689B680422134038D17B68502293
:100D20009B5C012B01D1022338E07B68502201211A
:100D300099547B68DB69012B07D00F23FC187B6873
:100D4000180000F099F9030023700F23FB181B789B
:100D5000002B20D17B685B6D124A13408022520029
:100D60001A437B685A657B6800229A657B6850222B
:100D7000002199547B681B681C221A607B681B68E1
:100D80009A687B681B6804210A439A6003E00F237A
:100D9000FB1802221A700F23FB181B781800BD469F
:100DA00005B090BDFEF0FFFFB0B584B000AF786035
:100DB0000F23FB1800221A707B6850229B5C012BCA
:100DC00001D1022329E07B685022012199540F258B
:100DD0007C197B68180000F00FFA030023707B1960
:100DE0001B78002B12D17C197B68180000F0A4F945
:100DF000030023707B191B78002B07D17B685B6D88
:100E0000084A134001221A437B685A657B685022C6
:100E1000002199540F23FB181B781800BD4604B01D
:100E2000B0BDC046FEFEFFFF80B584B000AF786065
:100E300039600023BB600023FB607B685B69082B83
:100E400002D10823FB6014E07B681B68DB68012289
:100E50001340012B0BD17B685B6D20221A437B680A
:100E60005A657B6850220021995401236CE00C23C1
:100E7000FB60FFF7A9FD0300BB6019E03B6801338D
:100E800016D03B68002B07D0FFF79EFD0200BB6821
:100E9000D31A3A689A420BD27B685B6D04221A43DC
:100EA0007B685A657B6850220021995403234BE0EC
:100EB0007B681B681B68FA681340DFD07B685B6D3A
:100EC000802292001A437B685A657B681B68DA6847
:100ED000C0231B0113402ED17B6820229B5C002B7A
:100EE00029D17B681B681B6808221340082B22D17C
:100EF0007B681B689B680422134010D17B681B68C9
:100F00005A687B681B680C218A435A607B685B6D5A
:100F10000F4A134001221A437B685A650BE07B6835
:100F20005B6D20221A437B685A657B689B6D0122AA
:100F30001A437B689A657B689B69002B03D17B68A9
:100F40001B680C221A6000231800BD4604B080BD47
:100F5000FEFEFFFF80B582B000AF78607B681B6843
:100F60001B6C1800BD4602B080BD000080B582B089
:100F700000AF786039607B6850229B5C012B01D107
:100F800002236CE07B685022012199547B681B6826
:100F90009B68042213400BD07B685B6D20221A43B0
:100FA0007B685A657B68502200219954012356E0E2
:100FB0003B685B682C4A934228D07B681B68996A1F
:100FC0003B681B685B035A0B7B681B680A439A6289
:100FD0003B681A688023DB02134009D0234B1A6850
:100FE000224B802109040A431A600A2000F04AF9C2
:100FF0003B681A6880239B0213402BD01B4B1A6856
:101000001A4B8021C9030A431A6023E07B681B68DE
:101010009A6A3B681B685B035B0BD9437B681B6860
:101020000A409A623B681A688023DB02134005D0AD
:101030000E4B1A680D4B0E490A401A603B681A683D
:1010400080239B02134005D0084B1A68074B0949BF
:101050000A401A607B68502200219954002318002E
:10106000BD4602B080BDC046011000000827014007
:10107000FFFF7FFFFFFFBFFF80B584B000AF786048
:101080000023FB607B681B689B6803221340012BD5
:1010900008D17B681B681B6801221340012B01D11A
:1010A000012300E00023002B3FD17B681B689B6875
:1010B000204A13400DD07B685B6D10221A437B6879
:1010C0005A657B689B6D01221A437B689A650123F0
:1010D0002CE07B681B689A687B681B6801210A43C7
:1010E0009A60012000F0CEF8FFF76EFC0300FB6071
:1010F00014E0FFF769FC0200FB68D31A0A2B0DD934
:101100007B685B6D10221A437B685A657B689B6D18
:1011100001221A437B689A65012307E07B681B68FC
:101120001B6801221340012BE3D100231800BD46A8
:1011300004B080BD1700008080B584B000AF786037
:101140000023FB607B681B689B6803221340012B14
:1011500008D17B681B681B6801221340012B01D159
:10116000012300E00023002B41D07B681B689B68B3
:1011700005221340012B10D17B681B689A687B689D
:101180001B6802210A439A607B681B6803221A606D
:10119000FFF71AFC0300FB6022E07B685B6D102206
:1011A0001A437B685A657B689B6D01221A437B68F2
:1011B0009A6501231CE0FFF707FC0200FB68D31AC5
:1011C0000A2B0DD97B685B6D10221A437B685A6528
:1011D0007B689B6D01221A437B689A65012307E0B7
:1011E0007B681B689B6801221340012BE3D000231E
:1011F0001800BD4604B080BD80B584B000AF7860F3
:101200000023FB607B681B689B680422134034D07A
:101210007B681B689B6804221340042B0DD17B68FC
:101220001B689B680222134007D17B681B689A6881
:101230007B681B6810210A439A60FFF7C5FB030017
:10124000FB6014E0FFF7C0FB0200FB68D31A0A2B17
:101250000DD97B685B6D10221A437B685A657B68E9
:101260009B6D01221A437B689A65012306E07B6827
:101270001B689B6804221340E4D100231800BD467C
:1012800004B080BD80B584B000AF78600B4B1B68A4
:101290000B491800FEF74AFF03001A007B6853430E
:1012A000FB6002E0FB68013BFB60FB68002BF9D1AF
:1012B000C046C046BD4604B080BDC04624000020E4
:1012C00040420F0090B583B000AF02003960FB1DB3
:1012D0001A70FB1D1B787F2B32D92F4AFB1D1B7800
:1012E00019000F230B40083B9B0806339B00D318C3
:1012F00004331B68FA1D1278110003220A40D20041
:10130000FF2191400A00D2431A4011003B689B0123
:10131000FF221A40FB1D1B78180003230340DB004B
:101320009A401D48FB1D1B781C000F232340083BDF
:101330009B080A4306339B00C31804331A6027E056
:10134000164AFB1D1B785BB29B08C0339B009B5861
:10135000FA1D1278110003220A40D200FF219140A9
:101360000A00D2431A4011003B689B01FF221A4039
:10137000FB1D1B78180003230340DB009A4007483D
:10138000FB1D1B785BB29B080A43C0339B001A50BD
:10139000C046BD4603B090BD00ED00E000E100E0B6
:1013A00080B582B000AF78607B685A1E80235B04F2
:1013B0009A4201D3012310E00A4B7A68013A5A603D
:1013C00001235B4203211800FFF77CFF054B00223D
:1013D0009A60044B07221A6000231800BD4602B031
:1013E00080BDC04610E000E080B584B000AFB960B9
:1013F0007A600F217B18021C1A70BA687B181B7860
:101400005BB211001800FFF75DFFC046BD4604B097
:1014100080BD80B582B000AF78607B681800FFF7B0
:10142000BFFF03001800BD4602B080BD80B586B086
:1014300000AF7860396000237B610023FB600023EC
:101440003B614FE13B681B6801217A6991400A00CA
:101450001340FB60FB68002B00D140E13B685B68F8
:10146000022B03D03B685B68122B23D17B69DA081F
:101470007B6808329200D3583B617B690722134096
:101480009B000F229A401300DA433B6913403B61F3
:101490003B681A697B6907210B409B009A40130047
:1014A0003A6913433B617B69DA087B680832920032
:1014B0003969D1503B685B68012B0BD03B685B6896
:1014C000022B07D03B685B68112B03D03B685B683D
:1014D000122B30D17B689B683B617B695B000322E8
:1014E0009A401300DA433B6913403B613B68DA687A
:1014F0007B695B009A4013003A6913433B617B6848
:101500003A699A607B685B683B6101227B699A401B
:101510001300DA433B6913403B613B685B681B097E
:1015200001221A407B699A4013003A6913433B61D8
:101530007B683A695A607B681B683B617B695B002A
:1015400003229A401300DA433B6913403B613B6836
:101550005B6803221A407B695B009A4013003A697A
:1015600013433B617B683A691A607B68DB683B61C7
:101570007B695B0003229A401300DA433B69134006
:101580003B613B689A687B695B009A4013003A694B
:1015900013433B617B683A69DA603B685A68802391
:1015A0005B05134000D19AE0544B5A6B534B012119
:1015B0000A435A63524A7B699B0802339B009B583B
:1015C0003B617B69032213409B000F229A4013006A
:1015D000DA433B6913403B617A68A023DB059A42FA
:1015E00019D07B68474A934213D07B68464A93429E
:1015F0000DD07B68454A934207D07B68444A9342AA
:1016000001D1052308E0062306E0032304E00223BA
:1016100002E0012300E000237A6903210A409200DE
:1016200093403A6913433B6135497B699B08023318
:101630009B003A695A50374B1B683B61FB68DA43A1
:101640003B6913403B613B685A6880235B0213404F
:1016500003D03A69FB6813433B612E4B3A691A6029
:101660002C4B5B683B61FB68DA433B6913403B6191
:101670003B685A6880239B02134003D03A69FB6899
:1016800013433B61234B3A695A60224B9B683B6191
:10169000FB68DA433B6913403B613B685A6880232F
:1016A0005B03134003D03A69FB6813433B61194B5A
:1016B0003A699A60174BDB683B61FB68DA433B6928
:1016C00013403B613B685A6880239B03134003D05F
:1016D0003A69FB6813433B610E4B3A69DA607B69F8
:1016E00001337B613B681A687B69DA40131E00D0C6
:1016F000A8E6C046C046BD4606B080BD0010024008
:10170000000001400004005000080050000C005090
:10171000001C00500004014080B584B000AF786028
:101720000A00BB1C1A807B681B69BA1C1288134014
:1017300004D00F23FB1801221A7003E00F23FB18BB
:1017400000221A700F23FB181B781800BD4604B046
:1017500080BD80B582B000AF786008001100BB1C6E
:10176000021C1A807B1C0A1C1A707B1C1B78002B25
:1017700004D0BB1C1A887B689A6103E0BB1C1A88E2
:101780007B689A62C046BD4602B080BDB0B58AB0E3
:1017900000AF78607B68002B02D1012300F0ABFB27
:1017A000CE4BDB680C2213403B62CC4BDA688023C3
:1017B0005B021340FB617B681B680122134000D170
:1017C0007EE03B6A082B07D03B6A0C2B12D1FA69EA
:1017D00080235B029A420DD1C04B1A6880239B0282
:1017E000134000D16BE07B685B68002B67D101235D
:1017F00000F081FB7B685A6880235B029A4207D124
:10180000B64B1A68B54B802149020A431A6027E09B
:101810007B685A68A023DB029A420ED1AF4B1A684C
:10182000AE4B8021C9020A431A60AC4B1A68AB4B1D
:10183000802149020A431A6012E0A84B1A68A74B9C
:10184000A7490A401A60A54B1A6880235B0213401F
:10185000FB60FB68A14B1A68A04BA2490A401A60C2
:101860007B685B68002B15D0FFF7AEF80300BB6107
:1018700009E0FFF7A9F80200BB69D31A642B02D96B
:10188000032300F038FB954B1A6880239B0213401A
:10189000EFD015E0FFF798F80300BB6108E0FFF711
:1018A00093F80200BB69D31A642B01D9032322E306
:1018B0008A4B1A6880239B021340F0D100E0C04697
:1018C0007B681B680222134000D18AE07B68DB68DA
:1018D0007B613B6A042B05D03B6A0C2B3DD1FB6935
:1018E000002B3AD17D4B1B680422134004D07B6946
:1018F000002B01D10123FEE2784B5B687A4A13404A
:1019000019007B681B691A02744B0A435A60734BB7
:101910001B68092293431900704B7A690A431A60C5
:1019200000F01EFC01006D4BDB681B090F22134009
:101930006E4AD35C0A00DA406D4B1A6013257C199D
:101940000020FFF70BF8030023702A00BB181B7858
:10195000002B46D0BB181B78CDE27B69002B27D02B
:101960005E4B1B680922934319005C4B7A690A435A
:101970001A60FFF729F80300BB6108E0FFF724F8BD
:101980000200BB69D31A022B01D90323B3E2534BE4
:101990001B6804221340F1D0504B5B68524A13403D
:1019A00019007B681B691A024C4B0A435A6018E005
:1019B0004A4B1A68494B01218A431A60FFF704F821
:1019C0000300BB6108E0FEF7FFFF0200BB69D31A0A
:1019D000022B01D903238EE2404B1B6804221340E3
:1019E000F1D17B681B681022134000D19EE03B6A56
:1019F000002B3FD1394B1A6880239B00134005D040
:101A00007B68DB69002B01D1012374E2334B5B68F7
:101A1000384A134019007B685A6A304B0A435A60AF
:101A20002E4B5B681B02190A7B681B6A1A062B4B3C
:101A30000A435A607B685B6A5B0B013380221202A7
:101A40009A40264BDB681B090F210B402749CB5CD2
:101A5000DA40274B1A6013257C190020FEF77EFF21
:101A6000030023702A00BB181B78002B5ED0BB1824
:101A70001B7840E27B68DB69002B3DD0174B1A686E
:101A8000164B802149000A431A60FEF79DFF0300B0
:101A9000BB6108E0FEF798FF0200BB69D31A022B76
:101AA00001D9032327E20D4B1A6880239B001340C2
:101AB000F0D00A4B5B680F4A134019007B685A6AE2
:101AC000064B0A435A60054B5B681B02190A7B6888
:101AD0001B6A1A06014B0A435A6027E000100240B5
:101AE000FFFFFEFFFFFFFBFFFFE0FFFF6C4500086D
:101AF00024000020FF1FFFFFBD4B1A68BC4BBD49EF
:101B00000A401A60FEF760FF0300BB6108E0FEF7C1
:101B10005BFF0200BB69D31A022B01D90323EAE160
:101B2000B34B1A6880239B001340F0D17B681B687D
:101B30000822134036D07B685B69002B19D0AC4B70
:101B40001A6DAB4B01210A431A65FEF73DFF0300F6
:101B5000BB6108E0FEF738FF0200BB69D31A022B15
:101B600001D90323C7E1A24B1B6D02221340F1D020
:101B700018E09F4B1A6D9E4B01218A431A65FEF7B0
:101B800023FF0300BB6108E0FEF71EFF0200BB69F4
:101B9000D31A022B01D90323ADE1954B1B6D022211
:101BA0001340F1D17B681B680422134000D1AEE0E2
:101BB00027203B1800221A708D4B9A6B80235B05FF
:101BC000134009D18A4B9A6B894B802149050A43FE
:101BD0009A633B1801221A70874B1A6880235B00B6
:101BE00013401AD1844B1A68834B802149000A4361
:101BF0001A60FEF7E9FE0300BB6108E0FEF7E4FEB1
:101C00000200BB69D31A642B01D9032373E17A4B19
:101C10001A6880235B001340F0D07B689A688023A9
:101C20005B009A4207D1724B1A6D714B80214900BB
:101C30000A431A6531E07B689B68002B0CD16C4B22
:101C40001A6D6B4B6B490A401A65694B1A6D684BEC
:101C50006A490A401A6520E07B689A68A023DB0085
:101C60009A420ED1624B1A6D614B8021C9000A4322
:101C70001A655F4B1A6D5E4B802149000A431A6555
:101C80000BE05B4B1A6D5A4B5A490A401A65584B88
:101C90001A6D574B59490A401A657B689B68002B9F
:101CA00015D0FEF791FE0300BB6109E0FEF78CFE44
:101CB0000200BB69D31A524A934201D903231AE1A5
:101CC0004B4B1A6D80239B001340EFD014E0FEF7BE
:101CD0007BFE0300BB6109E0FEF776FE0200BB69F4
:101CE000D31A474A934201D9032304E1404B1A6DAA
:101CF00080239B001340EFD12723FB181B78012B77
:101D000005D13B4B9A6B3A4B3E490A409A637B683C
:101D10001B682022134049D07B689B69002B26D08A
:101D2000334B9A68324B01210A439A60304B5A6B0D
:101D30002F4B01210A435A63334B1A6A324B8021DD
:101D400089010A431A62FEF73FFE0300BB6108E007
:101D5000FEF73AFE0200BB69D31A022B01D9032316
:101D6000C9E0234B9B6802221340F1D01EE0204BB8
:101D70009A681F4B01218A439A60234B1A6A224BAF
:101D800022490A401A62FEF71FFE0300BB6108E009
:101D9000FEF71AFE0200BB69D31A022B01D90323F6
:101DA000A9E0134B9B6802221340F1D17B689B6A28
:101DB000002B00D19EE03B6A0C2B00D177E07B68C2
:101DC0009B6A022B58D10A4B1A68094B10490A40EA
:101DD0001A60FEF7F9FD0300BB611BE0FEF7F4FD9E
:101DE0000200BB69D31A022B14D9032383E0C04637
:101DF00000100240FFFEFFFF00700040FFFBFFFFEE
:101E000088130000FFFFFFEF00000140FFDFFFFF2E
:101E1000FFFFFFFE3A4B1A6880239B041340DDD17D
:101E2000374BDB68374A134019007B68DA6A7B68F6
:101E30001B6B1A437B685B6B1A43314B0A43DA60B6
:101E40002F4B1A682E4B802149040A431A60FEF773
:101E5000BBFD0300BB6108E0FEF7B6FD0200BB69F5
:101E6000D31A022B01D9032345E0254B1A6880239E
:101E70009B041340F0D03DE0214B1A68204B2249CF
:101E80000A401A60FEF7A0FD0300BB6108E0FEF700
:101E90009BFD0200BB69D31A022B01D903232AE060
:101EA000174B1A6880239B041340F0D122E07B6813
:101EB0009B6A012B01D101231DE0114BDB68FB6103
:101EC000FA6980235B021A407B68DB6A9A420FD171
:101ED000FA69F0239B031A407B681B6B9A4207D177
:101EE000FA69C0231B041A407B685B6B9A4201D0DD
:101EF000012300E000231800BD460AB0B0BDC04673
:101F000000100240FFFF02FFFFFFFFFEB0B584B0EC
:101F100000AF786039607B68002B01D101230DE1AF
:101F2000884B1B68012213403A689A4211D9854BAD
:101F30001B68012293431900824B3A680A431A60D6
:101F4000804B1B68012213403A689A4201D001235A
:101F5000F4E07B681B680222134009D07A4BDB68EF
:101F6000F022934319007B689A68774B0A43DA6042
:101F70007B681B680122134000D189E07B685B68A5
:101F8000022B07D1704B1A6880239B02134020D18B
:101F90000123D3E07B685B68032B07D16A4B1A6887
:101FA00080239B04134014D10123C7E07B685B6846
:101FB000012B06D1644B1B680422134009D1012375
:101FC000BCE0614B1A6880239B00134001D10123C0
:101FD000B4E05D4BDB680322934319007B685A68C9
:101FE000594B0A43DA60FEF7EFFC0300FB607B68A5
:101FF0005B68022B11D109E0FEF7E6FC0200FB68EA
:10200000D31A524A934201D9032397E04E4BDB681F
:102010000C221340082BEFD13AE07B685B68032B5E
:1020200011D109E0FEF7D0FC0200FB68D31A474A41
:10203000934201D9032381E0434BDB680C22134018
:102040000C2BEFD124E07B685B68012B1BD109E0EE
:10205000FEF7BAFC0200FB68D31A3C4A934201D94E
:1020600003236BE0384BDB680C221340042BEFD1C9
:102070000EE0FEF7A9FC0200FB68D31A334A934234
:1020800001D903235AE0304BDB680C221340F0D116
:102090002C4B1B68012213403A689A4211D2294BFB
:1020A0001B68012293431900264B3A680A431A60C1
:1020B000244B1B68012213403A689A4201D0012345
:1020C0003CE07B681B680422134009D01E4BDB6890
:1020D0001F4A134019007B68DA681B4B0A43DA6019
:1020E0007B681B68082213400AD0174BDB68194A2B
:1020F000134019007B681B69DA00134B0A43DA604E
:1021000000F02EF80100104BDB681B090F22134072
:10211000114AD35C0A00DA40104B1A600B257C1977
:102120000020FEF71BFC030023702A00BB181B785D
:10213000002B02D0BB181B7800E000231800BD461E
:1021400004B0B0BD0020024000100240881300001F
:10215000FFF8FFFFFFC7FFFF6C45000824000020C9
:1021600080B586B000AF3C4BDB68FB60FB680C229F
:1021700013400C2B13D05CD8042B02D0082B0BD0AF
:1021800057E0354B1B681022134002D0334B3B61A4
:102190005DE0334B3B615AE0324B3B6157E0FB68FB
:1021A0009B0C0F221340304AD35CBB60FB689B0D35
:1021B0000322134001337B60274BDA6880235B02E4
:1021C00013400FD0B9680A005201521A93019B1AAA
:1021D000DB005B185B0279681800FDF7A7FF0300BE
:1021E0007B6123E01C4B1B68102213400FD0B968A1
:1021F0000A005201521A93019B1ADB005B181B0262
:1022000079681800FDF792FF03007B610EE0B96862
:102210000A005201521A93019B1ADB005B189B02C1
:1022200079681800FDF782FF03007B617B693B61E1
:102230000DE0094B5B685B0B072213403B603B687A
:102240000133802212029A4013003B61C0463B6971
:102250001800BD4606B080BD0010024000093D00D8
:102260000024F40000127A007C45000880B582B09A
:1022700000AF0200FB1D1A70FB1D1B78002B15D050
:10228000A023DB0520229A61C046C046C046C04656
:10229000C046C046C046C046C046C046C046C0460E
:1022A000C046A023DB0520229A620CE0A023DB05B8
:1022B00020229A61C046C046C046C046C046A02300
:1022C000DB0520229A62C046BD4602B080BD0000F8
:1022D000B0B5CCB000AF786097235B00FB1800224C
:1022E0001A802CE097256D007B191B881821180097
:1022F000FDF71CFF03009BB29B007A68D3181C6893
:102300007B191B8818211800FDF796FF0B009BB264
:102310001A0017239B1ADC402300DAB27B191B88B2
:1023200001210A40D1B21D4A982040008446BC4495
:102330006244D1547B191A887B1901321A80972183
:1023400049007B181A8890235B009A42CAD37B18F5
:1023500000221A8012E0972464003B191B880F4A60
:10236000982149008C46BC446244D35C1800FFF7B6
:102370007DFF3B191A883B1901321A8097235B00B5
:10238000FB181A8890235B009A42E4D30120FEF7E1
:1023900025FBC046BD464CB0B0BDC046DCFEFFFFCD
:1023A00090B585B000AF040008001100FB1D221C91
:1023B0001A70BB1D021C1A707B1D0A1C1A707B1D33
:1023C0001B78FB60FB1D1B781B02FA681343FB6044
:1023D000BB1D1B781B04FA681343FB60FB681800E5
:1023E000BD4605B090BD0000B0B586B000AF3B0063
:1023F00080221A603B0000225A603B0000229A6053
:102400003B00224A19001000FFF710F81F4B012271
:1024100002211800FFF79DF91C4B0122082118002A
:10242000FFF797F917257C19184B80211800FFF743
:1024300073F903002370154B002208211800FFF7E1
:1024400088F9124B012208211800FFF782F90F4B7F
:10245000002208211800FFF77CF93B0080221A6057
:102460003B0001225A603B0000229A603B0003229D
:10247000DA603B00054A19001000FEF7D7FF7B1910
:102480001B781800BD4606B0B0BDC0460004005021
:1024900080B582B000AF0200FB1D1A70FB1D1B78D7
:1024A00001221340DBB21C481A001021FFF751F93A
:1024B000FB1D1B785B08DBB201221340DBB2164820
:1024C0001A002021FFF745F9FB1D1B789B08DBB2A2
:1024D00001221340DBB210481A004021FFF739F9FE
:1024E000FB1D1B78DB08DBB201221340DBB20A487C
:1024F0001A008021FFF72DF9074B0122082118004F
:10250000FFF727F9044B002208211800FFF721F9F3
:10251000C046BD4602B080BD0004005080B582B008
:1025200000AF0200FB1D1A70BB1D0A1C1A70184B6D
:10253000002201211800FFF70CF9C046FFF754FFF5
:10254000031EFBD1FB1D1B7811481A000121FFF768
:1025500000F90F4B002202211800FFF7FAF80C4B8C
:10256000002208211800FFF7F4F8BB1D1B781B0997
:10257000DBB21800FFF78CFFBB1D1B780F22134046
:10258000DBB21800FFF784FFC046BD4602B080BD35
:102590000004005080B582B000AF224B0022012120
:1025A0001800FFF7D6F81F4B002202211800FFF792
:1025B000D0F81C4B002208211800FFF7CAF80F20A2
:1025C000FEF70CFAFB1D00221A700AE00320FFF749
:1025D0005FFF0520FEF702FAFB1D1A78FB1D013292
:1025E0001A70FB1D1B78022BF0D90220FFF750FF59
:1025F000FB1D00221A700CE0FB1D1B780A4AD35CFD
:1026000019000020FFF78AFFFB1D1A78FB1D01321D
:102610001A70FB1D1B78032BEED9C046C046BD4681
:1026200002B080BD000400506845000880B584B049
:1026300000AF0200FB1D1A70BB1D0A1C1A70BB1DE7
:102640001B78012B04D00F23FB1840221A7003E0E3
:102650000F23FB1800221A70FA1D0F217B18127825
:102660001B78D318DAB27B18013A1A707B181B78E2
:10267000802252421343DBB219000020FFF74EFFC5
:10268000C046BD4604B080BD80B582B000AF020038
:10269000FB1D1A70FB1D1B780C2B07D1012100209C
:1026A000FFF73CFF0220FEF799F917E0FB1D1B78AE
:1026B0000A2B04D102210120FFF7B8FF0EE0FB1D19
:1026C0001B78082B04D110210020FFF727FF05E01D
:1026D000FB1D1B7819000120FFF720FFC046BD46F7
:1026E00002B080BD90B585B000AF78600F23FB18B5
:1026F00000221A700DE00F243B191B787A68D3185A
:102700001B781800FFF7C0FF3B191A783B190132FC
:102710001A700F23FB181C787B681800FDF7F4FC77
:1027200003009C42E7D3C046C046BD4605B090BDFD
:1027300090B589B000AF0200FB1D1A70BB1D0A1CCA
:102740001A700C23FB181A4A13CA13C312681A60B2
:102750001F23FB1800221A7020E0FB1D1B78DB00F2
:10276000DAB21F243B191B78D318DBB24033DBB23B
:1027700019000020FFF7D2FEBB1D1A783B191B7809
:102780000C217918D2008A18D35C19000120FFF7B8
:10279000C5FE3B191A783B1901321A701F23FB182A
:1027A0001B78072BD9D9C046C046BD4609B090BD9D
:1027B0008044000890B585B000AF0200FB1D1A7080
:1027C000174B1800FEF79CFAFA239A00144B1100DD
:1027D0001800FEF729FB124B1800FEF7BBFB0300A5
:1027E0009AB20C243B191A80FA239A000C4B110060
:1027F0001800FEF719FB0A4B1800FEF7ABFB0300AD
:102800009AB23B195A80064B1800FEF7CDFAFB1D11
:102810001A783B195200D35A1800BD4605B090BD36
:10282000B001002080B500AF254B1B78002B03D0F2
:10283000244B03221A703FE0234B1B78002B03D05C
:10284000204B05221A7037E0204B1B78002B03D158
:102850001C4B00221A702FE01C4B1B78002B0BD056
:102860000020FFF7A7FF03001A00194B9A4203D874
:10287000144B02221A701FE0164B1B78002B0BD052
:102880000020FFF797FF03001A00114B9A4203D96B
:102890000C4B04221A700FE00C4B1B78002B0BD052
:1028A0000020FFF787FF03001A00094B9A4203D963
:1028B000044B01221A70FFE7C046BD4680BDC046EA
:1028C000AC000020A8000020AB000020A9000020E0
:1028D000B70B0000AA00002080B582B002AF264BE3
:1028E0001B881A00254B1B78254926480193012394
:1028F0000093DF2301F092F9234B1B881A00234930
:10290000234B180001F08AF901210120FFF78EFE08
:102910001C4B1800FFF7E6FE02210120FFF786FEA0
:102920001C4B1800FFF7DEFE02210B20FFF77EFE96
:10293000194B1800FFF7D6FE02211020FFF776FE94
:10294000164B1800FFF7CEFE02210220FFF76EFEA5
:10295000134B1B781A00134B9200D3581800FFF743
:10296000C1FE02210D20FFF761FE094B1800FFF7A1
:10297000B9FEC046BD4680BD00000020AD0000206D
:10298000D84400081801002002000020F04400088C
:10299000F0000020F8440008FC440008004500084E
:1029A000A80000200C000020B0B500AFFEF70CF826
:1029B0000200C94B1B68D31A632B00D888E1C74BB0
:1029C0001A78C74B1B789A4212D0C44B1A78C44B62
:1029D0001B789A4206D9C24B1B780133DAB2C04B3E
:1029E0001A7005E0BE4B1B78013BDAB2BC4B1A7083
:1029F000BB4B1B78002B00D147E1B94B1B78032B55
:102A00006ED8B84B01221A7011E0B64B1B781C002F
:102A1000002200210020FFF7C3FC0100B24BA200FE
:102A2000D150B04B1B780233DAB2AE4B1A70AD4BBB
:102A30001B780B2BE9D9AB4B02221A7011E0A94B82
:102A40001B781C00002200210020FFF7A9FC0100D8
:102A5000A54BA200D150A34B1B780433DAB2A14B93
:102A60001A70A04B1B780B2BE9D99D4B1B78012BBF
:102A700010D10D2200210020FFF792FC02009A4B9A
:102A80001A62994B1A6A984B1A61974B1A69964BBE
:102A90001A6035E0924B1B78022B10D14C2200219A
:102AA0000020FFF77DFC02008F4B1A628E4B1A6AE2
:102AB0008D4B1A618C4B1A698B4B1A6020E0FF22F8
:102AC00000210020FFF76CFC0200874B1A62864B46
:102AD0001A6A854B1A61844B1A69834B1A600FE09E
:102AE000FF2200210020FFF75BFC02007E4B1A62F0
:102AF0007D4B1A6A7C4B1A617B4B1A697A4B1A60C0
:102B0000774B1B78032B57D9754B1B78062B53D863
:102B1000744B01221A7011E0724B1B781C000022CA
:102B200000210020FFF73CFC01006F4BA200D150B8
:102B30006C4B1B780233DAB26A4B1A70694B1B7804
:102B40000B2BE9D9664B1B78042B10D10D220021E9
:102B50000020FFF725FC0200634B9A62624B9A6AE1
:102B6000614B9A61604B9A695F4B9A6024E05C4BC1
:102B70001B78052B10D14C2200210020FFF710FC00
:102B80000200594B9A62584B9A6A574B9A61564BBE
:102B90009A69554B9A600FE0FF2200210020FFF751
:102BA000FFFB0200504B9A624F4B9A6A4E4B9A6160
:102BB0004D4B9A694C4B9A60494B1B78062B00D8B9
:102BC0007DE0474B1B78092B00D978E0444B1B78FC
:102BD000072B1CD10D2200210020FFF7E1FB020092
:102BE000414BDA62404BDA6A3F4B5A623E4B5A6ABB
:102BF0003D4BDA613C4BDA693B4B5A613A4B5A69BF
:102C0000394BDA60384BDA68374B5A6057E0344B4F
:102C10001B78082B1CD14C2200210020FFF7C0FBA1
:102C20000200314BDA62304BDA6A2F4B5A622E4B7C
:102C30005A6A2D4BDA612C4BDA692B4B5A612A4BBD
:102C40005A69294BDA60284BDA68274B5A6036E01C
:102C5000FF2200210020FFF7A3FB0200224BDA62D3
:102C6000214BDA6A204B5A621F4B5A6A1E4BDA61BB
:102C70001D4BDA691C4B5A611B4B5A691A4BDA60BF
:102C8000194BDA68184B5A6019E0164B00221A707B
:102C900011E0144B1B781C00002200210020FFF7DC
:102CA0007FFB0100104BA200D1500E4B1B7801336B
:102CB000DAB20C4B1A700B4B1B780B2BE9D90A4B71
:102CC0001800FFF705FBFDF77FFE0200024B1A60BC
:102CD000C046BD46B0BDC04654010020AD00002036
:102CE000AE000020440100205801002080B500AF54
:102CF000524B1B881D2B03D8514B524A1A8041E07E
:102D00004E4B1A88A0235B009A4203D34C4B64229B
:102D10001A8037E0494B1B88DB2B03D9484BC8226C
:102D20001A802FE0454B1B88772B04D9444BC822CF
:102D300052001A8026E0414B1B883B2B04D9404BA4
:102D4000AF2292001A801DE03C4B1B88272B03D931
:102D50003B4B3D4A1A8015E0384B1B88222B04D987
:102D6000374BC822D2001A800CE0344B1B881D2B35
:102D700003D9334B354A1A8004E0FDF725FE0200E3
:102D8000334B1A60334B1B78002B05D1FDF71CFE2B
:102D90000200314B1A6012E02E4B1B789BB21A1CBA
:102DA0005202D21A9200D218D200D31A9B009BB2C0
:102DB000FA229200944663449AB2284B1A80FDF797
:102DC00003FE0200224B1B68D31A1D4A128893424D
:102DD0000AD31A4B1B88013B9AB2184B1A80FDF795
:102DE000F3FD02001A4B1A60FDF7EEFD02001A4BCC
:102DF0001B68D31A194A128893420AD30F4B1B88B7
:102E000001339AB20D4B1A80FDF7DEFD0200124B22
:102E10001A600A4B1A88FA239B009A4203D3074B85
:102E20000F4A1A8006E0054B1B88132B02D8034B70
:102E300014221A80C046BD4680BDC0460000002056
:102E400008000020540B00004C040000980800000B
:102E500040010020AD0000205001002006000020AD
:102E6000E703000080B582B000AF78607B681B7814
:102E7000002B00D186E0FDF7A7FD0200434B1B6845
:102E8000D31AC82B09D8A023DB059A69A023DB0538
:102E9000802109020A439A6174E0FDF795FD020062
:102EA0003A4B1B68D21AC8235B009A4209D8A02368
:102EB000DB059A6AA023DB05802109020A439A6296
:102EC00060E0FDF781FD0200304B1B68D21A9623AB
:102ED0009B009A4209D8A023DB059A69A023DB0551
:102EE000802109020A439A614CE0FDF76DFD020062
:102EF000264B1B68D21AC8239B009A4209D8A023EC
:102F0000DB059A6AA023DB05802109020A439A6245
:102F100038E0FDF759FD02001C4B1B68D21AFA235A
:102F20009B009A4209D8A023DB059A69A023DB0500
:102F3000802109020A439A6124E0FDF745FD020061
:102F4000124B1B68D21A9623DB009A4209D8A023A1
:102F5000DB059A6AA023DB05802109020A439A62F5
:102F600010E0A023DB059A6AA023DB05802109027B
:102F70000A439A62FDF728FD0200044B1A607B6841
:102F800000221A70C046BD4602B080BDEC00002091
:102F900080B582B000AF0200FB1D1A70FB1D1B78CC
:102FA000012B2BD1A023DB059A6AA023DB0540214E
:102FB0000A439A62A023DB059A69A023DB058021DE
:102FC0000A439A61A023DB059A69A023DB058021CF
:102FD00049000A439A61A023DB059A69A023DB0517
:102FE000802189000A439A61A023DB059A69A02306
:102FF000DB058021C9000A439A61EAE0FB1D1B78CA
:10300000022B2BD1A023DB059A69A023DB054021ED
:103010000A439A61A023DB059A6AA023DB0580217D
:103020000A439A62A023DB059A69A023DB0580216D
:1030300049000A439A61A023DB059A69A023DB05B6
:10304000802189000A439A61A023DB059A69A023A5
:10305000DB058021C9000A439A61BAE0FB1D1B7899
:10306000032B2BD1A023DB059A69A023DB0540218C
:103070000A439A61A023DB059A69A023DB0580211E
:103080000A439A61A023DB059A6AA023DB0580210D
:1030900049000A439A62A023DB059A69A023DB0555
:1030A000802189000A439A61A023DB059A69A02345
:1030B000DB058021C9000A439A618AE0FB1D1B7869
:1030C000042B2BD1A023DB059A69A023DB0540212B
:1030D0000A439A61A023DB059A69A023DB058021BE
:1030E0000A439A61A023DB059A69A023DB058021AE
:1030F00049000A439A61A023DB059A6AA023DB05F5
:10310000802189000A439A62A023DB059A69A023E3
:10311000DB058021C9000A439A615AE0FB1D1B7838
:10312000052B2BD1A023DB059A69A023DB054021C9
:103130000A439A61A023DB059A69A023DB0580215D
:103140000A439A61A023DB059A69A023DB0580214D
:1031500049000A439A61A023DB059A69A023DB0595
:10316000802189000A439A61A023DB059A6AA02383
:10317000DB058021C9000A439A622AE0A023DB050F
:103180009A69A023DB0540210A439A61A023DB054D
:103190009A69A023DB0580210A439A61A023DB05FD
:1031A0009A69A023DB05802149000A439A61A02384
:1031B000DB059A69A023DB05802189000A439A6117
:1031C000A023DB059A69A023DB058021C9000A43FF
:1031D0009A61C046BD4602B080BD000080B500AF18
:1031E0000120FFF7E7FA03001AB22C4B1A802B4B91
:1031F00000229A5E96239B009A4206DC284B5022BE
:103200001A800120FFF7C4FE2DE0244B00229A5EB5
:10321000C823DB009A4206DC214B64221A8002207C
:10322000FFF7B6FE1FE01D4B00229B5E1D4A934236
:1032300006DC1B4B8C221A800320FFF7A9FE12E04C
:10324000164B00229B5E184A934206DC144BB422B4
:103250001A800420FFF79CFE05E0114BDC221A8047
:103260000520FFF795FE0E4B1B881A000F4B1B889D
:10327000D31A012B03DD0E4B09221A700AE0084B0A
:103280001B881A00094B1B88D31A013302DA084B3A
:1032900001221A70C046BD4680BDC0464C010020C8
:1032A00004000020280A0000AC0D000000000020EF
:1032B000AD00002080B500AF1F4B1A698023DB01F1
:1032C000134005D01C4B1A6980231B0213402CD1DC
:1032D0001A4B1B78002B2CD1174B1A698023DB016A
:1032E000134006D1164B1B88143B9AB2144B1A801C
:1032F00005E0134B1B8814339AB2114B1A80104B04
:103300001A888C235B009A4204D90D4B8C22520000
:103310001A8006E00A4B1B88132B02D8084B142294
:103320001A80064B01221A7003E0044B00221A7027
:10333000C046C046BD4680BD00080050AF0000201A
:103340000200002080B500AF404B1B88142B6CD0CE
:103350003E4B1A883E4B1B889A4266D83D4B1B78E1
:10336000002B07D13B4B01221A70FDF72DFB020009
:10337000394B1A60FDF728FB0200374B1B68D31A44
:10338000642B09D8A023DB059A69A023DB058021E3
:1033900009020A439A6155E0FDF716FB02002E4B25
:1033A0001B68D31AC82B09D8A023DB059A6AA0236F
:1033B000DB05802109020A439A6243E0FDF704FB22
:1033C0000200254B1B68D21A96235B009A4209D84B
:1033D000A023DB059A69A023DB05802109020A43AB
:1033E0009A612FE0FDF7F0FA02001B4B1B68D21A1E
:1033F000FA239B009A4209D8A023DB059A6AA023EE
:10340000DB05802109020A439A621BE0A023DB0549
:103410009A6AA023DB05802109020A439A62FDF71C
:10342000D3FA02000C4B1A600CE0A023DB059A6A69
:10343000A023DB05802109020A439A62054B002282
:103440001A70C046C046BD4680BDC046020000207E
:1034500000000020B00000204801002080B582B0AC
:1034600000AFBB1D00221A70FB1D00221A70FDF771
:1034700055FA00F023F900F0EFF900F07BF9FFF7BF
:1034800089F800210120FFF753F97D4B1800FEF762
:103490001FFF7C4B1800FFF725F9FA23DB0018000B
:1034A000FDF79CFAFDF790FA0200774B1A60764B15
:1034B0001A68764B1A60754B1A68754B1A60A02310
:1034C000DB051B690422134003D1724B01221A70E1
:1034D00002E0704B00221A706F4B1A8896235B0033
:1034E0009A420AD96D4B01221A70BB1D01221A7033
:1034F000FDF76AFA02006A4B1A60A023DB051B691C
:103500001022134002D1674B01221A70A023DB0561
:103510001B690822134012D1FB1D1B78002B0AD116
:10352000614B1B78002B03D15F4B01221A7002E024
:103530005D4B00221A70FB1D01221A7002E0FB1D78
:1035400000221A70FFF76EF9FFF7B4FE514B1B789B
:10355000002B09D0554B1B78032B05D0534B1B7800
:10356000052B01D0FFF7EEFE504B1B78002B03D14B
:103570004F4B00221A7006E04C4B1B78022B02D1F5
:103580004B4B01221A70494B1B78032B12D1484B2D
:1035900000221A70BB1D1800FFF764FC3D4B1B781E
:1035A000002B1DD13C4B1B88952B19D83B4B00227F
:1035B0001A7015E03D4B1B78052B11D13C4B0022B6
:1035C0001A70A023DB051B691022134008D0A0232A
:1035D000DB051B690422134002D0324B00221A7013
:1035E000324B1B78012B3AD10120FFF7E3F803009F
:1035F0001AB2304B1A802F4B00229B5E9BB2413B8C
:103600009BB21AB22B4B1A802A4B00229B5E002BD6
:1036100002DA284B00221A80264B00229B5E1800FB
:10362000FDF72EF90022244BFCF70CFE02000B00E4
:1036300010001900FDF7EEF803001AB21D4B1A80B6
:103640001C4B00229B5E9BB201339BB21AB2194BFA
:103650001A80184B00229B5EDAB2154B1A70134B7E
:103660001B78042B02D1FFF7B9FD02E00020FFF721
:103670008FFCFFF799F9FFF739FBFFF72DF91EE7EC
:10368000580100200445000840010020500100209E
:1036900054010020A900002000000020AC00002000
:1036A000EC000020AB000020AA000020A8000020B1
:1036B000AD0000204C010020007C7F4090B595B00B
:1036C00000AF18243B19180038231A00002100F01D
:1036D0009DFA3B1D180014231A00002100F096FAF1
:1036E000224B1B68224A1A40204B802109010A43C1
:1036F0001A6021007B1802221A607B180122DA600E
:103700007B1810221A617B1802229A627B18002211
:10371000DA627B188022D2021A637B188022D203DD
:103720005A637B181800FEF731F8031E01D000F031
:103730003FF93B1D0F221A603B1D03225A603B1DBF
:1037400000229A603B1D0022DA603B1D00221A61B4
:103750003B1D01211800FEF7D9FB031E01D000F02C
:1037600027F9C046BD4615B090BDC0460070004068
:10377000FFE7FFFF80B582B000AF3B0018000823D1
:103780001A00002100F042FA304B314A1A602F4BE8
:103790000022DA632D4B8022D2055A602B4B002287
:1037A0009A602A4B07229A63284B01221A61274B01
:1037B0000022DA60254B202200219954234B21223C
:1037C00000219954214B00229A62204BC222FF32E1
:1037D0005A621E4B2C22002199541C4B04225A6120
:1037E0001A4B00221A63194B00229A61174B0022D0
:1037F0005A63164B0022DA61144B1800FDF70CF9DE
:10380000031E01D000F0D4F83B0001221A603B00F7
:10381000802252015A603A000C4B11001800FDF74B
:10382000A5FB031E01D000F0C3F83B00094A1A6053
:103830003A00064B11001800FDF798FB031E01D05B
:1038400000F0B6F8C046BD4602B080BDB001002011
:10385000002401400200000490B589B000AF0C24A0
:103860003B19180014231A00002100F0CFF94B4B2C
:10387000DA6A4A4B04210A43DA62484BDB6A0422C3
:103880001340BB60BB68454BDA6A444B01210A43D5
:10389000DA62424BDB6A012213407B607B683F4B5C
:1038A000DA6A3E4B02210A43DA623C4BDB6A0222AF
:1038B00013403B603B683A49A023DB050022180017
:1038C000FDF747FFF823D900A023DB0501221800EC
:1038D000FDF73FFF334B0022FB211800FDF739FFB6
:1038E0003B19C02212021A603B1900225A603B1990
:1038F00001229A603B192C4A19001000FDF796FD31
:103900003B191C221A603B1900225A603B19012204
:103910009A603A19A023DB0511001800FDF786FD17
:103920003B1920221A603B1911225A603B190022D0
:103930009A603B190322DA603A19A023DB051100D3
:103940001800FDF773FD3B19184A1A603B19012254
:103950005A603B1900229A603B190322DA603A1937
:10396000A023DB0511001800FDF760FD21007B1886
:10397000FB221A607B1801225A607B1800229A6091
:103980007B180322DA607B18064A19001000FDF745
:103990004DFDC046BD4609B090BDC0460010024076
:1039A000208000000004005000080050C087000084
:1039B00080B500AFC046BD4680BD000080B500AFF9
:1039C000074B5A6B064B01210A435A63044B9A6B0F
:1039D000034B802149050A439A63C046BD4680BD1A
:1039E0000010024090B589B000AF78600C243B19FC
:1039F000180014231A00002100F008F97B681B68E6
:103A0000144A934222D1144B5A6B134B80218900E4
:103A10000A435A63104BDA6A0F4B01210A43DA62F8
:103A20000D4BDB6A01221340BB60BB683B190322CC
:103A30001A603B1903225A603B1900229A603A1916
:103A4000A023DB0511001800FDF7F0FCC046BD46C1
:103A500009B090BD002401400010024080B500AFC5
:103A6000C046BD4680BD80B500AFFEE780B500AF63
:103A7000C046BD4680BD80B500AFC046BD4680BDD6
:103A800080B500AFFCF794FFC046BD4680BD000086
:103A900080B584B000AF7860114B1B68002B02D159
:103AA0000F4B104A1A600E4B1B68FB600C4B1A68D8
:103AB0007B68D2186B469A4207D900F07DF8030064
:103AC0000C221A6001235B4206E0054B1A687B68F2
:103AD000D218034B1A60FB681800BD4604B080BDC5
:103AE000B40000201C02002080B500AF174B1A68FC
:103AF000164B802149000A431A60144BDA68134BB5
:103B000013490A40DA60114B1A68104B11490A40F8
:103B10001A600E4B9A680D4B01218A439A600B4B39
:103B20001A680A4B0C490A401A60084BDA68074BBE
:103B30000A490A40DA60054B00221A61084B8022CC
:103B400012059A60C046BD4680BDC04600100240C6
:103B50000C40FF88F6FFF6FEFFFFFBFFFFFF02FFB2
:103B600000ED00E00D488546002103E00C4B5B585A
:103B7000435004310B480C4B42189A42F6D30B4A7F
:103B800002E0002313600432094B9A42F9D3FFF795
:103B9000ABFF00F017F8FFF761FCFEE70020002004
:103BA000C0450008000000208C0000208C00002090
:103BB0001C020020FEE70000014B18687047C04659
:103BC0002800002070B500260C4D0D4C641BA4107D
:103BD000A64209D1002600F047FC0A4D0A4C641B9E
:103BE000A410A64205D170BDB300EB58984701362A
:103BF000EEE7B300EB5898470136F2E7B845000806
:103C0000B8450008B8450008BC4500080300821804
:103C1000934200D1704719700133F9E70EB400B533
:103C20000B499CB01DAB0290069007910491094886
:103C3000094904CB0591006802A9019300F070F8CE
:103C40000023029A13701CB008BC03B01847C0468A
:103C5000FFFFFF7F280000200802FFFFF0B58E68FD
:103C600085B007000C00039201939E423CD890233C
:103C70008A89DB001A4234D00325096923685B1A5C
:103C80000293636902985D43EB0F5D19019B6D1010
:103C900001331B18AB4200D91D00530532D5290052
:103CA000380000F031FB061E09D10C233B60402395
:103CB0000120A28940421343A38105B0F0BD029ABE
:103CC000216900F0BAFAA389144A1A4080231343E9
:103CD000A381029B2661F61826606561019EED1A9C
:103CE000A560019B9E4200D9019E32000399206885
:103CF00000F0ACFAA36800209B1BA36023689E1908
:103D00002660DAE72A00380000F05CFB061EE0D1EE
:103D10003800216900F0AEFAC7E7C0467FFBFFFF1D
:103D2000F0B5A1B003901D008B890F0016001B0693
:103D300011D50B69002B0ED1402100F0E5FA386057
:103D40003861002805D10C23039A0138136021B093
:103D5000F0BD40237B61002308AC636120336376B0
:103D60001033A376079535002B78002B01D0252B37
:103D700047D1AB1B0593B5420CD0320039000398F4
:103D8000FFF76CFF431C00D1AEE06269059B9446CF
:103D9000634463612B78002B00D1A5E0012200234E
:103DA0005242626004A9543252186E1C2360E360D0
:103DB000A3601370A36505223178544800F032FAED
:103DC000751C00281FD12268D30604D5532304A9EB
:103DD0005B1820211970130704D5532304A95B181D
:103DE0002B21197033782A2B16D0350000210A2098
:103DF000E3682A786E1C303A092A4ED9002911D17D
:103E000017E00135B0E7414B2268C01A0123834017
:103E100013432E002360CEE7079B191D1B680791F3
:103E2000002B01DB0B9304E05B42E36002231343AE
:103E300023602B782E2B0AD16B782A2B35D1079B48
:103E400002351A1D1B680792002B2BDB0993304E9D
:103E500003223000297800F0E5F9002806D040233D
:103E6000801B834022680135134323602978062292
:103E700028486E1C217600F0D5F900283CD0264B4E
:103E8000002B25D10722079B073393430833079361
:103E90006369049A9B18636165E743433500012118
:103EA0009B18A6E701235B42D0E700230A201A00F3
:103EB0000135636029786E1C3039092903D9002B3C
:103EC000C5D00992C3E74243350001235218F1E7F8
:103ED00007AB00933A002100104B039800E000BFAD
:103EE0000490049B0133D3D1BB890D985B0600D4A9
:103EF0002DE7012040422AE707AB00933A0021005A
:103F0000064B039800F07CF8EAE7C04685450008B8
:103F10008B4500088F450008000000005D3C00084C
:103F2000F7B5150001938A680B690C000090934265
:103F300000DA130022002B6043321278002A01D0ED
:103F400001332B6023689B0602D52B6802332B605C
:103F50002268062317001F401A4227D0230043334C
:103F60001B785A1E93412268920630D42200019990
:103F70000098089E4332B047431C25D00623206892
:103F80002A68E16800250340042B03D18D1AEB4316
:103F9000DB171D40A3682269934201DD9B1AED18CF
:103FA0000027BD4220D1002010E00137E3682A68D5
:103FB0009B1ABB42D2DD2200012301990098089E82
:103FC0001932B047431CF0D101204042FEBD3020E1
:103FD000E1184331087021005A1C45310978A218B4
:103FE000433202331170C1E7220001230199009886
:103FF000089E1A32B047431CE6D00137D1E70000D3
:10400000F0B58BB006920A004332079305900492F4
:104010000A7E0C00109B782A06D8622A08D8002A4B
:1040200000D1C0E0582A52D026004236327022E039
:10403000100063381528F7D8FCF76EF816001F003B
:10404000F6FFF6FFF6FFF6FF1F00F6FFF6FFF6FF9E
:10405000F6FFA80036009A00F6FFF6FFB900F6FF5B
:104060003600F6FFF6FF9E0026001A684236111D44
:104070001960136833700123A7E0086819680A1DE6
:1040800005060BD50D681A60002D03DA2D23049A5E
:104090006D421370614B0A27039332E00D681A607A
:1040A0004106F1D52DB2EFE70D681968081D1860BB
:1040B0002E0601D50D6803E06D06FBD50D68ADB287
:1040C000564B0A2703936F2A17D1082715E045316D
:1040D0000A70524A03921A68216820CA1A600806B8
:1040E00050D5CB0702D52023194321601027002D7E
:1040F00003D1202322689A43226023000022433305
:104100001A706368A360002B03DB042221689143CB
:104110002160002D02D1049E002B0CD0049E2800AB
:104120003900FCF789F8039B013E5B5C33702B0080
:1041300005009F42F3D9082F09D12368DB0706D574
:1041400063682269934202DC3023013E3370049B92
:104150009B1B2361079B210000930598069B09AADE
:10416000FFF7DEFE431C35D1012040420BB0F0BD0D
:10417000202209680A43226022007821453211700A
:10418000274AA7E74806ACD5ADB2AAE71A680D687A
:10419000101D4969186013682E0601D5196002E0E8
:1041A0006D06FBD519800023049E2361D2E71A68AF
:1041B000111D1960166800213000626800F032F8A5
:1041C000002801D0801B6060636823610023049A8B
:1041D0001370BFE72369320006990598079DA84729
:1041E000431CC1D023689B0715D4099BE068984203
:1041F000BCDA1800BAE72200012306990598079E49
:104200001932B047431CAFD00135E368099A9B1AB5
:10421000AB42F0DCE9E70025F7E7C0469645000829
:10422000A7450008C9B28218904201D1002070470A
:1042300003788B42FBD00130F6E7002310B59A4299
:1042400000D110BDCC5CC4540133F8E710B58842EE
:1042500002D98B18984203D3002307E08B5C835468
:10426000013AFBD210BDCC5CC45401339A42FAD15E
:10427000F8E7000070B50500002910D00C1F236876
:10428000002B00DAE418280000F0D4F81D4A136867
:10429000002B05D163601460280000F0D3F870BDD6
:1042A000A34208D9216860188342F3D118685B687B
:1042B00041182160EEE71A005B68002B01D0A34291
:1042C000F9D911685018A0420BD12068091850186C
:1042D00011608342E0D118685B6841181160536037
:1042E000DAE7A04202D90C232B60D5E721686018D9
:1042F000834203D118685B68411821606360546091
:10430000CAE7C046B8000020F8B50323CD1C9D4382
:10431000083506000C2D1FD20C25A9421ED83000EE
:1043200000F088F825490A681400002C1AD1244F9F
:104330003B68002B04D12100300000F069F83860A0
:104340002900300000F064F8431C2BD10C2330000E
:10435000336000F077F803E0002DDEDA0C233360E1
:104360000020F8BD23685B1B19D40B2B03D92360F5
:10437000E418256003E06368A2420ED10B603000B0
:1043800000F060F8200007220B30231D9043C21A72
:104390009842E6D01B1AA350E3E75360EFE72200F0
:1043A0006468C2E70323C41C9C43A042E1D0211AE5
:1043B000300000F02DF8431CDBD1C7E7B800002027
:1043C000BC000020F8B507000D001600002905D13B
:1043D0001100FFF799FF04002000F8BD002A03D167
:1043E000FFF748FF3400F7E700F034F82C00B04244
:1043F000F2D231003800FFF787FF041EECD029000D
:104400003200FFF71AFF29003800FFF733FFE3E718
:10441000002370B5064D040008002B60FFF738FB41
:10442000431C03D12B68002B00D0236070BDC04615
:104430000C02002010B5024800F014F810BDC04670
:104440001402002010B5024800F00DF810BDC0465F
:10445000140200200B1F1B68181F002B01DA0B58D9
:10446000C018704770477047F8B5C046F8BC08BC24
:104470009E467047F8B5C046F8BC08BC9E467047DB
:1044800004040E0F1B19110A0000000000000000B8
:104490004F46462020202020200000004F4E2020A4
:1044A00020202020200000004F4E284E4F4E45294E
:1044B000200000004F56455220484541540000005E
:1044C0004155544F2041444A200000005341464585
:1044D000204C4F434B00000054454D503A2530339B
:1044E00064256343202025633A25642000000000F2
:1044F00025303364000000005B0000005D5B0000BD
:104500005D0000000C536D6172742047617320528E
:10451000616E67650A202020202020202020202096
:104520002020203031000000AC04000814030008F3
:10453000F202000806040008F20200084A0400081B
:10454000F20200080604000814030008140300081F
:104550004A04000806040008B8030008B80300086D
:10456000B803000858040008280C010600000000E9
:1045700000000000010203040607080903040608FE
:104580000C10182030232D302B2000686C4C006557
:10459000666745464700303132333435363738396F
:1045A00041424344454600303132333435363738A2
:0845B000396162636465660075
:0445B800E90000080E
:0445BC00C100000832
:1045C00014001400DC008403540B00009044000825
:1045D0009C440008A8440008B4440008C0440008F3
:1045E000CC440008000020002C0000200000000047
:1045F00000000000000000000000000000000000BB
:1046000000000000000000000000000000000000AA
:10461000000000000000000000000000000000009A
:10462000000000000000000000000000000000008A
:10463000000000000000000000000000000000007A
:0C4640000000000000000000000000006E
:0400000508003B654F
:00000001FF
