:020000040800F2
:100000000020002039300008312F00083B2F000865
:1000100000000000000000000000000000000000E0
:10002000000000000000000000000000412F000858
:1000300000000000000000004B2F0008552F0008B2
:1000400089300008893000088930000889300008AC
:10005000893000088930000889300008893000089C
:10006000893000088930000889300008893000088C
:10007000893000088930000800000000893000083D
:1000800000000000893000080000000000000000AF
:10009000893000080000000089300008893000081D
:1000A000893000088930000889300008893000084C
:1000B00089300008893000080000000089300008FD
:1000C00010B5064C2378002B07D1054B002B02D02E
:1000D000044800E000BF0123237010BD6800002029
:1000E0000000000034390008044B10B5002B03D089
:1000F0000349044800E000BF10BDC04600000000F6
:100100006C000020343900080023C25C0133002A4F
:10011000FBD1581E70470000002243088B4274D365
:1001200003098B425FD3030A8B4244D3030B8B42F8
:1001300028D3030C8B420DD3FF22090212BA030C01
:100140008B4202D31212090265D0030B8B4219D3E2
:1001500000E0090AC30B8B4201D3CB03C01A524102
:10016000830B8B4201D38B03C01A5241430B8B424A
:1001700001D34B03C01A5241030B8B4201D30B0333
:10018000C01A5241C30A8B4201D3CB02C01A52415A
:10019000830A8B4201D38B02C01A5241430A8B421D
:1001A00001D34B02C01A5241030A8B4201D30B0206
:1001B000C01A5241CDD2C3098B4201D3CB01C01A20
:1001C000524183098B4201D38B01C01A524143092A
:1001D0008B4201D34B01C01A524103098B4201D318
:1001E0000B01C01A5241C3088B4201D3CB00C01A85
:1001F000524183088B4201D38B00C01A52414308FD
:100200008B4201D34B00C01A5241411A00D2014621
:10021000524110467047FFE701B5002000F006F894
:1002200002BDC0460029F7D076E770477047C04648
:1002300080B582B000AFFB1D00221A700B4B0B4A39
:10024000126840210A431A60002000F011F8031ED2
:1002500003D0FB1D01221A7001E002F015FEFB1D08
:100260001B781800BD4602B080BDC0460020024089
:1002700080B584B000AF78600F23FB1800221A709D
:100280000F4B1A68FA2399001000FFF745FF03008F
:10029000180000F049FD031E04D00F23FB180122B3
:1002A0001A7006E0796801235B420022180000F012
:1002B00025FD0F23FB181B781800BD4604B080BD38
:1002C0000000002080B500AF034B1B685A1C024B96
:1002D0001A60C046BD4680BD9C00002080B500AFBE
:1002E000024B1B681800BD4680BDC0469C00002024
:1002F00080B584B000AF7860FFF7F0FF0300BB600B
:100300007B68FB60FB68013302D0FB680133FB6054
:10031000C046FFF7E3FF0200BB68D21AFB689A42AF
:10032000F7D3C046BD4604B080BD000090B583B091
:1003300000AF78607B68002B01D1012359E17B6815
:100340005B6D002B0AD17B6800229A657B68502286
:10035000002199547B68180002F0AAFD7B685B6D50
:1003600010221340102B05D07B681B689B68042269
:1003700013400BD07B685B6D10221A437B685A6573
:100380007B68502200219954012332E17B685B6D28
:100390009A4A134002221A437B685A657B681B689D
:1003A0009B6803221340012B08D17B681B681B68E4
:1003B00001221340012B01D1012300E00023002B77
:1003C00049D17B685A68C0231B069A420BD07B68D0
:1003D0005A688023DB059A4205D07B685A688023DF
:1003E0001B069A4211D17B681B687A6812681269F1
:1003F000920092081A617B681B687A68126811691A
:100400007A6852680A431A6114E07B681B687A684C
:1004100012681269920092081A61794B784A126840
:1004200078490A401A60764A754B19687B685B68A0
:100430000B4313607B681B687A681268D2681821C6
:100440008A43DA607B681B687A681268D1687A68C8
:1004500092680A43DA606A4B694A12686A490A403C
:100460001A60674A664B19687B685B6B5B060B43D7
:1004700013607B681B689A6880235B05134008D172
:100480007B681B687A6812689268802149050A4374
:100490009A607B681B687A681268D2685B490A4078
:1004A000DA607B681B687A681268D1687A68D068FD
:1004B0007A681269022A01D1042200E00022104366
:1004C0007A682024125D520310437A682C24125D4E
:1004D000520010437A68126B10437A689269920353
:1004E00010437A68D269D20302430A43DA607B6818
:1004F0005A6AC223FF339A420BD07B681B687A6822
:100500001268D1687A68506A7A68926A02430A432C
:10051000DA607B6821229B5C012B1AD17B68202248
:100520009B5C002B09D17B681B687A681268D268D3
:10053000802149020A43DA600BE07B685B6D202270
:100540001A437B685A657B689B6D01221A437B685E
:100550009A657B68DB6B012B1FD17B681B687A680F
:10056000126812692A490A401A617B681B687A6816
:10057000126811697A68106C7A68526C10437A6854
:10058000926C02430A431A617B681B687A6812689E
:10059000126901210A431A610EE07B681B681B691E
:1005A00001221340012B07D17B681B687A6812680F
:1005B000126901218A431A617B681B687A68126894
:1005C000526907218A435A617B681B687A681268FE
:1005D00051697A68926B0A435A617B6800229A6576
:1005E0007B685B6D0322934301221A437B685A6543
:1005F00000231800BD4603B090BDC046FDFEFFFFBE
:1006000008270140FFFFC3FFFFFFFFFD1902FEFFA8
:1006100003FCFFFF90B585B000AF78600F23FB1897
:1006200000221A707B681B689B680422134038D133
:100630007B6850229B5C012B01D1022338E07B6850
:100640005022012199547B68DB69012B07D00F23CD
:10065000FC187B68180000F09BF9030023700F233F
:10066000FB181B78002B20D17B685B6D124A13406E
:10067000802252001A437B685A657B6800229A6583
:100680007B685022002199547B681B681C221A60E9
:100690007B681B687A681268926804210A439A6032
:1006A00003E00F23FB1802221A700F23FB181B789C
:1006B0001800BD4605B090BDFEF0FFFF90B585B0B7
:1006C00000AF78600F23FB1800221A707B6850225D
:1006D0009B5C012B01D102232CE07B68502201217D
:1006E00099540F23FC187B68180000F011FA0300DE
:1006F00023700F23FB181B78002B14D10F23FC1839
:100700007B68180000F0A4F9030023700F23FB1886
:100710001B78002B07D17B685B6D084A13400122D0
:100720001A437B685A657B685022002199540F2335
:10073000FB181B781800BD4605B090BDFEFEFFFFFC
:1007400080B584B000AF786039600023BB600023BF
:10075000FB607B685B69082B02D10823FB6014E017
:100760007B681B68DB6801221340012B0BD17B687F
:100770005B6D20221A437B685A657B6850220021FA
:10078000995401236CE00C23FB60FFF7A7FD0300E5
:10079000BB6019E03B68013316D03B68002B07D0E3
:1007A000FFF79CFD0200BB68D21A3B689A420BD946
:1007B0007B685B6D04221A437B685A657B68502214
:1007C0000021995403234BE07B681B681B68FA687F
:1007D0001340DFD07B685B6D802292001A437B68F8
:1007E0005A657B681B68DA68C0231B0113402ED151
:1007F0007B6820229B5C002B29D17B681B681B68CF
:1008000008221340082B22D17B681B689B680422B6
:10081000134010D17B681B687A68126852680C21FB
:100820008A435A607B685B6D0F4A134001221A436A
:100830007B685A650BE07B685B6D20221A437B68FE
:100840005A657B689B6D01221A437B689A657B68B9
:100850009B69002B03D17B681B680C221A60002364
:100860001800BD4604B080BDFEFEFFFF80B582B01B
:1008700000AF78607B681B681B6C1800BD4602B037
:1008800080BD000080B582B000AF786039607B68C1
:1008900050229B5C012B01D102236CE07B6850222B
:1008A000012199547B681B689B68042213400BD07C
:1008B0007B685B6D20221A437B685A657B685022F7
:1008C00000219954012356E03B685B682C4A93420F
:1008D00028D07B681B687A681268916A3A68126847
:1008E0005203520B0A439A623B681A688023DB0268
:1008F000134009D0234B234A1268802109040A437C
:100900001A600A2000F04AF93B681A6880239B02AB
:1009100013402BD01B4B1B4A12688021C9030A438A
:100920001A6023E07B681B687A681268916A3A68EB
:1009300012685203520BD2430A409A623B681A680B
:100940008023DB02134005D00E4B0E4A12680E497D
:100950000A401A603B681A6880239B02134005D046
:10096000084B084A126809490A401A607B685022FD
:100970000021995400231800BD4602B080BDC04636
:100980000110000008270140FFFF7FFFFFFFBFFFAE
:1009900080B584B000AF78600023FB607B681B6883
:1009A0009B6803221340012B08D17B681B681B68DE
:1009B00001221340012B01D1012300E00023002B71
:1009C0003FD17B681B689B68204A13400DD07B6831
:1009D0005B6D10221A437B685A657B689B6D012210
:1009E0001A437B689A6501232CE07B681B687A6850
:1009F0001268926801210A439A60012000F0CEF843
:100A0000FFF76CFC0300FB6014E0FFF767FC0200DB
:100A1000FB68D31A0A2B0DD97B685B6D10221A4331
:100A20007B685A657B689B6D01221A437B689A65D7
:100A3000012307E07B681B681B6801221340012B20
:100A4000E3D100231800BD4604B080BD170000802C
:100A500080B584B000AF78600023FB607B681B68C2
:100A60009B6803221340012B08D17B681B681B681D
:100A700001221340012B01D1012300E00023002BB0
:100A800041D07B681B689B6805221340012B10D165
:100A90007B681B687A681268926802210A439A6030
:100AA0007B681B6803221A60FFF718FC0300FB60D9
:100AB00022E07B685B6D10221A437B685A657B6875
:100AC0009B6D01221A437B689A6501231CE0FFF7A6
:100AD00005FC0200FB68D31A0A2B0DD97B685B6DFD
:100AE00010221A437B685A657B689B6D01221A436A
:100AF0007B689A65012307E07B681B689B6801227D
:100B00001340012BE3D000231800BD4604B080BD84
:100B100080B584B000AF78600023FB607B681B6801
:100B20009B680422134034D07B681B689B680422B6
:100B30001340042B0DD17B681B689B680222134075
:100B400007D17B681B687A681268926810210A4393
:100B50009A60FFF7C3FB0300FB6014E0FFF7BEFBE6
:100B60000200FB68D31A0A2B0DD97B685B6D10223B
:100B70001A437B685A657B689B6D01221A437B6828
:100B80009A65012306E07B681B689B68042213407A
:100B9000E4D100231800BD4604B080BD80B584B008
:100BA00000AF78600A4B1B680A491800FFF7B4FAD7
:100BB00003001A007B685343FB6002E0FB68013BC3
:100BC000FB60FB68002BF9D1C046BD4604B080BD78
:100BD0000000002040420F00B0B582B000AF02001C
:100BE0003960FB1D1A70FB1D1B787F2B32D92F4CEF
:100BF000FB1D1B781A000F231340083B99082B4A52
:100C0000FB1D1B7818000F230340083B9B0806338D
:100C10009B00D31804331B68FA1D127810000322BE
:100C20000240D200FF2090400200D2431A403B68AD
:100C30009B01FF201840FB1D1B781D0003232B4048
:100C4000DB00984003001A438B1D9B00E31804331C
:100C50001A6027E0164CFB1D1B785BB29B081449F9
:100C6000FA1D127852B29208C03292005258F91D01
:100C70000978080003210140C900FF2088400100D5
:100C8000C94311403A689201FF201040FA1D1278C2
:100C9000150003222A40D200904002000A43C033CC
:100CA0009B001A51C046BD4602B0B0BD00ED00E049
:100CB00000E100E080B582B000AF78607B68013B66
:100CC0000C4A934201D9012310E00B4B7A68013A98
:100CD0005A6001235B4203211800FFF77DFF064B9A
:100CE00000229A60044B07221A6000231800BD46B8
:100CF00002B080BDFFFFFF0010E000E080B584B0CF
:100D000000AFB9607A600F23FB18021C1A70BA6832
:100D10000F23FB181B785BB211001800FFF75CFF74
:100D2000C046BD4604B080BD80B582B000AF7860DB
:100D30007B681800FFF7BEFF03001800BD4602B035
:100D400080BD000080B586B000AF786039600023B8
:100D50007B610023FB6000233B614FE13B681B6824
:100D600001217A6991400A001340FB60FB68002B67
:100D700000D140E13B685B68022B03D03B685B68B5
:100D8000122B23D17B69DA087B6808329200D35892
:100D90003B617B69072213409B000F229A4013009E
:100DA000DA433B6913403B613B681A697B69072161
:100DB0000B409B009A4013003A6913433B617B69E7
:100DC000DA087B68083292003969D1503B685B6869
:100DD000012B0BD03B685B68022B07D03B685B683C
:100DE000112B03D03B685B68122B30D17B689B686A
:100DF0003B617B695B0003229A401300DA433B6945
:100E000013403B613B68DA687B695B009A401300E2
:100E10003A6913433B617B683A699A607B685B6817
:100E20003B6101227B699A401300DA433B6913401E
:100E30003B613B685B681B0901221A407B699A4051
:100E400013003A6913433B617B683A695A607B68D7
:100E50001B683B617B695B0003229A401300DA4305
:100E60003B6913403B613B685B6803221A407B6926
:100E70005B009A4013003A6913433B617B683A690F
:100E80001A607B68DB683B617B695B0003229A40E8
:100E90001300DA433B6913403B613B689A687B6906
:100EA0005B009A4013003A6913433B617B683A69DF
:100EB000DA603B685A6880235B05134000D19AE0F2
:100EC000544B544A526B01210A435A63524A7B697C
:100ED0009B0802339B009B583B617B6903221340B4
:100EE0009B000F229A401300DA433B6913403B6199
:100EF0007A68A023DB059A4219D07B68474A93425F
:100F000013D07B68464A93420DD07B68454A934292
:100F100007D07B68444A934201D1052308E00623A9
:100F200006E0032304E0022302E0012300E00023A3
:100F30007A6903210A40920093403A6913433B6166
:100F400035497B699B0802339B003A695A50374BFD
:100F50001B683B61FB68DA433B6913403B613B68BC
:100F60005A6880235B02134003D03A69FB6813433D
:100F70003B612E4B3A691A602C4B5B683B61FB6806
:100F8000DA433B6913403B613B685A6880239B020C
:100F9000134003D03A69FB6813433B61234B3A6922
:100FA0005A60224B9B683B61FB68DA433B69134004
:100FB0003B613B685A6880235B03134003D03A6966
:100FC000FB6813433B61194B3A699A60174BDB6826
:100FD0003B61FB68DA433B6913403B613B685A68FD
:100FE00080239B03134003D03A69FB6813433B61A2
:100FF0000E4B3A69DA607B6901337B613B681A68A2
:101000007B69DA40131E00D0A8E6C046BD4606B094
:1010100080BDC046001002400000014000040050A6
:1010200000080050000C0050001C0050000401405B
:1010300080B584B000AF78600A00BB1C1A807B6862
:101040001B69BA1C1288134004D00F23FB1801221D
:101050001A7003E00F23FB1800221A700F23FB18ED
:101060001B781800BD4604B080BD80B582B000AFCB
:10107000786008001100BB1C021C1A807B1C0A1C33
:101080001A707B1C1B78002B04D0BB1C1A887B6851
:101090009A6103E0BB1C1A887B689A62C046BD4611
:1010A00002B080BD90B58BB000AF78607B68002B3C
:1010B00002D1012300F0A8FBCD4BDB680C221340CA
:1010C0003B62CB4BDA6880235B021340FB617B6899
:1010D0001B680122134000D17EE03B6A082B07D039
:1010E0003B6A0C2B12D1FA6980235B029A420DD124
:1010F000BF4B1A6880239B02134000D16BE07B68D2
:101100005B68002B67D1012300F07EFB7B685A6887
:1011100080235B029A4207D1B54BB54A1268802101
:1011200049020A431A6027E07B685A68A023DB0261
:101130009A420ED1AE4BAE4A12688021C9020A43D0
:101140001A60AB4BAA4A1268802149020A431A600E
:1011500012E0A74BA64A1268A6490A401A60A44B9F
:101160001A6880235B021340FB60FB68A04BA04A17
:101170001268A1490A401A607B685B68002B15D091
:10118000FFF7ACF80300BB6109E0FFF7A7F8020026
:10119000BB69D31A642B02D9032300F035FB944BAF
:1011A0001A6880239B021340EFD015E0FFF796F8F2
:1011B0000300BB6108E0FFF791F80200BB69D31A96
:1011C000642B01D903231FE3894B1A6880239B02F8
:1011D0001340F0D100E0C0467B681B680222134038
:1011E00000D189E07B68DB687B613B6A042B05D01A
:1011F0003B6A0C2B3DD1FB69002B3AD17C4B1B6821
:101200000422134004D07B69002B01D10123FBE2AF
:10121000774A774B5B68794919407B681B691B02E9
:101220000B435360724B724A126809218A431100C2
:101230007A690A431A6000F01BFC01006C4BDB6802
:101240001B090F2213406E4AD35C0A00DA406D4B33
:101250001A601323FC180020FFF70AF8030023701C
:101260001323FB181B78002B46D01323FB181B7885
:10127000CAE27B69002B26D05D4B5D4A12680921CA
:101280008A4311007A690A431A60FFF727F80300BE
:10129000BB6108E0FFF722F80200BB69D31A022BFA
:1012A00001D90323B0E2524B1B6804221340F1D052
:1012B0004F4A4F4B5B68514919407B681B691B02C1
:1012C0000B43536018E04A4B494A126801218A4394
:1012D0001A60FFF703F80300BB6108E0FEF7FEFFAA
:1012E0000200BB69D31A022B01D903238CE2404BC5
:1012F0001B6804221340F1D17B681B681022134045
:1013000000D19DE03B6A002B3FD1394B1A68802306
:101310009B00134005D07B68DB69002B01D10123C2
:1013200072E2334A324B5B68374919407B685B6A2B
:101330000B4353602E4A2E4B5B681B02190A7B68D5
:101340001B6A1B060B4353607B685B6A5B0B0133B4
:10135000802212029A40264BDB681B090F210B40AA
:101360002749CB5CDA40274B1A601323FC18002076
:10137000FEF77EFF030023701323FB181B78002B5E
:101380005ED01323FB181B783EE27B68DB69002BE1
:101390003CD0174B164A1268802149000A431A6054
:1013A000FEF79CFF0300BB6108E0FEF797FF020019
:1013B000BB69D31A022B01D9032325E20C4B1A680F
:1013C00080239B001340F0D0094A094B5B680E490B
:1013D00019407B685B6A0B435360054A044B5B68AA
:1013E0001B02190A7B681B6A1B060B43536027E02C
:1013F00000100240FFFFFEFFFFFFFBFFFFE0FFFFCB
:101400006C3A000800000020FF1FFFFFBD4BBD4AE3
:101410001268BD490A401A60FEF760FF0300BB6115
:1014200008E0FEF75BFF0200BB69D31A022B01D96B
:101430000323E9E1B34B1A6880239B001340F0D1EA
:101440007B681B680822134036D07B685B69002BE1
:1014500019D0AC4BAB4A126D01210A431A65FEF755
:101460003DFF0300BB6108E0FEF738FF0200BB69E7
:10147000D31A022B01D90323C6E1A24B1B6D022212
:101480001340F1D018E09F4B9E4A126D01218A4310
:101490001A65FEF723FF0300BB6108E0FEF71EFF9D
:1014A0000200BB69D31A022B01D90323ACE1954B8F
:1014B0001B6D02221340F1D17B681B68042213408C
:1014C00000D1AFE02723FB1800221A708D4B9A6BD6
:1014D00080235B0513400AD18A4B8A4A926B802194
:1014E00049050A439A632723FB1801221A70874B88
:1014F0001A6880235B0013401AD1844B834A126818
:10150000802149000A431A60FEF7E8FE0300BB6130
:1015100008E0FEF7E3FE0200BB69D31A642B01D991
:10152000032371E1794B1A6880235B001340F0D0EC
:101530007B689A6880235B009A4207D1714B714A9D
:10154000126D802149000A431A6531E07B689B686F
:10155000002B0CD16B4B6B4A126D6B490A401A651C
:10156000684B684A126D6A490A401A6520E07B6838
:101570009A68A023DB009A420ED1624B614A126D39
:101580008021C9000A431A655E4B5E4A126D8021B4
:1015900049000A431A650BE05A4B5A4A126D5A49E0
:1015A0000A401A65574B574A126D59490A401A6545
:1015B0007B689B68002B15D0FEF790FE0300BB6193
:1015C00009E0FEF78BFE0200BB69D31A514A934231
:1015D00001D9032318E14B4B1A6D80239B00134064
:1015E000EFD014E0FEF77AFE0300BB6109E0FEF7DE
:1015F00075FE0200BB69D31A464A934201D9032300
:1016000002E1404B1A6D80239B001340EFD127234A
:10161000FB181B78012B05D13A4B3A4A926B3E4995
:101620000A409A637B681B682022134049D07B687C
:101630009B69002B26D0334B324A926801210A4322
:101640009A60304B2F4A526B01210A435A63334B45
:10165000324A126A802189010A431A62FEF73EFE6D
:101660000300BB6108E0FEF739FE0200BB69D31A34
:10167000022B01D90323C7E0224B9B6802221340AF
:10168000F1D01EE01F4B1F4A926801218A439A60E5
:10169000224B224A126A22490A401A62FEF71EFEB3
:1016A0000300BB6108E0FEF719FE0200BB69D31A14
:1016B000022B01D90323A7E0124B9B68022213409F
:1016C000F1D17B689B6A002B00D19CE03B6A0C2B1C
:1016D00000D175E07B689B6A022B56D1094B094A01
:1016E000126810490A401A60FEF7F8FD0300BB615A
:1016F0001AE0FEF7F3FD0200BB69D31A022B13D9DF
:10170000032381E000100240FFFEFFFF0070004055
:10171000FFFBFFFF88130000FFFFFFEF0000014009
:10172000FFDFFFFFFFFFFFFE394B1A6880239B049A
:101730001340DED1364A364BDB68364919407B68A8
:10174000D86A7B681B6B18437B685B6B03430B4356
:10175000D3602F4B2E4A1268802149040A431A6035
:10176000FEF7BCFD0300BB6108E0FEF7B7FD020019
:10177000BB69D31A022B01D9032345E0244B1A6815
:1017800080239B041340F0D03DE0214B204A126897
:1017900021490A401A60FEF7A1FD0300BB6108E081
:1017A000FEF79CFD0200BB69D31A022B01D903236B
:1017B0002AE0174B1A6880239B041340F0D122E0E3
:1017C0007B689B6A012B01D101231DE0104BDB6874
:1017D000FB61FA6980235B021A407B68DB6A9A42EC
:1017E0000FD1FA69F0239B031A407B681B6B9A4266
:1017F00007D1FA69C0231B041A407B685B6B9A42CD
:1018000001D0012300E000231800BD460BB090BDBD
:1018100000100240FFFF02FFFFFFFFFE90B585B002
:1018200000AF786039607B68002B01D101230CE1A7
:10183000884B1B6801221A403B689A4211D2854BA3
:10184000844A126801218A4311003A680A431A60E7
:10185000804B1B6801221A403B689A4201D0012349
:10186000F3E07B681B680222134009D07A4A7A4B66
:10187000DB68F0218B4319007B689B680B43D360C6
:101880007B681B680122134000D189E07B685B689C
:10189000022B07D1704B1A6880239B02134020D182
:1018A0000123D2E07B685B68032B07D16A4B1A687F
:1018B00080239B04134014D10123C6E07B685B683E
:1018C000012B06D1644B1B680422134009D101236C
:1018D000BBE0614B1A6880239B00134001D10123B8
:1018E000B3E05D4A5C4BDB6803218B4319007B68E6
:1018F0005B680B43D360FEF7F1FC0300FB607B6881
:101900005B68022B11D109E0FEF7E8FC0200FB68DE
:10191000D31A524A934201D9032396E04E4BDB6817
:101920000C221340082BEFD13AE07B685B68032B55
:1019300011D109E0FEF7D2FC0200FB68D31A474A36
:10194000934201D9032380E0434BDB680C22134010
:101950000C2BEFD124E07B685B68012B1BD109E0E5
:10196000FEF7BCFC0200FB68D31A3C4A934201D943
:1019700003236AE0384BDB680C221340042BEFD1C1
:101980000EE0FEF7ABFC0200FB68D31A334A934229
:1019900001D9032359E0304BDB680C221340F0D10E
:1019A0002C4B1B6801221A403B689A4211D9294BE3
:1019B000284A126801218A4311003A680A431A60D2
:1019C000244B1B6801221A403B689A4201D0012334
:1019D0003BE07B681B680422134008D01E4A1E4B64
:1019E000DB681F4919407B68DB680B43D3607B6869
:1019F0001B680822134009D0174A174BDB681949A6
:101A000019407B681B69DB000B43D36000F030F8A2
:101A10000100114BDB681B090F221340124AD35CF3
:101A20000A00DA40114B1A600B23FC180020FEF765
:101A30001FFC030023700B23FB181B78002B03D023
:101A40000B23FB181B7800E000231800BD4605B0EF
:101A500090BDC046002002400010024088130000E4
:101A6000FFF8FFFFFFC7FFFF6C3A000800000020EF
:101A700080B586B000AF324BDB68FB60FB680C22A0
:101A80001340082B0ED00C2B0FD0042B45D12C4B20
:101A90001B681022134002D02A4B3B614BE02A4BBB
:101AA0003B6148E0294B3B6145E0FB689B0C0F2202
:101AB0001340274AD35CBB60FB689B0D0322134095
:101AC00001337B601E4BDA6880235B02134009D030
:101AD000BB681E4A534379681800FEF71DFB0300DC
:101AE0007B6117E0164B1B681022134009D0BB68BE
:101AF000144A534379681800FEF70EFB03007B611C
:101B000008E0BB68104A534379681800FEF704FBED
:101B100003007B617B693B610DE0094B5B685B0BFC
:101B2000072213403B603B680133802212029A4037
:101B300013003B61C0463B691800BD4606B080BD3E
:101B40000010024000093D000024F40000127A0059
:101B50007C3A000880B582B000AF0200FB1D1A700D
:101B6000FB1D1B78002B15D0A023DB0520229A61DA
:101B7000C046C046C046C046C046C046C046C04635
:101B8000C046C046C046C046C046A023DB05202252
:101B90009A620CE0A023DB0520229A61C046C04671
:101BA000C046C046C046A023DB0520229A62C0463C
:101BB000BD4602B080BD0000B0B5CCB000AF7860CB
:101BC00097235B00FB1800221A8034E097235B0008
:101BD000FB181C8897235B00FB181B881821180032
:101BE000FEF79AFA03009BB29B007A68D3181D682F
:101BF00097235B00FB181B8818211800FEF712FBC7
:101C00000B009BB21A0017239B1ADD402B00DBB29E
:101C100001221340DAB2224B982149008C46BC4481
:101C200063441A5597235B00FB181A8897235B00BF
:101C3000FB1801321A8097235B00FB181A882023B7
:101C4000FF339A42C2D997235B00FB1800221A8007
:101C500016E097235B00FB181B88114A9821490066
:101C60008C46BC446244D35C1800FFF773FF972393
:101C70005B00FB181A8897235B00FB1801321A805F
:101C800097235B00FB181A882023FF339A42E0D980
:101C90000120FEF72DFBC046BD464CB0B0BDC0468E
:101CA000DCFEFFFF90B587B000AF3B0080221A60DA
:101CB0003B0000225A603B0000229A603B00224A0F
:101CC00019001000FFF73EF81F4B012202211800F7
:101CD000FFF7CBF91C4B012208211800FFF7C5F9CB
:101CE0001723FC18184B80211800FFF7A1F90300F7
:101CF0002370154B002208211800FFF7B6F9124B8C
:101D0000012208211800FFF7B0F90F4B002208212B
:101D10001800FFF7AAF93B0080221A603B0001225D
:101D20005A603B0000229A603B000322DA603B00CD
:101D3000054A19001000FFF705F81723FB181B7858
:101D40001800BD4607B090BD0004005080B582B0B9
:101D500000AF0200FB1D1A70FB1D1B78012213400F
:101D6000DBB21C481A001021FFF77FF9FB1D1B781E
:101D70005B08DBB201221340DBB216481A002021B7
:101D8000FFF773F9FB1D1B789B08DBB201221340A0
:101D9000DBB210481A004021FFF767F9FB1D1B78E2
:101DA000DB08DBB201221340DBB20A481A008021B3
:101DB000FFF75BF9074B012208211800FFF755F9DF
:101DC000044B002208211800FFF74FF9C046BD461A
:101DD00002B080BD0004005080B582B000AF0200A8
:101DE000FB1D1A70BB1D0A1C1A70184B0022012122
:101DF0001800FFF73AF9C046FFF754FF031EFBD166
:101E0000FB1D1B7811481A000121FFF72EF90F4B1B
:101E1000002202211800FFF728F90C4B00220821AC
:101E20001800FFF722F9BB1D1B781B09DBB2180055
:101E3000FFF78CFFBB1D1B780F221340DBB218008D
:101E4000FFF784FFC046BD4602B080BD00040050CD
:101E500080B582B000AF224B002201211800FFF7AD
:101E600004F91F4B002202211800FFF7FEF81C4B5B
:101E7000002208211800FFF7F8F80F20FEF738FAC3
:101E8000FB1D00221A700AE00320FFF75FFF052008
:101E9000FEF72EFAFB1D1A78FB1D01321A70FB1D8E
:101EA0001B78022BF0D90220FFF750FFFB1D002208
:101EB0001A700CE0FB1D1B780A4AD35C1900002045
:101EC000FFF78AFFFB1D1A78FB1D01321A70FB1DFC
:101ED0001B78032BEED9C046BD4602B080BDC0467C
:101EE00000040050683A000880B584B000AF0200DA
:101EF000FB1D1A70BB1D0A1C1A70BB1D1B78012B21
:101F000004D00F23FB1840221A7003E00F23FB18A4
:101F100000221A70FA1D0F23FB1812781B78D318B1
:101F2000DAB20F23FB18013A1A700F23FB181B7843
:101F3000802252421343DBB219000020FFF74CFF0E
:101F4000C046BD4604B080BD80B582B000AF02007F
:101F5000FB1D1A70FB1D1B780C2B07D101210020E3
:101F6000FFF73AFF0220FEF7C3F917E0FB1D1B78CD
:101F70000A2B04D102210120FFF7B6FF0EE0FB1D62
:101F80001B78082B04D110210020FFF725FF05E066
:101F9000FB1D1B7819000120FFF71EFFC046BD4640
:101FA00002B080BD90B585B000AF78600F23FB18FC
:101FB00000221A700FE00F23FB181B787A68D318E1
:101FC0001B781800FFF7C0FF0F23FB181A780F23A8
:101FD000FB1801321A700F23FB181C787B6818005D
:101FE000FEF792F803009C42E5D3C046BD4605B01B
:101FF00090BD000090B589B000AF0200FB1D1A70C3
:10200000BB1D0A1C1A700C23FB181B4A13CA13C3EE
:1020100012681A601F23FB1800221A7023E0FB1DB0
:102020001B78DB00DAB21F23FB181B78D318DBB256
:102030004033DBB219000020FFF7CEFEBB1D1A783B
:102040001F23FB181B780C217918D2008A18D35C47
:1020500019000120FFF7C0FE1F23FB181A781F2369
:10206000FB1801321A701F23FB181B78072BD6D9D7
:10207000C046BD4609B090BD4C39000880B584B05B
:1020800000AF0200FB1D1A70184B1800FEF7C2FAD1
:10209000FA239A00154B11001800FEF751FB134B61
:1020A0001800FEF7E3FB03009AB20C23FB181A801A
:1020B000FA239A000D4B11001800FEF741FB0B4B61
:1020C0001800FEF7D3FB03009AB20C23FB185A80CA
:1020D000064B1800FEF7F2FAFB1D1A780C23FB18CA
:1020E0005200D35A1800BD4604B080BDFC00002049
:1020F000B0B584B002AF05000C0010001900BB1D84
:102100002A1C1A807B1D221C1A703B1D021C1A708F
:10211000BB1C0A1C1A80BB1D1A887B1D1B78354905
:102120003548019301230093DF2300F0EBFF0121E9
:102130000120FFF7D9FE304B1800FFF733FF3B1D9E
:102140001B78002B07D12C4A2C4B100019000C23B4
:102150001A0000F0C5FF3B1D1B78012B07D1264A52
:10216000274B100019000C231A0000F0B9FF3B1D8B
:102170001B78022B07D1204A224B100019000C2398
:102180001A0000F0ADFF3B1D1B78032B07D11A4A44
:102190001D4B100019000C231A0000F0A1FF3B1D7D
:1021A0001B78042B07D1144A184B100019000C237C
:1021B0001A0000F095FF3B1D1B78052B07D10E4A36
:1021C000134B100019000C231A0000F089FF0A4B72
:1021D0001800FFF7E7FEBB1C1A880E49064B1800D3
:1021E00000F090FF044B1800FFF7DCFEC046BD4630
:1021F00002B0B0BD5C390008A000002074390008AE
:10220000803900088C39000898390008A439000882
:10221000B0390008BC39000880B582B000AF7860E2
:102220003C4B1A883C4B1A800120FFF727FF030024
:102230001A00384B1A80384B1A88364B1B889A4242
:1022400008D9354B1A88334B1B88D31A5A1E934131
:10225000DBB20BE02F4B1B881A002F4B1B88D31AC5
:102260000122052B01DC00231A1CD3B2002B4DD018
:10227000284B1A88284B1A80264B1B88F32B03D82F
:102280007B6801221A7041E0224B1B88234A93424B
:1022900003D87B6802221A7038E01E4B1B88204A44
:1022A000934203D87B6803221A702FE0194B1B88D6
:1022B0001C4A934203D87B6804221A7026E0154B0F
:1022C0001B88194A934203D87B6805221A701DE0C7
:1022D000104B1B88154A934203D87B6806221A705C
:1022E00014E00C4B1B88124A934203D87B680722E8
:1022F0001A700BE0074B1B880E4A934203D87B6889
:1023000008221A7002E07B6809221A70C046BD4696
:1023100002B080BDC80000208400002042030000FD
:1023200007050000CF06000043090000530B000022
:10233000E30C00000B0F000090B5A3B000AF02004B
:10234000FB1D1A700C23FA18194B10001900782382
:102350001A0000F0C5FE8723FB1800221A701AE04D
:102360008723FB181978FB1D1A788723FB18187828
:102370000C23FC1813005B009B189B00E3181B5CEC
:1023800018000C4B8A00D0508723FB181A7887233B
:10239000FB1801321A708723FB181B780B2BDFD92F
:1023A000044B1800FFF708FCC046BD4623B090BDA3
:1023B000C4390008CC00002080B586B000AF78603A
:1023C0000A00FB1C1A700C23FB18524A03CA03C3F1
:1023D0001423FB1814221A801623FB1800221A80DB
:1023E0004D4B1B780133DAB24B4B1A704B4B1B78B9
:1023F0000133DAB2494B1A707B6819881623FB182F
:102400001422BA1812888A1A1A801623FB181A88FE
:102410004A23FF339A4204D91623FB1800221A805C
:102420003FE01623FB181B88C72B04D91623FB1883
:1024300001221A8035E01623FB181B88632B04D970
:102440001623FB1802221A802BE01623FB181B8888
:10245000272B04D91623FB1803221A8021E0162308
:10246000FB181B88132B04D91623FB1804221A808F
:1024700017E01623FB181B880E2B04D91623FB1814
:1024800005221A800DE01623FB181B88092B04D99E
:102490001623FB1806221A8003E01623FB180722D6
:1024A0001A801623FB181B880C22BA18D25C1A4B10
:1024B0001B789A420FD8184B00221A707B681B8831
:1024C0001422BA1812889A4205D27B681B88013BF5
:1024D0009AB27B681A80114B1B781900FB1C1B7881
:1024E0000A22D31A994211DBFB1C1B78002B0DD05A
:1024F0000A4B00221A707B681B88094A934205D850
:102500007B681B8801339AB27B681A80C046BD463F
:1025100006B080BD3C3A00088600002087000020FD
:10252000E603000080B584B000AFB9607A600E2386
:10253000FB18021C1A800E23FB181A8896235B00D6
:102540009A420CD97B681B78032B08D07B68032246
:102550001A701A4B00221A70BB6800221A707B682E
:102560001B78032B25D1154B1B78052B11D8134B4A
:102570001B780133DAB2114B1A70104B1B78012211
:102580001340DAB280231902A023DB051800FEF7FE
:102590006CFD0E23FB181B88952B0AD8A023DB05A6
:1025A00004211800FEF744FD031E02D07B680022C0
:1025B0001A70C046BD4604B080BDC04688000020E9
:1025C00080B582B000AF7860544B1A88544B1A80A3
:1025D0000120FFF753FD03001A00504B1A80504BA7
:1025E0001A884E4B1B889A4208D94D4B1A884B4B80
:1025F0001B88D31A5A1E9341DBB20BE0474B1B8852
:102600001A00474B1B88D31A0122052B01DC00233B
:102610001A1CD3B2002B2FD0404B1A88404B1A8083
:102620007B681A883F4B1A803C4B1A88A8239B0072
:102630009A4203D87B6850221A801DE0374B1B88D2
:10264000394A934203D87B6864221A8014E0334BE2
:102650001B88364A934203D87B688C221A800BE091
:102660002E4B1B88324A934203D87B68B4221A80CF
:1026700002E07B68DC221A807B681A88294B1B8861
:102680009A4246D07B681A88264B1A80A023DB0525
:10269000F822D2009A617B681B88502B07D1A023B7
:1026A000DB05002240211800FEF7DFFC31E07B68EB
:1026B0001B88642B07D1A023DB0500228021180092
:1026C000FEF7D3FC25E07B681B888C2B08D1802388
:1026D0005900A023DB0500221800FEF7C6FC18E015
:1026E0007B681B88B42B08D180239900A023DB05CD
:1026F00000221800FEF7B9FC0BE07B681B88DC2B7E
:1027000007D18023D900A023DB0500221800FEF7A3
:10271000ACFCC046BD4602B080BDC046C80000202B
:102720008A0000208C00002015060000360A0000F8
:10273000B10D000080B584B000AF39601100BB1D41
:10274000021C1A803B1D0A1C1A803A1DBB1D1288F0
:102750001B88D31A9AB20E23FB181A800E23FB187B
:1027600000229B5E012B02DD3B6809221A700E23BA
:10277000FB1800229B5E013302DA3B6801221A70CB
:10278000C046BD4604B080BD80B582B000AF786061
:102790003960A023DB0510211800FEF749FC031E59
:1027A00006D13B6805221A707B6800221A700AE085
:1027B000A023DB0504211800FEF73AFC031E02D01B
:1027C0003B6800221A70C046BD4602B080BD0000C2
:1027D00090B585B000AF3B1D14221A80BB1C0022AF
:1027E0001A800E23FB1814221A807B1C00221A70F8
:1027F0000D23FB1800221A703B0000221A700C23D4
:10280000FB1800221A700B23FB1800221A700A23EF
:10281000FB1800221A700923FB1800221A703B00D3
:102820001B78032B00D187E03B001B78052B00D1E0
:1028300082E0A023DB0504211800FEF7F9FB031E4C
:1028400007D07B1C00221A707B1C1A783B001A7080
:1028500034E0BC1D0020FFF711FC03002380BB1DEA
:102860001B88A54A934209D83B0002221A707B1CA0
:1028700001221A70A14BA24A1A801FE00923FB18FB
:102880001B78002B0BD03B0004221A703B1D1888CC
:10289000BB1C1A887B1C1900FFF74CFF0EE03B00A5
:1028A00001221A700C23FB181B78002B02D0934BCB
:1028B000934A1A807B1C1800FFF7AEFCA023DB05AF
:1028C00004211800FEF7B4FB031E1CD10E23FB18D5
:1028D0001B88142B17D03B1D1B880E22BA18128898
:1028E0009A4210D80A23FB181A780A23FB180132DF
:1028F0001A700A23FB181B78092B08D90A23FB1826
:1029000000221A7003E00A23FB1800221A700A231F
:10291000FB181B78092B04D00A23FB181B78072B04
:1029200001D1012300E00023DAB280231902A023A1
:10293000DB051800FEF799FB0C23FC18A023DB0530
:1029400004211800FEF774FB030023707B1C1B7826
:102950000D22BA1812789A4221D07B1C1B780D22C6
:10296000BA1812789A4206D90D23FB181A780D234B
:10297000FB18013A1A707B1C1B780D22BA181278CA
:102980009A4206D20D23FB181A780D23FB18013248
:102990001A700D23FB181B781800FFF7CDFC0B23D2
:1029A000FB181B78002B53D1A023DB05082118004E
:1029B000FEF73EFB031E17D10923FB181B785A4272
:1029C0005341DAB20923FB181A700923FB181B784C
:1029D000002B02D1BB1C00221A80484B484A1A80A7
:1029E0000B23FB1801221A7080231B02454A190091
:1029F0001000FEF71DFB031E11D10E23FB181A88D1
:102A00001823FF339A4206D80E23FB180E22BA1859
:102A1000128814321A800B23FB1801221A708023AB
:102A2000DB01384A19001000FEF702FB031E0FD12C
:102A30000E23FB181B88142B06D90E23FB180E221D
:102A4000BA181288143A1A800B23FB1801221A7044
:102A5000A023DB0508211800FEF7EAFA031E15D0B3
:102A60008023DB01274A19001000FEF7E1FA031E5C
:102A70000CD080231B02234A19001000FEF7D8FA5D
:102A8000031E03D00B23FB1800221A700923FB1826
:102A90001B78002B04D0BB1C1800FFF791FD04E04D
:102AA000A023DB05F822D2009A613B001B78032BA0
:102AB00005D03A007B1C11001800FFF765FE7B1C57
:102AC0001A783B1D11001800FFF776FC3B1D1B8890
:102AD0003A00791C1800FFF725FD3B1D18887B1C68
:102AE00019783B001A780E23FB181B88FFF700FBB0
:102AF0006420FDF7FDFB92E6B70B0000C800002044
:102B0000881300000008005080B500AFFDF790FB6F
:102B100000F01EF800F0F0F800F07CF8FFF798F9EC
:102B200000210120FFF766FA074B1800FFF744F871
:102B3000064B1800FFF736FAFA23DB001800FDF702
:102B4000D7FBFFF745FEFEE7CC000020443A000823
:102B500080B594B000AF1823FB18180038231A0072
:102B6000002100F0C6FA3B1D180014231A000021B2
:102B700000F0BFFA254B254A126825490A408021FA
:102B800009010A431A601823FB1802221A6018234D
:102B9000FB180122DA601823FB1810221A6118238F
:102BA000FB1802229A621823FB180022DA6218230B
:102BB000FB188022D2021A631823FB188022D2034A
:102BC0005A631823FB181800FEF76CFA031E01D095
:102BD00000F054F93B1D0F221A603B1D03225A607E
:102BE0003B1D00229A603B1D0022DA603B1D002243
:102BF0001A613B1D01211800FEF710FE031E01D0D3
:102C000000F03CF9C046BD4614B080BD00700040E5
:102C1000FFE7FFFF80B582B000AF3B00180008233C
:102C20001A00002100F065FA304B314A1A602F4B30
:102C30000022DA632D4B8022D2055A602B4B0022F2
:102C40009A602A4B07229A63284B01221A61274B6C
:102C50000022DA60254B202200219954234B2122A7
:102C600000219954214B00229A62204BC222FF324C
:102C70005A621E4B2C22002199541C4B04225A618B
:102C80001A4B00221A63194B00229A61174B00223B
:102C90005A63164B0022DA61144B1800FDF746FB0D
:102CA000031E01D000F0EAF83B0001221A603B004D
:102CB000802252015A603A000C4B11001800FDF7B7
:102CC000E1FD031E01D000F0D9F83B00094A1A606B
:102CD0003A00064B11001800FDF7D4FD031E01D089
:102CE00000F0CCF8C046BD4602B080BDFC0000201C
:102CF000002401400200000480B588B000AF0C231E
:102D0000FB18180014231A00002100F0F2F9564BAA
:102D1000554AD26A04210A43DA62534BDB6A042221
:102D20001340BB60BB68504B4F4AD26A01210A4333
:102D3000DA624D4BDB6A012213407B607B684A4BB1
:102D4000494AD26A02210A43DA62474BDB6A02220D
:102D500013403B603B684549A023DB050022180077
:102D6000FEF783F9F823D900A023DB050122180020
:102D7000FEF77BF93E4B0022FB211800FEF775F9A8
:102D80000C23FB18C02212021A600C23FB1800222D
:102D90005A600C23FB1801229A600C23FB18354A59
:102DA00019001000FDF7CEFF0C23FB181C221A603F
:102DB0000C23FB1800225A600C23FB1801229A6096
:102DC0000C23FA18A023DB0511001800FDF7BAFF49
:102DD0000C23FB1820221A600C23FB1811225A60C6
:102DE0000C23FB1800229A600C23FB180322DA60E4
:102DF0000C23FA18A023DB0511001800FDF7A2FF31
:102E00000C23FB181C4A1A600C23FB1801225A6081
:102E10000C23FB1800229A600C23FB180322DA60B3
:102E20000C23FA18A023DB0511001800FDF78AFF18
:102E30000C23FB18FB221A600C23FB1801225A609A
:102E40000C23FB1800229A600C23FB180322DA6083
:102E50000C23FB18064A19001000FDF773FFC0464B
:102E6000BD4608B080BDC046001002402080000072
:102E70000004005000080050C087000080B500AF7B
:102E8000C046BD4680BD000080B500AF074B074A75
:102E9000526B01210A435A63044B044A926B80210E
:102EA00049050A439A63C046BD4680BD00100240F2
:102EB00080B588B000AF78600C23FB18180014238D
:102EC0001A00002100F015F97B681B68164A93422E
:102ED00026D1164B154A526B802189000A435A634A
:102EE000124B124AD26A01210A43DA620F4BDB6AA3
:102EF00001221340BB60BB680C23FB1803221A603D
:102F00000C23FB1803225A600C23FB1800229A6042
:102F10000C23FA18A023DB0511001800FDF712FF9F
:102F2000C046BD4608B080BD0024014000100240EC
:102F300080B500AFC046BD4680BD80B500AFFEE79E
:102F400080B500AFC046BD4680BD80B500AFC0466D
:102F5000BD4680BD80B500AFFDF7B4F9C046BD46A3
:102F600080BD000080B584B000AF7860114B1B6855
:102F7000002B02D10F4B104A1A600E4B1B68FB60EE
:102F80000C4B1A687B68D3186A46934207D900F045
:102F90007DF803000C221A6001235B4206E0054B1A
:102FA0001A687B68D218034B1A60FB681800BD468C
:102FB00004B080BD900000205C01002080B500AF0F
:102FC000174B174A1268802149000A431A60144BB4
:102FD000134AD26813490A40DA60114B104A12684A
:102FE00011490A401A600E4B0D4A926801218A432A
:102FF0009A600B4B0A4A12680C490A401A60084B47
:10300000074AD2680A490A40DA60054B00221A6171
:10301000084B802212059A60C046BD4680BDC0465E
:10302000001002400C40FF88F6FFF6FEFFFFFBFF9A
:10303000FFFF02FF00ED00E00D488546002103E0A0
:103040000C4B5B58435004310B480C4B42189A42CE
:10305000F6D30B4A02E0002313600432094B9A4274
:10306000F9D3FFF7ABFF00F017F8FFF74DFDFEE7D0
:1030700000200020C03A0008000000206800002066
:10308000680000205C010020FEE70000014B18688A
:103090007047C0460400002070B500260C4D0D4C52
:1030A000641BA410A64209D1002600F043FC0A4D7F
:1030B0000A4C641BA410A64205D170BDB300EB58A6
:1030C00098470136EEE7B300EB5898470136F2E730
:1030D000B83A0008B83A0008B83A0008BC3A000804
:1030E000002310B59A4200D110BDCC5CC45401330A
:1030F000F8E703008218934200D17047197001333A
:10310000F9E700000EB410B59DB002A90290086165
:103110000B48822488604861012040421FABC8816F
:10312000084804CBA400006801938C8100F06EF87D
:103130000023029A13701DB010BC08BC03B01847DE
:10314000FFFFFF7F04000020F0B58E6885B0070008
:103150000C00039201939E4239D890238A89DB00A8
:103160001A4234D00325096923685B1A0293636904
:1031700002985D43EB0F5D19019B6D1001331B1825
:10318000AB4200D91D00530532D52900380000F0AC
:1031900031FB061E09D10C233B6040230120A2898C
:1031A00040421343A38105B0F0BD029A2169FFF7A5
:1031B00097FFA389144A1A4080231343A381029BDB
:1031C0002661F61826606561019EED1AA560019BD7
:1031D000B34200D21E0032000399206800F0ADFA1D
:1031E000A36800209B1BA36023689E192660DAE772
:1031F0002A00380000F05CFB061EE0D1216938008F
:1032000000F0AEFAC7E7C0467FFBFFFFF0B59FB006
:10321000029005938B890F0016001B0611D50B69D0
:10322000002B0ED1402100F0E5FA3860386100280B
:1032300005D10C23029A013813601FB0F0BD402362
:103240007B61002306AD6B6120336B761033AB7668
:1032500034002378002B47D1A31B04930DD0A31B6C
:10326000320039000298FFF76FFF431C00D1B5E030
:103270006A69049B944663446B612378002B00D1F8
:10328000ACE00122002352426A6002A95432521873
:1032900001342B60EB60AB601370AB65584E0522B8
:1032A0002178300000F03EFA621C002820D1296805
:1032B000CB0604D5532302AE20309B1918700B07A0
:1032C00004D553232B2002AE9B19187023782A2B88
:1032D00016D000200A21099B2278303A092A55D9B4
:1032E000002815D0099313E0252BB5D00134B0E7A1
:1032F0000123801B8340296814000B432B60CDE71A
:10330000059B181D1B680590002B39DB09931400E1
:1033100023782E2B0BD16378621C2A2B3ED1059B80
:1033200002341A1D1B680592002B34DB0793354EBF
:1033300021780322300000F0F5F9002806D0402360
:10334000801B83402A68013413432B6021780622B6
:103350002D48661C297600F0E5F9002846D02B4B55
:10336000002B2FD12968059B0722C90528D59B185A
:103370009343083305936B69039A9B186B6167E766
:103380005B42EB6002230B432B60C0E74B430134ED
:103390009B180120A0E701235B42C7E7002314002C
:1033A0000A201A006B6021783039092903D9002BD3
:1033B000BDD00792BBE74243013452180123F2E724
:1033C0000733D5E705AB00933A00114B290002986B
:1033D00000E000BF0390039B0133CCD1BB890B9865
:1033E0005B0600D429E70120404226E705AB0093A5
:1033F0003A00074B2900029800F07AF8EAE7C04645
:10340000853A00088B3A00088F3A00080000000057
:1034100049310008F7B5150001938A680B690090DF
:103420000C00934200DA130022002B604332127822
:10343000002A01D001332B6023689B0602D52B683C
:1034400002332B60062723681F4027D02300433315
:103450001B785A1E93412268920630D422000199AB
:1034600043320098089EB047431C25D006232068AD
:103470002A68E16803400025042B03D18D1AEB4331
:10348000DB171D40A3682269934201DD9B1AED18EA
:103490000027BD4220D1002010E00137E3682A68F0
:1034A0009B1A9F42D2DA2200012319320199009817
:1034B000089EB047431CF0D101204042FEBD3020A1
:1034C000E1184331087021005A1C45310978A218CF
:1034D000433202331170C1E7220001231A320199ED
:1034E0000098089EB047431CE6D00137D1E70000A2
:1034F000F0B58BB006920A00433207930590049210
:103500000A7E0C00109B6E2A00D18FE017D8632A28
:103510002CD008D8002A00D199E0582A54D026008F
:103520004236327029E0642A01D0692AF7D1216835
:103530001A68080623D5111D1960156825E0732A3D
:1035400000D188E008D86F2A29D0702AE7D120223C
:1035500009680A43226003E0752A20D0782ADED168
:1035600022007821453211706C4A30E00E001A6852
:103570004236111D196013683370012379E0490642
:10358000D9D5111D19600023D55E002D03DA2D2336
:10359000049A6D421370624B0A2703932FE0206850
:1035A0001968050603D5081D18600D6805E040067A
:1035B000F9D50D68081D1860ADB2594B0827039363
:1035C0006F2A18D00A2716E045310A70544A039230
:1035D0001A682168101D18601568080622D5CB07E7
:1035E00002D52023194321601027002D03D1202369
:1035F00022689A4322602300002243331A706368D2
:10360000A360002B5CDB0422216891432160002D24
:1036100058D1049E002B64D02600039B42361B78B1
:1036200033705EE04806DAD5ADB2D8E709681A68AB
:10363000080605D5111D1960136862691A6006E055
:103640004906F7D5111D19601368A28A1A80002354
:10365000049E236154E01A68111D19601668002148
:103660006268300000F05EF8002801D0801B6060C6
:10367000636823610023049A137041E023693200D8
:1036800006990598079DA847431C43D02368002549
:103690009B070FD4099BE06898423DDA18003BE095
:1036A00022000123193206990598079EB047431C52
:1036B00030D00135E368099A9B1A9D42F0DBE9E7B7
:1036C000002DA9D0049E28003900FCF7ABFD039B18
:1036D000013E5B5C280033703900FCF71DFD051EC0
:1036E000F1D1082F09D12368DB0706D56368226969
:1036F000934202DC3023013E3370049B9B1B236109
:10370000079B09AA00932100069B0598FFF782FEFC
:10371000431CB3D1012040420BB0F0BDA73A0008D2
:10372000963A0008C9B28218904201D10020704731
:1037300003788B42FBD00130F6E710B5884202D9FE
:103740008B18984208D300239A4207D0CC5CC4540B
:103750000133F9E78B5C8354013AFBD210BD0000C2
:1037600070B50500002910D00C1F2368002B00DA6B
:10377000E418280000F0D4F81D4A1368002B05D186
:1037800063601460280000F0CCF870BDA34209D932
:10379000216860188342F3D118685B684118216082
:1037A000EEE713005A68002A01D0A242F9D919683D
:1037B0005818A0420BD12068091858181960824285
:1037C000E0D110685268411819605A60DAE7A042E7
:1037D00002D90C232B60D5E721686018824203D1FF
:1037E000106852684118216062605C60CAE7C04698
:1037F00094000020032370B5CD1C9D4308350600BE
:103800000C2D1ED20C25A9421DD8300000F088F8DE
:10381000254A14682100002919D1244C2368002B63
:1038200003D1300000F06AF820602900300000F079
:1038300065F8431C2CD10C233000336000F071F884
:1038400003E0002DDFDA0C233360002070BD0B682D
:103850005B1B1AD40B2B03D90B60CC18256003E03B
:103860008C420ED163681360300000F05AF82000DB
:1038700007220B30231D9043C31AE7D05A42E2506F
:10388000E4E74B6863600C00EEE70C004968C2E7B0
:103890000323C41C9C43A042E0D0211A300000F056
:1038A0002DF8431CDAD1C6E79400002098000020D0
:1038B000F8B507000D001600002905D11100FFF72B
:1038C00099FF04002000F8BD002A03D1FFF748FF4C
:1038D0003400F7E700F026F82C008642F2D93100D8
:1038E0003800FFF787FF041EECD029003200FFF7F5
:1038F000F7FB29003800FFF733FFE3E7002370B53B
:10390000064C050008002360FFF72CFB431C03D185
:103910002368002B00D02B6070BDC04658010020EA
:10392000704770470B1F1B68181F002B01DA0B58DC
:10393000C0187047F8B5C046F8BC08BC9E46704732
:0C394000F8B5C046F8BC08BC9E467047B5
:10394C0004040E0F1B19110A0000000000000000F7
:10395C0054454D503A25303364256343202025636C
:10396C003A25640A000000005B4F464620202020C8
:10397C0020205D005B4F4E202020202020205D0069
:10398C005B4F4E284E4F4E4529205D005B4F5645F0
:10399C005220484541545D005B4155544F204144F1
:1039AC004A205D005B53414645204C4F434B5D0024
:1039BC005B253033645D0000000000000000000057
:1039CC00000000000D0000000D0000000D000000C4
:1039DC004C0000004C0000004C000000FF000000F8
:1039EC00FF000000FF000000FF000D00FF000D00B5
:1039FC00FF000D00FF004C00FF004C00FF004C00CE
:103A0C00FF00FF00FF00FF00FF00FF00FF0DFF0D98
:103A1C00FF0DFF0DFF0DFF0DFF4CFF4CFF4CFF4C3E
:103A2C00FF4CFF4CFFFFFFFFFFFFFFFFFFFFFFFF00
:103A3C00010204070B10161D0C536D6172742047A4
:103A4C0061732052616E67650A2020202044656DE9
:103A5C006F2056657273696F6E000000280C0106AA
:103A6C000000000000000000010203040607080922
:103A7C00030406080C10182030232D302B2000686E
:103A8C006C4C00656667454647003031323334353F
:103A9C0036373839414243444546003031323334AD
:0C3AAC00353637383961626364656600A6
:043AB800E900000819
:043ABC00C10000083D
:103AC00000002000080000200000000000000000AE
:103AD00000000000000000000000000000000000E6
:103AE00000000000000000000000000000000000D6
:103AF00000000000000000000000000000000000C6
:103B000000000000000000000000000000000000B5
:103B100000000000000000000000000000000000A5
:083B200000000000000000009D
:040000050800303986
:00000001FF
