:020000040800F2
:1000000000200020D1260008092600081326000839
:1000100000000000000000000000000000000000E0
:100020000000000000000000000000001926000889
:100030000000000000000000232600082D26000814
:100040002127000821270008212700082127000870
:100050002127000821270008212700082127000860
:100060002127000821270008212700082127000850
:100070002127000821270008000000002127000890
:10008000000000003D260008000000000000000005
:100090002127000800000000212700082127000870
:1000A0002127000821270008212700082127000810
:1000B0002127000821270008000000002127000850
:1000C00010B5064C2378002B07D1054B002B02D02E
:1000D000044800E000BF0123237010BD0C00002085
:1000E000000000007C270008044B10B5002B03D053
:1000F0000349044800E000BF10BDC04600000000F6
:10010000100000207C270008002243088B4274D393
:1001100003098B425FD3030A8B4244D3030B8B4208
:1001200028D3030C8B420DD3FF22090212BA030C11
:100130008B4202D31212090265D0030B8B4219D3F2
:1001400000E0090AC30B8B4201D3CB03C01A524112
:10015000830B8B4201D38B03C01A5241430B8B425A
:1001600001D34B03C01A5241030B8B4201D30B0343
:10017000C01A5241C30A8B4201D3CB02C01A52416A
:10018000830A8B4201D38B02C01A5241430A8B422D
:1001900001D34B02C01A5241030A8B4201D30B0216
:1001A000C01A5241CDD2C3098B4201D3CB01C01A30
:1001B000524183098B4201D38B01C01A524143093A
:1001C0008B4201D34B01C01A524103098B4201D328
:1001D0000B01C01A5241C3088B4201D3CB00C01A95
:1001E000524183088B4201D38B00C01A524143080D
:1001F0008B4201D34B00C01A5241411A00D2014632
:10020000524110467047FFE701B5002000F006F8A4
:1002100002BDC0460029F7D076E770477047C04658
:10022000002B11D1002A0FD1002900D1002802D0C3
:100230000021C943080007B4024802A140180290F7
:1002400003BDC046D9FFFFFF03B4684601B502985D
:1002500000F034F8019B9E4602B00CBC7047C046CB
:10026000F0B5CE46474680B5070099463B0C9C4604
:1002700013041B0C1D000E0061460004140C000C3E
:1002800045434B4360436143C0182C0C20188C46F7
:10029000834203D980235B029846C444494679438C
:1002A0007243030C63442D042D0CC918000440193B
:1002B0008918C0BCB946B046F0BDC046F0B5574637
:1002C0004E464546DE46E0B504000D00924699468E
:1002D00083B08B4230D82DD04946504600F0BAF852
:1002E00029000600200000F0B5F8331A9846203B9C
:1002F0009B4633D45A465346934042461F005346CA
:1003000093401E00AF423AD8AF4200D178E05B463E
:10031000A41BBD41002B00DA75E0002200230092EF
:10032000019301235A46934001930123424693408F
:10033000009328E08242CFD900220023009201934B
:100340000C9B002B01D01C605D600098019903B0EC
:10035000F0BCBB46B246A946A046F0BD42462023AB
:100360009B1A5246DA40414613004A468A4017001B
:1003700042461F43534693401E00AF42C4D9002259
:100380000023009201934346002BD9D0FB0772084B
:100390001A4346467B080EE0AB4201D1A2420CD87C
:1003A000A41A9D41012024196D410021013E241809
:1003B0004D41002E06D0AB42EED9013E24196D41CD
:1003C000002EF8D1009801995B4600196941002B75
:1003D00024DB2B005A464446D3402A00E2401C004E
:1003E0005B461500002B2ADB26009E4033002600CA
:1003F0004746BE403200801A9941009001919FE724
:10040000A342BCD883E74246202300219B1A002246
:10041000009101920122DA40019286E742462023B0
:100420009B1A2A0046469A402300F3404446134351
:100430002A00E2401C005B461500002BD4DA42463D
:100440002F002023260097409B1ADE403B003343B9
:10045000CDE7C04610B5002903D100F007F82030E1
:1004600002E0080000F002F810BDC0461C21012384
:100470001B04984201D3000C10391B0A984201D387
:10048000000A08391B09984201D30009043902A265
:10049000105C40187047C0460403020201010101CC
:1004A000000000000000000080B582B000AFFB1D1E
:1004B00000221A700B4B1A680A4B40210A431A603B
:1004C000002000F011F8031E03D0FB1D01221A705A
:1004D00001E002F031F8FB1D1B781800BD4602B0A8
:1004E00080BDC0460020024090B583B000AF786068
:1004F000144B1C68144B1B781900FA239800FFF763
:1005000003FE030019002000FFF7FEFD03001800A2
:1005100000F049FB031E01D001230FE07B68032B91
:100520000BD8796801235B420022180000F016FB0B
:10053000064B7A681A60002300E001231800BD46CC
:1005400003B090BD0800002004000020000000203F
:1005500080B500AF054B1B781A00054B1B68D218FD
:10056000034B1A60C046BD4680BDC0460400002053
:100570002800002080B500AF024B1B681800BD4664
:1005800080BDC0462800002080B584B000AF7860F0
:10059000FFF7F0FF0300BB607B68FB60FB68013383
:1005A00005D00A4B1B781A00FB689B18FB60C046FD
:1005B000FFF7E0FF0200BB68D31AFA689A42F7D847
:1005C000C046C046BD4604B080BDC0460400002001
:1005D00080B582B000AF78607B68002B01D1012329
:1005E00059E17B685B6D002B0AD17B6800229A651C
:1005F0007B685022002199547B68180001F0B0FFFD
:100600007B685B6D10221340102B05D07B681B6844
:100610009B68042213400BD07B685B6D10221A4349
:100620007B685A657B68502200219954012332E18E
:100630007B685B6D9A4A134002221A437B685A65B5
:100640007B681B689B6803221340012B08D17B68E1
:100650001B681B6801221340012B01D1012300E01C
:100660000023002B49D17B685A68C0231B069A429D
:100670000BD07B685A688023DB059A4205D07B68E3
:100680005A6880231B069A4211D17B681B681A693D
:100690007B681B68920092081A617B681B68196965
:1006A0007B685A687B681B680A431A6114E07B68A0
:1006B0001B681A697B681B68920092081A61794B63
:1006C0001A68784B78490A401A60764B19687B683B
:1006D0005A68744B0A431A607B681B68DA687B6847
:1006E0001B6818218A43DA607B681B68D9687B68BD
:1006F0009A687B681B680A43DA606A4B1A68694B20
:100700006A490A401A60674B19687B685B6B5A0636
:10071000644B0A431A607B681B689A6880235B05F8
:10072000134008D17B681B689A687B681B6880212E
:1007300049050A439A607B681B68DA687B681B6816
:100740005B490A40DA607B681B68D9687B68DA68B5
:100750007B681B69022B01D1042300E000231A43AC
:100760007B6820201B5C5B031A437B682C201B5C8E
:100770005B001A437B681B6B1A437B689B699B0376
:100780001A437B68DB69DB031A437B681B680A43F7
:10079000DA607B685A6AC223FF339A420BD07B68C7
:1007A0001B68D9687B685A6A7B689B6A1A437B68B6
:1007B0001B680A43DA607B6821229B5C012B1AD1FB
:1007C0007B6820229B5C002B09D17B681B68DA6860
:1007D0007B681B68802149020A43DA600BE07B6872
:1007E0005B6D20221A437B685A657B689B6D0122F2
:1007F0001A437B689A657B68DB6B012B1FD17B6892
:100800001B681A697B681B682A490A401A617B6861
:100810001B6819697B681A6C7B685B6C1A437B6880
:100820009B6C1A437B681B680A431A617B681B68D0
:100830001A697B681B6801210A431A610EE07B6814
:100840001B681B6901221340012B07D17B681B68C1
:100850001A697B681B6801218A431A617B681B68DF
:100860005A697B681B6807218A435A617B681B6849
:1008700059697B689A6B7B681B680A435A617B687D
:1008800000229A657B685B6D0322934301221A4321
:100890007B685A6500231800BD4602B080BDC04683
:1008A000FDFEFFFF08270140FFFFC3FFFFFFFFFD25
:1008B0001902FEFF03FCFFFF80B582B000AF786035
:1008C00039607B6850229B5C012B01D102236CE0D4
:1008D0007B685022012199547B681B689B68042225
:1008E00013400BD07B685B6D20221A437B685A65EE
:1008F0007B68502200219954012356E03B685B68D5
:100900002C4A934228D07B681B68996A3B681B6815
:100910005B035A0B7B681B680A439A623B681A6840
:100920008023DB02134009D0234B1A68224B80211D
:1009300009040A431A600A2000F044F83B681A6868
:1009400080239B0213402BD01B4B1A681A4B80212B
:10095000C9030A431A6023E07B681B689A6A3B68F4
:100960001B685B035B0BD9437B681B680A409A6278
:100970003B681A688023DB02134005D00E4B1A68CF
:100980000D4B0E490A401A603B681A6880239B028F
:10099000134005D0084B1A68074B09490A401A60F2
:1009A0007B6850220021995400231800BD4602B0F4
:1009B00080BDC0460110000008270140FFFF7FFFF7
:1009C000FFFFBFFF80B584B000AF78600B4B1B68A2
:1009D0000B491800FFF798FB03001A007B6853438C
:1009E000FB6002E0FB68013BFB60FB68002BF9D178
:1009F000C046C046BD4604B080BDC04608000020C9
:100A000040420F0080B582B000AF0200FB1D1A709B
:100A1000FB1D1B787F2B09D8FB1D1B781A001F2399
:100A20001A40044B012191400A001A60C046BD469D
:100A300002B080BD00E100E090B583B000AF0200DD
:100A40003960FB1D1A70FB1D1B787F2B28D82F4A9D
:100A5000FB1D1B785BB29B08C0339B009B58FA1DA3
:100A60001278110003220A40D200FF2191400A00AF
:100A7000D2431A4011003B689B01FF221A40FB1D24
:100A80001B78180003230340DB009A401F48FB1D1E
:100A90001B785BB29B080A43C0339B001A5031E0BD
:100AA0001B4AFB1D1B7819000F230B40083B9B08BA
:100AB00006339B00D31804331B68FA1D127811000B
:100AC00003220A40D200FF2191400A00D2431A407B
:100AD00011003B689B01FF221A40FB1D1B78180088
:100AE00003230340DB009A400948FB1D1B781C00D0
:100AF0000F232340083B9B080A4306339B00C3187F
:100B000004331A60C046BD4603B090BD00E100E06A
:100B100000ED00E080B582B000AF78607B685A1EBF
:100B200080235B049A4201D3012310E00A4B7A68C8
:100B3000013A5A6001235B4203211800FFF77CFF52
:100B4000054B00229A60044B07221A60002318000C
:100B5000BD4602B080BDC04610E000E080B584B064
:100B600000AFB9607A600F217B18021C1A70BA6856
:100B70007B181B785BB211001800FFF75DFFC046C1
:100B8000BD4604B080BD80B582B000AF0200FB1D41
:100B90001A70FB1D1B785BB21800FFF733FFC046CD
:100BA000BD4602B080BD80B582B000AF78607B6882
:100BB0001800FFF7AFFF03001800BD4602B080BD6C
:100BC00080B586B000AF7860396000237B61002378
:100BD000FB6000233B614FE13B681B6801217A69A0
:100BE00091400A001340FB60FB68002B00D140E1FC
:100BF0003B685B6803221340012B05D03B685B68B0
:100C000003221340022B30D17B689B683B617B69D8
:100C10005B0003229A401300DA433B6913403B61B7
:100C20003B68DA687B695B009A4013003A691343BA
:100C30003B617B683A699A607B685B683B61012233
:100C40007B699A401300DA433B6913403B613B6880
:100C50005B681B0901221A407B699A4013003A69BC
:100C600013433B617B683A695A603B685B680322C7
:100C70001340032B17D07B68DB683B617B695B000B
:100C800003229A401300DA433B6913403B613B68FF
:100C90009A687B695B009A4013003A6913433B6191
:100CA0007B683A69DA603B685B6803221340022B79
:100CB00023D17B69DA087B6808329200D3583B6104
:100CC0007B69072213409B000F229A401300DA43EE
:100CD0003B6913403B613B681A697B6907210B4004
:100CE0009B009A4013003A6913433B617B69DA0821
:100CF0007B68083292003969D1507B681B683B6180
:100D00007B695B0003229A401300DA433B6913407E
:100D10003B613B685B6803221A407B695B009A4039
:100D200013003A6913433B617B683A691A603B6878
:100D30005A68C0239B02134000D19AE0544B5A6B6F
:100D4000534B01210A435A63524A7B699B08023381
:100D50009B009B583B617B69032213409B000F2241
:100D60009A401300DA433B6913403B617A68A02341
:100D7000DB059A4219D07B68474A934213D07B68BF
:100D8000464A93420DD07B68454A934207D07B6820
:100D9000444A934201D1052308E0062306E00323D9
:100DA00004E0022302E0012300E000237A6903212A
:100DB0000A40920093403A6913433B6135497B698D
:100DC0009B0802339B003A695A50374B1B683B61C2
:100DD000FB68DA433B6913403B613B685A688023F8
:100DE0005B02134003D03A69FB6813433B612E4B0F
:100DF0003A691A602C4B5B683B61FB68DA433B69DC
:100E000013403B613B685A6880239B02134003D028
:100E10003A69FB6813433B61234B3A695A60224BA2
:100E20009B683B61FB68DA433B6913403B613B686D
:100E30005A6880235B03134003D03A69FB6813436D
:100E40003B61194B3A699A60174BDB683B61FB6861
:100E5000DA433B6913403B613B685A6880239B033C
:100E6000134003D03A69FB6813433B610E4B3A6968
:100E7000DA607B6901337B613B681A687B69DA4021
:100E8000131E00D0A8E6C046C046BD4606B080BDD1
:100E90000010024000000140000400500008005013
:100EA000000C0050001C00500004014080B584B0CC
:100EB00000AF78600A00BB1C1A807B681B69BA1CF3
:100EC0001288134004D00F23FB1801221A7003E08C
:100ED0000F23FB1800221A700F23FB181B78180031
:100EE000BD4604B080BD80B582B000AF7860080018
:100EF0001100BB1C021C1A807B1C0A1C1A707B1C74
:100F00001B78002B04D0BB1C1A887B689A6103E015
:100F1000BB1C1A887B689A62C046BD4602B080BD81
:100F2000B0B58AB000AF78607B68002B02D1012396
:100F300000F0AFFBCF4BDB680C2213403B62CD4B84
:100F4000DA6880235B021340FB617B681B68012227
:100F5000134000D17EE03B6A082B07D03B6A0C2B84
:100F600012D1FA6980235B029A420DD1C14B1A68F3
:100F700080239B02134000D16BE07B685B68002BF1
:100F800067D1012300F085FB7B685A6880235B02F0
:100F90009A4207D1B74B1A68B64B802149020A43DF
:100FA0001A6027E07B685A68A023DB029A420ED1C0
:100FB000B04B1A68AF4B8021C9020A431A60AD4B8F
:100FC0001A68AC4B802149020A431A6012E0A94B0F
:100FD0001A68A84BA8490A401A60A64B1A688023D1
:100FE0005B021340FB60FB68A24B1A68A14BA3494C
:100FF0000A401A607B685B68002B15D0FFF7BAFACD
:101000000300BB6109E0FFF7B5FA0200BB69D31A20
:10101000642B02D9032300F03CFB964B1A68802313
:101020009B021340EFD015E0FFF7A4FA0300BB6169
:1010300008E0FFF79FFA0200BB69D31A642B01D9BD
:10104000032326E38B4B1A6880239B021340F0D1C5
:1010500000E0C0467B681B680222134000D18BE091
:101060007B68DB687B613B6A042B05D03B6A0C2BF9
:101070003ED1FB69002B3BD17E4B1B680422134001
:1010800004D07B69002B01D1012302E3794B5B681B
:101090007B4A134019007B681B691A02754B0A438F
:1010A0005A60744B1B68092293431900714B7A698B
:1010B0000A431A6000F040FC01006E4BDB681B091C
:1010C0000F2213406F4AD35C0A00DA406E4B1A605D
:1010D0006E4B1B6813257C191800FFF705FA0300F7
:1010E00023707B191B78002B46D07B191B78D0E22C
:1010F0007B69002B27D05F4B1B68092293431900A3
:101100005C4B7A690A431A60FFF734FA0300BB614B
:1011100008E0FFF72FFA0200BB69D31A022B01D9AE
:101120000323B6E2534B1B6804221340F1D0514B0A
:101130005B68534A134019007B681B691A024D4BC8
:101140000A435A6018E04B4B1A684A4B01218A4304
:101150001A60FFF70FFA0300BB6108E0FFF70AFA15
:101160000200BB69D31A022B01D9032391E2414B40
:101170001B6804221340F1D17B681B6810221340C6
:1011800000D1A1E03B6A002B40D13A4B1A68802382
:101190009B00134005D07B68DB69002B01D1012344
:1011A00077E2344B5B683A4A134019007B685A6A0D
:1011B000304B0A435A602F4B5B681B02190A7B684D
:1011C0001B6A1A062B4B0A435A607B685B6A5B0BEF
:1011D0000133802212029A40264BDB681B090F2143
:1011E0000B402849CB5CDA40274B1A60274B1B6821
:1011F00013257C191800FFF777F9030023707B197A
:101200001B78002B60D07B191B7842E27B68DB697E
:10121000002B3FD0174B1A68164B802149000A4318
:101220001A60FFF7A7F90300BB6108E0FFF7A2F916
:101230000200BB69D31A022B01D9032329E20D4B0B
:101240001A6880239B001340F0D00A4B5B68104A59
:10125000134019007B685A6A064B0A435A60054BD3
:101260005B681B02190A7B681B6A1A06014B0A435A
:101270005A6029E000100240FFFFFEFFFFFFFBFF66
:10128000FFE0FFFF98270008080000200000002072
:10129000FF1FFFFFBD4B1A68BC4BBD490A401A60D7
:1012A000FFF768F90300BB6108E0FFF763F902008C
:1012B000BB69D31A022B01D90323EAE1B34B1A68A5
:1012C00080239B001340F0D17B681B6808221340E9
:1012D00036D07B685B69002B19D0AC4B1A6DAB4BD9
:1012E00001210A431A65FFF745F90300BB6108E0D5
:1012F000FFF740F90200BB69D31A022B01D903237F
:10130000C7E1A24B1B6D02221340F1D018E09F4BA6
:101310001A6D9E4B01218A431A65FFF72BF90300D2
:10132000BB6108E0FFF726F90200BB69D31A022B64
:1013300001D90323ADE1954B1B6D02221340F1D17E
:101340007B681B680422134000D1AEE027203B18C5
:1013500000221A708D4B9A6B80235B05134009D1D4
:101360008A4B9A6B894B802149050A439A633B1843
:1013700001221A70874B1A6880235B0013401AD130
:10138000844B1A68834B802149000A431A60FFF797
:10139000F1F80300BB6108E0FFF7ECF80200BB695D
:1013A000D31A642B01D9032373E17A4B1A68802383
:1013B0005B001340F0D07B689A6880235B009A4200
:1013C00007D1724B1A6D714B802149000A431A658F
:1013D00031E07B689B68002B0CD16C4B1A6D6B4B1A
:1013E0006B490A401A65694B1A6D684B6A490A4095
:1013F0001A6520E07B689A68A023DB009A420ED130
:10140000624B1A6D614B8021C9000A431A655F4B1C
:101410001A6D5E4B802149000A431A650BE05B4B55
:101420001A6D5A4B5A490A401A65584B1A6D574B58
:1014300059490A401A657B689B68002B15D0FFF755
:1014400099F80300BB6109E0FFF794F80200BB695B
:10145000D31A524A934201D903231AE14B4B1A6D16
:1014600080239B001340EFD014E0FFF783F80300C4
:10147000BB6109E0FFF77EF80200BB69D31A474A57
:10148000934201D9032304E1404B1A6D80239B0052
:101490001340EFD12723FB181B78012B05D13B4BC1
:1014A0009A6B3A4B3E490A409A637B681B6820223C
:1014B000134049D07B689B69002B26D0334B9A6838
:1014C000324B01210A439A60304B5A6B2F4B01215A
:1014D0000A435A63334B1A6A324B802189010A430B
:1014E0001A62FFF747F80300BB6108E0FFF742F814
:1014F0000200BB69D31A022B01D90323C9E0234B95
:101500009B6802221340F1D01EE0204B9A681F4BCB
:1015100001218A439A60234B1A6A224B22490A40CE
:101520001A62FFF727F80300BB6108E0FFF722F813
:101530000200BB69D31A022B01D90323A9E0134B84
:101540009B6802221340F1D17B689B6A002B00D17B
:101550009EE03B6A0C2B00D177E07B689B6A022BF4
:1015600058D10A4B1A68094B10490A401A60FFF714
:1015700001F80300BB611BE0FEF7FCFF0200BB6942
:10158000D31A022B14D9032383E0C0460010024073
:10159000FFFEFFFF00700040FFFBFFFF881300000D
:1015A000FFFFFFEF00000140FFDFFFFFFFFFFFFE37
:1015B0003A4B1A6880239B041340DDD1374BDB681C
:1015C000374A134019007B68DA6A7B681B6B1A4341
:1015D0007B685B6B1A43314B0A43DA602F4B1A6806
:1015E0002E4B802149040A431A60FEF7C3FF030013
:1015F000BB6108E0FEF7BEFF0200BB69D31A022BF5
:1016000001D9032345E0254B1A6880239B0413402E
:10161000F0D03DE0214B1A68204B22490A401A6065
:10162000FEF7A8FF0300BB6108E0FEF7A3FF02007E
:10163000BB69D31A022B01D903232AE0174B1A687E
:1016400080239B041340F0D122E07B689B6A012B2E
:1016500001D101231DE0114BDB68FB61FA69802396
:101660005B021A407B68DB6A9A420FD1FA69F02369
:101670009B031A407B681B6B9A4207D1FA69C0230F
:101680001B041A407B685B6B9A4201D0012300E087
:1016900000231800BD460AB0B0BDC046001002408D
:1016A000FFFF02FFFFFFFFFEB0B584B000AF786020
:1016B00039607B68002B01D1012328E1964B1B6820
:1016C000012213403A689A421ED9934B1B680122AB
:1016D00093431900904B3A680A431A60FEF74AFF99
:1016E0000300FB6009E0FEF745FF0200FB68D31A28
:1016F0008A4A934201D9032309E1874B1B680122DF
:1017000013403A689A42EED17B681B68022213406C
:1017100009D0834BDB68F022934319007B689A68F9
:101720007F4B0A43DA607B681B680122134000D1BB
:1017300089E07B685B68022B07D1794B1A688023AC
:101740009B02134020D10123E1E07B685B68032BFF
:1017500007D1734B1A6880239B04134014D10123D3
:10176000D5E07B685B68012B06D16D4B1B680422BA
:10177000134009D10123CAE0694B1A6880239B00FA
:10178000134001D10123C2E0654BDB680322934380
:1017900019007B685A68624B0A43DA60FEF7EAFE7A
:1017A0000300FB607B685B68022B11D109E0FEF748
:1017B000E1FE0200FB68D31A584A934201D9032381
:1017C000A5E0574BDB680C221340082BEFD13AE021
:1017D0007B685B68032B11D109E0FEF7CBFE0200AA
:1017E000FB68D31A4D4A934201D903238FE04C4B37
:1017F000DB680C2213400C2BEFD124E07B685B6884
:10180000012B1BD109E0FEF7B5FE0200FB68D31ADD
:10181000424A934201D9032379E0414BDB680C2211
:101820001340042BEFD10EE0FEF7A4FE0200FB688C
:10183000D31A3A4A934201D9032368E0384BDB6854
:101840000C221340F0D1344B1B68012213403A683C
:101850009A421ED2304B1B680122934319002E4B33
:101860003A680A431A60FEF785FE0300FB6009E050
:10187000FEF780FE0200FB68D31A284A934201D982
:10188000032344E0244B1B68012213403A689A4228
:10189000EED17B681B680422134009D0204BDB6823
:1018A000204A134019007B68DA681D4B0A43DA604E
:1018B0007B681B68082213400AD0194BDB681A4A60
:1018C000134019007B681B69DA00154B0A43DA6084
:1018D00000F032F80100124BDB681B090F221340A5
:1018E000124AD35C0A00DA40114B1A60114B1B6894
:1018F0000B257C191800FEF7F7FD030023707B19F8
:101900001B78002B02D07B191B7800E00023180005
:10191000BD4604B0B0BDC0460020024088130000A0
:1019200000100240FFF8FFFFFFC7FFFF98270008E5
:101930000800002000000020B0B58EB000AF4C4B76
:10194000DB68FB62FA6A0C2313400C2B14D000D91D
:101950007BE0042B02D0082B0BD076E0444B1B68B5
:101960001022134002D0434B3B637CE0424B3B636D
:1019700079E0424B3B6376E0FB6A9A0C0F231A40F6
:101980003F4B9B5CBB62FB6A9A0D03231340013300
:101990007B62374BDA6880235B0213401AD0BB6A44
:1019A000BB610023FB61354A0023B869F969FEF782
:1019B00057FC02000B00100019007B6A3B610023FA
:1019C0007B613A697B69FEF72BFC02000B00130078
:1019D0007B6337E0264B1B68102213401AD0BB6A8A
:1019E000BB600023FB60234A0023B868F968FEF758
:1019F00037FC02000B00100019007B6A3B600023DB
:101A00007B603A687B68FEF70BFC02000B0013005A
:101A10007B6317E0BB6A180000231900164A0023F5
:101A2000FEF71EFC02000B00100019007B6A1C0070
:101A300000231D0022002B00FEF7F2FB02000B002A
:101A400013007B637B6B3B630DE0094B5B685B0BB7
:101A5000072213403B623B6A0133802212029A4004
:101A600013003B63C0463B6B1800BD460EB0B0BDD3
:101A70000010024000093D000024F40000127A002A
:101A8000A827000880B582B000AF78607B68002B83
:101A900001D1012332E07B6839229B5CDBB2002B51
:101AA00007D17B683822002199547B68180000F028
:101AB00093FD7B683922022199547B681A687B6800
:101AC00004331900100000F071F97B683E220121F7
:101AD00099547B683A22012199547B683B22012169
:101AE00099547B683C22012199547B683D22012155
:101AF00099547B6839220121995400231800BD466E
:101B000002B080BD80B584B000AF78607B683922B8
:101B10009B5CDBB2012B01D0012336E07B683922CC
:101B2000022199547B681B68DA687B681B68012175
:101B30000A43DA607B681A688023DB059A4209D081
:101B40007B681B68134A934204D07B681B68124A67
:101B5000934211D17B681B689B6807221340FB608E
:101B6000FB68062B10D07B681B681A687B681B68B3
:101B700001210A431A6007E07B681B681A687B68CA
:101B80001B6801210A431A6000231800BD4604B0F7
:101B900080BDC046000801400014014080B582B0FD
:101BA00000AF78607B681B681B6902221340022B20
:101BB00024D17B681B68DB6802221340022B1DD1F5
:101BC0007B681B68032252421A617B6801221A76E5
:101BD0007B681B689B690322134004D07B68180054
:101BE00000F0CCF807E07B68180000F0BFF87B68D5
:101BF000180000F0CBF87B6800221A767B681B681F
:101C00001B6904221340042B25D17B681B68DB6809
:101C100004221340042B1ED17B681B68052252420C
:101C20001A617B6802221A767B681B689A69C02356
:101C30009B00134004D07B68180000F09FF807E079
:101C40007B68180000F092F87B68180000F09EF89E
:101C50007B6800221A767B681B681B690822134088
:101C6000082B24D17B681B68DB6808221340082BF3
:101C70001DD17B681B68092252421A617B680422CD
:101C80001A767B681B68DB690322134004D07B68EB
:101C9000180000F073F807E07B68180000F066F8A1
:101CA0007B68180000F072F87B6800221A767B6867
:101CB0001B681B6910221340102B25D17B681B6801
:101CC000DB6810221340102B1ED17B681B68112289
:101CD00052421A617B6808221A767B681B68DA69AF
:101CE000C0239B00134004D07B68180000F046F826
:101CF00007E07B68180000F039F87B68180000F0F6
:101D000045F87B6800221A767B681B681B690122F4
:101D10001340012B0FD17B681B68DB680122134045
:101D2000012B08D17B681B68022252421A617B6832
:101D3000180000F009FA7B681B681B6940221340F9
:101D4000402B0FD17B681B68DB6840221340402B7F
:101D500008D17B681B68412252421A617B681800D7
:101D600000F01CF8C046BD4602B080BD80B582B010
:101D700000AF7860C046BD4602B080BD80B582B07D
:101D800000AF7860C046BD4602B080BD80B582B06D
:101D900000AF7860C046BD4602B080BD80B582B05D
:101DA00000AF7860C046BD4602B080BD80B584B04B
:101DB00000AF786039607B681B68FB607A688023BD
:101DC000DB059A4207D07B681F4A934203D07B68A9
:101DD0001E4A934208D1FB6870229343FB603B6824
:101DE0005B68FA681343FB607A688023DB059A42DC
:101DF00007D07B68144A934203D07B68134A93420E
:101E000008D1FB68124A1340FB603B68DB68FA6844
:101E10001343FB60FB68802293431A003B681B69F5
:101E20001343FB607B68FA681A603B689A687B68BA
:101E3000DA623B681A687B689A627B6801225A61A1
:101E4000C046BD4604B080BD0008014000140140FA
:101E5000FFFCFFFF80B584B000AF786039607B681D
:101E600038229B5C012B01D1022342E07B6838229F
:101E7000012199547B683922022199547B681B689F
:101E80005B68FB607B681B689B68BB60FB687022BB
:101E90009343FB603B681B68FA681343FB607B68F5
:101EA0001B68FA685A607B681A688023DB059A42CF
:101EB00009D07B681B68114A934204D07B681B6879
:101EC0000F4A93420CD1BB6880229343BB603B68AE
:101ED0005B68BA681343BB607B681B68BA689A602A
:101EE0007B683922012199547B683822002199545A
:101EF00000231800BD4604B080BDC0460008014064
:101F000000140140B0B586B000AF3B0080221A60DB
:101F10003B0000225A603B0000229A603B00224AAC
:101F200019001000FEF74CFE1F4B01220221180081
:101F3000FEF7D9FF1C4B012208211800FEF7D3FF42
:101F400017257C19184B80211800FEF7AFFF0300FE
:101F50002370154B002208211800FEF7C4FF124B16
:101F6000012208211800FEF7BEFF0F4B00220821B6
:101F70001800FEF7B8FF3B0080221A603B000122E8
:101F80005A603B0000229A603B000322DA603B006B
:101F9000054A19001000FEF713FE7B191B78180084
:101FA000BD4606B0B0BDC0460004005080B582B04A
:101FB00000AF0200FB1D1A70FB1D1B7801221340AD
:101FC000DBB21C481A001021FEF78DFFFB1D1B78A9
:101FD0005B08DBB201221340DBB216481A00202155
:101FE000FEF781FFFB1D1B789B08DBB2012213402B
:101FF000DBB210481A004021FEF775FFFB1D1B786D
:10200000DB08DBB201221340DBB20A481A00802150
:10201000FEF769FF074B012208211800FEF763FF56
:10202000044B002208211800FEF75DFFC046BD46A4
:1020300002B080BD0004005080B582B000AF020045
:10204000FB1D1A70BB1D0A1C1A70184B00220121BF
:102050001800FEF748FFC046FFF754FF031EFBD1F0
:10206000FB1D1B7811481A000121FEF73CFF0F4BA6
:10207000002202211800FEF736FF0C4B0022082137
:102080001800FEF730FFBB1D1B781B09DBB21800E0
:10209000FFF78CFFBB1D1B780F221340DBB218002B
:1020A000FFF784FFC046BD4602B080BD000400506B
:1020B00080B582B000AF224B002201211800FEF74C
:1020C00012FF1F4B002202211800FEF70CFF1C4BD1
:1020D000002208211800FEF706FF0F20FEF754FA31
:1020E000FB1D00221A700AE00320FFF75FFF0520A6
:1020F000FEF74AFAFB1D1A78FB1D01321A70FB1D10
:102100001B78022BF0D90220FFF750FFFB1D0022A5
:102110001A700CE0FB1D1B780A4AD35C19000020E2
:10212000FFF78AFFFB1D1A78FB1D01321A70FB1D99
:102130001B78032BEED9C046C046BD4602B080BD19
:10214000000400509427000880B582B000AF78608A
:102150007B681A68064B1B689A4204D1054B1B68C2
:102160005A1C044B1A60C046BD4602B080BDC04632
:1021700088000020C800002080B500AFFEF794F969
:1021800000F012F800F026F900F078F800F0E8F816
:1021900000F066F8FFF78CFF024B1800FFF7B2FC67
:1021A000FEE7C0468800002090B595B000AF182427
:1021B0003B19180038231A00002100F0D7FA3B1D04
:1021C000180014231A00002100F0D0FA224B1B68DB
:1021D000224A1A40204B802109010A431A6021003B
:1021E0007B1802221A607B180122DA607B18102209
:1021F0001A617B1802229A627B180022DA627B182D
:102200008022D2021A637B188022D2035A637B1881
:102210001800FEF785FE031E01D000F087F93B1D74
:102220000F221A603B1D03225A603B1D00229A6058
:102230003B1D0022DA603B1D00221A613B1D01217B
:102240001800FFF731FA031E01D000F06FF9C04605
:10225000BD4615B090BDC04600700040FFE7FFFFCF
:1022600080B500AF002200211120FEF777FC11207D
:10227000FEF789FCC046BD4680BD000080B582B037
:1022800000AF3B00180008231A00002100F06EFA8E
:10229000304B314A1A602F4B0022DA632D4B8022DB
:1022A000D2055A602B4B00229A602A4B07229A6370
:1022B000284B01221A61274B0022DA60254B20228D
:1022C00000219954234B212200219954214B0022B3
:1022D0009A62204BC222FF325A621E4B2C220021EE
:1022E00099541C4B04225A611A4B00221A63194B51
:1022F00000229A61174B00225A63164B0022DA61C2
:10230000144B1800FEF764F9031E01D000F00EF91B
:102310003B0001221A603B00802252015A603A00C1
:102320000C4B11001800FEF7C7FA031E01D000F095
:10233000FDF83B00094A1A603A00064B11001800EC
:10234000FEF7BAFA031E01D000F0F0F8C046BD4611
:1023500002B080BD2C0000200024014002000004D7
:1023600080B582B000AF3B00180008231A0000219E
:1023700000F0FCF9154B164A1A60144B1F225A60E4
:10238000124B00229A60114B0122DA600F4B80221F
:102390005A610E4B1800FFF775FB031E01D000F0C9
:1023A000C5F83B0000221A603B0000225A603A0048
:1023B000064B11001800FFF74DFD031E01D000F081
:1023C000B5F8C046BD4602B080BDC04688000020BA
:1023D0000010004090B589B000AF0C243B191800E4
:1023E00014231A00002100F0C1F94B4BDA6A4A4B62
:1023F00004210A43DA62484BDB6A04221340BB60C3
:10240000BB68454BDA6A444B01210A43DA62424B0E
:10241000DB6A012213407B607B683F4BDA6A3E4BEC
:1024200002210A43DA623C4BDB6A022213403B6022
:102430003B683A49A023DB0500221800FEF753FD54
:10244000F823D900A023DB0501221800FEF74BFD7D
:10245000334B0022FB211800FEF745FD3B19C0223B
:1024600012021A603B1900225A603B1901229A603D
:102470003B192C4A19001000FEF7A2FB3B191C2245
:102480001A603B1900225A603B1901229A603A19DE
:10249000A023DB0511001800FEF792FB3B19202258
:1024A0001A603B1911225A603B1900229A603B19AD
:1024B0000322DA603A19A023DB0511001800FEF7A9
:1024C0007FFB3B19184A1A603B1901225A603B19DD
:1024D00000229A603B190322DA603A19A023DB0537
:1024E00011001800FEF76CFB21007B18FB221A601C
:1024F0007B1801225A607B1800229A607B18032205
:10250000DA607B18064A19001000FEF759FBC04636
:10251000BD4609B090BDC0460010024020800000BA
:102520000004005000080050C087000080B500AFD4
:10253000C046BD4680BD000080B500AF074B5A6B5A
:10254000064B01210A435A63044B9A6B034B8021CB
:1025500049050A439A63C046BD4680BD001002404B
:1025600090B589B000AF78600C243B191800142393
:102570001A00002100F0FAF87B681B68144A9342A5
:1025800022D1144B5A6B134B802189000A435A63A2
:10259000104BDA6A0F4B01210A43DA620D4BDB6AFA
:1025A00001221340BB60BB683B1903221A603B1930
:1025B00003225A603B1900229A603A19A023DB05D6
:1025C00011001800FEF7FCFAC046BD4609B090BDE8
:1025D000002401400010024080B582B000AF786056
:1025E0007B681B68064A934205D1064B9A6B054BE4
:1025F00010210A439A63C046BD4602B080BDC04662
:10260000001000400010024080B500AFC046BD463B
:1026100080BD80B500AFFEE780B500AFC046BD46C7
:1026200080BD80B500AFC046BD4680BD80B500AF5F
:10263000FDF78EFFC046BD4680BD000080B500AFEF
:10264000034B1800FFF7AAFAC046BD4680BDC0463E
:102650008800002080B500AF174B1A68164B802108
:1026600049000A431A60144BDA68134B13490A40B5
:10267000DA60114B1A68104B11490A401A600E4B70
:102680009A680D4B01218A439A600B4B1A680A4BDA
:102690000C490A401A60084BDA68074B0A490A409D
:1026A000DA60054B00221A61084B802212059A60FD
:1026B000C046BD4680BDC046001002400C40FF88A9
:1026C000F6FFF6FEFFFFFBFFFFFF02FF00ED00E05D
:1026D0000D488546002103E00C4B5B584350043104
:1026E0000B480C4B42189A42F6D30B4A02E00023E7
:1026F00013600432094B9A42F9D3FFF7ABFF00F0A5
:1027000011F8FFF739FDFEE700200020C42700087C
:10271000000000200C0000200C000020CC00002055
:10272000FEE7000070B500260C4D0D4C641BA41094
:10273000A64209D1002600F021F80A4D0A4C641B7C
:10274000A410A64205D170BDB300EB5898470136DE
:10275000EEE7B300EB5898470136F2E7BC270008D4
:10276000BC270008BC270008C02700080300821807
:10277000934200D1704719700133F9E7F8B5C046AC
:10278000F8BC08BC9E467047F8B5C046F8BC08BC0B
:042790009E467047AA
:10279400280C0106000000000000000001020304F0
:1027A40006070809030406080C101820300000006E
:0827B40008DBFF7F01000000BB
:0427BC00E900000828
:0427C000C10000084C
:0C27C400040000000100000000002000E4
:04000005080026D1F8
:00000001FF
