:020000040800F2
:100000000020002009350008E9330008F333000818
:1000100000000000000000000000000000000000E0
:10002000000000000000000000000000F93300089C
:100030000000000000000000033400080D34000838
:100040005935000859350008593500085935000858
:100050005935000859350008593500085935000848
:100060005935000859350008593500081D34000875
:1000700059350008593500080000000059350008BE
:1000800000000000593500080000000000000000DA
:10009000593500080000000059350008593500089E
:1000A00059350008593500085935000859350008F8
:1000B000593500085935000800000000593500087E
:1000C00010B5064C2378002B07D1054B002B02D02E
:1000D000044800E000BF0123237010BD7800002019
:1000E00000000000A43E0008044B10B5002B03D014
:1000F0000349044800E000BF10BDC04600000000F6
:100100007C000020A43E00080023C25C0133002ACA
:10011000FBD1581E7047000003B4714649084000E7
:100120004900095E49008E4403BC70470022430821
:100130008B4274D303098B425FD3030A8B4244D3AF
:10014000030B8B4228D3030C8B420DD3FF220902F1
:1001500012BA030C8B4202D31212090265D0030BB0
:100160008B4219D300E0090AC30B8B4201D3CB03A6
:10017000C01A5241830B8B4201D38B03C01A5241E8
:10018000430B8B4201D34B03C01A5241030B8B42EA
:1001900001D30B03C01A5241C30A8B4201D3CB02D5
:1001A000C01A5241830A8B4201D38B02C01A5241BA
:1001B000430A8B4201D34B02C01A5241030A8B42BD
:1001C00001D30B02C01A5241CDD2C3098B4201D3D5
:1001D000CB01C01A524183098B4201D38B01C01A53
:1001E000524143098B4201D34B01C01A52410309CA
:1001F0008B4201D30B01C01A5241C3088B4201D379
:10020000CB00C01A524183088B4201D38B00C01A25
:10021000524143088B4201D34B00C01A5241411A4C
:1002200000D20146524110467047FFE701B5002059
:1002300000F006F802BDC0460029F7D076E7704707
:100240007047C046002B11D1002A0FD1002900D1E0
:10025000002802D00021C943080007B4024802A1C7
:100260004018029003BDC046D9FFFFFF03B46846A3
:1002700001B5029800F034F8019B9E4602B00CBC18
:100280007047C046F0B5CE46474680B50700994650
:100290003B0C9C4613041B0C1D000E006146000421
:1002A000140C000C45434B4360436143C0182C0CB5
:1002B00020188C46834203D980235B029846C444AD
:1002C000494679437243030C63442D042D0CC9182D
:1002D000000440198918C0BCB946B046F0BDC046FC
:1002E000F0B557464E464546DE46E0B504000D00E3
:1002F0009246994683B08B4230D82DD0494650461D
:1003000000F0BAF829000600200000F0B5F8331A12
:100310009846203B9B4633D45A4653469340424628
:100320001F00534693401E00AF423AD8AF4200D15F
:1003300078E05B46A41BBD41002B00DA75E000228B
:1003400000230092019301235A4693400193012315
:1003500042469340009328E08242CFD900220023F6
:10036000009201930C9B002B01D01C605D600098F3
:10037000019903B0F0BCBB46B246A946A046F0BD09
:10038000424620239B1A5246DA40414613004A4611
:100390008A40170042461F43534693401E00AF4217
:1003A000C4D900220023009201934346002BD9D0E8
:1003B000FB0772081A4346467B080EE0AB4201D1A8
:1003C000A2420CD8A41A9D41012024196D4100219C
:1003D000013E24184D41002E06D0AB42EED9013E1D
:1003E00024196D41002EF8D1009801995B4600193F
:1003F0006941002B24DB2B005A464446D3402A0097
:10040000E2401C005B461500002B2ADB26009E40C4
:10041000330026004746BE403200801A99410090C2
:1004200001919FE7A342BCD883E7424620230021E5
:100430009B1A0022009101920122DA40019286E784
:10044000424620239B1A2A0046469A402300F34046
:10045000444613432A00E2401C005B461500002B73
:10046000D4DA42462F002023260097409B1ADE4014
:100470003B003343CDE7C04610B5002903D100F05F
:1004800007F8203002E0080000F002F810BDC04676
:100490001C2101231B04984201D3000C10391B0AB4
:1004A000984201D3000A08391B09984201D3000978
:1004B000043902A2105C40187047C04604030202CF
:1004C000010101010000000000000000B0B586B08D
:1004D00000AF3B0080221A603B0000225A603B00C4
:1004E00000229A603B00224A1900100000F03EFEF4
:1004F0001F4B01220221180000F0CBFF1C4B0122F0
:100500000821180000F0C5FF17257C19184B802121
:10051000180000F0A1FF03002370154B00220821F2
:10052000180000F0B6FF124B01220821180000F05D
:10053000B0FF0F4B00220821180000F0AAFF3B007B
:1005400080221A603B0001225A603B0000229A6020
:100550003B000322DA603B00054A1900100000F05E
:1005600005FE7B191B781800BD4606B0B0BDC0461D
:100570000004005080B582B000AF0200FB1D1A706D
:10058000FB1D1B7801221340DBB21C481A0010210E
:1005900000F07FFFFB1D1B785B08DBB201221340DC
:1005A000DBB216481A00202100F073FFFB1D1B78F8
:1005B0009B08DBB201221340DBB210481A00402135
:1005C00000F067FFFB1D1B78DB08DBB20122134044
:1005D000DBB20A481A00802100F05BFF074B0122C2
:1005E0000821180000F055FF044B002208211800D4
:1005F00000F04FFFC046BD4602B080BD0004005071
:1006000080B582B000AF0200FB1D1A70BB1D0A1C32
:100610001A70184B00220121180000F03AFFC04662
:10062000FFF754FF031EFBD1FB1D1B7811481A0076
:10063000012100F02EFF0F4B00220221180000F0D4
:1006400028FF0C4B00220821180000F022FFBB1DE0
:100650001B781B09DBB21800FFF78CFFBB1D1B7852
:100660000F221340DBB21800FFF784FFC046BD46DF
:1006700002B080BD0004005080B582B000AF224BB4
:1006800000220121180000F004FF1F4B002202216C
:10069000180000F0FEFE1C4B00220821180000F09C
:1006A000F8FE0F2000F05EFAFB1D00221A700AE02F
:1006B0000320FFF75FFF052000F054FAFB1D1A78B6
:1006C000FB1D01321A70FB1D1B78022BF0D9022092
:1006D000FFF750FFFB1D00221A700CE0FB1D1B787A
:1006E0000A4AD35C19000020FFF78AFFFB1D1A7825
:1006F000FB1D01321A70FB1D1B78032BEED9C0467F
:10070000C046BD4602B080BD00040050F03E000867
:1007100080B584B000AF0200FB1D1A70BB1D0A1C1F
:100720001A70BB1D1B78012B04D00F23FB1840222D
:100730001A7003E00F23FB1800221A70FA1D0F2114
:100740007B1812781B78D318DAB27B18013A1A702A
:100750007B181B78802252421343DBB21900002021
:10076000FFF74EFFC046BD4604B080BD80B582B0E5
:1007700000AF0200FB1D1A70FB1D1B780C2B07D16C
:1007800001210020FFF73CFF022000F0EBF917E009
:10079000FB1D1B780A2B04D102210120FFF7B8FFB3
:1007A0000EE0FB1D1B78082B04D110210020FFF761
:1007B00027FF05E0FB1D1B7819000120FFF720FF34
:1007C000C046BD4602B080BD90B585B000AF786030
:1007D0000F23FB1800221A700DE00F243B191B7821
:1007E0007A68D3181B781800FFF7C0FF3B191A78F6
:1007F0003B1901321A700F23FB181C787B68180014
:10080000FFF782FC03009C42E7D3C046C046BD46CA
:1008100005B090BD80B582B000AF102002F0C8FED8
:1008200003001A000C4B1A60FFF726FF00237B60C1
:100830000AE0786800230022002100F06FF800F041
:100840009BF87B6801337B607B680B2BF1DDC04636
:10085000C046BD4602B080BD9C00002080B500AF00
:1008600001210020FFF754FF254B1B68254A11008A
:10087000180002F0A3FF224B1B681800FFF7A4FF2B
:1008800000210020FFF744FF1D4B18681E4B1B780A
:100890001A001E4B9200D2581D4B190002F08EFF19
:1008A000174B1B681800FFF78FFF00F051F902008B
:1008B000184B1B68D31A092B1FD9A023DB0508216D
:1008C000180000F0C9FD031E0FD1134B1B78002B3D
:1008D0000ED10D4B1B785A425341DBB21A000A4B22
:1008E0001A700D4B01221A7002E00B4B00221A7095
:1008F00000F02EF90200074B1A60C046BD4680BDCD
:100900009C000020DC3E0008950000200000002034
:10091000EC3E0008980000209400002080B584B0D0
:1009200000AFF860B9607A603B60FB68D9B2114BE8
:10093000FA689200D1547B68D9B20E4AFB689B00DA
:10094000D31801330A1C1A70BB68D9B2094AFB6874
:100950009B00D31802330A1C1A703B68D9B2054AAF
:10096000FB689B00D31803330A1C1A70C046BD46AF
:1009700004B080BDA400002080B586B000AF002385
:100980007B6100233B6138E0304A3B699B00D31810
:1009900001331B781A042D493B699B00CB180233A5
:1009A0001B781B02134329493A6992008A180332C3
:1009B000127813437B601723FB6018E00122FB6869
:1009C0009A4013001A007B68134005D0204B7A69C7
:1009D00052001A21D15204E01D4B7A6952000D21B8
:1009E000D1527B6901337B61FB68013BFB60FB6893
:1009F000002BE3DA3B6901333B613B690B2BC3DD21
:100A00000023BB600AE0124B7A6952000021D152E8
:100A10007B6901337B61BB680133BB60BB68312BF1
:100A2000F1DD7B699BB20A4A0A48002101F088FB8C
:100A3000C046094B1B78DBB2002BFAD0064B0022D4
:100A40001A70C046BD4606B080BDC046A400002056
:100A5000D40000207C030020A000002080B582B0DC
:100A600000AF7860054B0021180001F0F3FC044B47
:100A700001221A70C046BD4602B080BD7C03002032
:100A8000A000002080B582B000AFFB1D00221A70CC
:100A90000B4B1A680A4B40210A431A60002000F0F1
:100AA00011F8031E03D0FB1D01221A7001E002F0B1
:100AB00005FCFB1D1B781800BD4602B080BDC0467A
:100AC0000020024090B583B000AF7860144B1C68E2
:100AD000144B1B781900FA239800FFF727FB03003B
:100AE00019002000FFF722FB0300180000F02FF987
:100AF000031E01D001230FE07B68032B0BD879681C
:100B000001235B420022180000F0FCF8064B7A68D3
:100B10001A60002300E001231800BD4603B090BD19
:100B2000100000200C0000200800002080B500AF5D
:100B3000054B1B781A00054B1B68D218034B1A6033
:100B4000C046BD4680BDC0460C0000207803002092
:100B500080B500AF024B1B681800BD4680BDC04683
:100B60007803002080B584B000AF7860FFF7F0FF15
:100B70000300BB607B68FB60FB68013305D00A4B58
:100B80001B781A00FB689B18FB60C046FFF7E0FF6C
:100B90000200BB68D31AFA689A42F7D8C046C0462A
:100BA000BD4604B080BDC0460C00002080B582B0B8
:100BB00000AF0200FB1D1A70FB1D1B787F2B09D8AC
:100BC000FB1D1B781A001F231A40044B0121914082
:100BD0000A001A60C046BD4602B080BD00E100E0D8
:100BE00090B583B000AF02003960FB1D1A70FB1D89
:100BF0001B787F2B28D82F4AFB1D1B785BB29B08E4
:100C0000C0339B009B58FA1D1278110003220A4042
:100C1000D200FF2191400A00D2431A4011003B68E4
:100C20009B01FF221A40FB1D1B7818000323034081
:100C3000DB009A401F48FB1D1B785BB29B080A43F0
:100C4000C0339B001A5031E01B4AFB1D1B78190072
:100C50000F230B40083B9B0806339B00D31804333B
:100C60001B68FA1D1278110003220A40D200FF21EE
:100C700091400A00D2431A4011003B689B01FF22B9
:100C80001A40FB1D1B78180003230340DB009A4029
:100C90000948FB1D1B781C000F232340083B9B08C1
:100CA0000A4306339B00C31804331A60C046BD468E
:100CB00003B090BD00E100E000ED00E080B582B03F
:100CC00000AF78607B685A1E80235B049A4201D390
:100CD000012310E00A4B7A68013A5A6001235B4213
:100CE00003211800FFF77CFF054B00229A60044B9C
:100CF00007221A6000231800BD4602B080BDC0461E
:100D000010E000E080B584B000AFB9607A600F21D8
:100D10007B18021C1A70BA687B181B785BB2110032
:100D20001800FFF75DFFC046BD4604B080BD80B52A
:100D300082B000AF0200FB1D1A70FB1D1B785BB276
:100D40001800FFF733FFC046BD4602B080BD80B536
:100D500082B000AF78607B681800FFF7AFFF030038
:100D60001800BD4602B080BD80B584B000AF786089
:100D70007B68002B01D1012361E07B681B68324A4C
:100D80009446634414211800FFF7D0F903009A0039
:100D90007B685A647B682D4A1A647B68252202218D
:100DA00099547B681B681B68FB60FB68284A1340EA
:100DB000FB607B689A687B68DB681A437B681B6909
:100DC0001A437B685B691A437B689B691A437B689B
:100DD000DB691A437B681B6A1343FA681343FB60A1
:100DE0007B681B68FA681A607B689A688023DB015D
:100DF0009A4218D0174B1A687B685B6C1C210B4019
:100E00000F2199400B00D943124B0A401A60114B35
:100E100019687B685A687B685B6C1C2003409A40A9
:100E20000C4B0A431A607B680022DA637B68252238
:100E3000012199547B682422002199540023180031
:100E4000BD4604B080BDC046F8FFFDBF00000240B3
:100E50000F80FFFFA800024080B586B000AFF860A9
:100E6000B9607A603B601723FB1800221A70FB6898
:100E700024229B5C012B01D102234FE0FB6824223A
:100E800001219954FB6825229B5CDBB2012B3AD1EE
:100E9000FB68252202219954FB680022DA63FB6873
:100EA0001B681A68FB681B6801218A431A603B684B
:100EB0007A68B968F86800F02AF9FB681B6B002BA8
:100EC00008D0FB681B681A68FB681B680E210A4380
:100ED0001A600FE0FB681B681A68FB681B68042136
:100EE0008A431A60FB681B681A68FB681B680A2142
:100EF0000A431A60FB681B681A68FB681B680121BB
:100F00000A431A6007E0FB68242200219954172342
:100F1000FB1802221A701723FB181B781800BD4615
:100F200006B080BD80B584B000AF78600F217B181B
:100F300000221A707B6825229B5CDBB2022B06D054
:100F40007B680422DA637B1801221A702AE07B682E
:100F50001B681A687B681B680E218A431A607B68CD
:100F60001B681A687B681B6801218A431A607B68CA
:100F70005B6C1C221A407B681B6C012191400A00AB
:100F80005A607B682522012199547B682422002124
:100F900099547B689B6B002B04D07B689B6B7A68B1
:100FA000100098470F23FB181B781800BD4604B0AB
:100FB00080BD80B584B000AF78607B681B6C1B6817
:100FC000FB607B681B681B68BB607B685B6C1C22DA
:100FD000134004229A401300FA68134026D0BB68DD
:100FE0000422134022D07B681B681B682022134018
:100FF00007D17B681B681A687B681B6804218A43D9
:101000001A607B685B6C1C221A407B681B6C042195
:1010100091400A005A607B681B6B002B00D171E085
:101020007B681B6B7A68100098476BE07B685B6C91
:101030001C22134002229A401300FA6813402DD05C
:10104000BB680222134029D07B681B681B682022E2
:1010500013400BD17B681B681A687B681B680A21E8
:101060008A431A607B682522012199547B685B6C56
:101070001C221A407B681B6C022191400A005A60B6
:101080007B682422002199547B68DB6A002B39D0CD
:101090007B68DB6A7A681000984733E07B685B6C9A
:1010A0001C22134008229A401300FA6813402AD0E9
:1010B000BB680822134026D07B681B681A687B68CF
:1010C0001B680E218A431A607B685B6C1C221A40E5
:1010D0007B681B6C012191400A005A607B680122E9
:1010E000DA637B682522012199547B682422002140
:1010F00099547B685B6B002B05D07B685B6B7A68CF
:1011000010009847C046C046BD4604B080BD80B5BB
:1011100084B000AFF860B9607A603B60FB685B6CDC
:101120001C221A40FB681B6C012191400A005A6086
:10113000FB681B683A685A60FB689B68102B08D1F3
:10114000FB681B687A689A60FB681B68BA68DA609B
:1011500007E0FB681B68BA689A60FB681B687A68DE
:10116000DA60C046BD4604B080BD000080B586B0E0
:1011700000AF7860396000237B610023FB600023AF
:101180003B614FE13B681B6801217A6991400A008D
:101190001340FB60FB68002B00D140E13B685B68BB
:1011A00003221340012B05D03B685B6803221340E8
:1011B000022B30D17B689B683B617B695B0003221B
:1011C0009A401300DA433B6913403B613B68DA689D
:1011D0007B695B009A4013003A6913433B617B686B
:1011E0003A699A607B685B683B6101227B699A403F
:1011F0001300DA433B6913403B613B685B681B09A2
:1012000001221A407B699A4013003A6913433B61FB
:101210007B683A695A603B685B6803221340032B82
:1012200017D07B68DB683B617B695B0003229A40D7
:101230001300DA433B6913403B613B689A687B6962
:101240005B009A4013003A6913433B617B683A693B
:10125000DA603B685B6803221340022B23D17B6971
:10126000DA087B6808329200D3583B617B69072219
:1012700013409B000F229A401300DA433B6913404E
:101280003B613B681A697B6907210B409B009A40D0
:1012900013003A6913433B617B69DA087B680832C3
:1012A00092003969D1507B681B683B617B695B00A8
:1012B00003229A401300DA433B6913403B613B68C9
:1012C0005B6803221A407B695B009A4013003A690D
:1012D00013433B617B683A691A603B685A68C023D4
:1012E0009B02134000D19AE0544B5A6B534B01219F
:1012F0000A435A63524A7B699B0802339B009B58FE
:101300003B617B69032213409B000F229A4013002C
:10131000DA433B6913403B617A68A023DB059A42BC
:1013200019D07B68474A934213D07B68464A934260
:101330000DD07B68454A934207D07B68444A93426C
:1013400001D1052308E0062306E0032304E002237D
:1013500002E0012300E000237A6903210A409200A1
:1013600093403A6913433B6135497B699B080233DB
:101370009B003A695A50374B1B683B61FB68DA4364
:101380003B6913403B613B685A6880235B02134012
:1013900003D03A69FB6813433B612E4B3A691A60EC
:1013A0002C4B5B683B61FB68DA433B6913403B6154
:1013B0003B685A6880239B02134003D03A69FB685C
:1013C00013433B61234B3A695A60224B9B683B6154
:1013D000FB68DA433B6913403B613B685A688023F2
:1013E0005B03134003D03A69FB6813433B61194B1D
:1013F0003A699A60174BDB683B61FB68DA433B69EB
:1014000013403B613B685A6880239B03134003D021
:101410003A69FB6813433B610E4B3A69DA607B69BA
:1014200001337B613B681A687B69DA40131E00D088
:10143000A8E6C046C046BD4606B080BD00100240CA
:10144000000001400004005000080050000C005053
:10145000001C00500004014080B584B000AF7860EB
:101460000A00BB1C1A807B681B69BA1C12881340D7
:1014700004D00F23FB1801221A7003E00F23FB187E
:1014800000221A700F23FB181B781800BD4604B009
:1014900080BD80B582B000AF786008001100BB1C31
:1014A000021C1A807B1C0A1C1A707B1C1B78002BE8
:1014B00004D0BB1C1A887B689A6103E0BB1C1A88A5
:1014C0007B689A62C046BD4602B080BDB0B58AB0A6
:1014D00000AF78607B68002B02D1012300F0AFFBE6
:1014E000CF4BDB680C2213403B62CD4BDA68802384
:1014F0005B021340FB617B681B680122134000D133
:101500007EE03B6A082B07D03B6A0C2B12D1FA69AC
:1015100080235B029A420DD1C14B1A6880239B0243
:10152000134000D16BE07B685B68002B67D101231F
:1015300000F085FB7B685A6880235B029A4207D1E2
:10154000B74B1A68B64B802149020A431A6027E05C
:101550007B685A68A023DB029A420ED1B04B1A680E
:10156000AF4B8021C9020A431A60AD4B1A68AC4BDD
:10157000802149020A431A6012E0A94B1A68A84B5D
:10158000A8490A401A60A64B1A6880235B021340E0
:10159000FB60FB68A24B1A68A14BA3490A401A6082
:1015A0007B685B68002B15D0FFF7D2FA0300BB61A4
:1015B00009E0FFF7CDFA0200BB69D31A642B02D908
:1015C000032300F03CFB964B1A6880239B021340D8
:1015D000EFD015E0FFF7BCFA0300BB6108E0FFF7AE
:1015E000B7FA0200BB69D31A642B01D9032326E39F
:1015F0008B4B1A6880239B021340F0D100E0C04659
:101600007B681B680222134000D18BE07B68DB689B
:101610007B613B6A042B05D03B6A0C2B3ED1FB69F6
:10162000002B3BD17E4B1B680422134004D07B6906
:10163000002B01D1012302E3794B5B687B4A134005
:1016400019007B681B691A02754B0A435A60744B78
:101650001B68092293431900714B7A690A431A6087
:1016600000F040FC01006E4BDB681B090F221340A9
:101670006F4AD35C0A00DA406E4B1A606E4B1B68EF
:1016800013257C191800FFF71DFA030023707B193E
:101690001B78002B46D07B191B78D0E27B69002B8E
:1016A00027D05F4B1B680922934319005C4B7A6972
:1016B0000A431A60FFF74CFA0300BB6108E0FFF72A
:1016C00047FA0200BB69D31A022B01D90323B6E201
:1016D000534B1B6804221340F1D0514B5B68534AB3
:1016E000134019007B681B691A024D4B0A435A606C
:1016F00018E04B4B1A684A4B01218A431A60FFF7E6
:1017000027FA0300BB6108E0FFF722FA0200BB6979
:10171000D31A022B01D9032391E2414B1B68042207
:101720001340F1D17B681B681022134000D1A1E067
:101730003B6A002B40D13A4B1A6880239B00134030
:1017400005D07B68DB69002B01D1012377E2344BA4
:101750005B683A4A134019007B685A6A304B0A4367
:101760005A602F4B5B681B02190A7B681B6A1A06BA
:101770002B4B0A435A607B685B6A5B0B0133802208
:1017800012029A40264BDB681B090F210B402849A7
:10179000CB5CDA40274B1A60274B1B6813257C195A
:1017A0001800FFF78FF9030023707B191B78002BBB
:1017B00060D07B191B7842E27B68DB69002B3FD04D
:1017C000174B1A68164B802149000A431A60FFF72D
:1017D000BFF90300BB6108E0FFF7BAF90200BB697B
:1017E000D31A022B01D9032329E20D4B1A68802357
:1017F0009B001340F0D00A4B5B68104A134019005D
:101800007B685A6A064B0A435A60054B5B681B02A9
:10181000190A7B681B6A1A06014B0A435A6029E0C1
:1018200000100240FFFFFEFFFFFFFBFFFFE0FFFF96
:10183000F43E00081000002008000020FF1FFFFFFA
:10184000BD4B1A68BC4BBD490A401A60FFF780F9CE
:101850000300BB6108E0FFF77BF90200BB69D31A04
:10186000022B01D90323EAE1B34B1A6880239B00C2
:101870001340F0D17B681B680822134036D07B6888
:101880005B69002B19D0AC4B1A6DAB4B01210A439D
:101890001A65FFF75DF90300BB6108E0FFF758F92F
:1018A0000200BB69D31A022B01D90323C7E1A24B63
:1018B0001B6D02221340F1D018E09F4B1A6D9E4B16
:1018C00001218A431A65FFF743F90300BB6108E071
:1018D000FFF73EF90200BB69D31A022B01D903239B
:1018E000ADE1954B1B6D02221340F1D17B681B6863
:1018F0000422134000D1AEE027203B1800221A70CA
:101900008D4B9A6B80235B05134009D18A4B9A6BF0
:10191000894B802149050A439A633B1801221A70BA
:10192000874B1A6880235B0013401AD1844B1A68D6
:10193000834B802149000A431A60FFF709F903002D
:10194000BB6108E0FFF704F90200BB69D31A642BFE
:1019500001D9032373E17A4B1A6880235B0013409B
:10196000F0D07B689A6880235B009A4207D1724B63
:101970001A6D714B802149000A431A6531E07B687A
:101980009B68002B0CD16C4B1A6D6B4B6B490A405A
:101990001A65694B1A6D684B6A490A401A6520E05E
:1019A0007B689A68A023DB009A420ED1624B1A6DC5
:1019B000614B8021C9000A431A655F4B1A6D5E4B6B
:1019C000802149000A431A650BE05B4B1A6D5A4BA4
:1019D0005A490A401A65584B1A6D574B59490A40E3
:1019E0001A657B689B68002B15D0FFF7B1F80300E0
:1019F000BB6109E0FFF7ACF80200BB69D31A524A99
:101A0000934201D903231AE14B4B1A6D80239B00AB
:101A10001340EFD014E0FFF79BF80300BB6109E02F
:101A2000FFF796F80200BB69D31A474A934201D9DF
:101A3000032304E1404B1A6D80239B001340EFD138
:101A40002723FB181B78012B05D13B4B9A6B3A4B94
:101A50003E490A409A637B681B682022134049D0A4
:101A60007B689B69002B26D0334B9A68324B01214F
:101A70000A439A60304B5A6B2F4B01210A435A6339
:101A8000334B1A6A324B802189010A431A62FFF7ED
:101A90005FF80300BB6108E0FFF75AF80200BB697A
:101AA000D31A022B01D90323C9E0234B9B680222DE
:101AB0001340F1D01EE0204B9A681F4B01218A434E
:101AC0009A60234B1A6A224B22490A401A62FFF796
:101AD0003FF80300BB6108E0FFF73AF80200BB697A
:101AE000D31A022B01D90323A9E0134B9B680222CE
:101AF0001340F1D17B689B6A002B00D19EE03B6ACA
:101B00000C2B00D177E07B689B6A022B58D10A4BE3
:101B10001A68094B10490A401A60FFF719F80300C8
:101B2000BB611BE0FFF714F80200BB69D31A022B5C
:101B300014D9032383E0C04600100240FFFEFFFFDC
:101B400000700040FFFBFFFF88130000FFFFFFEF66
:101B500000000140FFDFFFFFFFFFFFFE3A4B1A6866
:101B600080239B041340DDD1374BDB68374A134099
:101B700019007B68DA6A7B681B6B1A437B685B6BB6
:101B80001A43314B0A43DA602F4B1A682E4B8021DF
:101B900049040A431A60FEF7DBFF0300BB6108E05B
:101BA000FEF7D6FF0200BB69D31A022B01D903232B
:101BB00045E0254B1A6880239B041340F0D03DE09C
:101BC000214B1A68204B22490A401A60FEF7C0FFD9
:101BD0000300BB6108E0FEF7BBFF0200BB69D31A3C
:101BE000022B01D903232AE0174B1A6880239B0498
:101BF0001340F0D122E07B689B6A012B01D10123C5
:101C00001DE0114BDB68FB61FA6980235B021A401F
:101C10007B68DB6A9A420FD1FA69F0239B031A4072
:101C20007B681B6B9A4207D1FA69C0231B041A40D8
:101C30007B685B6B9A4201D0012300E0002318000F
:101C4000BD460AB0B0BDC04600100240FFFF02FF13
:101C5000FFFFFFFEB0B584B000AF786039607B68ED
:101C6000002B01D1012328E1964B1B680122134070
:101C70003A689A421ED9934B1B680122934319007C
:101C8000904B3A680A431A60FEF762FF0300FB605C
:101C900009E0FEF75DFF0200FB68D31A8A4A93420F
:101CA00001D9032309E1874B1B68012213403A68DD
:101CB0009A42EED17B681B680222134009D0834B05
:101CC000DB68F022934319007B689A687F4B0A43D4
:101CD000DA607B681B680122134000D189E07B68D1
:101CE0005B68022B07D1794B1A6880239B02134053
:101CF00020D10123E1E07B685B68032B07D1734BA4
:101D00001A6880239B04134014D10123D5E07B681B
:101D10005B68012B06D16D4B1B680422134009D16F
:101D20000123CAE0694B1A6880239B00134001D14C
:101D30000123C2E0654BDB680322934319007B68F3
:101D40005A68624B0A43DA60FEF702FF0300FB6049
:101D50007B685B68022B11D109E0FEF7F9FE0200F7
:101D6000FB68D31A584A934201D90323A5E0574B85
:101D7000DB680C221340082BEFD13AE07B685B68EC
:101D8000032B11D109E0FEF7E3FE0200FB68D31A32
:101D90004D4A934201D903238FE04C4BDB680C2260
:101DA00013400C2BEFD124E07B685B68012B1BD127
:101DB00009E0FEF7CDFE0200FB68D31A424A9342C7
:101DC00001D9032379E0414BDB680C221340042B3B
:101DD000EFD10EE0FEF7BCFE0200FB68D31A3A4AD0
:101DE000934201D9032368E0384BDB680C2213408F
:101DF000F0D1344B1B68012213403A689A421ED23C
:101E0000304B1B680122934319002E4B3A680A435A
:101E10001A60FEF79DFE0300FB6009E0FEF798FEE6
:101E20000200FB68D31A284A934201D9032344E0F5
:101E3000244B1B68012213403A689A42EED17B681A
:101E40001B680422134009D0204BDB68204A134052
:101E500019007B68DA681D4B0A43DA607B681B68EF
:101E6000082213400AD0194BDB681A4A13401900A4
:101E70007B681B69DA00154B0A43DA6000F032F820
:101E80000100124BDB681B090F221340124AD35C7E
:101E90000A00DA40114B1A60114B1B680B257C19A4
:101EA0001800FEF70FFE030023707B191B78002B30
:101EB00002D07B191B7800E000231800BD4604B057
:101EC000B0BDC04600200240881300000010024050
:101ED000FFF8FFFFFFC7FFFFF43E000810000020DF
:101EE00008000020B0B58EB000AF4C4BDB68FB6241
:101EF000FA6A0C2313400C2B14D000D97BE0042B7E
:101F000002D0082B0BD076E0444B1B681022134004
:101F100002D0434B3B637CE0424B3B6379E0424B56
:101F20003B6376E0FB6A9A0C0F231A403F4B9B5CA5
:101F3000BB62FB6A9A0D0323134001337B62374B6C
:101F4000DA6880235B0213401AD0BB6ABB610023AE
:101F5000FB61354A0023B869F969FEF793F902007D
:101F60000B00100019007B6A3B6100237B613A691A
:101F70007B69FEF767F902000B0013007B6337E013
:101F8000264B1B68102213401AD0BB6ABB6000238B
:101F9000FB60234A0023B868F968FEF773F9020072
:101FA0000B00100019007B6A3B6000237B603A68DD
:101FB0007B68FEF747F902000B0013007B6317E014
:101FC000BB6A180000231900164A0023FEF75AF9CD
:101FD00002000B00100019007B6A1C0000231D008A
:101FE00022002B00FEF72EF902000B0013007B638A
:101FF0007B6B3B630DE0094B5B685B0B0722134077
:102000003B623B6A0133802212029A4013003B6319
:10201000C0463B6B1800BD460EB0B0BD001002407C
:1020200000093D000024F40000127A00043F00087B
:1020300080B582B000AF78607B68002B01D10123AE
:1020400032E07B6839229B5CDBB2002B07D17B68D6
:102050003822002199547B68180001F043F97B680D
:102060003922022199547B681A687B68043319006D
:10207000100000F00DFD7B683E22012199547B6821
:102080003A22012199547B683B22012199547B68B3
:102090003C22012199547B683D22012199547B689F
:1020A00039220121995400231800BD4602B080BD99
:1020B00080B582B000AF78607B68002B01D101232E
:1020C00032E07B6839229B5CDBB2002B07D17B6856
:1020D0003822002199547B68180000F029F87B68A9
:1020E0003922022199547B681A687B6804331900ED
:1020F000100000F0CDFC7B683E22012199547B68E2
:102100003A22012199547B683B22012199547B6832
:102110003C22012199547B683D22012199547B681E
:1021200039220121995400231800BD4602B080BD18
:1021300080B582B000AF7860C046BD4602B080BDB9
:1021400080B586B000AFF860B9607A601A00BB1C39
:102150001A801723FB1800221A70BB68002B08D1C5
:10216000FB683A229B5CDBB2023B5A425341DBB232
:102170001FE0BB68042B08D1FB683B229B5CDBB2F1
:10218000023B5A425341DBB213E0BB68082B08D133
:10219000FB683C229B5CDBB2023B5A425341DBB200
:1021A00007E0FB683D229B5CDBB2023B5A42534195
:1021B000DBB2002B01D002233DE1BB68002B08D12C
:1021C000FB683A229B5CDBB2013B5A425341DBB2D3
:1021D0001FE0BB68042B08D1FB683B229B5CDBB291
:1021E000013B5A425341DBB213E0BB68082B08D1D4
:1021F000FB683C229B5CDBB2013B5A425341DBB2A1
:1022000007E0FB683D229B5CDBB2013B5A42534135
:10221000DBB2002B25D07B68002B05D1BB1C1B88B3
:10222000002B01D0012306E1BB68002B04D1FB6821
:102230003A220221995416E0BB68042B04D1FB68B2
:102240003B22022199540EE0BB68082B04D1FB68A5
:102250003C220221995406E0FB683D220221995458
:1022600001E00123E7E0BB680C2B00D180E0BB68F4
:102270000C2B00D9A1E0BB68082B54D0BB68082BFD
:1022800000D99AE0BB68002B03D0BB68042B25D093
:1022900093E0FB681B6A6A4ADA62FB681B6A694A58
:1022A0001A63FB681B6A684A5A63FB68186A796894
:1022B000FB681B6834331A00BB1C1B88FEF7CCFD7F
:1022C000031E01D00123B6E0FB681B68DA68FB68D7
:1022D0001B68802189000A43DA6073E0FB685B6A4F
:1022E000574ADA62FB685B6A564A1A63FB685B6AA4
:1022F000554A5A63FB68586A7968FB681B6838332B
:102300001A00BB1C1B88FEF7A7FD031E01D001238A
:1023100091E0FB681B68DA68FB681B688021C900D4
:102320000A43DA604EE0FB689B6A454ADA62FB6862
:102330009B6A444A1A63FB689B6A434A5A63FB6878
:10234000986A7968FB681B683C331A00BB1C1B88C1
:10235000FEF782FD031E01D001236CE0FB681B68C1
:10236000DA68FB681B68802109010A43DA6029E00A
:10237000FB68DB6A324ADA62FB68DB6A314A1A635D
:10238000FB68DB6A304A5A63FB68D86A7968FB6885
:102390001B6840331A00BB1C1B88FEF75DFD031E43
:1023A00001D0012347E0FB681B68DA68FB681B6803
:1023B000802149010A43DA6004E01723FB18012257
:1023C0001A70C0461723FB181B78002B30D1FB680E
:1023D0001B68B9680122180000F04CFDFB681A6800
:1023E0008023DB059A4209D0FB681B68174A934299
:1023F00004D0FB681B68164A934211D1FB681B6826
:102400009B68072213403B613B69062B10D0FB6899
:102410001B681A68FB681B6801210A431A6007E001
:10242000FB681B681A68FB681B6801210A431A6075
:102430001723FB181B781800BD4606B080BDC046A8
:102440007D290008272A0008E92800080008014023
:102450000014014080B584B000AF786039600F236C
:10246000FB1800221A703B680C2B39D03B680C2BF0
:1024700044D83B68082B25D03B68082B3ED83B68E6
:10248000002B03D03B68042B0ED037E07B681B6821
:10249000DA687B681B683A490A40DA607B681B6A25
:1024A0001800FEF73FFD2EE07B681B68DA687B684A
:1024B0001B6834490A40DA607B685B6A1800FEF7E3
:1024C00031FD20E07B681B68DA687B681B682E4959
:1024D0000A40DA607B689B6A1800FEF723FD12E071
:1024E0007B681B68DA687B681B6828490A40DA60E9
:1024F0007B68DB6A1800FEF715FD04E00F23FB186C
:1025000001221A70C0460F23FB181B78002B30D114
:102510007B681B6839680022180000F0ABFC7B6800
:102520001B681B6A1A4A134007D17B681B681A682C
:102530007B681B6801218A431A603B68002B04D129
:102540007B683A220121995413E03B68042B04D1A3
:102550007B683B22012199540BE03B68082B04D196
:102560007B683C220121995403E07B683D220121D4
:1025700099540F23FB181B781800BD4604B080BD8A
:10258000FFFDFFFFFFFBFFFFFFF7FFFFFFEFFFFF79
:102590001111000080B586B000AFF860B9607A60B4
:1025A0001723FB1800221A70FB6838229B5C012B52
:1025B00001D10223ADE0FB683822012199547B68E8
:1025C0000C2B00D176E07B680C2B00D995E07B6862
:1025D000082B4ED07B68082B00D98EE07B68002B3F
:1025E00003D07B68042B21D087E0FB681B68BA68A6
:1025F0001100180000F0A0FAFB681B689A69FB68DC
:102600001B6808210A439A61FB681B689A69FB688A
:102610001B6804218A439A61FB681B689969BB683F
:10262000DA68FB681B680A439A616BE0FB681B6809
:10263000BA681100180000F0BBFAFB681B689A69C1
:10264000FB681B68802109010A439A61FB681B68CB
:102650009A69FB681B6831490A409A61FB681B68EC
:102660009969BB68DB681A02FB681B680A439A61B8
:1026700048E0FB681B68BA681100180000F0DAFA3D
:10268000FB681B68DA69FB681B6808210A43DA618A
:10269000FB681B68DA69FB681B6804218A43DA61FE
:1026A000FB681B68D969BB68DA68FB681B680A436A
:1026B000DA6127E0FB681B68BA681100180000F0B7
:1026C000F9FAFB681B68DA69FB681B68802109015D
:1026D0000A43DA61FB681B68DA69FB681B680F490B
:1026E0000A40DA61FB681B68D969BB68DB681A02BB
:1026F000FB681B680A43DA6104E01723FB18012218
:102700001A70C046FB683822002199541723FB1821
:102710001B781800BD4606B080BDC046FFFBFFFF1A
:1027200080B584B000AF786039600F23FB180022B9
:102730001A707B6838229B5C012B01D10223BCE01C
:102740007B683822012199547B68392202219954EF
:102750007B681B689B68BB60BB6877229343BB6048
:10276000BB68584A1340BB607B681B68BA689A60B4
:102770003B681B6880229201934240D080229201E4
:10278000934200D988E080225201934200D188E030
:1027900080225201934200D97EE0702B18D000D9DC
:1027A0007AE0602B4FD000D976E0502B3BD000D997
:1027B00072E0402B57D000D96EE0302B63D06BD83D
:1027C000202B60D068D8002B5DD0102B5BD063E04D
:1027D0007B6818683B6899683B685A683B68DB68A7
:1027E00000F028FB7B681B689B68BB60BB68772296
:1027F0001343BB607B681B68BA689A6052E07B68D1
:1028000018683B6899683B685A683B68DB6800F069
:1028100011FB7B681B689A687B681B688021C90173
:102820000A439A603EE07B6818683B6859683B68D9
:10283000DB681A0000F084FA7B681B6850211800DE
:1028400000F0DEFA2EE07B6818683B6859683B6848
:10285000DB681A0000F0A2FA7B681B686021180090
:1028600000F0CEFA1EE07B6818683B6859683B6848
:10287000DB681A0000F064FA7B681B6840211800CE
:1028800000F0BEFA0EE07B681A683B681B6819000E
:10289000100000F0B5FA05E00F23FB1801221A70B2
:1028A00000E0C0467B683922012199547B683822B8
:1028B000002199540F23FB181B781800BD4604B063
:1028C00080BDC046FF00FFFF80B582B000AF7860DA
:1028D000C046BD4602B080BD80B582B000AF786012
:1028E000C046BD4602B080BD80B584B000AF786000
:1028F0007B689B6AFB60FB681B6A7A689A4207D117
:10290000FB6801221A76FB683A22012199542AE0D9
:10291000FB685B6A7A689A4207D1FB6802221A76E2
:10292000FB683B22012199541DE0FB689B6A7A6891
:102930009A4207D1FB6804221A76FB683C220121E7
:10294000995410E0FB68DB6A7A689A4207D1FB6809
:1029500008221A76FB683D220121995403E0FB68A6
:10296000392201219954FB681800FFF7B5FFFB6875
:1029700000221A76C046BD4604B080BD80B584B042
:1029800000AF78607B689B6AFB60FB681B6A7A68B3
:102990009A420BD1FB6801221A767B68DB69002B17
:1029A00036D1FB683A220121995431E0FB685B6A19
:1029B0007A689A420BD1FB6802221A767B68DB693F
:1029C000002B25D1FB683B220121995420E0FB68B4
:1029D0009B6A7A689A420BD1FB6804221A767B685C
:1029E000DB69002B14D1FB683C22012199540FE0D4
:1029F000FB68DB6A7A689A420AD1FB6808221A7679
:102A00007B68DB69002B03D1FB683D2201219954CF
:102A1000FB681800FEF722F8FB6800221A76C04611
:102A2000BD4604B080BD80B584B000AF78607B68DF
:102A30009B6AFB60FB681B6A7A689A4203D1FB6859
:102A400001221A7619E0FB685B6A7A689A4203D120
:102A5000FB6802221A7610E0FB689B6A7A689A4249
:102A600003D1FB6804221A7607E0FB68DB6A7A6808
:102A70009A4202D1FB6808221A76FB681800FFF719
:102A800023FFFB6800221A76C046BD4604B080BD15
:102A900080B584B000AF786039607B681B68FB60EC
:102AA0007A688023DB059A4207D07B681F4A9342ED
:102AB00003D07B681E4A934208D1FB68702293437F
:102AC000FB603B685B68FA681343FB607A688023AD
:102AD000DB059A4207D07B68144A934203D07B6897
:102AE000134A934208D1FB68124A1340FB603B68CB
:102AF000DB68FA681343FB60FB68802293431A008B
:102B00003B681B691343FB607B68FA681A603B688B
:102B10009A687B68DA623B681A687B689A627B68AD
:102B200001225A61C046BD4604B080BD0008014084
:102B300000140140FFFCFFFF80B586B000AF786055
:102B400039607B681B6A012293431A007B681A6212
:102B50007B681B6A7B617B685B683B617B689B6908
:102B6000FB60FB6870229343FB60FB680322934386
:102B7000FB603B681B68FA681343FB607B690222B9
:102B800093437B613B689B687A6913437B617B68F5
:102B90003A695A607B68FA689A613B685A687B6850
:102BA0005A637B687A691A62C046BD4606B080BD2A
:102BB00080B586B000AF786039607B681B6A1022F0
:102BC00093431A007B681A627B681B6A7B617B688F
:102BD0005B683B617B689B69FB60FB68134A134041
:102BE000FB60FB68124A1340FB603B681B681B02DA
:102BF000FA681343FB607B69202293437B613B6847
:102C00009B681B017A6913437B617B683A695A6050
:102C10007B68FA689A613B685A687B689A637B684C
:102C20007A691A62C046BD4606B080BDFF8FFFFFBD
:102C3000FFFCFFFF80B586B000AF786039607B682D
:102C40001B6A1A4A1A407B681A627B681B6A7B619E
:102C50007B685B683B617B68DB69FB60FB687022BB
:102C60009343FB60FB6803229343FB603B681B6854
:102C7000FA681343FB607B690D4A13407B613B6834
:102C80009B681B027A6913437B617B683A695A60CF
:102C90007B68FA68DA613B685A687B68DA637B684C
:102CA0007A691A62C046BD4606B080BDFFFEFFFFCE
:102CB000FFFDFFFF80B586B000AF786039607B68AC
:102CC0001B6A1B4A1A407B681A627B681B6A7B611D
:102CD0007B685B683B617B68DB69FB60FB68154A6E
:102CE0001340FB60FB68144A1340FB603B681B68A1
:102CF0001B02FA681343FB607B69104A13407B6137
:102D00003B689B681B037A6913437B617B683A6964
:102D10005A607B68FA68DA613B685A687B681A64B3
:102D20007B687A691A62C046BD4606B080BDC0465F
:102D3000FFEFFFFFFF8FFFFFFFFCFFFFFFDFFFFF46
:102D400080B586B000AFF860B9607A60FB681B6A36
:102D50007B61FB681B6A012293431A00FB681A62BD
:102D6000FB689B693B613B69F02293433B617B6855
:102D70001B013A6913433B617B690A2293437B61E0
:102D80007A69BB6813437B61FB683A699A61FB68A7
:102D90007A691A62C046BD4606B080BD80B586B06D
:102DA00000AFF860B9607A60FB681B6A1022934339
:102DB0001A00FB681A62FB689B697B61FB681B6AEF
:102DC0003B617B690D4A13407B617B681B037A6919
:102DD00013437B613B69A02293433B61BB681B01AA
:102DE0003A6913433B61FB687A699A61FB683A6907
:102DF0001A62C046BD4606B080BDC046FF0FFFFF49
:102E000080B584B000AF786039607B689B68FB60F8
:102E1000FB6870229343FB603A68FB681343072208
:102E20001343FB607B68FA689A60C046BD4604B0F5
:102E300080BD000080B586B000AFF860B9607A60F0
:102E40003B60FB689B687B617B69094A13407B613F
:102E50003B681A027B681A43BB6813437A691343C1
:102E60007B61FB687A699A60C046BD4606B080BD4A
:102E7000FF00FFFF80B586B000AFF860B9607A60F0
:102E8000BB681F22134001229A4013007B61FB683C
:102E90001B6A7A69D2431A40FB681A62FB681A6A95
:102EA000BB681F210B40796899400B001A43FB68EF
:102EB0001A62C046BD4606B080BD000080B584B031
:102EC00000AF786039607B6838229B5C012B01D1B0
:102ED000022342E07B683822012199547B68392221
:102EE000022199547B681B685B68FB607B681B68E8
:102EF0009B68BB60FB6870229343FB603B681B6868
:102F0000FA681343FB607B681B68FA685A607B6849
:102F10001A688023DB059A4209D07B681B68114A36
:102F2000934204D07B681B680F4A93420CD1BB6864
:102F300080229343BB603B685B68BA681343BB6005
:102F40007B681B68BA689A607B68392201219954B2
:102F50007B6838220021995400231800BD4604B034
:102F600080BDC046000801400014014080B500AF9C
:102F7000FDF788FD00F00CF800F002F900F0E2F82F
:102F800000F062F8FDF746FCFDF768FCFCE7000086
:102F900090B595B000AF18243B19180038231A00DB
:102FA000002100F00FFB3B1D180014231A00002124
:102FB00000F008FB224B1B68224A1A40204B80215C
:102FC00009010A431A6021007B1802221A607B184B
:102FD0000122DA607B1810221A617B1802229A62A1
:102FE0007B180022DA627B188022D2021A637B18D7
:102FF0008022D2035A637B181800FEF767FA031E7B
:1030000001D000F055F93B1D0F221A603B1D032231
:103010005A603B1D00229A603B1D0022DA603B1D76
:1030200000221A613B1D01211800FEF713FE031E4A
:1030300001D000F03DF9C046BD4615B090BDC04678
:1030400000700040FFE7FFFF80B58AB000AF182393
:10305000FB18180010231A00002100F0B3FA102307
:10306000FB18180008231A00002100F0ABFA3B00FF
:10307000180010231A00002100F0A4FA304B80221F
:10308000D2051A602E4B00225A602D4B00229A6006
:103090002B4B2722DA602A4B00221A61284B002290
:1030A0005A61274B1800FEF7C3FF031E01D000F042
:1030B000FFF818217B18802252011A607A18204BE1
:1030C00011001800FFF72CFB031E01D000F0F0F8F0
:1030D0001B4B1800FEF7ECFF031E01D000F0E8F8D0
:1030E00010217B1800221A607B1800225A607A187F
:1030F000134B11001800FFF7E1FE031E01D000F092
:10310000D7F83B0060221A603B0000225A603B0067
:1031100000229A603B000022DA603900084B00224E
:103120001800FFF737FA031E01D000F0C1F8044B76
:10313000180000F01DF9C046BD460AB080BDC0466B
:103140007C03002080B582B000AF0C4B1A6B0B4B98
:1031500001210A431A63094B1B6B012213407B6058
:103160007B68002200210B20FDF7CCFD0B20FDF732
:10317000DEFDC046BD4602B080BDC0460010024024
:1031800090B589B000AF0C243B19180014231A0025
:10319000002100F017FA424BDA6A414B04210A433E
:1031A000DA623F4BDB6A04221340BB60BB683C4BD6
:1031B000DA6A3B4B01210A43DA62394BDB6A0122AE
:1031C00013407B607B68364BDA6A354B02210A4339
:1031D000DA62334BDB6A022213403B603B68F82320
:1031E000D900A023DB0501221800FEF752F92D4B70
:1031F0000022FB211800FEF74CF980231902A023BE
:10320000DB0500221800FEF744F93B19C022120228
:103210001A603B1900225A603B1901229A603B193F
:10322000214A19001000FDF7A1FF3B191C221A606A
:103230003B1900225A603B1901229A603A19A023D7
:10324000DB0511001800FDF791FF3B19174A1A60C2
:103250003B1901225A603B1900229A603B19032254
:10326000DA603A19A023DB0511001800FDF77EFF94
:1032700021007B18FB221A607B1801225A607B1800
:1032800000229A607B180322DA607B18054A190035
:103290001000FDF76BFFC046BD4609B090BDC046AB
:1032A000001002400004005000080050C0870000D9
:1032B00080B500AFC046BD4680BD000080B500AF00
:1032C000074B5A6B064B01210A435A63044B9A6B16
:1032D000034B802149050A439A63C046BD4680BD21
:1032E0000010024080B582B000AF78607B681A6839
:1032F0008023DB059A4230D11A4B9A6B194B01217E
:103300000A439A63184B194A1A60174B08225A60ED
:10331000154B10229A60144B0022DA60124B802267
:103320001A61114B802252005A610F4B8022D20049
:103330009A610D4B0022DA610B4B00221A620A4B94
:103340001800FDF711FD031E01D0FFF7B1FF7B68E8
:10335000054A1A62044B7A689A62C046BD4602B0BA
:1033600080BDC04600100240BC030020580002404F
:1033700090B589B000AF78600C243B191800142375
:103380001A00002100F01EF97B681A688023DB0513
:103390009A4222D1134BDA6A124B01210A43DA62B4
:1033A000104BDB6A01221340BB60BB6821007B1815
:1033B00020221A607B1802225A607B1800229A6031
:1033C0007B180022DA607B1805221A617A18A02384
:1033D000DB0511001800FDF7C9FEC046BD4609B067
:1033E00090BDC0460010024080B500AFC046BD464B
:1033F00080BD80B500AFFEE780B500AFC046BD46DA
:1034000080BD80B500AFC046BD4680BD80B500AF71
:10341000FDF78CFBC046BD4680BD000080B500AF07
:10342000034B1800FDF7C5FDC046BD4680BDC04634
:10343000BC03002080B584B000AF7860114B1B68DE
:10344000002B02D10F4B104A1A600E4B1B68FB6019
:103450000C4B1A687B68D2186B469A4207D900F069
:103460007DF803000C221A6001235B4206E0054B45
:103470001A687B68D218034B1A60FB681800BD46B7
:1034800004B080BD040400201804002080B500AF03
:10349000174B1A68164B802149000A431A60144BD7
:1034A000DA68134B13490A40DA60114B1A68104B63
:1034B00011490A401A600E4B9A680D4B01218A434C
:1034C0009A600B4B1A680A4B0C490A401A60084B69
:1034D000DA68074B0A490A40DA60054B00221A6194
:1034E000084B802212059A60C046BD4680BDC0468A
:1034F000001002400C40FF88F6FFF6FEFFFFFBFFC6
:10350000FFFF02FF00ED00E00D488546002103E0CB
:103510000C4B5B58435004310B480C4B42189A42F9
:10352000F6D30B4A02E0002313600432094B9A429F
:10353000F9D3FFF7ABFF00F017F8FFF717FDFEE731
:1035400000200020503F00080000002078000020EC
:103550007800002018040020FEE70000014B1868E6
:103560007047C0461400002070B500260C4D0D4C6D
:10357000641BA410A64209D1002600F093FC0A4D5A
:103580000A4C641BA410A64205D170BDB300EB58D1
:1035900098470136EEE7B300EB5898470136F2E75B
:1035A000483F0008483F0008483F00084C3F0008DB
:1035B00010B5034B0100186800F078F810BDC04644
:1035C0001400002003008218934200D17047197044
:1035D0000133F9E770B50500002910D00C1F2368EE
:1035E000002B00DAE418280000F008F91D4A1368DF
:1035F000002B05D163601460280000F007F970BD4E
:10360000A34208D9216860188342F3D118685B6827
:1036100041182160EEE71A005B68002B01D0A3423D
:10362000F9D911685018A0420BD120680918501818
:1036300011608342E0D118685B68411811605360E3
:10364000DAE7A04202D90C232B60D5E72168601885
:10365000834203D118685B6841182160636054603D
:10366000CAE7C0460804002070B50F4E0D0031684F
:103670000400002902D100F08FF8306029002000FA
:1036800000F08AF8431C0AD00323C51C9D43A842BE
:1036900007D0291A200000F07FF8431C01D1012532
:1036A0006D42280070BDC0460C040020F7B503220F
:1036B000CB1C9343083306001F000C2B32D20C277F
:1036C000B94231D8300000F099F8324D2B681C0017
:1036D000002C2ED139003000FFF7C6FF0400431C38
:1036E0001ED12C682500002D4AD123682900E3183B
:1036F0003000019300F050F8019B834243D12368CE
:103700000337FF1A03239F4308370C2F00D20C27DF
:1037100039003000FFF7A8FF431C34D02368DF19BD
:10372000276013E0002BCBDA0C2300253360280040
:10373000FEBD2268D11B20D40B2917D9E2192760BE
:10374000A34211D12A6063681160536030002500E4
:1037500000F05CF807220B35231D9543EA1A9D42C1
:10376000E5D05B1BA350E2E75A60ECE76268A34236
:1037700001D12A60EAE75A60E8E723006468A7E716
:103780002C006D68AFE70C233000336000F03EF88A
:10379000CDE7C04608040020002370B5064D0400A4
:1037A00008002B60FFF746FE431C03D12B68002B5B
:1037B00000D0236070BDC046100400200EB400B5D8
:1037C0000B499CB01DAB02900690079104910948EB
:1037D000094904CB0591006802A9019300F080F823
:1037E0000023029A13701CB008BC03B01847C046EF
:1037F000FFFFFF7F140000200802FFFF10B5024802
:1038000000F0F0FA10BDC0461404002010B50248C4
:1038100000F0E9FA10BDC04614040020F0B58E682F
:1038200085B007000C00039201939E423CD8902380
:103830008A89DB001A4234D00969236860695B1AFF
:10384000029303234343DD0FED18019B02980133DC
:103850001B186D10AB4200D91D00530532D529004D
:103860003800FFF723FF061E09D10C233B604023DD
:103870000120A28940421343A38105B0F0BD029A02
:10388000216900F0BCFAA389144A1A40802313432B
:10389000A381029B2661F61826606561019EED1AE0
:1038A000A560019B9E4200D9019E320003992068C9
:1038B00000F0AEFAA36800209B1BA36023689E194A
:1038C0002660DAE72A00380000F0B5FA061EE0D1DB
:1038D00038002169FFF77EFEC7E7C0467FFBFFFF88
:1038E000F0B5A1B003901D008B890F0016001B06D8
:1038F00011D50B69002B0ED14021FFF7D7FE3860A0
:103900003861002805D10C23039A0138136021B0D7
:10391000F0BD40237B61002308AC636120336376F4
:103920001033A376079535002B78002B01D0252B7B
:1039300047D1AB1B0593B5420CD032003900039838
:10394000FFF76CFF431C00D1AEE06269059B944613
:10395000634463612B78002B00D1A5E00122002392
:103960005242626004A9543252186E1C2360E36014
:10397000A3601370A36505223178544800F034FA2F
:10398000751C00281FD12268D30604D5532304A92F
:103990005B1820211970130704D5532304A95B1861
:1039A0002B21197033782A2B16D0350000210A20DC
:1039B000E3682A786E1C303A092A4ED9002911D1C1
:1039C00017E00135B0E7414B2268C01A012383405C
:1039D00013432E002360CEE7079B191D1B68079138
:1039E000002B01DB0B9304E05B42E36002231343F3
:1039F00023602B782E2B0AD16B782A2B35D1079B8D
:103A000002351A1D1B680792002B2BDB0993304EE1
:103A100003223000297800F0E7F9002806D040237F
:103A2000801B8340226801351343236029780622D6
:103A300028486E1C217600F0D7F900283CD0264B90
:103A4000002B25D10722079B0733934308330793A5
:103A50006369049A9B18636165E74343350001215C
:103A60009B18A6E701235B42D0E700230A201A0037
:103A70000135636029786E1C3039092903D9002B80
:103A8000C5D00992C3E74243350001235218F1E73C
:103A900007AB00933A002100104B039800E000BFF1
:103AA0000490049B0133D3D1BB890D985B0600D4ED
:103AB0002DE7012040422AE707AB00933A0021009E
:103AC000064B039800F07CF8EAE7C0460D3F00087B
:103AD000133F0008173F0008000000001D380008D1
:103AE000F7B5150001938A680B690C0000909342AA
:103AF00000DA130022002B6043321278002A01D032
:103B000001332B6023689B0602D52B6802332B60A0
:103B10002268062317001F401A4227D02300433390
:103B20001B785A1E93412268920630D422000199D4
:103B30000098089E4332B047431C25D006232068D6
:103B40002A68E16800250340042B03D18D1AEB435A
:103B5000DB171D40A3682269934201DD9B1AED1813
:103B60000027BD4220D1002010E00137E3682A6819
:103B70009B1ABB42D2DD2200012301990098089EC6
:103B80001932B047431CF0D101204042FEBD302025
:103B9000E1184331087021005A1C45310978A218F8
:103BA000433202331170C1E72200012301990098CA
:103BB000089E1A32B047431CE6D00137D1E7000017
:103BC000F0B58BB006920A00433207930590049239
:103BD0000A7E0C00109B782A07D8622A09D8002A8E
:103BE00000D1C1E0582A00D18CE026004236327064
:103BF00022E0100063381528F7D8FCF78DFA16007C
:103C00001F00F6FFF6FFF6FFF6FF1F00F6FFF6FFB8
:103C1000F6FFF6FFA80036009A00F6FFF6FFB9009F
:103C2000F6FF3600F6FFF6FF9E0026001A684236C1
:103C3000111D1960136833700123A7E00868196823
:103C40000A1D05060BD50D681A60002D03DA2D2319
:103C5000049A6D421370614B0A2703931BE00D68B1
:103C60001A604106F1D52DB2EFE70D681968081DFD
:103C700018602E0601D50D6803E06D06FBD50D68B2
:103C8000ADB2564B082703936F2A00D002372300AA
:103C9000002243331A706368A360002B03DB042205
:103CA000216891432160002D02D1049E002B0CD08D
:103CB000049E28003900FCF7BFFA039B013E5B5CC1
:103CC00033702B0005009F42F3D9082F09D12368D8
:103CD000DB0706D563682269934202DC3023013E8C
:103CE0003370049B9B1B2361079B21000093059865
:103CF000069B09AAFFF7F4FE431C4CD10120404269
:103D00000BB0F0BD45310A70344A03921A6821683D
:103D100020CA1A60080616D5CB0702D520231943FE
:103D200021601027002DB2D1202322689A432260FF
:103D3000ADE7202209680A4322602200782145323B
:103D40001170274AE1E74806E6D5ADB2E4E71A6804
:103D50000D68101D4969186013682E0601D5196099
:103D600002E06D06FBD519800023049E2361BBE7AA
:103D70001A68111D1960166800213000626800F091
:103D800033F8002801D0801B606063682361002342
:103D9000049A1370A8E72369320006990598079DD5
:103DA000A847431CAAD023689B0715D4099BE06849
:103DB0009842A5DA1800A3E7220001230699059886
:103DC000079E1932B047431C98D00135E368099A21
:103DD0009B1AAB42F0DCE9E70025F7E71E3F00083D
:103DE0002F3F000870477047C9B28218904201D136
:103DF0000020704703788B42FBD00130F6E70023A8
:103E000010B59A4200D110BDCC5CC4540133F8E720
:103E100010B5884202D98B18984203D3002307E0DB
:103E20008B5C8354013AFBD210BDCC5CC45401338B
:103E30009A42FAD1F8E7F7B507000E0014000029FE
:103E400005D11100FFF732FC05002800FEBD002A55
:103E500003D1FFF7BFFB2500F7E700F01BF8019047
:103E6000844203D835004308A342EED32100380032
:103E7000FFF71CFC051EE8D0019B22009C4200D9E4
:103E80001A0031002800FFF7BAFF31003800FFF7B1
:103E9000A1FBDAE70B1F1B68181F002B01DA0B5878
:103EA000C0187047F8B5C046F8BC08BC9E467047BD
:0C3EB000F8B5C046F8BC08BC9E46704740
:103EBC0004040E0F1B19110A000000000000000082
:103ECC0066616C73650000007472756520000000FB
:103EDC0048656C6C6F20576F726C64210000000099
:103EEC0025730000280C01060000000000000000F3
:103EFC000102030406070809030406080C10182025
:103F0C0030232D302B2000686C4C006566674546CD
:103F1C004700303132333435363738394142434437
:103F2C0045460030313233343536373839616263C7
:043F3C006465660052
:083F4000A0C3FF7F0100000097
:043F4800E900000884
:043F4C00C1000008A8
:103F5000CC3E0008D43E0008040000000100000030
:103F600000002000180000200000000000000000F9
:103F70000000000000000000000000000000000041
:103F80000000000000000000000000000000000031
:103F90000000000000000000000000000000000021
:103FA0000000000000000000000000000000000011
:103FB0000000000000000000000000000000000001
:083FC0000000000000000000F9
:0400000508003509B1
:00000001FF
