:020000040800F2
:1000000000200020018B0008018800080B880008F0
:1000100000000000000000000000000000000000E0
:10002000000000000000000000000000118800082F
:1000300000000000000000001B8800082588000860
:10004000518B0008518B0008518B0008518B000820
:10005000518B0008518B0008518B0008518B000810
:10006000518B000835880008518B0008518B00081F
:10007000518B0008518B000800000000518B0008D4
:10008000000000004D880008000000000000000093
:10009000518B000800000000518B0008518B0008B4
:1000A000518B0008518B0008518B0008518B0008C0
:1000B000518B0008518B000800000000518B000894
:1000C00010B5064C2378002B07D1054B002B02D02E
:1000D000044800E000BF0123237010BDE8010020A8
:1000E00000000000ECBA0008044B10B5002B03D050
:1000F0000349044800E000BF10BDC04600000000F6
:10010000EC010020ECBA00080023C25C0133002A95
:10011000FBD1581E7047000002B4714649084900DF
:10012000095C49008E4402BC7047C04603B4714666
:10013000490840004900095E49008E4403BC7047ED
:10014000002243088B4274D303098B425FD3030A16
:100150008B4244D3030B8B4228D3030C8B420DD329
:10016000FF22090212BA030C8B4202D312120902B7
:1001700065D0030B8B4219D300E0090AC30B8B42F5
:1001800001D3CB03C01A5241830B8B4201D38B03A3
:10019000C01A5241430B8B4201D34B03C01A524148
:1001A000030B8B4201D30B03C01A5241C30A8B428B
:1001B00001D3CB02C01A5241830A8B4201D38B0276
:1001C000C01A5241430A8B4201D34B02C01A52411A
:1001D000030A8B4201D30B02C01A5241CDD2C3098C
:1001E0008B4201D3CB01C01A524183098B4201D308
:1001F0008B01C01A524143098B4201D34B01C01AF3
:10020000524103098B4201D30B01C01A5241C3086A
:100210008B4201D3CB00C01A524183088B4201D3D9
:100220008B00C01A524143088B4201D34B00C01AC5
:100230005241411A00D20146524110467047FFE731
:1002400001B5002000F0F0F802BDC0460029F7D04B
:1002500076E7704703460B437FD4002243088B4266
:1002600074D303098B425FD3030A8B4244D3030B3D
:100270008B4228D3030C8B420DD3FF22090212BA02
:10028000030C8B4202D31212090265D0030B8B427E
:1002900019D300E0090AC30B8B4201D3CB03C01A68
:1002A0005241830B8B4201D38B03C01A5241430B43
:1002B0008B4201D34B03C01A5241030B8B4201D333
:1002C0000B03C01A5241C30A8B4201D3CB02C01A9E
:1002D0005241830A8B4201D38B02C01A5241430A16
:1002E0008B4201D34B02C01A5241030A8B4201D305
:1002F0000B02C01A5241CDD2C3098B4201D3CB01AC
:10030000C01A524183098B4201D38B01C01A52415A
:1003100043098B4201D34B01C01A524103098B425E
:1003200001D30B01C01A5241C3088B4201D3CB0049
:10033000C01A524183088B4201D38B00C01A52412C
:1003400043088B4201D34B00C01A5241411A00D2DC
:1003500001465241104670475DE0CA0F00D0494245
:10036000031000D34042534000229C4603098B42B5
:100370002DD3030A8B4212D3FC22890112BA030A3D
:100380008B420CD3890192118B4208D389019211BF
:100390008B4204D389013AD0921100E08909C30944
:1003A0008B4201D3CB01C01A524183098B4201D346
:1003B0008B01C01A524143098B4201D34B01C01A31
:1003C000524103098B4201D30B01C01A5241C308A9
:1003D0008B4201D3CB00C01A524183088B4201D318
:1003E0008B00C01A5241D9D243088B4201D34B0033
:1003F000C01A5241411A00D20146634652415B1075
:10040000104601D34042002B00D549427047634655
:100410005B1000D3404201B5002000F005F802BD9A
:100420000029F8D016E770477047C0468446100090
:1004300062468C461900634600E0C0461FB500F0D6
:100440000DFF002801D40021C8421FBD10B500F0E7
:100450005DFE4042013010BD10B500F0FFFE0028E7
:1004600001DB002010BD012010BDC04610B500F01A
:10047000F5FE002801DD002010BD012010BDC046A2
:1004800010B500F085FE002801DC002010BD012021
:1004900010BDC04610B500F07BFE002801DA002038
:1004A00010BD012010BDC046F0B54F464646D646A9
:1004B0000D000400C0B51F0011002803620F400AA0
:1004C00010437A00520DE3003C039146640AFA0F90
:1004D0004F0F6E0027439246B846760DED0FC900C8
:1004E000954200D199E04C46341BA446002C00DC18
:1004F0007CE04A46002A00D1B8E0C54A964200D1C5
:100500001CE180223C0012041443A0466246382AB3
:1005100000DD61E11F2A00DDCCE164462022121BD0
:10052000444694400F00A14664469140E7404C4643
:100530004A1E91413C43424621436446E240801AB0
:100540005C1AA3429B415F42C71B3B0200D4D0E030
:100550007F027F0A002F00D1FFE0380001F08AFD02
:1005600001000839202322005B1A8F40DA408C40BA
:100570001743B14200DAFFE0891B4B1C1F2B00DD43
:10058000A8E020223900D21A200094409140D8409F
:10059000621E9441DF40002601430C43630709D0EB
:1005A0000F232340042B05D0231DA342A441644202
:1005B0003F191C003B0200D49EE0954B01369E4241
:1005C00000D1B7E0934AE40817407B0771057F022A
:1005D00023433F0B4A0D12053A43ED072A43180007
:1005E0001100E0BCBA46B146A846F0BD002C4BD085
:1005F0004C46A41BA446002E00D023E104001C435B
:1006000000D1AFE16246541E012A00D115E2804DAF
:10061000AC4500D1C8E1A4461BE14A46B21A944653
:10062000002A00DCACE04A46002A43D0784A9642D1
:1006300000D1AFE180223C0012041443A046624680
:10064000382A67DC1F2A00DC5FE14746203AD740A2
:100650006246202A05D064464022121B444694403C
:1006600021434A1E91410C003C4357E03A000A43A3
:1006700000D105E12200013A012C00D182E1644C55
:10068000A4455BD0944641E7634C771C274200D0D9
:10069000C4E004001C43002E00D069E1002C00D10E
:1006A000BFE144460C4300D0D0E14207DB081343CE
:1006B000C00829E03A000A4300D170E1624664466E
:1006C000013A012C00D1E0E0514CA44500D161E198
:1006D0009446B4E73A001F39CA401100202B03D0DA
:1006E0004022D31A9F403C43631E9C4100270026B2
:1006F0000C43630700D053E7B446E4087B07234369
:10070000F808434A94451DD06246070352053F0B43
:10071000520D60E744460C43621E9441E4189C422B
:100720009B415F423F183B02E3D5394B01369E4265
:1007300000D0B5E03200002700234CE74207DB0879
:100740001343C0081A00024300D1E1E180273F03B0
:1007500007433F032E4A3F0B3DE7200001F08AFC90
:10076000010018311F2900DCFCE60838844027000E
:100770000024B14200DBFFE6264A761A17400DE757
:10078000002A2FD04A46921B9446002E00D1ADE09D
:100790001F4A914500D10FE18022120410436246A6
:1007A000382A00DD0FE11F2A00DD80E164462022A7
:1007B0001E00121B6746040093409440FE405A1EE0
:1007C0009341F84034431C43804464188C42BF4139
:1007D0007F424E464744A6E742460A4311004A1E5E
:1007E0009141ADE60C4C721C224200D0A1E0020007
:1007F0001A43002E00D0FAE0002A00D145E13A0069
:100800000A4300D046E14207DB081343C0087BE7F8
:10081000FF070000FFFF7FFFFE07000047465C1A4E
:10082000C21BA342BF417F42B94617004A46BF1AC6
:100830003A0200D58DE023003B4300D08AE6002039
:10084000002561E7B44CA14500D1ADE0802424042B
:1008500020436446382C3DDC62461F2C00DDB7E0A7
:1008600020251E002D1B0400AB40AC40D640D040DC
:1008700042465D1EAB413443121A904623432CE09E
:100880004207DB081343C0083BE75C189C429B41CE
:1008900040445B42C71801263B0200D429E70226E8
:1008A0009E4A63081740012214401C43FB071C4367
:1008B0007F0873E64446203AD4406246202A05D099
:1008C00067464022D21B4746974039434A1E914112
:1008D000214335E60343581E8341CC1AA142BF4150
:1008E00043467F4255464E46DF1B2EE602001A4322
:1008F00000D1BDE062466446013A012C00D1E5E03A
:10090000854CA44558D0944649E764462022121BE2
:10091000444694400F00A14664469140E7404C464F
:100920004A1E91413C4342460C436146CA408018EE
:10093000F4E6794CA24200D1FDE6591899429B4158
:1009400040445F42C719FC07490816000C437F0862
:10095000CFE6CC1AA142BF4143467F42181A554602
:10096000C71BF7E5C9087B0755460B43F808C8E6DF
:10097000002C00D081E043460B4315D18020002598
:100980000003E3E65C1AA3429B41C71B5B420126BE
:10099000FF1ADAE54207DB081343C008D2E6420734
:1009A000DB081343C008ACE643464246C9085B0770
:1009B00055460B43D008C5E6434642465B07C90887
:1009C0000B43D008BEE603431C00631E9C41FCE6BB
:1009D0000200203CE24014006246202A03D0402559
:1009E000AD1AA8400343581E8341234375E7002AEC
:1009F000E2D03A000A43CDD04207DB0813438022FD
:100A0000C0081203104206D0FC08144203D1200093
:100A1000CB087A0713435A0FDB005207DB08134356
:100A200090E643460B4300D109E743464246C908D6
:100A30005B0755460B43D00866E6CC1AA1428941B4
:100A40003F1A4942554601267F1A7EE542465C1A06
:100A5000871AA34292415242BF1A3A023DD5CC1A9C
:100A6000A1428941434649421F1A55467F1A95E5DE
:100A70007B07C9080B43F80843E64446DB080C43F0
:100A800030D142071343C0085CE67B07C9080B431B
:100A9000F80839E65C189C429B4140445B42C71809
:100AA0003B0200D425E61D4B01261F4021E6040031
:100AB000203AD4406246202A04D040226646921B47
:100AC000904003435A1E93411C437EE65C188C42BF
:100AD0008941404449424718DDE623003B4300D1A9
:100AE000ADE606E6440723438024C00824032042E1
:100AF00008D04246D608264204D155463000CB08DD
:100B000051070B435A0FDB00DB085207134319E66A
:100B10000023014A1F005EE5FF070000FFFF7FFF83
:100B2000F0B557464E464546DE46E0B581460500DF
:100B30000C03480092461F0085B0240B400DCE0FD9
:100B4000002800D156E1D44B984200D172E16B0FDE
:100B5000E4001C4380231B0423439846CF4BED0045
:100B60009B4600239946834400933C037B005046F8
:100B7000240B5B0DFF0F002B00D11FE1C64A9342EF
:100B800000D162E1C549420F8C46E4005946144346
:100B9000802263441204CB1A14439B46C2000020F7
:100BA00033007B409A464B460F2B27D8BC499B000D
:100BB000CB589F46B246009B022B16D0032B00D188
:100BC0008EE2012B00D0D9E00023002400255246FC
:100BD0001B052343D20713432800190005B0F0BCBE
:100BE000BB46B246A946A046F0BD00240025AA4B4C
:100BF000EDE7BA46A04615000090DCE7444500D278
:100C0000C7E100D1C2E101235B429C462E00404671
:100C10000025E3442302140E1C431B0C99462304B5
:100C20001F0C1202494600920197FFF70FFB0200CA
:100C30007A430B04310C804619438A4207D90123B9
:100C40005B429C460919E0448C4200D807E2881AAE
:100C50004946FFF7FBFA09048C4631046646019ABF
:100C6000090C4243030031438A4204D90919013B6C
:100C70008C4200D8EDE1881A424612041A4390468D
:100C80004146009B0E041B0C1F000293009B360C78
:100C90001B04190C0B007343120C7E430391514348
:100CA0007A431F0CBC4676186644B14203D98021B2
:100CB00049028C466244310C8A1831041E04360CF9
:100CC0008E19904202D312D1B54210D24346591E1A
:100CD000009B9C4665441F009D429B415B421B1943
:100CE000C018844200D2A0E100D19BE18846AE1B2F
:100CF000B542AD41801A6D42401B844200D1D5E11E
:100D00004946FFF7A3FA019A0B044243310C050050
:100D100019438A4200D96CE1881A4946FFF796FACE
:100D2000019A360442430904360C03000E43B242D2
:100D300000D953E10398B61A02002D041D43029F07
:100D40002B041B0C5A437B439C46290C4843130C31
:100D5000844463447943984203D980204002844606
:100D60006144180C12041B04120C41189B188E428B
:100D700000D2FFE000D1FAE001231D43494A5A4462
:100D8000002A00DCAAE06B0700D03DE1ED084346F5
:100D9000DB0106D54246444B1A4090468022D200E1
:100DA0005A44424B9A4200DD1FE743465B071D430E
:100DB000434652055C02240B530D08E7524622437A
:100DC00000D17BE0002C00D1FAE0200001F052F9C4
:100DD00002000B3A1D2301009B1A52460839DA40E3
:100DE0008C40144352468A40314B58449B468344BE
:100DF0000020D5E64B462343984644D0002C00D132
:100E0000CEE0200001F036F9010002000B391D236D
:100E10005B1A49461000D940083884400B004D4603
:100E20002343984685402348831A9B4600239946CE
:100E300000939AE64B46234398461DD108239946D2
:100E4000063B0025834600938FE65246224309D194
:100E5000022349461943184B89469C460024022028
:100E6000E3449DE603234A461A43134B91469C46AE
:100E700052460320E34493E60C239946093BA046DF
:100E80008346009371E60423994600239B46013371
:100E90000025009369E6C046FF07000001FCFFFF44
:100EA0008CBE0008FF030000FFFFFFFEFE070000EE
:100EB000F30300000DFCFFFF01F8FFFF494601238B
:100EC00019438946002401206AE6002380249A46BB
:100ED00000258A4B24037AE601256D4201239B1AE3
:100EE000382B00DD70E61F2B00DCBFE01F214942DC
:100EF0008A1A4146D1400A00202B04D04146804B3B
:100F00005B4499400D436B1E9D4107232A431D00FE
:100F100000241540134200D1D4E00F2100231140DA
:100F2000042900D1CBE0111D9142924152429B18FD
:100F30000A00190200D4C2E001230024002546E67D
:100F4000802341461B03194208D01C4206D11C4392
:100F50002403BA461500694B240B38E68024434627
:100F600024031C432403B246644B240B2FE6002BBE
:100F700000D103E7A619681EA64200D28DE08E427A
:100F800000D2A3E000D1B3E00500F5E6AA4200D903
:100F900039E64346DE0758086B081E43ED0739E67D
:100FA000484601F067F801000200153120321C2983
:100FB00000DC2CE74B46083883400025984632E792
:100FC00001F058F803001A00153220301C2A00DC0A
:100FD00000E75446083B00229C4005E73619013BD8
:100FE000B44200D9A6E6B24200D8A3E6831E361961
:100FF000A0E60919013D8C4200D98DE68A4200D84D
:101000008AE6851E091987E60F232B40042B00D1A1
:10101000BCE605235B42AB429B4104355B42ED08D5
:101020009844B4E6AF4200D960E6824204D800D0CA
:101030005CE6AE4200D859E602235B429C46009B28
:10104000E0449C4665449D429B415B421B19C0188D
:101050004DE68A4200D80EE6831E09190BE68A4245
:1010600000D8F4E5831E98460919F0E525492800C3
:1010700059448D4042468A40691E8D414146D840C0
:10108000D94002432A430B00510700D151E70F21F9
:101090001140042900D046E74BE705008E4200D0FE
:1010A0006AE6009A934200D066E667E6164A5A441A
:1010B000002A00DC10E701230025984467E65D075D
:1010C0005B021C0BD2080023154380E50098023D0B
:1010D00042008242BF417F423C1936190092DDE74F
:1010E0008024434624031C432403044B240B6EE555
:1010F000009A9A42EAD30500D3E7C046FF070000F2
:101100003E0400001E040000FF030000F0B54E4640
:101110004546DE4657469046E0B517001A03120BC7
:101120000500844619480E034C0091465A00DB0F17
:101130009B46360B640DC90F520D844219D0824272
:1011400010D0012094420ED14E450CD10120C4454F
:1011500009D1594517D0002C05D130002843431E32
:10116000984100E00120F0BCBB46B246A946A0462B
:10117000F0BD330001202B43F5D1A242F3D14B4601
:101180003B43F0D1E2E70020EDE7C046FF07000057
:10119000F0B54746CE460400180016001B031B0B93
:1011A0002D4D4A00994680B543000F03A446B04632
:1011B0003F0B520DC90F5B0DC00FAA4221D0AB42AD
:1011C00013D0002A22D13C43002B02D14D462E439E
:1011D00022D0002C10D0814222D0022001390840B8
:1011E0000138C0BCB946B046F0BD4D462E4329D1AA
:1011F000002AF0D13C43EED10028F2D10120404238
:10120000EFE73D0025431DD19342EED0002BE2D104
:101210004C462643DFD1E0E70020002CE1D0DCE79C
:101220009A420ADCE8DB4F45D7D80ED000204F4564
:10123000D7D20029E2D00800D3E74342584140000A
:101240000138CEE702204042CBE7C445C5D8002094
:10125000C445C6D2EDE7C046FF070000F0B54746DB
:10126000CE460400180016001B031B0B2C4D4A0031
:10127000994680B543000F03A446B0463F0B520D7C
:10128000C90F5B0DC00FAA420DD0AB4210D0002A8F
:1012900027D13C43002B11D14D462E430ED10020C7
:1012A000002C15D00EE03D00254310D1934218D1FB
:1012B0004D462E430BD1002A02D13C43002C0BD0CB
:1012C000814214D0022001390840013800E0022098
:1012D000C0BCB946B046F0BD0028F9D1012040425B
:1012E000F6E7002BECD14C462643E9D1EAE79A42D7
:1012F00004DD4342584140000138E9E79A42EBDB04
:101300004F45DFD806D000204F45E1D20029E5D077
:101310000800DDE7C445D5D80020C445D8D2F5E79C
:10132000FF070000F0B557464E464546DE46E0B59D
:1013300098460C034B000600924687B0240B5B0DC9
:10134000CF0F002B00D15CE1D94A934200D175E167
:10135000420FE4001443802212041443D54AC5000E
:10136000944663440093002399469B464346424675
:101370001E03D20F5B0050469046360B5B0D00D12A
:1013800020E1CB4A934200D162E1CA49420F8C4628
:1013900000996344F6008C46164380229C44120454
:1013A00063461643C2000020009300994346013172
:1013B0008C4649467B4001930F2926D8BE4B8900B5
:1013C00059588F46434601933400150083465B46C7
:1013D000022B16D0032B00D103E2012B00D0CDE06D
:1013E000002200240025019B12052243DB071A433B
:1013F0002800110007B0F0BCBB46B246A946A04683
:10140000F0BD00240025AA4AEDE7280C2D042D0C80
:101410002B00110C1204120C5343984613002F009A
:10142000434399464F434F44BB4647460B003F0C4E
:10143000BA464343DA440293D14504D980277F0258
:10144000B9464B44029353461B0C9B4653461F041C
:1014500043461B041B0C98463B0043440493330C47
:101460003604360C9846330043439946434643437B
:101470002F009A46434677435D43380C4D44451947
:10148000A94503D980235B029946CA443F04280C2E
:101490003F0C2D04ED19270C2404240C030020001C
:1014A00050437A4391463A0053440593030C9A46BD
:1014B0004A43614349445144AB44894503D980239D
:1014C0005B0299464A4400040B0C000C09040918FD
:1014D00020009946434670435C437E435F43030CC0
:1014E0009846A41944444A440397A64204D9802349
:1014F0005B029846474403972304029E9A46059B45
:101500005E449846AE42AD4176188E428941000451
:10151000000C504440446D424719B8469346494236
:101520008946C344D94498428041A845AD4193457A
:101530009241894589416D4240422843240C5242E0
:1015400049420A43039B00198018C7184B46DC0D1B
:10155000049B75021D436A1E95414B46F60D7F02A2
:1015600035435A023C431543FB0100D41CE10121E1
:101570006A080D401543E207154364084F4961446A
:10158000002900DCB0E06B0709D00F222A40042AB2
:1015900005D02A1DAA42AD416D4264191500E30130
:1015A00004D58021464AC90014406144454A91420D
:1015B00000DD26E76207ED08640249051543240BA8
:1015C0004A0D10E75246324300D17FE0002E00D191
:1015D000DCE0300000F04EFD02000B3A1D2301005C
:1015E0009B1A52460839DA408E40164352468A40CA
:1015F000009B3549181A03008C4663440020009371
:10160000D3E6250005434AD0002C00D1B0E02000ED
:1016100000F030FD010002000B391D2310005B1AA1
:101620003100350008388440D94085400C432648B5
:10163000831A0093002399469B4697E605002543AD
:1016400026D1082200930223002491469B468DE672
:101650005246009B324310D1154900268C46634404
:101660004946009302231943894602209DE65B46C2
:101670000197022B00D0ADE6C3E60D4A0320944645
:1016800063444A46009303231A43914652468CE62C
:101690000C2200930323050091469B4666E6042333
:1016A000994600230093013300249B465EE6C04622
:1016B000FF07000001FCFFFFCCBE0008FF03000095
:1016C000FFFFFFFEFE0700000DFCFFFF4946012360
:1016D000194389460026012067E60023802400255F
:1016E000434A019324037EE60120401A382800DD96
:1016F00076E61F285BDD1F2223005242511ACB40A1
:101700001900202803D03B4A6244944025436A1EB6
:1017100095412A000A4307210D000024154011427B
:101720005BD00F2100241140042953D0111D914298
:1017300092415242A4180A0023024BD501220024F0
:10174000002550E680231B031C4209D01E4207D10E
:1017500033431C0343461500240B254A019342E6FC
:101760008022120314432403214A240B01973AE6F2
:1017700000F080FC01000200153120321C2900DC41
:101780004BE7340008380025844050E700F072FC35
:1017900003001A00153220301C2A00DC1EE75646D2
:1017A000083B00229E4023E7009B9C46E6E6124948
:1017B000220061442E008D408A40C640691E8D4142
:1017C00032432A43C4405307B6D00F2111400429A5
:1017D000ACD1B1E765076402240BD208154300229F
:1017E00001E68022120314432403014A240BFAE584
:1017F000FF0700003E0400001E040000F8B5574635
:101800004E464546DE46E0B51E0017004A000B0373
:10181000520D5B0A9046420F1A43CD0FCD4C310357
:10182000C300944670007A0F490AFF009A46B946F1
:10183000400DF60F1143A04200D1B1E00122564005
:10184000B346B54200D188E04246121A002A00DCB5
:10185000AEE0002800D1C1E0BE48804500D151E192
:10186000802000040143382A00DD7BE11F2A00DDCF
:10187000EEE120203E00801A0C00D640D140874087
:1018800062468440521A781E874194463443274367
:10189000DC1BA3429B4162465B42D31A99464B46EE
:1018A0001B0200D418E14B465802430A99464B46A6
:1018B000002B00D137E1484600F0DCFB010008397D
:1018C0002023220048465B1ADA4088408C40434679
:1018D0001043884500DD36E1C91A4B1C1F2B00DD83
:1018E000EAE020222600D21A01009440DE40D840CF
:1018F00000239140621E94418146984631430C4337
:10190000630709D00F232340042B05D0231DA342D6
:10191000A4416442A1441C004B461B0200D4DEE0FB
:1019200041468C4B0131994200D1E7E04B468A4851
:10193000E4080340180049055B07400223434A0DB1
:10194000040B1205ED0722432A4318001100F0BCD6
:10195000BB46B246A946A046F8BD4246121A002A26
:1019600052DD002800D19CE0A04500D1CAE08020D3
:1019700000040143382A00DD49E11F2A00DC97E119
:1019800010000E002038C640202A04D04020821AC1
:1019900091400F43B9464C46621E944134433AE1AC
:1019A0000A003A4328D0B346B5422BD06B4A424492
:1019B000002A5DD042464446821A002C00D0F5E051
:1019C00065461D4300D19CE1551E012A00D1FBE173
:1019D000604CA24200D1BDE12A00F0E0080038438B
:1019E00000D1C3E0501E012A00D1A8E1594CA24207
:1019F00000D187E0020036E701225640B346B542E7
:101A000000D021E7554A4244002A00D1B5E04246C1
:101A10004446821A002C00D138E14E4EB04200D12B
:101A2000DEE18026644636043443A446382A00DDCD
:101A300096E11F2A00DD24E22026B41AA24664465D
:101A40005646B440A1461C004E46D44026433400BE
:101A50005646B3405E1EB3411C436346D340C9188B
:101A6000E419BC42BF417F42B94680468944D8E070
:101A700040463B4C0130204200D0B4E040460028B4
:101A800000D044E16046184300D190E1080038439B
:101A900000D0AAE16146DB0849070B436146CC0848
:101AA00027E00800384361D0501E012A00D139E1F7
:101AB000A24227D002005DE702001F39CA40110090
:101AC000202B03D04022D31A98400443631E9C412C
:101AD0000023994698460C43630700D012E74B4613
:101AE0004A46E4085B072343D408424619498A4220
:101AF0000ED024035205240B520D22E70A000024C5
:101B000000231EE7DB086246520713436246D408EF
:101B10001A00224300D1FCE1802212031443240363
:101B20000C4A240B0DE7200000F0A4FA0100183144
:101B30001F2900DCC4E60838844043462000002406
:101B4000884500DCC8E6044A5B1A10409846814686
:101B5000D6E6C046FF070000FFFF7FFF01F8FFFF4A
:101B6000FE0700000F437A1E974191E66146DB08AD
:101B700049070B436146CC08B8E74046D34C0130D7
:101B8000204200D0A2E04046002800D001E160469B
:101B9000184300D15EE10800384300D05FE16146A0
:101BA000DB0849070B436146CC08A2E7C84DA842B1
:101BB00000D1CFE0802564462D042C43A446382A6A
:101BC00056DC1F2A00DDD1E020251E00AD1A644638
:101BD000AB40AC40D6405D1EAB413443234364462A
:101BE000D440091B49E06046DC1B461AA3428041F1
:101BF0004042814630004E46801B8146000276D42A
:101C00004B46234300D052E60024002571E73943B8
:101C10000C00621E9441E4189C429B415B42634469
:101C200099464B461B0200D456E701239C46A84B1D
:101C3000E044984538D04B46A6480122034018009E
:101C4000630814401C43C3071C434308994657E6E6
:101C500010000E002038C640202A04D04020821AEE
:101C600091400F43B9464F467A1E974137430FE6DE
:101C700062461A4313005A1E9341FC1AA742BF4101
:101C80007F42CB1B99465D46804608E666461E436A
:101C900000D1BEE0561E012A00D109E18C4CA242BF
:101CA00000D119E13200C1E642460024002348E693
:101CB00020200C00801A3E0087408440D640781EC9
:101CC0008741D14034433C438C44A4E7804A90424E
:101CD00000D1E9E0DF199F429B4161445B42C91892
:101CE000CC077F084B08994680463C43F4E6FC1A33
:101CF000A742BF4163467F42C91ACB1B99465D4646
:101D0000D5E5FF084B075D463B43CC08EEE662464F
:101D10001A4300D082E00B003B431BD180240025F6
:101D20002403F9E6DC199C429B41614489465B42ED
:101D300099444B461B0244D401239846CCE6DC1B55
:101D40006246A3429B41511A5B42CB1A994601233A
:101D50009846A4E5FF084B075D463B43CC08D7E611
:101D600062461A431400631E9C4179E615006446DE
:101D7000203DEC40A046202A05D040256446AA1A02
:101D8000944023439A465446631E9C414346234352
:101D900073E762461A4323D00A003A4300D0A0E01A
:101DA0006246DB08520713436246D408B0E60B00D4
:101DB0003B4300D128E7FF084B075D463B43CC0877
:101DC00097E60223984636E7FC1AA742BF416346CE
:101DD0007F42C91ACB1B994601235D4698465EE5B2
:101DE0004B07FF083B43CC0892E6DC1B6046A3424E
:101DF000B641401A7642801B8146000260D5FC1A2B
:101E0000A742BF4163467F42C91ACB1B99465D4634
:101E100076E5FF084B073B43CC0867E60A00DB0882
:101E20003A4300D16FE66246520713436246D40834
:101E300080221203144207D0C808104204D15D4624
:101E40000400FB0849070B435A0FDB00DB0852076D
:101E500013435DE64B07FF083B43CC0849E6DC191A
:101E60009C429B41614489465B4299444B461B021C
:101E700000D431E64A46174B1A4001239146984652
:101E80002AE616006446203EF440A046202A05D0EB
:101E900040266446B21A944023439A465446631E31
:101EA0009C4143461C43DBE502000024002348E537
:101EB000DC19BC42BF41614489467F42B94438E7DE
:101EC0004B46234300D19FE606E6C046FE070000CE
:101ED000FF070000FFFF7FFFFF084B073B43CC08D5
:101EE00016E66246DB08520713436246D408802296
:101EF0001203144207D0C808104204D15D46040002
:101F0000FB0849070B435A0FDB005207DB0813435A
:101F1000FEE50023014A1C0013E5C046FF07000050
:101F200070B505000C481C0316005B000A0349004D
:101F3000120B490D240B5B0D814208D0064A00208C
:101F4000934203D120003043431E984170BD0120CD
:101F50002A43FBD1F2E7C046FF0700000A0030B574
:101F6000134C530009030500090B00205B0DD20F31
:101F7000A34204DD0F48834202DD0F4BD01830BD71
:101F80008020400301430D48C01A1F2808DD0C487B
:101F9000C31AD9400B005842002AF0D11800EEE7CE
:101FA000084CC540A446634499400B002B43F2E71C
:101FB000FE0300001D040000FFFFFF7F330400004C
:101FC00013040000EDFBFFFF70B5002816D0C31707
:101FD000C5185D40C40F280000F04CF8114A121AD1
:101FE0000A2816DC03002E0015339E400B23181A16
:101FF000C54052052D032D0B530D03E00024002393
:10200000002500261B052B43E4072343300019005D
:1020100070BD0B38854052052D0300262D0B530D46
:10202000F0E7C0461E04000010B5041E10D000F0FA
:1020300021F80F4B1B1A0A2811DC0B222100121A5F
:10204000D14015300A035B058440120B5B0D01E0A3
:10205000002300221B0513432000190010BD22009D
:102060000B3882405B0512030024120B5B0DF1E775
:102070001E0400001C2101231B04984201D3000C04
:1020800010391B0A984201D3000A08391B099842EB
:1020900001D30009043902A2105C40187047C04601
:1020A0000403020201010101000000000000000021
:1020B00080B582B000AFFB1D00221A700B4B1A686E
:1020C0000A4B40210A431A60002000F011F8031E59
:1020D00003D0FB1D01221A7001E006F07DFBFB1D01
:1020E0001B781800BD4602B080BDC04600200240EB
:1020F00090B585B000AF78600F243B1900221A70AC
:102100000F4B1B68FA2291001800FEF719F8030024
:10211000180000F0B0FC031E03D03B1901221A7016
:1021200006E0796801235B420022180000F07EFC83
:102130000F23FB181B781800BD4605B090BDC046A4
:102140001400002080B500AF034B1B685A1C024BE3
:102150001A60C046BD4680BD0402002080B500AFB5
:10216000024B1B681800BD4680BDC046040200201B
:1021700080B584B000AF7860FFF7F0FF0300BB606C
:102180007B68FB60FB68013302D0FB680133FB60B6
:10219000C046FFF7E3FF0200BB68D31AFA689A4211
:1021A000F7D8C046C046BD4604B080BD80B582B0F9
:1021B00000AF78607B68002B01D1012359E17B6877
:1021C0005B6D002B0AD17B6800229A657B685022E8
:1021D000002199547B68180002F01CFD7B685B6D40
:1021E00010221340102B05D07B681B689B680422CB
:1021F00013400BD07B685B6D10221A437B685A65D5
:102200007B68502200219954012332E17B685B6D89
:102210009A4A134002221A437B685A657B681B68FE
:102220009B6803221340012B08D17B681B681B6845
:1022300001221340012B01D1012300E00023002BD8
:1022400049D17B685A68C0231B069A420BD07B6831
:102250005A688023DB059A4205D07B685A68802340
:102260001B069A4211D17B681B681A697B681B6840
:10227000920092081A617B681B6819697B685A682A
:102280007B681B680A431A6114E07B681B681A6943
:102290007B681B68920092081A61794B1A68784B28
:1022A00078490A401A60764B19687B685A68744B03
:1022B0000A431A607B681B68DA687B681B68182110
:1022C0008A43DA607B681B68D9687B689A687B6898
:1022D0001B680A43DA606A4B1A68694B6A490A400C
:1022E0001A60674B19687B685B6B5A06644B0A433C
:1022F0001A607B681B689A6880235B05134008D1CD
:102300007B681B689A687B681B68802149050A43C3
:102310009A607B681B68DA687B681B685B490A40C7
:10232000DA607B681B68D9687B68DA687B681B6940
:10233000022B01D1042300E000231A437B682020F4
:102340001B5C5B031A437B682C201B5C5B001A43FD
:102350007B681B6B1A437B689B699B031A437B68F2
:10236000DB69DB031A437B681B680A43DA607B681E
:102370005A6AC223FF339A420BD07B681B68D96824
:102380007B685A6A7B689B6A1A437B681B680A43AE
:10239000DA607B6821229B5C012B1AD17B682022AA
:1023A0009B5C002B09D17B681B68DA687B681B6823
:1023B000802149020A43DA600BE07B685B6D2022D2
:1023C0001A437B685A657B689B6D01221A437B68C0
:1023D0009A657B68DB6B012B1FD17B681B681A69D0
:1023E0007B681B682A490A401A617B681B68196967
:1023F0007B681A6C7B685B6C1A437B689B6C1A4326
:102400007B681B680A431A617B681B681A697B68D2
:102410001B6801210A431A610EE07B681B681B6977
:1024200001221340012B07D17B681B681A697B6866
:102430001B6801218A431A617B681B685A697B68A3
:102440001B6807218A435A617B681B6859697B684E
:102450009A6B7B681B680A435A617B6800229A6505
:102460007B685B6D0322934301221A437B685A65A4
:1024700000231800BD4602B080BDC046FDFEFFFF30
:1024800008270140FFFFC3FFFFFFFFFD1902FEFF0A
:1024900003FCFFFF90B587B000AFF860B9607A60C9
:1024A0001723FB1800221A70FB681B689B68042224
:1024B00013405ED1FB6850229B5C012B01D10223AB
:1024C0005EE0FB68502201219954FB68DB69012B17
:1024D00007D01723FC18FB68180000F0FBF8030076
:1024E00023701723FB181B78002B46D1FB685B6D0C
:1024F000254A1340802252001A43FB685A65FB6844
:1025000000229A65FB68502200219954FB68DB6C1D
:102510001E4ADA62FB68DB6C1D4A1A63FB68DB6CDF
:102520001C4A5A63FB681B681C221A60FB681B6804
:102530005A68FB681B6810210A435A60FB681B68D5
:10254000DA68FB681B6801210A43DA60FB68D86C13
:10255000FB681B6840331900BA687B6800F010FB09
:10256000FB681B689A68FB681B6804210A439A6031
:1025700003E01723FB1802221A701723FB181B789D
:102580001800BD4607B090BDFEF0FFFF952700087C
:10259000492800086728000880B582B000AF78603D
:1025A000C046BD4602B080BD80B582B000AF786045
:1025B000C046BD4602B080BD80B582B000AF786035
:1025C000C046BD4602B080BD80B582B000AF786025
:1025D00039607B6850229B5C012B01D102236CE0A7
:1025E0007B685022012199547B681B689B680422F8
:1025F00013400BD07B685B6D20221A437B685A65C1
:102600007B68502200219954012356E03B685B68A7
:102610002C4A934228D07B681B68996A3B681B68E8
:102620005B035A0B7B681B680A439A623B681A6813
:102630008023DB02134009D0234B1A68224B8021F0
:1026400009040A431A600A2000F028F93B681A6856
:1026500080239B0213402BD01B4B1A681A4B8021FE
:10266000C9030A431A6023E07B681B689A6A3B68C7
:102670001B685B035B0BD9437B681B680A409A624B
:102680003B681A688023DB02134005D00E4B1A68A2
:102690000D4B0E490A401A603B681A6880239B0262
:1026A000134005D0084B1A68074B09490A401A60C5
:1026B0007B6850220021995400231800BD4602B0C7
:1026C00080BDC0460110000008270140FFFF7FFFCA
:1026D000FFFFBFFF80B584B000AF78600023FB60D0
:1026E0007B681B689B6803221340012B08D17B6821
:1026F0001B681B6801221340012B01D1012300E05C
:102700000023002B3FD17B681B689B68204A134045
:102710000DD07B685B6D10221A437B685A657B681D
:102720009B6D01221A437B689A6501232CE07B682C
:102730001B689A687B681B6801210A439A60012024
:1027400000F0ACF8FFF70AFD0300FB6014E0FFF7B0
:1027500005FD0200FB68D31A0A2B0DD97B685B6D5F
:1027600010221A437B685A657B689B6D01221A43CD
:102770007B689A65012307E07B681B681B68012260
:102780001340012BE3D100231800BD4604B080BDE7
:102790001700008080B584B000AF78607B689B6ACA
:1027A000FB60FB685B6D5022134041D1FB685B6DA1
:1027B000802292001A43FB685A65FB681B68DA683E
:1027C000C0231B0113402ED1FB6820229B5C002BF1
:1027D00029D1FB681B681B6808221340082B22D1F3
:1027E000FB681B689B680422134010D1FB681B68C0
:1027F0005A68FB681B680C218A435A60FB685B6D52
:10280000104A134001221A43FB685A650BE0FB682B
:102810005B6D20221A43FB685A65FB689B6D0122A1
:102820001A43FB689A65FB681800FFF7B5FE05E0E0
:10283000FB68DB6C5B6B7A6810009847C046BD464E
:1028400004B080BDFEFEFFFF80B584B000AF7860AD
:102850007B689B6AFB60FB681800FFF7A5FEC0461B
:10286000BD4604B080BD80B584B000AF78607B68A1
:102870009B6AFB60FB685B6D40221A43FB685A65EC
:10288000FB689B6D04221A43FB689A65FB6818007D
:10289000FFF792FEC046BD4604B080BD80B584B04F
:1028A00000AF78600B4B1B680B491800FDF748FC24
:1028B00003001A007B685343FB6002E0FB68013BA6
:1028C000FB60FB68002BF9D1C046C046BD4604B092
:1028D00080BDC0461400002040420F0080B582B089
:1028E00000AF0200FB1D1A70FB1D1B781A001F238E
:1028F0001A40044B012191400A001A60C046BD46AF
:1029000002B080BD00E100E090B583B000AF0200EE
:102910003960FB1D1A70FB1D1B787F2B32D92F4AA3
:10292000FB1D1B7819000F230B40083B9B08063347
:102930009B00D31804331B68FA1D12781100032280
:102940000A40D200FF2191400A00D2431A401100F0
:102950003B689B01FF221A40FB1D1B7818000323D4
:102960000340DB009A401D48FB1D1B781C000F2311
:102970002340083B9B080A4306339B00C3180433DB
:102980001A6027E0164AFB1D1B785BB29B08C03318
:102990009B009B58FA1D1278110003220A40D200B6
:1029A000FF2191400A00D2431A4011003B689B016D
:1029B000FF221A40FB1D1B78180003230340DB0095
:1029C0009A400748FB1D1B785BB29B080A43C03343
:1029D0009B001A50C046BD4603B090BD00ED00E01C
:1029E00000E100E080B582B000AF78607B685A1EDD
:1029F00080235B049A4201D3012310E00A4B7A68DA
:102A0000013A5A6001235B4203211800FFF77CFF63
:102A1000054B00229A60044B07221A60002318001D
:102A2000BD4602B080BDC04610E000E080B584B075
:102A300000AFB9607A600F217B18021C1A70BA6867
:102A40007B181B785BB211001800FFF75DFFC046D2
:102A5000BD4604B080BD80B582B000AF0200FB1D52
:102A60001A70FB1D1B785BB21800FFF737FFC046DA
:102A7000BD4602B080BD80B582B000AF78607B6893
:102A80001800FFF7AFFF03001800BD4602B080BD7D
:102A900080B584B000AF78607B68002B01D1012342
:102AA00061E07B681B68324A944663441421180035
:102AB000FDF746FB03009A007B685A647B682D4A49
:102AC0001A647B682522022199547B681B681B6865
:102AD000FB60FB68284A1340FB607B689A687B6850
:102AE000DB681A437B681B691A437B685B691A437E
:102AF0007B689B691A437B68DB691A437B681B6AA6
:102B00001343FA681343FB607B681B68FA681A601A
:102B10007B689A688023DB019A4218D0174B1A68A9
:102B20007B685B6C1C210B400F2199400B00D94343
:102B3000124B0A401A60114B19687B685A687B680F
:102B40005B6C1C2003409A400C4B0A431A607B6864
:102B50000022DA637B682522012199547B682422B4
:102B60000021995400231800BD4604B080BDC04622
:102B7000F8FFFDBF000002400F80FFFFA8000240E9
:102B800080B586B000AFF860B9607A603B6017230B
:102B9000FB1800221A70FB6824229B5C012B01D1D8
:102BA00002234FE0FB68242201219954FB6825226F
:102BB0009B5CDBB2012B3AD1FB68252202219954A0
:102BC000FB680022DA63FB681B681A68FB681B68F5
:102BD00001218A431A603B687A68B968F86800F096
:102BE000E3F8FB681B6B002B08D0FB681B681A68B6
:102BF000FB681B680E210A431A600FE0FB681B6824
:102C00001A68FB681B6804218A431A60FB681B680A
:102C10001A68FB681B680A210A431A60FB681B6874
:102C20001A68FB681B6801210A431A6007E0FB6809
:102C30002422002199541723FB1802221A7017230B
:102C4000FB181B781800BD4606B080BD80B584B067
:102C500000AF78607B681B6C1B68FB607B681B683F
:102C60001B68BB607B685B6C1C22134004229A408B
:102C70001300FA68134026D0BB680422134022D008
:102C80007B681B681B682022134007D17B681B6888
:102C90001A687B681B6804218A431A607B685B6C36
:102CA0001C221A407B681B6C042191400A005A6068
:102CB0007B681B6B002B00D171E07B681B6B7A6813
:102CC000100098476BE07B685B6C1C22134002226B
:102CD0009A401300FA6813402DD0BB6802221340BB
:102CE00029D07B681B681B68202213400BD17B68AE
:102CF0001B681A687B681B680A218A431A607B6814
:102D00002522012199547B685B6C1C221A407B6848
:102D10001B6C022191400A005A607B68242200212A
:102D200099547B68DB6A002B39D07B68DB6A7A6850
:102D30001000984733E07B685B6C1C22134008222C
:102D40009A401300FA6813402AD0BB680822134047
:102D500026D07B681B681A687B681B680E218A4333
:102D60001A607B685B6C1C221A407B681B6C01211B
:102D700091400A005A607B680122DA637B68252251
:102D8000012199547B682422002199547B685B6B54
:102D9000002B05D07B685B6B7A6810009847C046B3
:102DA000C046BD4604B080BD80B584B000AFF860B9
:102DB000B9607A603B60FB685B6C1C221A40FB6860
:102DC0001B6C012191400A005A60FB681B683A683D
:102DD0005A60FB689B68102B08D1FB681B687A68F7
:102DE0009A60FB681B68BA68DA6007E0FB681B68DA
:102DF000BA689A60FB681B687A68DA60C046BD46AC
:102E000004B080BD80B586B000AF78603960002323
:102E10007B610023FB6000233B614FE13B681B6843
:102E200001217A6991400A001340FB60FB68002B86
:102E300000D140E13B685B68022B03D03B685B68D4
:102E4000122B23D17B69DA087B6808329200D358B1
:102E50003B617B69072213409B000F229A401300BD
:102E6000DA433B6913403B613B681A697B69072180
:102E70000B409B009A4013003A6913433B617B6906
:102E8000DA087B68083292003969D1503B685B6888
:102E9000012B0BD03B685B68022B07D03B685B685B
:102EA000112B03D03B685B68122B30D17B689B6889
:102EB0003B617B695B0003229A401300DA433B6964
:102EC00013403B613B68DA687B695B009A40130002
:102ED0003A6913433B617B683A699A607B685B6837
:102EE0003B6101227B699A401300DA433B6913403E
:102EF0003B613B685B681B0901221A407B699A4071
:102F000013003A6913433B617B683A695A607B68F6
:102F10001B683B617B695B0003229A401300DA4324
:102F20003B6913403B613B685B6803221A407B6945
:102F30005B009A4013003A6913433B617B683A692E
:102F40001A607B68DB683B617B695B0003229A4007
:102F50001300DA433B6913403B613B689A687B6925
:102F60005B009A4013003A6913433B617B683A69FE
:102F7000DA603B685A6880235B05134000D19AE011
:102F8000544B5A6B534B01210A435A63524A7B6993
:102F90009B0802339B009B583B617B6903221340D3
:102FA0009B000F229A401300DA433B6913403B61B8
:102FB0007A68A023DB059A4219D07B68474A93427E
:102FC00013D07B68464A93420DD07B68454A9342B2
:102FD00007D07B68444A934201D1052308E00623C9
:102FE00006E0032304E0022302E0012300E00023C3
:102FF0007A6903210A40920093403A6913433B6186
:1030000035497B699B0802339B003A695A50374B1C
:103010001B683B61FB68DA433B6913403B613B68DB
:103020005A6880235B02134003D03A69FB6813435C
:103030003B612E4B3A691A602C4B5B683B61FB6825
:10304000DA433B6913403B613B685A6880239B022B
:10305000134003D03A69FB6813433B61234B3A6941
:103060005A60224B9B683B61FB68DA433B69134023
:103070003B613B685A6880235B03134003D03A6985
:10308000FB6813433B61194B3A699A60174BDB6845
:103090003B61FB68DA433B6913403B613B685A681C
:1030A00080239B03134003D03A69FB6813433B61C1
:1030B0000E4B3A69DA607B6901337B613B681A68C1
:1030C0007B69DA40131E00D0A8E6C046C046BD4664
:1030D00006B080BD00100240000001400004005016
:1030E00000080050000C0050001C0050000401407B
:1030F00080B584B000AF78600A00BB1C1A807B6882
:103100001B69BA1C1288134004D00F23FB1801223C
:103110001A7003E00F23FB1800221A700F23FB180C
:103120001B781800BD4604B080BD80B582B000AFEA
:10313000786008001100BB1C021C1A807B1C0A1C52
:103140001A707B1C1B78002B04D0BB1C1A887B6870
:103150009A6103E0BB1C1A887B689A62C046BD4630
:1031600002B080BD80B582B000AF78607B68002B74
:1031700001D1012382E07B6841229B5CDBB2002B02
:1031800007D17B684022002199547B68180001F028
:1031900089FE7B684122242199547B681B681A6848
:1031A0007B681B6801218A431A607B685A687B68C8
:1031B0001B6834490A401A617B681B689A687B68FF
:1031C0001B6831490A409A607B68DB68012B08D193
:1031D0007B689A687B681B68802109020A439A60B1
:1031E00007E07B689A687B681B68842109020A43B0
:1031F0009A607B68DB68022B04D17B681B688022A5
:1032000012015A607B681B685A687B681B681F49FB
:103210000A435A607B681B68DA687B681B681A4936
:103220000A40DA607B681A697B685B691A4311009F
:103230007B689B691A027B681B680A43DA607B68BB
:10324000D9697B681A6A7B681B680A431A607B68C5
:103250001B681A687B681B6801210A431A607B6837
:1032600000225A647B684122202199547B68002205
:103270001A637B6842220021995400231800BD463E
:1032800002B080BDFFFFFFF0FF7FFFFF0080000264
:1032900090B589B002AFF8600C00100019000A2345
:1032A000FB18221C1A800823FB18021C1A80BB1D65
:1032B0000A1C1A80FB6841229B5CDBB2202B00D0E9
:1032C0000CE1BB6A002B04D02C23FB181B88002BBD
:1032D00005D1FB68802292005A640123FFE0FB685D
:1032E00040229B5C012B01D10223F8E0FB684022C5
:1032F00001219954FEF732FF03007B6180231902FC
:10330000F8687B6900931923012200F075F9031E08
:1033100001D00123E3E0FB68412221219954FB689D
:10332000422240219954FB6800225A64FB68BA6A21
:103330005A62FB682C22BA1812885A85FB68002250
:103340005A63BB1D1C880823FB181A880A23FB1824
:103350001988F8687B6901933B6B0093230000F0A8
:10336000C5F8031E05D0FB684022002199540123B3
:10337000B5E0FB685B8D9BB2FF2B11D9FB68FF2288
:103380001A85FB681B8DDAB280235C040A23FB18C4
:103390001988F86800230093230000F04DFA12E02A
:1033A000FB685B8D9AB2FB681A85FB681B8DDAB2ED
:1033B00080239C040A23FB181988F86800230093D3
:1033C000230000F039FA7A69396BFB68180000F0C5
:1033D00052F9031E01D0012381E0FB685B6A1A7871
:1033E000FB681B689A62FB685B6A5A1CFB685A623E
:1033F000FB685B8D9BB2013B9AB2FB685A85FB6808
:103400001B8D013B9AB2FB681A85FB685B8D9BB2F2
:10341000002B3AD0FB681B8D002B36D13A6BF86835
:103420007B69009313000022802100F0E5F8031E61
:1034300001D0012353E0FB685B8D9BB2FF2B11D9B8
:10344000FB68FF221A85FB681B8DDAB280235C04BF
:103450000A23FB181988F86800230093230000F062
:10346000EBF912E0FB685B8D9AB2FB681A85FB688A
:103470001B8DDAB280239C040A23FB181988F86894
:1034800000230093230000F0D7F9FB685B8D9BB20B
:10349000002B98D17A69396BFB68180000F02AF983
:1034A000031E01D001231AE0FB681B682022DA61A9
:1034B000FB681B685A68FB681B680B490A405A6026
:1034C000FB68412220219954FB6842220021995433
:1034D000FB68402200219954002300E002231800D9
:1034E000BD4607B090BDC04600E800FEB0B586B04E
:1034F00002AFF8600C00100019000A257B19221C8D
:103500001A800823FB18021C1A80BB1D0A1C1A8093
:10351000BB1D1B88DAB280235C047B191988F8680C
:10352000234B0093230000F087F97A6A396AFB681D
:10353000180000F0A0F8031E01D0012333E0BB1DEA
:103540001B88012B07D10823FB181B88DAB2FB6804
:103550001B689A6219E00823FB181B881B0A9BB2A0
:10356000DAB2FB681B689A627A6A396AFB681800EB
:1035700000F081F8031E01D0012314E00823FB189A
:103580001B88DAB2FB681B689A623A6AF8687B6A41
:10359000009313000022802100F02EF8031E01D0BA
:1035A000012300E000231800BD4604B0B0BDC046B2
:1035B0000020008080B582B000AF78607B681B6817
:1035C0009B6902221340022B03D17B681B680022F7
:1035D0009A627B681B689B6901221340012B07D00C
:1035E0007B681B689A697B681B6801210A439A61A2
:1035F000C046BD4602B080BD80B584B000AFF86063
:10360000B9603B60FB1D1A7021E03B6801331ED09E
:10361000FEF7A4FD0200BB69D31A3A689A4202D3AE
:103620003B68002B13D1FB685B6C20221A43FB68BC
:103630005A64FB68412220219954FB6842220021F0
:103640009954FB6840220021995401230FE0FB6844
:103650001B689B69BA681340BA68D31A5A4253412F
:10366000DBB21A00FB1D1B789A42CED00023180053
:10367000BD4604B080BD80B584B000AFF860B960CD
:103680007A602BE07A68B968FB68180000F06EF881
:10369000031E01D0012329E0BB6801331ED0FEF7D1
:1036A0005DFD02007B68D31ABA689A4202D3BB68F8
:1036B000002B13D1FB685B6C20221A43FB685A6411
:1036C000FB68412220219954FB6842220021995431
:1036D000FB68402200219954012307E0FB681B6826
:1036E0009B6902221340022BCCD100231800BD4657
:1036F00004B080BD80B584B000AFF860B9607A6076
:1037000028E07A68B968FB68180000F02FF8031EFB
:1037100001D0012326E0FEF721FD02007B68D31AC9
:10372000BA689A4202D3BB68002B13D1FB685B6C6A
:1037300020221A43FB685A64FB68412220219954D5
:10374000FB68422200219954FB68402200219954D1
:10375000012307E0FB681B689B6920221340202B94
:10376000CFD100231800BD4604B080BD80B584B021
:1037700000AFF860B9607A60FB681B689B69102233
:103780001340102B51D121E0BB6801331ED0FEF74E
:10379000E5FC02007B68D31ABA689A4202D3BB6880
:1037A000002B13D1FB685B6C20221A43FB685A6420
:1037B000FB68412220219954FB6842220021995440
:1037C000FB6840220021995401232FE0FB681B680D
:1037D0009B6920221340202BD6D1FB681B68102246
:1037E000DA61FB681B682022DA61FB681800FFF7CA
:1037F000E1FEFB681B685A68FB681B680D490A40BC
:103800005A60FB685B6C04221A43FB685A64FB68CD
:10381000412220219954FB68422200219954FB68DF
:10382000402200219954012300E000231800BD46E6
:1038300004B080BD00E800FE90B585B000AFF86030
:10384000080011007B600A243B19021C1A80092021
:103850003B180A1C1A70FB681B685B683A6A510DBA
:103860008022D2000A400E490A43D2431A40110076
:103870003B191B889B059A0D3B181B781804FF23E6
:103880001B0403401A437B681A433B6A1A43FB68D4
:103890001B680A435A60C046BD4605B090BDC0468D
:1038A000FF63FF0380B582B000AF786039607B684A
:1038B00041229B5CDBB2202B38D17B6840229B5C91
:1038C000012B01D1022332E07B684022012199546F
:1038D0007B684122242199547B681B681A687B68A5
:1038E0001B6801218A431A607B681B681A687B6821
:1038F0001B6811490A401A607B681B6819687B685D
:103900001B683A680A431A607B681B681A687B6800
:103910001B6801210A431A607B68412220219954C7
:103920007B68402200219954002300E00223180004
:10393000BD4602B080BDC046FFEFFFFF80B584B03A
:1039400000AF786039607B6841229B5CDBB2202B42
:1039500039D17B6840229B5C012B01D1022333E0EB
:103960007B684022012199547B684122242199548B
:103970007B681B681A687B681B6801218A431A6090
:103980007B681B681B68FB60FB68114A1340FB6087
:103990003B681B02FA681343FB607B681B68FA688C
:1039A0001A607B681B681A687B681B6801210A43E0
:1039B0001A607B684122202199547B6840220021B3
:1039C0009954002300E002231800BD4604B080BDD6
:1039D000FFF0FFFFB0B58AB000AF78607B68002BC6
:1039E00002D1012300F0A5FBCE4BDB680C22134073
:1039F0003B62CC4BDA6880235B021340FB617B683F
:103A00001B680122134000D17DE03B6A082B07D0E0
:103A10003B6A0C2B12D1FA6980235B029A420DD1CA
:103A2000C04B1A6880239B02134000D16AE07B6878
:103A30005B68002B66D1012300F07BFB7B685A6832
:103A400080235B029A4207D1B64B1A68B54B80219E
:103A500049020A431A6027E07B685A68A023DB0208
:103A60009A420ED1AF4B1A68AE4B8021C9020A436D
:103A70001A60AC4B1A68AB4B802149020A431A60AA
:103A800012E0A84B1A68A74BA7490A401A60A54B39
:103A90001A6880235B021340FB60FB68A14B1A6825
:103AA000A04BA2490A401A607B685B68002B14D0C7
:103AB000FEF754FB0300BB6108E0FEF74FFB02007A
:103AC000BB69D31A642B01D9032332E3954B1A68DF
:103AD00080239B021340F0D015E0FEF73FFB03006C
:103AE000BB6108E0FEF73AFB0200BB69D31A642B06
:103AF00001D903231DE38B4B1A6880239B021340DB
:103B0000F0D100E0C0467B681B680222134000D160
:103B10008AE07B68DB687B613B6A042B05D03B6AEB
:103B20000C2B3DD1FB69002B3AD17E4B1B68042244
:103B3000134004D07B69002B01D10123F9E2794BBA
:103B40005B687B4A134019007B681B691A02754B3E
:103B50000A435A60734B1B68092293431900714B47
:103B60007A690A431A6000F019FC01006D4BDB68AA
:103B70001B090F2213406F4AD35C0A00DA406E4BD8
:103B80001A6013257C190020FEF7B2FA0300237097
:103B90002A00BB181B78002B46D0BB181B78C8E244
:103BA0007B69002B27D05F4B1B68092293431900C8
:103BB0005C4B7A690A431A60FEF7D0FA0300BB61D6
:103BC00008E0FEF7CBFA0200BB69D31A022B01D939
:103BD0000323AEE2534B1B6804221340F1D0514B38
:103BE0005B68534A134019007B681B691A024D4BEE
:103BF0000A435A6018E04B4B1A684A4B01218A432A
:103C00001A60FEF7ABFA0300BB6108E0FEF7A6FA04
:103C10000200BB69D31A022B01D9032389E2414B6D
:103C20001B6804221340F1D17B681B6810221340EB
:103C300000D19FE03B6A002B3FD13A4B1A688023AA
:103C40009B00134005D07B68DB69002B01D1012369
:103C50006FE2344B5B68394A134019007B685A6A3B
:103C6000304B0A435A602F4B5B681B02190A7B6872
:103C70001B6A1A062B4B0A435A607B685B6A5B0B14
:103C80000133802212029A40264BDB681B090F2168
:103C90000B402849CB5CDA40274B1A6013257C196E
:103CA0000020FEF725FA030023702A00BB181B78BA
:103CB000002B5FD0BB181B783BE27B68DB69002BD5
:103CC0003ED0184B1A68174B802149000A431A60EE
:103CD000FEF744FA0300BB6108E0FEF73FFA02007A
:103CE000BB69D31A022B01D9032322E20D4B1A68B8
:103CF00080239B001340F0D00A4B5B680F4A1340AF
:103D000019007B685A6A074B0A435A60054B5B6887
:103D10001B02190A7B681B6A1A06024B0A435A6087
:103D200028E0C04600100240FFFFFEFFFFFFFBFF40
:103D3000FFE0FFFFC8C7000814000020FF1FFFFFBF
:103D4000BD4B1A68BC4BBD490A401A60FEF706FA23
:103D50000300BB6108E0FEF701FA0200BB69D31A59
:103D6000022B01D90323E4E1B34B1A6880239B00A3
:103D70001340F0D17B681B680822134036D07B6863
:103D80005B69002B19D0AC4B1A6DAB4B01210A4378
:103D90001A65FEF7E3F90300BB6108E0FEF7DEF900
:103DA0000200BB69D31A022B01D90323C1E1A24B44
:103DB0001B6D02221340F1D018E09F4B1A6D9E4BF1
:103DC00001218A431A65FEF7C9F90300BB6108E0C7
:103DD000FEF7C4F90200BB69D31A022B01D90323F1
:103DE000A7E1954B1B6D02221340F1D17B681B6844
:103DF0000422134000D1AEE027203B1800221A70A5
:103E00008D4B9A6B80235B05134009D18A4B9A6BCB
:103E1000894B802149050A439A633B1801221A7095
:103E2000874B1A6880235B0013401AD1844B1A68B1
:103E3000834B802149000A431A60FEF78FF9030083
:103E4000BB6108E0FEF78AF90200BB69D31A642B54
:103E500001D903236DE17A4B1A6880235B0013407C
:103E6000F0D07B689A6880235B009A4207D1724B3E
:103E70001A6D714B802149000A431A6531E07B6855
:103E80009B68002B0CD16C4B1A6D6B4B6B490A4035
:103E90001A65694B1A6D684B6A490A401A6520E039
:103EA0007B689A68A023DB009A420ED1624B1A6DA0
:103EB000614B8021C9000A431A655F4B1A6D5E4B46
:103EC000802149000A431A650BE05B4B1A6D5A4B7F
:103ED0005A490A401A65584B1A6D574B59490A40BE
:103EE0001A657B689B68002B15D0FEF737F9030035
:103EF000BB6109E0FEF732F90200BB69D31A524AEE
:103F0000934201D9032314E14B4B1A6D80239B008C
:103F10001340EFD014E0FEF721F90300BB6109E084
:103F2000FEF71CF90200BB69D31A474A934201D934
:103F30000323FEE0404B1A6D80239B001340EFD11A
:103F40002723FB181B78012B05D13B4B9A6B3A4B6F
:103F50003E490A409A637B681B682022134049D07F
:103F60007B689B69002B26D0334B9A68324B01212A
:103F70000A439A60304B5A6B2F4B01210A435A6314
:103F8000334B1A6A324B802189010A431A62FEF7C9
:103F9000E5F80300BB6108E0FEF7E0F80200BB694A
:103FA000D31A022B01D90323C3E0234B9B680222BF
:103FB0001340F1D01EE0204B9A681F4B01218A4329
:103FC0009A60234B1A6A224B22490A401A62FEF772
:103FD000C5F80300BB6108E0FEF7C0F80200BB694A
:103FE000D31A022B01D90323A3E0134B9B680222AF
:103FF0001340F1D17B689B6A002B00D198E03B6AAB
:104000000C2B00D177E07B689B6A022B58D10A4BBE
:104010001A68094B10490A401A60FEF79FF803001E
:10402000BB611BE0FEF79AF80200BB69D31A022BB2
:1040300014D903237DE0C04600100240FFFEFFFFBD
:1040400000700040FFFBFFFF88130000FFFFFFEF41
:1040500000000140FFDFFFFFFFFFFFFE374B1A6844
:1040600080239B041340DDD1344BDB68344A13407A
:1040700019007B68DA6A7B681B6B1A437B685B6B91
:104080001A432E4B0A43DA602C4B1A682B4B8021C3
:1040900049040A431A60FEF761F80300BB6108E0B7
:1040A000FEF75CF80200BB69D31A022B01D9032387
:1040B0003FE0224B1A6880239B041340F0D037E086
:1040C0001E4B1A681D4B1F490A401A60FEF746F83E
:1040D0000300BB6108E0FEF741F80200BB69D31A98
:1040E000022B01D9032324E0144B1A6880239B047C
:1040F0001340F0D11CE0114BDB68FB61FA698023AF
:104100005B021A407B68DB6A9A420FD1FA69F0239E
:104110009B031A407B681B6B9A4207D1FA69C02344
:104120001B041A407B685B6B9A4201D0012300E0BC
:1041300000231800BD460AB0B0BDC04600100240C2
:10414000FFFF02FFFFFFFFFEB0B584B000AF786055
:1041500039607B68002B01D101230DE1884B1B687E
:10416000012213403A689A4211D9854B1B680122FB
:1041700093431900824B3A680A431A60804B1B68CC
:10418000012213403A689A4201D00123F4E07B688F
:104190001B680222134009D07A4BDB68F02293435C
:1041A00019007B689A68774B0A43DA607B681B6862
:1041B0000122134000D189E07B685B68022B07D1A4
:1041C000704B1A6880239B02134020D10123D3E057
:1041D0007B685B68032B07D16A4B1A6880239B04BA
:1041E000134014D10123C7E07B685B68012B06D123
:1041F000644B1B680422134009D10123BCE0614BCE
:104200001A6880239B00134001D10123B4E05D4B69
:10421000DB680322934319007B685A68594B0A43B1
:10422000DA60FDF79BFF0300FB607B685B68022B95
:1042300011D109E0FDF792FF0200FB68D31A524A40
:10424000934201D9032397E04E4BDB680C221340C5
:10425000082BEFD13AE07B685B68032B11D109E0B2
:10426000FDF77CFF0200FB68D31A474A934201D94D
:10427000032381E0434BDB680C2213400C2BEFD16E
:1042800024E07B685B68012B1BD109E0FDF766FF2A
:104290000200FB68D31A3C4A934201D903236BE026
:1042A000384BDB680C221340042BEFD10EE0FDF7F6
:1042B00055FF0200FB68D31A334A934201D9032306
:1042C0005AE0304BDB680C221340F0D12C4B1B68BA
:1042D000012213403A689A4211D2294B1B680122ED
:1042E00093431900264B3A680A431A60244B1B6813
:1042F000012213403A689A4201D001233CE07B68D6
:104300001B680422134009D01E4BDB681F4A134070
:1043100019007B68DA681B4B0A43DA607B681B680C
:10432000082213400AD0174BDB68194A13401900C2
:104330007B681B69DA00134B0A43DA6000F02EF841
:104340000100104BDB681B090F221340114AD35C9C
:104350000A00DA40104B1A600B257C190020FDF78B
:10436000C7FE030023702A00BB181B78002B02D065
:10437000BB181B7800E000231800BD4604B0B0BD98
:10438000002002400010024088130000FFF8FFFFE9
:10439000FFC7FFFFC8C700081400002080B586B023
:1043A00000AF3C4BDB68FB60FB680C2213400C2B1E
:1043B00013D05CD8042B02D0082B0BD057E0354B20
:1043C0001B681022134002D0334B3B615DE0334B3E
:1043D0003B615AE0324B3B6157E0FB689B0C0F227C
:1043E0001340304AD35CBB60FB689B0D0322134033
:1043F00001337B60274BDA6880235B0213400FD0C8
:10440000B9680A005201521A93019B1ADB005B182B
:104410005B0279681800FBF793FE03007B6123E0E1
:104420001C4B1B68102213400FD0B9680A005201C0
:10443000521A93019B1ADB005B181B027968180063
:10444000FBF77EFE03007B610EE0B9680A005201B3
:10445000521A93019B1ADB005B189B0279681800C3
:10446000FBF76EFE03007B617B693B610DE0094B4E
:104470005B685B0B072213403B603B680133802283
:1044800012029A4013003B61C0463B691800BD46CA
:1044900006B080BD0010024000093D000024F40079
:1044A00000127A00D8C7000880B586B000AF7860E7
:1044B0007B681B682022134000D1C6E017203B1800
:1044C00000221A70904B9A6B80235B05134009D130
:1044D0008D4B9A6B8C4B802149050A439A633B189C
:1044E00001221A70894B1A6880235B0013401AD18D
:1044F000864B1A68854B802149000A431A60FDF7F4
:104500002DFE03003B6108E0FDF728FE02003B6939
:10451000D31A642B01D90323F2E07C4B1A68802361
:104520005B001340F0D0784B1A68C0239B03134004
:10453000FB607B685A68C0239B031340FA689A4269
:1045400013D07B685A68C0239B021A40C0239B0289
:104550009A420AD16C4B1A6880239B021A4080232E
:104560009B029A4201D10123CAE0674B1A6DC02316
:104570009B021340FB60FB68002B3BD07B685A68B2
:10458000C0239B021340FA689A4233D07B681B68B1
:10459000202213402ED05C4B1B6D5D4A1340FB6004
:1045A000594B1A6D584B802109030A431A65564B23
:1045B0001A6D554B57490A401A65534BFA681A65EC
:1045C000FA6880235B00134014D0FDF7C7FD030099
:1045D0003B6109E0FDF7C2FD02003B69D31A4E4A78
:1045E000934201D903238BE0474B1A6D80239B0034
:1045F0001340EFD07B685A68C0239B021A40C02347
:104600009B029A420CD1404B1B68444A134019004C
:104610007B685A68C0239B031A403B4B0A431A60CD
:10462000394B196D7B685A68C0239B021A40364B80
:104630000A431A651723FB181B78012B05D1324B4F
:104640009A6B314B36490A409A637B681B6801229A
:10465000134009D02C4BDB6C0322934319007B6879
:104660009A68294B0A43DA647B681B68022213406C
:1046700009D0254BDB6C0C22934319007B68DA6868
:10468000214B0A43DA647B681B680422134009D07B
:104690001D4BDB6C234A134019007B681A691A4BC7
:1046A0000A43DA647B681B680822134009D0164B62
:1046B000DB6C1D4A134019007B685A69124B0A4390
:1046C000DA647B681B684022134009D00E4BDB6C18
:1046D000164A134019007B68DA690B4B0A43DA6407
:1046E0007B681B688022134009D0074BDB6C104AA3
:1046F000134019007B689A69034B0A43DA6400236C
:104700001800BD4606B080BD001002400070004099
:10471000FFFFFCFFFFFFF7FF88130000FFFFCFFF45
:10472000FFFFFFEFFFF3FFFFFFCFFFFFFFFFFFFBE9
:10473000FFFFF3FF80B582B000AF78607B68002B8D
:1047400001D101231EE07B6839229B5CDBB2002B88
:1047500007D17B683822002199547B68180004F047
:10476000AFF97B683922022199547B681A687B680B
:1047700004331900100000F033F97B68392201215D
:10478000995400231800BD4602B080BD80B584B0A6
:1047900000AF78607B681B68DA687B681B68012162
:1047A0000A43DA607B681B689B6807221340FB6042
:1047B000FB68062B07D07B681B681A687B681B6840
:1047C00001210A431A6000231800BD4604B080BDD1
:1047D00080B582B000AF78607B681B681B690222DD
:1047E0001340022B24D17B681B68DB680222134034
:1047F000022B1DD17B681B68032252421A617B6821
:1048000001221A767B681B689B690322134004D03F
:104810007B68180000F0CCF807E07B68180000F017
:10482000BFF87B68180000F0CBF87B6800221A768E
:104830007B681B681B6904221340042B25D17B680D
:104840001B68DB6804221340042B1ED17B681B68A5
:10485000052252421A617B6802221A767B681B6825
:104860009A69C0239B00134004D07B68180000F0B5
:104870009FF807E07B68180000F092F87B6818004A
:1048800000F09EF87B6800221A767B681B681B6923
:1048900008221340082B24D17B681B68DB680822A0
:1048A0001340082B1DD17B681B68092252421A61F4
:1048B0007B6804221A767B681B68DB69032213403D
:1048C00004D07B68180000F073F807E07B681800DC
:1048D00000F066F87B68180000F072F87B68002230
:1048E0001A767B681B681B6910221340102B25D198
:1048F0007B681B68DB6810221340102B1ED17B687D
:104900001B68112252421A617B6808221A767B6862
:104910001B68DA69C0239B00134004D07B68180031
:1049200000F046F807E07B68180000F039F87B6873
:10493000180000F045F87B6800221A767B681B6837
:104940001B6901221340012B0FD17B681B68DB68B8
:1049500001221340012B08D17B681B6802225242BE
:104960001A617B68180001F07BF87B681B681B6983
:1049700040221340402B0FD17B681B68DB6840222C
:104980001340402B08D17B681B68412252421A61B8
:104990007B68180000F01CF8C046BD4602B080BD20
:1049A00080B582B000AF7860C046BD4602B080BD21
:1049B00080B582B000AF7860C046BD4602B080BD11
:1049C00080B582B000AF7860C046BD4602B080BD01
:1049D00080B582B000AF7860C046BD4602B080BDF1
:1049E00080B584B000AF786039607B681B68FB607D
:1049F0007A688023DB059A4207D07B681F4A93427E
:104A000003D07B681E4A934208D1FB68702293430F
:104A1000FB603B685B68FA681343FB607A6880233D
:104A2000DB059A4207D07B68144A934203D07B6827
:104A3000134A934208D1FB68124A1340FB603B685B
:104A4000DB68FA681343FB60FB68802293431A001B
:104A50003B681B691343FB607B68FA681A603B681C
:104A60009A687B68DA623B681A687B689A627B683E
:104A700001225A61C046BD4604B080BD0008014015
:104A800000140140FFFCFFFF80B584B000AF7860E8
:104A900039607B6838229B5C012B01D1022332E014
:104AA0007B683822012199547B683922022199546C
:104AB0007B681B685B68FB607B681B689B68BB60EE
:104AC000FB6870229343FB603B681B68FA681343E2
:104AD000FB60BB6880229343BB603B685B68BA683D
:104AE0001343BB607B681B68FA685A607B681B686D
:104AF000BA689A607B683922012199547B68382210
:104B00000021995400231800BD4604B080BD000068
:104B100080B582B000AF3B00180008231A000021C6
:104B200004F042F8374B384A1A60364B0022DA63F9
:104B3000344B8022D2055A60324B00229A60314BAE
:104B400000229A632F4B01221A612E4B0022DA6059
:104B50002C4B2022002199542A4B212200219954C8
:104B6000284B00229A62274BC222FF325A62254B01
:104B70002C2200219954234B08225A61214B0022F8
:104B80001A63204B00229A611E4B00225A631D4B70
:104B90000022DA611B4B1800FDF708FB031E01D051
:104BA00003F014FE3B0001221A603B0080225201F8
:104BB0005A603A00134B11001800FDF705FD031E63
:104BC00001D003F003FE3B00104A1A603A000D4B7F
:104BD00011001800FDF7F8FC031E01D003F0F6FDEC
:104BE0003B000B4A1A603A00064B11001800FDF713
:104BF000EBFC031E01D003F0E9FDC046BD4602B048
:104C000080BDC046080200200024014002000004CC
:104C10000400000890B589B000AF78600C243B19FF
:104C2000180014231A00002103F0BEFF7B681B68E4
:104C30002A4A93424DD12A4B5A6B294B8021890035
:104C40000A435A63264BDA6A254B01210A43DA628A
:104C5000234BDB6A01221340BB60BB683B19072270
:104C60001A603B1903225A603B1900229A603A19D4
:104C7000A023DB0511001800FEF7C4F8194B1A4AEF
:104C80001A60184B00225A60164B00229A60154B8E
:104C90000022DA60134B80221A61124B80225200EC
:104CA0005A61104B802212019A610E4B0022DA6188
:104CB0000C4B00221A620B4B1800FDF7E9FE031E95
:104CC00001D003F083FD7B68064ADA64054B7A68FD
:104CD0009A62C046BD4609B090BDC046002401405E
:104CE00000100240640200200800024080B582B03B
:104CF00000AF0C4B1A6B0B4B01210A431A63094B93
:104D00001B6B012213407B607B680022002109207D
:104D1000FDF78CFE0920FDF79EFEC046BD4602B0A1
:104D200080BDC0460010024090B589B000AF0C2491
:104D30003B19180014231A00002103F035FF354BEE
:104D4000DA6A344B04210A43DA62324BDB6A04220A
:104D50001340BB60BB682F4BDA6A2E4B01210A431C
:104D6000DA622C4BDB6A012213407B607B68294BA3
:104D7000DA6A284B02210A43DA62264BDB6A0222F6
:104D800013403B603B68C0231B02234801221900EB
:104D9000FEF7CBF92149A023DB0501221800FEF71D
:104DA000C4F93B19C02212021A603B1901225A6051
:104DB0003B1900229A603B190022DA603B19164A1F
:104DC00019001000FEF71EF83B19144A1A603B192F
:104DD00001225A603B1900229A603B190022DA60D6
:104DE0003A19A023DB0511001800FEF70BF83B1958
:104DF0003B221A603B1900225A603B1901229A603B
:104E00003B19074A19001000FDF7FCFFC046BD46DC
:104E100009B090BD0010024000080050F887000063
:104E20000004005080B500AF1B4B1C4A1A601A4B9F
:104E30001B4A5A60184B00229A60174B0122DA6015
:104E4000154B00221A61144B00225A61124B0022AA
:104E50009A61114B0022DA610F4B00221A620E4B4D
:104E60001800FEF77FF9031E01D003F0AFFC0A4BD8
:104E700000211800FEF716FD031E01D003F0A6FC6A
:104E8000054B00211800FEF759FD031E01D003F069
:104E90009DFCC046BD4680BDAC02002000540040D1
:104EA000380F300090B589B000AF78600C243B1902
:104EB000180014231A00002103F076FE7B681B689B
:104EC000174A934228D1174BDA6A164B02210A433C
:104ED000DA62144BDB6A02221340BB60BB6821001C
:104EE0007B18C0221A607B1812225A607B1801229C
:104EF0009A607B180322DA607B1801221A617B1802
:104F0000094A19001000FDF77DFF064B9A6B054B0F
:104F1000802189030A439A63C046BD4609B090BD0B
:104F200000540040001002400004005080B586B0DC
:104F300004AF0200FB1D1A7007486423029301238B
:104F40000193FB1D0093012300227821FEF7A0F9B5
:104F5000C046BD4602B080BDAC02002080B586B020
:104F600004AF0200FB1D1A7007486423029301235B
:104F70000193FB1D0093012340227821FEF788F95D
:104F8000C046BD4602B080BDAC02002080B582B0F4
:104F900000AFFB1D00221A7022E0FB1D1B78503B66
:104FA000DBB21800FFF7C2FF0020FFF7BFFF1020A1
:104FB000FFF7BCFFBB1D00221A7007E00020FFF7BF
:104FC000CDFFBB1D1A78BB1D01321A70BB1D1B78AB
:104FD0005BB2002BF2DAFB1D1A78FB1D01321A704E
:104FE000FB1D1B78072BD8D90021002000F065F8A5
:104FF000C046BD4602B080BD80B582B000AF7860CB
:10500000AE20FFF793FF0020FFF790FF1020FFF77F
:105010008DFF4020FFF78AFF8120FFF787FFCF2019
:10502000FFF784FFA120FFF781FFC820FFF77EFF75
:10503000A620FFF77BFFA820FFF778FF3F20FFF7B0
:1050400075FFD320FFF772FF0020FFF76FFFD52019
:10505000FFF76CFF8020FFF769FFD920FFF766FF9D
:10506000F120FFF763FFDA20FFF760FF1220FFF760
:105070005DFFDB20FFF75AFF4020FFF757FF20209E
:10508000FFF754FF0220FFF751FF8D20FFF74EFF7F
:105090001420FFF74BFFA420FFF748FFA620FFF7DF
:1050A00045FFAF20FFF742FFAF20FFF73FFFFFF7BD
:1050B0006DFFC046BD4602B080BD80B582B000AF76
:1050C0000200FB1D1A70BB1D0A1C1A70BB1D1B7849
:1050D000503BDBB21800FFF729FFFB1D1B781B09B3
:1050E000DBB210221343DBB21800FFF71FFFFB1DDA
:1050F0001B785BB20E2213405BB2012213435BB2FA
:10510000DBB21800FFF712FFC046BD4602B080BDFB
:1051100080B586B000AFF860B9601900FB1D1A7049
:10512000BB1D0A1C1A701623FB18FA1D1278203AB0
:105130001A70FB687F2B04D90023FB60BB68023325
:10514000BB60FB68DBB2BA68D2B211001800FFF78F
:10515000B4FF1723FB1800221A7059E0BB68012B1B
:105160002CD1BB1D1B78002B10D01623FB181A78EE
:105170001723FB1819782B4813005B009B185B0062
:10518000C3185B5C01221343DBB213E01623FB1848
:105190001A781723FB181978224813005B009B1814
:1051A0005B00C3185B5C5BB2DB435BB20122134361
:1051B0005BB2DBB21800FFF7D1FE23E0BB1D1B780A
:1051C000002B0DD01623FB181A781723FB1819781B
:1051D000144813005B009B185B00C3185B5C0EE077
:1051E0001623FB181A781723FB1819780D4813009B
:1051F0005B009B185B00C3185B5CDB43DBB21800F1
:10520000FFF7ACFE17217B181A787B1801321A7051
:105210001723FB181B78052BA0D9C046C046BD46F6
:1052200006B080BD0CBF000890B587B000AFF86035
:10523000B9601900FB1D1A70BB1D0A1C1A701623D9
:10524000FB18FA1D1278203A1A70FB687F2B04D9DC
:105250000023FB60BB680233BB60FB68DBB2BA684B
:10526000D2B211001800FFF728FF1723FB18002205
:105270001A7023E0BB1D1B78002B0AD01623FB18E5
:105280001A781723FB181B782D4912018A18D35C52
:105290000BE01623FB181A781723FB181B782849F4
:1052A00012018A18D35CDB43DBB21800FFF756FE0D
:1052B00017217B181A787B1801321A7017243B19B2
:1052C0001B78072BD6D9FB68DAB2BB68DBB2013397
:1052D000DBB219001000FFF7F0FE3B1908221A702C
:1052E00023E0BB1D1B78002B0AD01623FB181A786D
:1052F0001723FB181B78124912018A18D35C0BE0A4
:105300001623FB181A781723FB181B780C49120177
:105310008A18D35CDB43DBB21800FFF71FFE1721AE
:105320007B181A787B1801321A701723FB181B7828
:105330000F2BD6D9C046C046BD4607B090BDC0466B
:1053400040C1000880B586B000AFF860B9607A60EF
:105350001A00FB1C1A701723FB1800221A7035E084
:105360001723FB181B787A68D3181B780A2B05D1F2
:105370000023FB60BB680133BB6021E01723FB18EF
:105380001B787A68D3181B780C2B02D1FFF7FEFD2F
:1053900016E01723FB181B787A68D3181A78FB1CC1
:1053A0001B78B968F868FFF7B3FEFB680633FB604B
:1053B000FB68782B04D90023FB60BB680133BB601A
:1053C00017217B181A787B1801321A701723FB18E3
:1053D0001B787A68D3181B78002BC1D1C046C04611
:1053E000BD4606B080BD80B586B000AFF860B9603C
:1053F0007A601A00FB1C1A701723FB1800221A701F
:1054000035E01723FB181B787A68D3181B780A2B12
:1054100005D10023FB60BB680133BB6021E017238B
:10542000FB181B787A68D3181B780C2B02D1FFF776
:10543000ADFD16E01723FB181B787A68D3181A788D
:10544000FB1C1B78B968F868FFF7EEFEFB680833B1
:10545000FB60FB68A02B04D90023FB60BB68013311
:10546000BB6017217B181A787B1801321A7017233A
:10547000FB181B787A68D3181B78002BC1D1C04663
:10548000C046BD4606B080BD80B584B000AFF860B0
:10549000B9607A601A00FB1C1A70FA6813005B008E
:1054A0009B185B001800FB1C1B787A68B968FFF733
:1054B00049FFC046BD4604B080BD80B584B000AF92
:1054C000F860B9607A601A00FB1C1A70FB68D8009B
:1054D000FB1C1B787A68B968FFF785FFC046BD469C
:1054E00004B080BD80B500AFA023DB0500220821F9
:1054F0001800FDF71AFEA023DB050022102118007A
:10550000FDF713FEA023DB05002220211800FDF784
:105510000CFEA023DB05002240211800FDF705FE4C
:10552000A023DB05002280211800FDF7FEFD80236B
:105530005900A023DB0500221800FDF7F6FD8023AB
:105540009900A023DB0500221800FDF7EEFD802363
:10555000D900A023DB0500221800FDF7E6FD80231B
:10556000DB01074800221900FDF7DFFD80231B0245
:10557000034800221900FDF7D8FDC046BD4680BD96
:105580000008005080B500AF02E04B20FCF7F0FDB2
:105590001E4B20211800FDF7ABFD031EF5D002E0E5
:1055A0004B20FCF7E5FD194B01211800FDF7A0FD8C
:1055B000031EF5D002E04B20FCF7DAFD134B082167
:1055C0001800FDF795FD031EF5D002E04B20FCF717
:1055D000CFFD0E4B02211800FDF78AFD031EF5D00A
:1055E00080231902A023DB0501221800FDF79DFD91
:1055F0006420FCF7BDFD80231902A023DB050022F7
:105600001800FDF792FDC046BD4680BD0004005065
:1056100080B500AF02E04B20FCF7AAFD294B20210A
:105620001800FDF765FD031EF5D002E04B20FCF7E6
:105630009FFD244B01211800FDF75AFD031EF5D0F4
:1056400002E04B20FCF794FD1E4B08211800FDF7EB
:105650004FFD031EF5D002E04B20FCF789FD194BEE
:1056600002211800FDF744FD031EF5D08023190226
:10567000A023DB0501221800FDF757FD6420FCF78D
:1056800077FD80231902A023DB0500221800FDF717
:105690004CFD6420FCF76CFD80231902A023DB0580
:1056A00001221800FDF741FD6420FCF761FD802315
:1056B0001902A023DB0500221800FDF736FDC046C5
:1056C000BD4680BD0004005080B582B000AF786058
:1056D000734B1B780C2B00D9DDE09A00714BD3186B
:1056E0001B689F46704B1B78202B00D0BCE06E4B94
:1056F00001221A706A4B1B780133DAB2684B1A70B8
:10570000B2E07B68002B0ED1674B1B781D2B00D0BD
:10571000ACE0654B01221A70614B1B780133DAB2A1
:105720005F4B1A70A2E0604B1B781E2B00D09DE0EF
:105730005D4B01221A705A4B1B780133DAB2584B79
:105740001A7093E0584B1B78202B00D090E0564BFA
:1057500001221A70524B1B780133DAB2504B1A7087
:1057600086E0514B1B781F2B00D083E04E4B01226B
:105770001A704B4B1B780133DAB2494B1A7079E03F
:10578000494B1B78202B00D076E0474B01221A7042
:10579000434B1B780133DAB2414B1A706CE0424B39
:1057A0001B781F2B00D069E03F4B01221A703C4B45
:1057B0001B780133DAB23A4B1A705FE03A4B1B7830
:1057C000202B5DD1384B01221A70354B1B780133E9
:1057D000DAB2334B1A7053E0334B1B78202B51D184
:1057E000314B01221A702E4B1B780133DAB22C4B4D
:1057F0001A7047E02C4B1B781F2B45D12A4B0122F6
:105800001A70274B1B780133DAB2254B1A703BE034
:10581000254B1B78202B39D1234B01221A70204BAA
:105820001B780133DAB21E4B1A702FE01E4B1B7827
:105830001F2B2DD11C4B01221A70194B1B780133E1
:10584000DAB2174B1A7023E0174B1B78202B21D1AB
:10585000154B01221A70124B01221A70134B1B6850
:105860005A1C124B1A6015E0C04614E0C04612E004
:10587000C04610E0C0460EE0C0460CE0C0460AE05C
:10588000C04608E0C04606E0C04604E0C04602E06C
:10589000C04600E0C046C0461800BD4602B080BD0C
:1058A0000800002030C70008090000200400002084
:1058B00080B582B000AF264B1B78182B08D1244B43
:1058C00000221A70234B1B780133DAB2214B1A7075
:1058D000204B1B781B2B32D91F4B1B680322134014
:1058E00013D11D4B1B6864211800FAF7AFFC0B1E87
:1058F0000BD1194B1B68C82251001800FAF7A6FCFF
:105900000B1E02D101237B6019E0134B1B6803229D
:1059100013400AD1104B1B6864211800FAF796FC5B
:105920000B1E02D100237B6009E00B4B1B68032296
:10593000134002D101237B6001E000237B607B6880
:105940001800FFF7C1FEC046BD4602B080BDC0468C
:1059500019070020090000200400002090B583B042
:1059600002AF324B1B78642B5CD1304B00221A7093
:105970002F4B1B780133DAB22D4B1A702C4B1B784E
:105980000A2B08D12A4B00221A702A4B1B780133AC
:10599000DAB2284B1A70274B1B783C2B08D1254BC9
:1059A00000221A70244B1B780133DAB2224B1A7092
:1059B000214B1B783C2B0AD11F4B00221A701F4B26
:1059C0001B780133DAB21D4B1A70FFF771FF1B4BC6
:1059D0001B781A00184B1B781C00164B1B781849B3
:1059E00018480093230003F055FD174B1A68174B16
:1059F0001B781C00164B1B78164917480093230090
:105A000003F048FD154B1B68012B0BD10D4A0123F8
:105A100000210D20FFF738FD0F4A0123002100204F
:105A2000FFF732FDC046BD4601B090BD150700200E
:105A3000160700201707002018070020190700206C
:105A400008BB000884030020040000200800002098
:105A50000900002018BB000890030020000000206F
:105A600080B584B000AF78607B681A68104B1B6803
:105A70009A4219D10F4B1B780133DAB20D4B1A70D1
:105A80000023FB600BE00C4B1B680C4A99008A5802
:105A9000511C0A4A9B009950FB680133FB60FB686C
:105AA000072BF0DDFFF75AFFC046BD4604B080BDAE
:105AB0002007002015070020F8020020EC06002037
:105AC00080B582B000AF01237B6019E07B68B03302
:105AD0001800FFF72BFA0020FFF728FA1020FFF735
